S021000066697273745F73746167655F62746C5F65666D333267673131622E73333709
S3150FE100000A4880F308880A4800470000000000000C
S3150FE1001000000000000000000000000000000000EA
S3150FE1002000000000000000006805E10F90040020C9
S3150FE100305105E10F10B5DFF88811DFF8882101E0EE
S3150FE1004021B1491E1369DC07FAD411B96FF0020029
S3150FE1005010BD5060012010601169480702D54FF0BD
S3150FE10060FF3010BD002010BD03460020002900D14E
S3150FE10070704770B5DFF84C4153F8042BE260082561
S3150FE100802560491EDFF8382101E062B1521E25696C
S3150FE10090EE07FAD43AB12269940701D411B1E9E72F
S3150FE100A06FF0010070BD6FF0020070BD2DE9F047F2
S3150FE100B0DFF80861B36B804600209FB207B10127D5
S3150FE100C041F67133B3638A46DFF8EC301C681B687F
S3150FE100D0356845F0010535600024950812E0C9F34E
S3150FE100E00B09C9F580594FEA9909281B484538BFCD
S3150FE100F0814649465046FFF7B7FF010010D14C4400
S3150FE101000AEB890AAC420BD208EB84094846FFF7A2
S3150FE1011091FF0100E3D0316849084900316003E0FE
S3150FE101203268520852003260FFB20FB10021B1635B
S3150FE10130BDE8F08770B5214B21490246986B80B235
S3150FE1014000B1012041F671349C631B4C256824688C
S3150FE101501E6846F001061E609A6001225A605C69CC
S3150FE10160620704D500F01FF84FF0FF3070BD022291
S3150FE101705A605A69D4070ED5002918BF491EF8D11E
S3150FE1018009E00029196802D100F00EF88BE700F0BB
S3150FE101900BF8002070BD5A699407F2D500F003F809
S3150FE101A06FF0010070BD196849084900196008B17F
S3150FE101B000209863704779E704300E40080000404D
S3150FE101C0809698000C000040F8B53148016808693F
S3150FE101D0CD68846AAC4225D305F5E0418C4221D244
S3150FE101E0641B04192B4E2168B1421BD1E1682A4FDA
S3150FE101F04FF0FF3200F056F8B84213D100F040F855
S3150FE102000ED20268B2420BD18168A268914207D33E
S3150FE10210C1684FF0FF32284600F044F8B84201D0EA
S3150FE102200120F2BD0020F2BDF8B519480068056955
S3150FE10230C468AE6A361BAE19274604E0384600F0AD
S3150FE1024063F807F58057F26810198742F6D3294606
S3150FE10250204600F060F890B100F012F80CD2026877
S3150FE102600C498A4208D1C1684FF0FF32204600F0AF
S3150FE1027019F80949884201D00020F2BD0120F2BDEB
S3150FE102800648074900680918B1F5E04F70470000C5
S3150FE102902800E10F07B0CD5EE320BBDE2810E10FAA
S3150FE102A000F01EF030B50A4B1C6844F480741C60F4
S3150FE102B00125084B1D609A605D6002E010F8014B65
S3150FE102C09C610A46511E002AF8D1D86930BD00BF9C
S3150FE102D0B0400E4000C0014080B58308800700F0B2
S3150FE102E006F8042269469800FFF765FF02BD05D5BA
S3150FE102F04FF6FF7242EA01420092704741F07F41A9
S3150FE1030041F47F010091704780B5FFF713FF401E5F
S3150FE103108041C00F02BDF8B5140005460E4624D044
S3150FE1032005F0010104F00100014320D1AA0707D529
S3150FE1033036F8021B2846FFF7CFFFC0B9AD1CA41E46
S3150FE10340042C0CD3A708BF003A4631462846FFF7DF
S3150FE1035032FF790806EB41067D19E41B38B924B162
S3150FE1036031882846FFF7B8FF08B90120F2BD002012
S3150FE10370F2BD000080B51B481B4A01681B4811609E
S3150FE103804023C36001684A03FCD4FFF74DFF002801
S3150FE10390FBD040F2022000F033F8002002BD00004E
S3150FE103A010B5134C1348206000F04AF812490A6859
S3150FE103B0B2F5803F0AD040F20921884218BFB0F565
S3150FE103C0007F03D1FFF700FF00B110BD0B4A22609A
S3150FE103D01046016881F3088881F3098840688746EA
S3150FE103E0FEE70000880000208C00002004300E405C
S3150FE103F008ED00E00000E10F04500E400010E10FA0
S3150FE104004FF0005108804FF20F004880094801680C
S3150FE1041021F4E06141F400710160BFF34F8F0649AA
S3150FE1042006480A6802F4E06202430A60BFF34F8F9F
S3150FE1043000BFFDE700500E400CED00E00400FA05A9
S3150FE104404FF000514FF20F024888904201D10888D0
S3150FE104507047002804BF0888012802D140F2022024
S3150FE1046070474FF40070704730B450F8041B79B100
S3150FE104700268436802440830DC0744BFA9F101046E
S3150FE10480E31852F8045B43F8045B091FF9D1ECE773
S3150FE1049030BC704710B5074979441831064C7C4496
S3150FE104A0163404E00A68081D114488470146A14243
S3150FE104B0F8D110BD2C0000003C0000004EF688512B
S3150FE104C0CEF20001086840F470000860BFF34F8F69
S3150FE104D0BFF36F8F4FF00070E1EE100A7047000027
S3150FE104E089FFFFFF1000000094000000800000204C
S3150FE104F0000000000449054808600548026842F417
S3150FE10500700202607047000008ED00E02C00E10F79
S3150FE1051088ED00E00120C046002801D0FFF7BAFFC1
S3150FE10520AFF300800020AFF30080FFF723FF00F069
S3150FE1053000F800F001B800000746384600F002F86F
S3150FE10540FBE700002021090326311820ABBEF9E7AE
S3150FE10550024880470248804702480047F504E10F09
S3150FE10560A103E10F8D05E10FAD1007B0010000000A
S3150FE1057000000B010010E10F0080000080F0FA028D
S3150FE1058000800000C0EA2101C0EA2101AFF300803B
S30D0FE10590FFF794FFFFF7BEFF31
S7050FE1058D78
