S01D00006275696C642F64656275672F6F742D6E63702D6D74642E7333379F
S21400000000100020490300004503000045030000DF
S214000010DD380000450300004503000045030000EE
S21400002045030000450300004503000045030000AB
S214000030450300004503000045030000450300009B
S21400004045030000B93203004503000045030000E5
S214000050092A030025330300C5320300DD320300FE
S214000060BD320300D1070000A508000045030000CC
S214000070450300004503000045030000450300005B
S2140000804503000045030000C908000045030000C2
S214000090450300004503000045030000450300003B
S2140000A0450300004503000045030000450300002B
S2140000B029330300C1320300D13E00006933030038
S2140000C045030000951B03004503000045030000A0
S2140000D045030000450300004503000045030000FB
S2140000E045030000450300004503000045030000EB
S2140000F045030000450300004503000045030000DB
S21400010045030000450300004503000010B5054CFC
S214000110237833B9044B13B10448AFF300800123AE
S214000120237010BDCC13002000000000C4AA0300FA
S21400013008B5034B1BB103490348AFF3008008BD65
S21400014000000000D0130020C4AA0300154B002BAB
S21400015008BF134B9D46A3F5803A00218B460F46F9
S2140001601348144A121A2BF016FF0F4B002B00D020
S21400017098470E4B002B00D0984700200021040023
S2140001800D000D48002802D00C48AFF300802BF07D
S21400019071FE200029002BF06BFC2BF045FE00BF03
S2140001A00000080000100020000000000000000012
S2140001B0CC13002028600020000000000000000093
S2140001C008B5042201230521002002F0B5FD002019
S2140001D008BD08B5002318460422052102F0ACFD30
S2140001E0002008BD08B50121054801F0A1FD2BF04F
S2140001F0AFFBFFF7E5FFBDE8084000F009B800BF19
S21400020000350A000121014801F092BD00350A00C0
S2140002102DE9F0433B4D3C4FDFF80091DFF80081BD
S2140002200FCD87B06C460FC495E8030084E8030042
S214000230364C3748012101F07BFD3846012101F09C
S21400024077FD0125334B0293694620468DF80E5004
S21400025003F086F82B4604220621022002F06CFDED
S2140002602A4600230721022002F066FD2B460422C0
S2140002700821022002F060FD042211462B460020D1
S21400028002F05AFD244BA3670B23636710264FF436
S214000290487003F049FEC9F80060142003F044FEDD
S2140002A0C8F80060232003F03FFEC9F80060B921BB
S2140002B0204603F096F800231A46C8F80060062188
S2140002C0022002F039FD00231A460721022002F020
S2140002D033FD2B4600220821022002F02DFD0022CD
S2140002E010462B46042102F027FD204602F0CEFFE2
S2140002F00021A1673846616701F01AFD07B0BDE826
S214000300F08300BF285F0300005204000004014091
S21400031000350A0000127A000B0B000B0CA00044FC
S2140003200CA00046054A06491368184488428CBF4C
S2140003304FF0FF3310601846704700BF00100020D3
S21400034000000420FEE7000008B500F069F8064B40
S2140003500649074A8B4201D3FFF7F8FE52F8040F0E
S21400036043F8040BF6E700BF00100020CC13002073
S214000370C8AA03000048704700F04902104AD2F8A5
S214000380943003F00703023B032B13D8DFE803F097
S2140003900C14020E0B4B1B68D2F80001C0F30420AD
S2140003A00130B3FBF0F07047074BF4E7074B1B68D0
S2140003B05B08F1E7054BEEE74FF40043ECE700BFC0
S2140003C000400E4010100020081000200C100020E6
S2140003D008B5FFF7D3FF054BD3F80831C3F308235E
S2140003E00133B0FBF3F0024B186008BD00400E402E
S2140003F004100020014B1868704700BF081000204A
S214000400054B1860054BD3F8943003F00703022B16
S21400041001D1FFF7DDBF70470810002000400E40F6
S214000420044B054A9A60D3F8882042F47002C3F859
S2140004308820704700ED00E0000000004FF4004008
S21400044070474FF47A707047014B1868704700BFCA
S214000450101000202DE9F04F9B46584B85B01B78B6
S214000460109F9DF844A0DDF8508006468946154644
S214000470002B00F09280072A00F291800E9B002B42
S21400048000F08D800F9B002B00F08980129BB3F547
S214000490006F00F38480012801D1002F7FD0484BE5
S2140004A003EB05131B7B002B7BD0464C1022002150
S2140004B068462BF070FD04EB45141022B9F1000FCE
S2140004C05CD1494620462BF066FDA37843F0100326
S2140004D0A370E37843F03003E370BAF1000F03D162
S2140004E0DBB243F00303E3703649129BCDF800B04D
S2140004F06A01013B885A01EB020C63F30E10885226
S2140005000E9BCCF808300F9BCCF804309DF84C10AE
S2140005109CF80330012E61F383038CF8033042D13C
S2140005201323CCF80C309CE80F000CF1100E8EE86C
S2140005300F00DCF81C20CCF814706FF0030161F398
S2140005409F02B9F1010FCCF81C2004D10F9BCCF808
S2140005501830CCF804701A492A018B1841F802802A
S2140005600027159A5A6028469F605E7322466946A1
S21400057002F058FC384605B0BDE8F08F0021204652
S2140005802BF009FD1023A3700323E370BAF1000FCC
S214000590AAD1DBB243F03003A5E70B48EBE70B48E4
S2140005A0E9E70B48E7E7B8F1000FD4D19CF8023032
S2140005B068F304138CF80230CDE700BF68150020FE
S2140005C0E813002068140020028000F0018000F08C
S2140005D0078000F038B5104B1B780546BBB1C0B19C
S2140005E001F0D7FF0D49002301EB0312147B3CB941
S2140005F02B6001231373146001F0CFFF204638BD33
S2140006000133082BF0D101F0C8FF0548F7E705488D
S214000610F5E70548F3E700BF68150020E81300205B
S214000620048000F0028000F0018000F013B5164B45
S2140006301868019000238DF8043001F0AAFF134BD0
S2140006401C7824B101F0A9FF114802B010BD0122A8
S2140006501A7001F0A2FF0F4B1C731C7783F82C4016
S21400066083F83C4083F84C4083F85C4083F86C4049
S21400067083F87C4004230DEB03008DF8073002F06E
S214000680A7FB2046E1E700BF405F03006815002097
S214000690038000F0E813002010B588B00E9C079485
S2140006A00D9C06949DF8304005940B9C04949DF890
S2140006B0284003940024CDE9013400920B460246FC
S2140006C021462046FFF7C6FE08B010BD10B588B01C
S2140006D00E9C07940D9C06949DF8304005940B9C48
S2140006E004949DF8284003940024CDE90134009238
S2140006F00B46024601212046FFF7ACFE08B010BDAF
S21400070008B50A4B1B785BB107280BD8084B03EBE0
S21400071000131B7B43B1002102F050FB002008BDF4
S2140007200448FCE70448FAE70448F8E768150020A0
S214000730E8130020028000F0018000F0078000F03F
S21400074008B50A4B1B785BB107280BD8084B03EBA0
S21400075000131B7B43B1012102F030FB002008BDD3
S2140007600448FCE70448FAE70448F8E76815002060
S214000770E8130020028000F0018000F0078000F0FF
S2140007800D4B1B7893B1072812D889B10B4B03EB9E
S21400079000131B7B73B10A4B1A6A012303FA00F09D
S2140007A010401ABF00200B7008707047054870474D
S2140007B0054870470548704768150020E813002074
S2140007C000200E40028000F0018000F0078000F05C
S2140007D02DE9F843174E326EF36E12EA030800D581
S2140007E0FEE7154CDFF854900127002518EA070F9E
S2140007F016D02368B7669BB1A16862680131A16014
S21400080028469847637B012B0AD148B909EB451364
S214000810197B1A7F60F3410160F3410219731A775E
S2140008200135082D4FEA470704F11004DED1BDE874
S214000830F88300BF00200E40E81300206814002054
S21400084070B5094E0446012504B970BD94FAA4F0AB
S214000850B0FA80F005FA00F324EA030456F82030D4
S214000860002BF1D09847EFE76C150020054B4FF4AE
S2140008708022C3F880211A604FF48062C3F880217A
S2140008801A60704700E100E038B504460D4601F0F6
S21400089080FE034B43F82450BDE8384001F07DBE8F
S2140008A06C150020074BD3F82804D3F81C241040FE
S2140008B020F42A5020F02A004004400CC3F82404F8
S2140008C0FFF7BEBF00A00040074BD3F82804D3F8BC
S2140008D01C24104020F4AA4020F055000004000C10
S2140008E0C3F82404FFF7ACBF00A00040024B196811
S2140008F0024B18682DF0F4BF1810002014100020CA
S214000900704710B500239A4201D1002010BD50F860
S214000910234041F823400133F5E7000070B594000A
S214000920224605460E4602F0C3FB431C02D018B111
S214000930064800E0064870BD2246314628462BF0A1
S214000940F7FA0028034808BF0020F4E724E000F088
S21400095021E000F010E000F013B5044601A802F014
S2140009602FFC9DF80630238040F201136380064B6F
S2140009705B6B1B0E0A33012203F01F0302FA03F31C
S2140009800020636002B010BDB081E00F02F0C0BA74
S21400099008B502F0ADFA002008BD000010B5044608
S2140009A002F03EFB431C02D018B10D4800E00D4893
S2140009B010BD0D4B5B6B1B0E0A3303F01F020123A9
S2140009C0934023F0030320462344984201D100209D
S2140009D0EEE750F8042B0132F7D00448E8E700BFF2
S2140009E024E000F021E000F0B081E00F0EE000F01F
S2140009F008B501F0C7FD014B186008BD005F002078
S214000A00014B186801F0C2BD005F00200A4601399C
S214000A10014402F0EDBE000038B141B1013AB2F532
S214000A20006F044838BF00207047034870470148ED
S214000A30704700BF037000F0027000F038B504463F
S214000A400D4601F0A6FDA28892B222B92A6001F0F6
S214000A50A4FD064838BD6388142202FB034308330E
S214000A602B6001F09AFD0020F4E700BF0B7000F049
S214000A7038B504460D4601F08CFDA3889BB223B919
S214000A802B6001F08AFD0C4838BD6388E18814228B
S214000A9002FB034308332B6063885A1C92FBF1F376
S214000AA001FB13239BB26380A388013B9BB2A38008
S214000AB001F073FD0020E7E70B7000F07FB501231F
S214000AC080F82C3090F83230ABB9426B03680132B4
S214000AD042630C4A03920022049002924A680192F2
S214000AE0012200920A68016980681C33FFF7EEFD58
S214000AF007B05DF804FB012BE7D0002380F82C300C
S214000B00F6E700BFD91000007FB5012380F82D302E
S214000B1090F832309BB902683432436B013343633A
S214000B200E4B03930023049002934B68019301231A
S214000B3000930B68C1684068FFF7AEFD0BE0012B21
S214000B4006D10268136843F4005342F8283BE4E7F2
S214000B50002380F82D3007B05DF804FB610B000021
S214000B60F7B5144601A9906AFFF768FF636B013B6F
S214000B706363194B984220D0019B00251D619D6040
S214000B8001F007FD019AD768064627B1D2E900238F
S214000B9029462046B84701A9A06AFFF769FFA06A60
S214000BA083889BB263B101A9FFF748FF01992046ED
S214000BB0FFF7AAFF304601F0F0FC012003B0F0BDBD
S214000BC084F82D3094F83230012B01BF2268136868
S214000BD023F400531360EDE70B7000F0427E3023E1
S214000BE05343044A1A44437F03EBC2039B0018682E
S214000BF0C0B270471CA0104213B51D4A002352F81D
S214000C002340617F81420ED00133042BF7D102B01E
S214000C1010BD0028FBD19DF80730002BF7D0606888
S214000C20FFF76EFDF3E794F83130022BEFD1204644
S214000C30FFF7D4FF637D2075022BE8D194F82E30A1
S214000C4003F0FF02002BE2D102A9606801F8012D33
S214000C50FFF796FD237D1BB194F82F30002BD8D0DC
S214000C60002384F82F306068FFF76AFDCFE700BFE7
S214000C70EC1B002090F8323053B903680122DA608A
S214000C801A69D007FCD55A6F42F001025A677047BE
S214000C90012B0CD103685A6C9107FCD401225A60D0
S214000CA09A68D207FCD55A6D42F001025A65704721
S214000CB090F832303BB903685A6F22F001025A6747
S214000CC00222DA607047012B09D103685A6C92073A
S214000CD0FCD45A6D22F001025A6502225A6070470F
S214000CE00F49104B0A782AB9C3E90022C3E9022249
S214000CF001220A70002253F82210814208D00132E5
S214000D00042AF8D1002153F821201AB943F821000B
S214000D100020704701310429F5D10348704700BF11
S214000D20FC1B0020EC1B0020027000F010B50446EF
S214000D30FFF77CFC0021201DFFF74CFC014608B1A4
S214000D40044810BD04F10800FFF744FC0028F8D062
S214000D50F6E700BF0E7000F02DE9F0410446174696
S214000D60884601F016FCA388E2889A42054606D813
S214000D7000233B6001F011FC1148BDE8F08120889B
S214000D80142606FB00403246414608302BF0DFF8BA
S214000D9022882388E18806FB024208323A605A1C01
S214000DA092FBF1F301FB13239BB22380A38801334C
S214000DB09BB22846A38001F0F0FB0020DDE700BFD1
S214000DC00A7000F073B504460D46C07DE67E002925
S214000DD034D001230422314601F0AEFF0123022263
S214000DE0217F207E01F0A8FF94F83130022B16D127
S214000DF000230122617F607E01F09EFF0023042213
S214000E00A07EA17F01F098FF0123627F607E0193A0
S214000E100093114601F044FF002002B070BD032B82
S214000E20FAD100230122617F607E01F085FF002356
S214000E300422A17FA07E01F07FFFEDE70B460A4665
S214000E40314601F079FF2B462A46217F207E01F0AD
S214000E5073FF94F83130022B10D12B462A46617F5F
S214000E60607E01F069FF2B462A46A07EA17F01F036
S214000E7063FF627F607E01950123C9E7032BCBD118
S214000E802B462A46617F607E01F056FF2B462A4697
S214000E90CFE72DE9F04104460E461746FFF7BCFDA6
S214000EA0804650BB092001F089FB0546A26A93885C
S214000EB09BB213B194F82E3013B394F8322022BBB1
S214000EC023681D6915F0020533D0012384F83030FD
S214000ED0002A3FD13744BE42206836D103699E06B9
S214000EE0FCD555B994F83230002B42D123685A6F9E
S214000EF022F002025A670822DA604046BDE8F08116
S214000F00002DD4D0FFF764FCD0E7012A1BD123685C
S214000F109D6815F00205D8D1596C8807FCD40421C9
S214000F20596099688907FCD5596D41F002015965E9
S214000F30CBE70421D96019698907FCD5596F41F0C0
S214000F4002015967C1E70025BFE716F8011B02F04A
S214000F5052FAC0E7012AD0D13744B742206803D1FD
S214000F6083681907FCD5BCE716F8011B01F0B3FF30
S214000F70F3E7012BC1D123685A6C9207FCD45A6D53
S214000F8022F002025A6508225A60B6E710B50446F7
S214000F90B0B190F82E3033B990F83130022B0AD029
S214000FA06068FFF7ADFB94F82E300133DBB284F8AF
S214000FB02E30002010BDFFF711FE0028F3D1EFE71A
S214000FC00048F7E7027000F010B50446D0B190F87C
S214000FD02E30CBB190F82E30012B06D190F8313060
S214000FE0022B0AD06068FFF7ABFB94F82E30013B6B
S214000FF0DBB284F82E30002010BDFFF7EFFD00288E
S214001000F3D1EFE70148F7E70148F5E7027000F093
S214001010057000F037B590F83150022D044618D10F
S214001020A37F407D01229A40A37E30215943134B73
S2140010300B4410B903F1806303E0012805D103F1E6
S214001040C0631A60002003B030BD217D0029F6D1B0
S214001050F0E7012DF6D1037D73B911238DF8073023
S214001060FFF794FF2A460DF107012046FFF711FF10
S2140010702046FFF7A9FFE5E71323EFE70CA00040A3
S214001080F0B587B004461646FFF7C6FC0546F0B92D
S214001090CDE9011604936A460E4B606A039601A9D1
S2140010A00593FFF759FE054688B994F82C3073B9B6
S2140010B02046FFF7DFFD00992046FFF7FFFC94F877
S2140010C03130032B03D025752046FFF7A3FF2846B3
S2140010D007B0F0BD017000F073B5144601A9506A60
S2140010E0FFF7ACFC636B013B6363344B98422FD035
S2140010F094F83200019B002836D12268116C11F456
S214001100007128D02E49196198604FF400739364DB
S21400111001F03FFA0199CD68064635B14A688B68FA
S2140011202046D31A0A680969A84701A9606AFFF72A
S2140011309FFC606A8588ADB2002D2FD001A9FFF70D
S2140011407DFC01992046FFF7B9FC304601F025FAF0
S214001150012002B070BD106CC5051BD5194818617A
S21400116099604FF48073D2E7012813D12268D16AC0
S21400117011F0800106D01249196100219960802380
S2140011805363C5E7D06A400604D50E4818619960D7
S2140011904023F5E700221A619A60B9E70123237518
S2140011A02046FFF737FF94F8313084F82C50032B95
S2140011B0CBD02046FFF77CFDC7E700BF0B7000F0E2
S2140011C00D7000F00C7000F02DE9F041094F044658
S2140011D00D460FCF88B001AE0FC697E8070086E829
S2140011E00700002C00F0C68445B9034E304608B010
S2140011F0BDE8F081785F0300037000F0382200211C
S21400120020462AF0C8FE002363632046FFF768FDE9
S21400121006460028EAD12B7C84F83130CD4A2B686C
S2140012202360934284F8320040F07F81CA4B2362E9
S214001230CA4BE3604FF440232361D5E9062300261A
S214001240626216805680968084F82C60A3621E80A8
S2140012505E809E806B6803936B89ADF81430AB8913
S214001260ADF81230AB7B8DF810300121EB7BBC481B
S21400127084F82D6084F82F6005278DF816308DF8D9
S214001280117000F055FD0121B64800F051FD012116
S214001290206A00F04DFD01A928688DF8046002F070
S2140012A027F8D5F800C06A7ADCF878002B7A20F4A4
S2140012B0F85020F01F00104340EA03200321CCF82A
S2140012C07800CCF874102068DFF888C2604540F0DB
S2140012D06281BB4240F27A81981F042840F27881EE
S2140012E0A3F10B00B84240F27581A3F11100062865
S2140012F008D9A3F11801062940F26E811F2B14BFEE
S214001300FF213946042AE17540F26881511F0429FD
S21400131040F26681A2F10A01052940F26381A2F13A
S2140013201001062940F26081A2F11701072940F258
S2140013305D811F2A14BFFF2100212176002B58D083
S214001340012B56D0022B54D0032B52D0042B50D056
S214001350052B4ED0062B00F05381072B00F0528150
S214001360082B00F05181092B00F050810A2B00F069
S2140013704F810B2B00F05A810C2B00F039810D2B7E
S21400138000F038810E2B00F037810F2B00F03681ED
S214001390102B00F03581112B00F02E81122B00F05F
S2140013A02D81132B00F02C81142B00F02B81152B94
S2140013B000F02A81162B00F02981172B00F02881D7
S2140013C0182B00F02781192B00F026811A2B00F02D
S2140013D025811B2B00F024811C2B00F023811D2B64
S2140013E000F022811E2B00F021811F2B0CBF07234B
S2140013F0FF23E376002A00F0A983012A00F0A883E1
S214001400022A00F09183032A00F09083042A00F059
S2140014108F83052A00F08E83062A00F08D83072A24
S21400142000F08C83082A00F08B83092A00F08A8358
S2140014300A2A00F06F830B2A00F06E830C2A00F055
S2140014406D830D2A00F06C830E2A00F06B830F2A42
S21400145000F07083102A00F06383112A00F0628384
S214001460122A00F06783132A00F06683142A00F01D
S2140014706583152A00F06483162A00F06383172A12
S21400148000F06283182A00F06183192A00F0608356
S2140014901A2A00F049831B2A00F048831C2A00F011
S2140014A047831D2A00F036831E2A00F035831F2A44
S2140014B014BFFF23002323776B7C6376AB7C6377B4
S2140014C0EB7CA3762B7DA37701212046FFF77AFCE1
S2140014D0064600287FF48AAE01F05BF82F7C032FC7
S2140014E0804640F037832B682A8CDA675A6E42F0C3
S2140014F004025A665A6F42F030025A6728684FF064
S214001500FF3383642B7C032B0CBF0521042101F0E1
S214001510B5FE2B684FF44062DA602046FFF706FC03
S2140015200646404601F039F860E60F4A934206D177
S2140015300E4B23620E4BE3604FF450237CE60D4ABD
S21400154093421DD10C4B23620C4BE3604FF4602397
S21400155072E600BF000001400042040001000C00DB
S2140015604041050000350A00000401400052040016
S21400157001000D00000801400062040001000E009A
S214001580C54A93427FF431AEC44B2362C44BE3603A
S2140015904FF4702350E6DFF80CC3604548D1052BA6
S2140015A014D9981F042813D9A3F10B00052811D9C4
S2140015B0A3F1110006287FF6A5AEA3F118010629AF
S2140015C00AD91F2B14BFFF2105219BE6314699E659
S2140015D0012197E6022195E6394693E60021ACE61E
S2140015E00121AAE60221A8E60321A6E60521A4E633
S2140015F00723FEE60823FCE60923FAE60A23F8E6B4
S2140016000B23F6E60C23F4E60D23F2E60E23F0E6B3
S2140016100F23EEE60023ECE60123EAE60223E8E6E3
S2140016200323E6E60423E4E60523E2E60623E0E6F3
S214001630DFF874C2604540F03981042B40F2F88030
S214001640591F032940F2F680A3F10901042940F24C
S214001650F380A3F10E010E2940F2F080A3F11D01E4
S214001660012940F2ED801F2B14BFFF210A21032A17
S214001670E17540F2E780111F032940F2E580A2F1F0
S2140016800801042940F2E280A2F10D010E2940F281
S214001690DF80A2F11C01022940F2DC801F2A14BF61
S2140016A0FF2100212176002B00F0DC80012B00F0CA
S2140016B0DB80022B00F0DA80032B00F0D980042BAD
S2140016C000F0D880052B00F0E380062B00F0E280C7
S2140016D0072B00F0C180082B00F0C080092B00F01B
S2140016E0C3800A2B00F0C2800B2B00F0C1800C2BAD
S2140016F000F0C0800D2B00F0BF800E2B00F0C880DD
S2140017000F2B00F0C780102B00F0A880112B00F0E4
S214001710A780122B00F0A680132B00F0A580142BB8
S21400172000F0A480152B00F0A380162B00F0A280FA
S214001730172B00F0A180182B00F0A080192B00F0CA
S2140017409F801A2B00F09E801B2B00F09D801C2B88
S21400175000F09C801D2B00F09B801E2B00F09A80D2
S2140017601F2B0CBF0223FF23E376002A00F0D28152
S214001770012A00F0D181022A00F0D081032A00F06D
S214001780CF81042A00F0E081052A00F0DF81062AD6
S21400179000F0DE81072A00F0C781082A00F0BA812F
S2140017A0092A00F0B9810A2A00F0B8810B2A00F055
S2140017B0B7810C2A00F0B6810D2A00F0C5810E2AEA
S2140017C000F0C4810F2A00F0AF81102A00F0AE812D
S2140017D0112A00F0AD81122A00F09C81132A00F035
S2140017E09B81142A00F09A81152A00F09981162A06
S2140017F000F09881172A00F09D81182A00F09C813D
S214001800192A00F09B811A2A00F09A811B2A00F000
S21400181099811C2A00F098811D2A00F097811E2AC3
S21400182000F096811F2A08BF052318BFFF2342E653
S21400183031461CE708211AE7012118E7394616E762
S2140018400A2114E700212DE708212BE7012129E7CB
S214001850052127E70A2125E7022385E7032383E7F7
S214001860042381E705237FE706237DE707237BE73D
S214001870082379E7092377E70A2375E70B2373E73D
S2140018800C2371E70D236FE70E236DE70F236BE73D
S214001890002369E7012367E7000C0140007204009B
S2140018A001000F000004014000080140B34EB042A2
S2140018B07FF49BAC072B21D9A3F10801012940F244
S2140018C0EF80A3F10A01052940F2EC80A3F1100194
S2140018D0012940F2E980A3F11201052940F2E680D1
S2140018E0A3F11801042940F2E380A3F11D010129A8
S2140018F040F2E0801F2B14BFFF210A21062AE17563
S21400190040F2DA80D11F012940F2D880A2F1090105
S214001910052940F2D580A2F10F01012940F2D280BC
S214001920A2F11101052940F2CF80A2F11701042986
S21400193040F2CC80A2F11C01022940F2C9801F2A85
S21400194014BFFF2103212176002B00F0C780012B56
S21400195000F0C680022B00F0C580032B00F0CC8080
S214001960042B00F0CB80052B00F0CA80062B00F07D
S214001970C980072B00F0C880082B00F0B580092B23
S21400198000F0B4800A2B00F0A5800B2B00F0A4809A
S2140019900C2B00F0A3800D2B00F0A2800E2B00F085
S2140019A0A1800F2B00F0A880102B00F0AB80112B2D
S2140019B000F0AA80122B00F0A980132B00F0A8805C
S2140019C0142B00F09180152B00F09080162B00F061
S2140019D08F80172B00F08E80182B00F08D80192B2F
S2140019E000F08C801A2B00F08B801B2B00F08A8076
S2140019F01C2B00F089801D2B00F088801E2B00F029
S214001A0087801F2B0CBF0223FF23E376002A00F0FB
S214001A108780012A00F08680022A00F08B80032A45
S214001A2000F08A80042A00F08980052A00F0888069
S214001A30062A00F08780072A00F08A80082A73D0DA
S214001A40092A67D00A2A67D00B2A67D00C2A67D0E3
S214001A500D2A67D00E2A6DD00F2A71D0102A71D0A9
S214001A60112A71D0122A71D0132A71D0142A5BD091
S214001A70152A5BD0162A5BD0172A5BD0182A5BD0B3
S214001A80192A5BD01A2A5BD01B2A5BD01C2A5BD093
S214001A901D2A5BD01E2A5BD01F2A08BF0823C4E677
S214001AA008212BE7012129E7092127E7022125E75D
S214001AB0052123E70A2121E7032144E7082142E71D
S214001AC0012140E709213EE702213CE705213AE7EC
S214001AD00A2138E7062398E7072396E7082394E7C2
S214001AE0092392E70A2390E702238EE703238CE775
S214001AF004238AE7052388E70B2386E70C2384E77D
S214001B000D2382E70E2380E70F237EE700237CE782
S214001B1001237AE70623CEE40723CCE40823CAE4AD
S214001B200923C8E40A23C6E40323C4E40423C2E466
S214001B300523C0E40B23BEE40C23BCE40D23BAE467
S214001B400E23B8E40F23B6E40023B4E40123B2E482
S214001B500223B0E4022F7FF4D1AC607F0849FEF781
S214001B6093FEFEF783FEA675267567752046FFF77B
S214001B7051FAC3E4034EFFF739BB00BF000C014027
S214001B80F90B0000027000F0F0B587B00446164668
S214001B90FEF742FF054600BBCDE9011604936A46F0
S214001BA00F4BA06A039601A90593FFF7D5F80546E3
S214001BB098B994F82D3083B900F0EBFCA36A9B88A3
S214001BC09BB2064633B100992046FEF79DFF0123DF
S214001BD084F83030304600F0E0FC284607B0F0BD10
S214001BE0017000F00C4B984210D90C4B984210D95B
S214001BF0022201230A490B600A49D1F8003123F07A
S214001C00807343EA0263C1F800317047002213462E
S214001C10F0E70122FBE700BF0048E8010090D00390
S214001C204000C84300400E400E4B30B50E4C5B687B
S214001C30C9B2002304EBC30215798D4203D154F8D0
S214001C40335085420BD20133052BF3D103220549CD
S214001C504B6823F0407343EA02634B6030BD527911
S214001C60F5E700BF00000E40A45F030038B5074C40
S214001C7041F67133256C2364FEF77CFB0021FFF7E9
S214001C80D3FF0DB10023236438BD00BF00000E4013
S214001C90044B1B685B0603D4034A1368002BFCD175
S214001CA0704700BF3C300E40C800C64308B5FFF77B
S214001CB0EFFF024B5868C0F3014008BD00300E40ED
S214001CC0044BD3F84421D20703D4D3F84021104262
S214001CD0FBD1704700400E400C4AD2F89030516A53
S214001CE00B4B21F0300141F0100110B55162146B1E
S214001CF0C0F3C31103310F2903EA040328BF0F21E1
S214001D00034343EA0173136310BD00BF00400E4057
S214001D1000F8FF0F38B5054C41F67133256C236487
S214001D20FFF782FF0DB10023236438BD00000E408C
S214001D30C0F30322013A38B50546092A13D8DFE86E
S214001D4002F023131212051619121C20104C002044
S214001D50C5F3043508B1FFF7B3FF04F1047405EBCF
S214001D60C404A400216038BD00200A4CF0E701201E
S214001D70094CEDE71020094CEAE74FF48030084C98
S214001D80E6E70020074CE3E70020074CE0E700BF4B
S214001D90B0400E40C0400E40E0400E40E8400E40CE
S214001DA0F0400E4050410E4000400E40C0F303137A
S214001DB0013B092B2AD8DFE803F0050B0F19292968
S214001DC01F23374B274BD3F80001C0F3042070477E
S214001DD0244BD3F81401F8E7224BD3F80001C0F3E4
S214001DE00060431C01209840013870471D4BD3F813
S214001DF00C01C0F3082070471A4BD3F80801F8E727
S214001E00194B984204D0194B984207D000207047CF
S214001E10144BD3F8203103F00F03E3E7114BD3F84C
S214001E202031C3F30113DDE7114B98420CD003F5C4
S214001E30B01303F580539842E8D10A4BD3F8280133
S214001E40C0F30120031DCDE7064BD3F82831E8E7A1
S214001E50084B9842DAD1034BD3F8300100F0030068
S214001E60704700BF00400E408006160080162E0009
S214001E7090171A00A009140008B5FFF797FF013065
S214001E8008BD000000F00F000138072848D8DFE83A
S214001E9000F0040F1947232D4735244BD3F8943010
S214001EA003F00703023B052B3CD8214AD05C704761
S214001EB01E4BD3F8803003F00703013B032B33D8C7
S214001EC01C4AF3E7194BD3F8843003F00703013BB1
S214001ED0032B29D8184AE9E7144BD3F8883003F0C7
S214001EE00703013B032B1FD8144ADFE70F4B1B6F7A
S214001EF013F0010F14BF0920072070470B4BD3F8CF
S214001F005C3103F03003202B06D0302B06D0102B8C
S214001F100CBF072001207047042070470820704738
S214001F2000207047052070470120704700400E4093
S214001F30945F03009A5F03009E5F03009A5F0300AE
S214001F4008B50146FFF79EFF1B4B994211D01B4B6D
S214001F50994212D01A4B994204D11A4BD3F88000FA
S214001F6000F007000138032824D8DFE800F00A0E46
S214001F701612144BD3F88400F2E7124BD3F88800FD
S214001F80EEE7BDE80840FEF759BABDE80840FEF7A0
S214001F905BBABDE80840FEF754BAFEF7EFF9094B06
S214001FA0D3F80031C3F300635A1C01239340B0FBFF
S214001FB0F3F008BD0020FCE7030020000500240025
S214001FC002001E0000400E4000F47813B3F5B01F68
S214001FD010B504467DD029D8B3F5202F07D00AD8EF
S214001FE0B3F5003F62D0B3F5802F54D05BB9BDE89F
S214001FF01040FEF7C3B9B3F5602F00F0838004D815
S214002000B3F5402F58D0002010BDB3F5801F00F068
S2140020109080B3F5A01FF6D14C48FFF791FF4C4BCC
S214002020D3F8303103F00303D840EDE7B3F5101FC3
S21400203066D011D8B3F5F01F46D0B3F5001F53D0C5
S214002040B3F5D01FDFD14348FFF77AFF404BD3F8F4
S2140020502821C2F3011244E0B3F5401F46D00BD846
S214002060B3F5381FCFD13C48FFF76AFF384BD3F89B
S2140020702031C3F30113D7E7B3F5481F4BD0B3F5B0
S214002080781FC0D1FEF77AF901462046FFF7F4FE26
S214002090B1FBF0F0B8E7FEF771F92D4BD3F80C3131
S2140020A0C3F308230133B0FBF3F0ADE7FEF766F9A0
S2140020B0274BD3F80831F3E7FEF760F9244BD3F843
S2140020C01431C3F30423EDE72348BDE81040FFF7BF
S2140020D037BF2148FFF734FF1D4BD3F8202102F00D
S2140020E00F0201239340DEE71A48EEE71948FFF790
S2140020F027FF174BD3F82831C3F301231A1DF0E747
S2140021001248E2E71548FFF7BDFE072811D0092858
S2140021107FF479AF6BE71248FFF7B4FE072808D0C4
S214002120082809D004287FF46EAFBDE81040FEF7FB
S21400213061B90C4B186867E7FEF720F9044BD3F833
S2140021400031C3F3042303FB00005DE70500240011
S21400215000400E400300200002001E0006000E0095
S214002160B800320038100020014B1880704700BFBE
S2140021703C1000200E4B5A6A12F0300F04D0202973
S21400218013D0302900D011B94FF4400200E0094ABC
S214002190D3F8901032EA0101FAD1520246BFD3F8C2
S2140021A0A000C0F38020012070474FF40002EFE744
S2140021B000400E40FF33E10702280AD129B1064B42
S2140021C04FF48060C3F8A800596612B10220FFF7EA
S2140021D0D1BF0120704700BF00400E40F8B504286C
S2140021E050D8DFE800F00A03116F74008026402400
S2140021F006230725002951D048E04FF400764FF417
S214002200807408230925F5E7002944D0324C636A18
S21400221013F0300F37D1314BDB6B636ADB0705D524
S214002220636A23F0300343F010036362042402233E
S2140022300325294E34662A4E33449B001F68002F20
S214002240FCD0FAB13544AD002B68002BFCD0022838
S21400225018D1B9B1204E716A11F0010118D00122CF
S2140022602021FFF7A9FFD6F89C700122002102204A
S214002270FFF7B4FFC7F30A00FFF72EFD34662B689E
S214002280002BFCD0F8BD0424022303250021D0E750
S214002290FFF770FFE7E70826022303250E49012013
S2140022A00E6600FA03F3D1F890001842FBD1002A1C
S2140022B0E8D00123084A03FA05F5D2F890302B42FD
S2140022C0FBD1DFE7012402260023254692E72026DD
S2140022D01024042305258DE700400E4000300E40F4
S2140022E08004F210112870B506460C4626D1042943
S2140022F012D1FEF77FF80546A8B10021284600F067
S21400230087FA06F00F06013E072E6FD8DFE806F0C4
S21400231023186A6E68886E93052904D1614B1D6880
S214002320614B9D42E9D8023C0A2C5FD8DFE804F0F6
S2140023301E4E40475E5E5E5E5E52B5000025E0E7DC
S2140023405A4D013C092C51D8DFE804F0685158502A
S214002350505F5050504E023C0A2C47D8DFE804F03D
S2140023600737293046464646463B3E0000250020B5
S214002370042401221146FFF731FFFFF777FC0DB169
S214002380FFF786FC4A4B5C67FEF722F80446FDF72B
S214002390F5FFFFF727FCFFF789FC01462046FFF70D
S2140023A0B9FC1DBB28460121BDE8704000F030BADC
S2140023B000254048FFF716FC02200446D9E7002512
S2140023C03C48FFF70FFC01240320D2E7002501203C
S2140023D00324CEE7002503200524CAE70724CCE71C
S2140023E0354DAEE7354DACE704232B6070BD0122BA
S2140023F011460020FFF7F2FE0223F6E701221146FF
S2140024001046FFF7EBFE0123EFE7FDF7B7FFFFF7F8
S214002410E9FB2B4B01221A600323E6E70023E4E7DF
S214002420072C04D0092CE1D1214B012201E0204BDE
S21400243000221A67DAE7013C072CD7D801A353F825
S21400244024F000BF97240000ED230000ED230000D9
S21400245089240000ED230000ED2300007B2400000B
S2140024606524000003221249D1F85C3123F03003C2
S21400247043EA0213C1F85C31B8E701221146042092
S214002480FFF7ACFE0122EEE7012211460220FFF71D
S214002490A5FE0222E7E70022E5E7FFF7E7FB0025B7
S2140024A007246FE70C100020002D310180400E40FD
S2140024B000400E400148E80188400E4084400E402F
S2140024C00816C84310B504461120FFF7DBFC0122AE
S2140024D000210220FFF782FE174A217C536A23F070
S2140024E00103022908BF43F001035362134B21780E
S2140024F01960637AA18843EAC123D362136BA07A7A
S214002500217A03F07F630343E08843EAC02343EA6B
S214002510C11303310F2928BF0F2143EA0173136348
S214002520A37B617B1B0143EA0133E17B0B43217BE9
S21400253043EA0143536310BD00400E40A004C84365
S214002540014638B51120FFF79DFC0C4D0C4BAA6BCD
S2140025500C7813401C434B7844EAC3248B7844EA37
S2140025600364CB7844EA0324AB6BA34205D0002176
S21400257001220846FFF732FEAC6338BD00400E402D
S21400258080E4FFF8EFF3108072B6704700B962B6C9
S2140025907047EFF3108072B67047FFF7F7BF000082
S2140025A04109054A00F01F0352F82100D840C043F5
S2140025B000F00100704700BF00E100E010B50446DF
S2140025C0EFF31083DB0733D4FFF7EAFF00282ED1A2
S2140025D0002CA7BF04F1604404F5614404F00F0426
S2140025E0144BACBF94F800231A5D5209EFF3118325
S2140025F013B1B2EB531F1BD20F4C6368C3F308032F
S214002600ABB1103BDBB259B20029B5BF03F00F03E4
S21400261001F16043043B03F56143B6BF1B1993F811
S2140026200003187E4009824234BF0020012010BDFE
S2140026300120FCE714ED00E000ED00E00E2910B5E7
S21400264043680DD801228A4047F2E004224223F074
S2140026501F0306D140F61F74224201D01943416081
S21400266010BD41F01001F9E770B5066A056A046A04
S214002670036A102AC1E90065C1E9024307D1056A69
S214002680046A026A036AC1E90454C1E9062370BDFC
S214002690034B186880F04000C0F38010704700BFFE
S2140026A03C300E4042EA032340F2011293422BD004
S2140026B0B3F5817F08D2012B1DD030D3B3F5807FD0
S2140026C031D0002213461CE040F20122934222D071
S2140026D006D8B3F5007FF4D1174BD3F870310DE070
S2140026E0B3F5407F23D040F201329342E9D1124B3A
S2140026F0D3F878310BE0104BD3F87431C3F30722CC
S214002700DBB203600A6070470B4BD3F874311A0EC5
S214002710C3F30743F5E7084BD3F87831EEE7064BEB
S214002720D3F86C31EAE7044BD3F86C31EFE7024B91
S214002730D3F87031EBE700BFB081E00F08B5FFF7C4
S214002740A7FF18B1024A1368002BFCD108BD00BFD2
S214002750C800C643154B0228D3F8803113D003288F
S21400276014D0012814BFDBB2C3F307231B0323F4E2
S2140027707042B1B9BAB90E49CA6E22F47042134318
S214002780CB6601207047C3F30743EFE71B0EEDE768
S2140027900749D1F8EC2022F470421343C1F8EC301C
S2140027A0EFE7002AF4D00020704700BFB081E00FAA
S2140027B000300E4070B504460E46FFF769FF10B3B2
S2140027C0FFF7BCFF104B5B68C3F301439C421AD073
S2140027D00E4BD3F80031FDF7D1FD022C054602D191
S2140027E02146FFF797FAC4F1020210239340064AE7
S2140027F013610EB1FFF7A2FF2CB921462846BDE8AB
S2140028007040FFF787BA70BD00300E4000400E40A3
S21400281038B502460D46FFF73BFFB8B142B90C4B40
S214002820D3F80041FDF7AAFDC4F3042202FB000220
S214002830084B1B7829463BB1074B9A4204D8022026
S214002840BDE83840FFF7B6BF0020F9E738BD00BF47
S21400285000400E40041C0020002D31010378134A6E
S214002860002B437870B514BF04260026002B83780F
S214002870946914BF02250025002B037924F03F0439
S21400288043EA0403C47814BF08210021012C08BFC2
S21400289043F0010333432B430B43936113684179A1
S2140028A023F4403343EA0143136070BD00300E400A
S2140028B0224B4AF6E85210B5596B5A639A6FD40702
S2140028C0FCD41B6C13F003031EBF1D4A01241460C6
S2140028D0834203D108B91A4B186010BD032B17D0DA
S2140028E0B3B1164A1446936FDB07FCD4136C23F07F
S2140028F0030303431364A36F13F00103FBD10030FB
S2140029000F4A18BF01200129106008BF6363E4E77F
S214002910431E012BE5D8094B4FF40022DA629A6F6A
S214002920D207FCD41A6C22F0030242F001021A64A9
S214002930024A536A1C03FCD5D3E700BF00300E40A2
S214002940B40AC6432DE9F04F002389B0CDE902331F
S214002950CDE90433CDE90633A0F5E163B3F5966F10
S21400296005460191934603D9002009B0BDE8F08FD3
S2140029704D4BB0F5E16F8CBF4FF0010A4FF0000AE7
S214002980D3F8683100F083801A0EC3F3074307922A
S21400299004934FF496694FF4E164DFF81081D8F899
S2140029A04C70C7F301773B46524605A902A8FFF7CD
S2140029B079FED8F8EC60C6F301263346524606A9DF
S2140029C003A8FFF76FFE0798049A2C1B811A614331
S2140029D0B1FBF9F3D1182CBF012300238842C3D3DF
S2140029E0002BC1D1069A0398131A6343B3FBF9F37D
S2140029F010EB030A2CBF012300235245B4D3002B4F
S214002A00B2D1059B029A981A4443B4FBF9F912EB2B
S214002A1009092CBF012000204B45A5D30028A3D1CF
S214002A20BBF1000F0ED0D8F85C3023F4FE4323F041
S214002A300203B5F5E16F43EA012318BF0220034302
S214002A40C8F85C30019B63B300213846FFF782FE6E
S214002A50002889D001213046FFF77CFE002883D06D
S214002A60124A536ED14538BFD14623F4FF73B9F1ED
S214002A70E70F23F0010328BF4FF0E709B5F5E16F34
S214002A8018BF43F0010343EA490353666DE7C3F3F7
S214002A900722DBB2079204934FF416794FF496643C
S214002AA07BE7012061E700BFB081E00F00300E40F9
S214002AB0304B1A6FD96CC90702F0070242D5012ABB
S214002AC040D9132851D9143813288CBF1023082353
S214002AD02849013BCA6C180322F47F4240EA0323CC
S214002AE01343CB64244BCA6C1B88C2F303222833DF
S214002AF0013202EB820003EB5303B3FBF0F3C86C26
S214002B00013B072B20F0EE6028BF072340F480101F
S214002B1040EA0363CB64194BB3F90030002B10DB9B
S214002B202833500800EB420203EB5303B3FBF2F3E7
S214002B300A6D072B28BF072322F0700242EA031310
S214002B400B657047DB6CD90706D4012A04D8092820
S214002B500BD90A380928B8E7064BDB6C13F00103DB
S214002B60B6D0012A03D82728AFE70423B0E700230E
S214002B70AEE700BF00300E40001C0020021C002004
S214002B80054A064B1B68136F23F007031843044BD4
S214002B9010671888FFF78CBF00300E408009C643C8
S214002BA0FE1B0020364B022270B59A639B6B03F027
S214002BB00F039342044602D00025284670BDC18804
S214002BC08588B0F90C604A294ED9B1F5FA7F4DD305
S214002BD040F6C313994294BF4FF000514FF0405156
S214002BE02748C36C23F0405323F00103002EA8BFF0
S214002BF043F001030B43C364D0F8EC3043F4407356
S214002C00C0F8EC301F4B1D80C36E43F08073C36664
S214002C101D4B186800B10420FFF7B2FF1B4B21893B
S214002C2019801B4BB4F90C20A0881A80FFF740FFD0
S214002C30A37BF3B1012B20D0012211466088FFF759
S214002C4081FE05460028B7D00D4A6078D36B43F462
S214002C508063D363FFF72CFEA37AA3F120025342CE
S214002C6053410C4A1360A8E70021B9E74FF08051A2
S214002C70B6E7034B084A9A65DEE7014B074AFAE7D0
S214002C8000300E40FE1B00208009C643001C0020BA
S214002C90021C00209407C64377402057372110B700
S214002CA0072A70B501F003014FF00F0523D89600F0
S214002CB01A4CB540256004F10074B0402060032033
S214002CC0B04001FA06F61649086001F100710E6080
S214002CD01449114489000B609DF81030C1F880300B
S214002CE0012303FA02F2104BC3F824249DF8143093
S214002CF0C1F8003370BDA2F10804A4000B4EA54035
S214002D0035600B4DA04028600320A04001FA04F473
S214002D100849086001F100710C60D9E700A400447E
S214002D2008A400448020851000A0004004A40044AD
S214002D3004A400460CA40044F0B54AB130261E4C4C
S214002D40012546438D4034440BB304F1C06425602E
S214002D503024444304F18044072904F5204419D85C
S214002D6065688E000F27B74025EA070502FA06F6C3
S214002D703543656052B9012202FA01F13022504310
S214002D800D4A0244A3B102F1C0621160F0BD04F125
S214002D908064DCE701F18045083DA668AD000F279A
S214002DA0AF4026EA070602FA05F53543A560E1E7D7
S214002DB002F18062E9E700BF0CA00040034B034429
S214002DC09B0081F001011960704700BFA001F1105F
S214002DD010B5044601214FF4AA40FEF7A9FFB4F847
S214002DE0013022785BBA9BB243EA02630B4A136057
S214002DF000231362D36253634FF00043D3664FF051
S214002E00FF339366064A4FF40071C2F88011E378E8
S214002E105B01DBB282F80933116010BD00200E4062
S214002E2000E100E02DE9F041254D91F80BE091F826
S214002E300AC00F7B0C464FF03008C3B2012608FBD1
S214002E4000509E402368497BC0F880304FEA0E53FE
S214002E5043EA0C4343EA475322F00302C0F88810C3
S214002E60C0F88430C0F89820AE66FFF792FBEB6E91
S214002E703343EB66237A13B16B6B33436B63637A2E
S214002E8013B1EB6A3343EB6222792B6822B1D2434B
S214002E90120262F47F42134062790AB143EA0223C7
S214002EA0A2790AB123EA0203E27902B11343044A83
S214002EB01360044B1E60D663BDE8F041FFF76DBBA0
S214002EC000200E4028200E44036CDB0702D4436C1F
S214002ED00B42FCD1704710B502460C469368DB06E1
S214002EE0FCD540211046FFF7EFFF946210BD0000AE
S214002EF0054B5A685B68054B41F671321A649A684E
S214002F0022F001029A60704700300E4000000E402A
S214002F10034B9A6822F001029A6000221A647047F6
S214002F2000000E40094A0A4BD969C90705D512B9EF
S214002F306FF002007047013AF6E7002AF8D0012247
S214002F401861DA60D86940F3800070478096980070
S214002F5000000E4070B509B9002070BD0E4A00236F
S214002F60082550F8234094610C4CD5600133D6698F
S214002F70F60705D514B96FF00200EEE7013CF6E758
S214002F80002CF8D0D469A40702D49942E9D1E3E72B
S214002F906FF00100E1E700BF00000E408096980049
S214002FA02DE9F8431C4B884641F671311D6C1964B7
S214002FB01A49074648684968996841F00101ADB268
S214002FC0996096084FF00009B14501D3002005E04E
S214002FD007EB89042046FFF7A5FF48B10E4B9A6819
S214002FE022F001029A600DB100221A64BDE8F8834F
S214002FF0C4F30A04C4F50064A408A6EB09039C42C3
S21400300028BF1C4621464046FFF7A4FF0028E5D10E
S214003010A14408EB8408D7E700000E4000300E40BD
S214003020204B41F671311A6C10B519641E494C6874
S2140030304968996841F00101996001211861D960D9
S214003040D9694C0792B209D5996821F001019960B7
S2140030500AB100221A644FF0FF301FE00221134C21
S214003060D9601946D869C00700D56CB9C8698B689D
S21400307010F0020023F001038B6007D00AB1002392
S2140030800B646FF0010009E0013CEBE724B902B1E4
S2140030900C646FF0020001E00AB1086410BD10462F
S2140030A0FCE700BF00000E4000300E4080969800FF
S2140030B0FFF776BF014B01229A60704700500E4022
S2140030C0124BF0B55C68124D124E00231846376856
S2140030D0EA187F0751685A5908D4B2F5806F03D0B2
S2140030E00DD8B2F5007F01D141F48071144202D0B0
S2140030F0214208BF10430833482BE8D1F0BDB2F593
S214003100006FF1D0B2F5803FEDE700BF00500E40F3
S214003110CC5F0300E841E00F8B784A789B0143EAD6
S21400312082030A781343CA7843EA02130A7943EA09
S214003130C2234A7943EA02338A79043043EA424397
S2140031400001014A1350704700200440014B1860EC
S214003150704700BF00008442427801790378002A55
S214003160827870B514BF04260026002AC27814BFE1
S21400317010250025002A42794FEA023242EA01224F
S21400318042EA0302837914BF20240024002BC3796B
S21400319042EA034343EA0603027A43EA050314BFFE
S2140031A04FF4004100212343002A14BF4FF400329D
S2140031B000220B431343014A136070BD00200440F5
S2140031C00B4A536911699B0003F03C03C1F381115C
S2140031D00B438370136903F03F0343709369D2690E
S2140031E003F0F003C2F3031213430370704700BFEB
S2140031F0D0FF0FE070B5054616461C4619B91448B0
S214003200FEF7E2FE0146202C08D001D8ECB170BDD6
S214003210402C18D0602CFAD1042200E0082206FBCD
S21400322002F35A0802EB4112B2FBF3F2094B203AC2
S21400323003EAC2022B6823F060032B602B681C4352
S2140032402C606A61E3E70622E9E71022E7E700BFA1
S21400325040410500F8FF7F0038B50546144619B909
S2140032600548FEF7B1FE014601396400B1FBF4F1F2
S2140032700902696138BD00BF40410500CB435B00D1
S21400328003F00A03C360C1607047000040F6AA63FB
S214003290C36041F20502002303604260104A836067
S2140032A04361C3648264036643678367C3670D4BE9
S2140032B00D4A984209D0904207D003F50063984221
S2140032C003D003F58063984201D1002303650023F1
S2140032D09042836502D0054A904200D1C36570478C
S2140032E0F9FF01000000014000040140000C01400D
S2140032F038B505460C46FFF7C9FF8B7C1BB1036843
S21400330043F080430360E37C1BB1237D43F08003DE
S214003310AB65228A637B1343E28913436B60D4E96F
S2140033200112237B2846FFF765FF637D1BB12B68E0
S21400333043F480332B60A37DE27D1B07120502F465
S214003340E00203F0E04313432B666B6F23F0300379
S2140033506B676A6F237E13436B672378EB6038BD19
S21400336038B50C460546FFF791FF0A8A897B036845
S214003370002942F0010214BF4FF48061002113437C
S2140033800B43227D03600368002A14BF4FF00052EF
S214003390002213430360A37C1BB1E37C43F080034D
S2140033A08365237B43F480536B60D4E9011228467F
S2140033B0FFF752FF637B0BB11023EB60637D1BB1FD
S2140033C02B6843F480332B60A37DE27D1B07120538
S2140033D003F0E04302F4E00213432B662378EB602D
S2140033E038BD03695A06FCD5416303699B06FCD5C4
S2140033F0C069C0B2704703695B06FCD5416370477D
S214003400F8B501211548164F164E174D174CFEF706
S2140034108FFC01214FF48A40FEF78AFC0023042229
S2140034200A210320FFF788FC45F203137B664FF45E
S2140034307F433360202200232B600B212260032071
S2140034400422FFF779FC0A4BBB664FF47F03336018
S2140034504FF450232B6040232360F8BD00350A004C
S21400346000600E4014600E4414600E4608600E465F
S2140034700451000838B504462CF02DFA0FCC044D44
S2140034800FC594E80F0085E80F00002038BD00BF88
S214003490081C002047F6FF739A42F0B560D0022958
S2140034A060D8314BCE00981913F831108578012D6D
S2140034B0B8BF0125012919460DD1C3785B1B23B17E
S2140034C0416831F91310914202DC5819C0B2F0BDC0
S2140034D0013B1BB2F3E740680028F8D0B0F9003093
S2140034E0934204DBB0F902309342B8BF1346828899
S2140034F0FF2A03BFB0F90640B0F908700122002287
S2140035001CBFC8242827E41A94FBF7F414448A192D
S21400351024B25678721EA242A8BF22464FF47A778B
S21400352000EBC2010132CC88896812B213FB041189
S21400353021EAE171B24201F5FA71B1FBF7F104DA62
S21400354000EBC204A4888C42EAD200EBC20232F836
S214003550040C884228BF0846A84238BF2846B5E76C
S214003560FF20B4E70020B2E7081C00200148FFF760
S21400357081BF00BFDC8F03007FB51422002101A8A5
S21400358028F009FD02238DF804300C4B029340F21C
S2140035900513ADF80C300B238DF80E304FF4837303
S2140035A0ADF8123001A90D234FF0FF308DF814301E
S2140035B02CF076FA07B05DF804FB00BF006A18002E
S2140035C07FB5094B6A4603F1100615461868596818
S2140035D0144603C40833B3422246F7D12846FFF701
S2140035E0E1FA002004B070BD1460030013B5022396
S2140035F000246846ADF8044000948DF80530FFF7C7
S2140036002DF9204602B010BD70B5154B86B001AA44
S21400361003F11006154618685968144603C40833A3
S214003620B3422246F7D11B8823800E4B5A681203FA
S2140036300DD49B68C3F308030B48ADF80A30FCF7BB
S214003640DFFE2846FEF73EFF002006B070BD074BA3
S2140036501B884FF6FF72934208BF4FF48D73EBE75B
S21400366024600300B081E00F00F049020001E00F83
S21400367007B5084B18680190202301A88DF8043080
S214003680FEF75EFF6420FEF76FFD002003B05DF8D6
S21400369004FB00BF36600300BFF34F8FBFF36F8F8E
S2140036A0054A536A23F480335362D2F8943023F0E9
S2140036B00103C2F89430704700ED00E0013A42EA98
S2140036C0520242EA920242EA121242EA122230B54C
S2140036D042EA12420132B2F5807F38BF4FF4807260
S2140036E05442044015198D4205D31C60039B1D608F
S2140036F0049B1A6030BD5200F2E700002DE9F0434B
S214003700354E364CDFF8E080DFF8E090002387B0D7
S214003710CDE90333FFF7C0FF3568A5604FF00053CF
S214003720E3606F1C2E4B2361C845376041D005AB64
S214003730019304ABA8EB090248460093414603AB4D
S214003740FFF7BCFFDDE90313059AA7605FEAD20C1A
S2140037504FF0010008BF4FF0200CA3EB0803B3FBAB
S214003760FCF300FA03F3013BB2FA82F25FFA83FE3F
S214003770C2F11E0208F1FF335B1AA9EB0109B3FB85
S214003780FCF352000344B9FBFCFC00FA0CF00EFA02
S21400379003F3013802F03E02034342F0407203F0A6
S2140037A0FF0342F0011242EA03220235E160226181
S2140037B03560BFF34F8FBFF36F8F0A4A05236360F0
S2140037C0536A43F480335362BFF34F8FBFF36F8F58
S2140037D007B0BDE8F08300BF281C002090ED00E095
S2140037E03900011300ED00E0C4130020C4130020CC
S2140037F0F0B5002587B004460E46CDE903551146C0
S214003800FFF74AFF05AB019304AB0A460093314627
S21400381003ABFFF753FF049B059A039FD00803F101
S214003820FF3108BF2020891B01236FEA070C0144E3
S214003830B1FBF0F103FA01F101396444C9B2664400
S2140038400444B6FBF0F6B4FBF0F08340013BB14015
S214003850194301F0FF03FF2B24D0B2FA82F112487D
S214003860124CC1F11E01490040EA032301F03E015B
S214003870226819430E4B9A600132DF60196122609C
S214003880BFF34F8FBFF36F8F05225A60094A536A02
S21400389043F480335362BFF34F8FBFF36F8F2846D6
S2140038A007B0F0BD2820FBE701000113281C00200C
S2140038B090ED00E000ED00E0BFF34F8F0549064BAA
S2140038C0CA6802F4E0621343CB60BFF34F8F00BFB9
S2140038D0FDE700BF00ED00E00400FA0508B5FFF7BD
S2140038E0EBFF08BD104A4161136830B51546ABB909
S2140038F01060836011E0091B9C6841611A467CB128
S21400390023465C698C42F6D9002CF4D052B1906004
S214003910836013B15A69511A596130BD0022F0E72D
S2140039202346F4E72860F3E7441C002010B500F0B7
S2140039306BFA094B094A196831B11368C41A4B6906
S214003940A34203D31B1B4B61106003E0C01A002385
S21400395010604B6110BD00BF441C0020301C0020CE
S21400396038B50F4D2B685C690E4B1B6802201C4453
S21400397000F078FA204600F04DFA0B492A6800233A
S2140039800B70D088800702D501230B7038BD926873
S214003990002AFBD050690344012BF2D9F6E700BF9A
S2140039A0441C0020301C0020381C002070B59DF8F8
S2140039B014500571002516468560049ABDF8185007
S2140039C0C58004460260C0E903360D4629B9616128
S2140039D00BB11146984796B13546FEF7DAFD064616
S2140039E0FFF7A4FF29462046FFF77CFF054B1B6820
S2140039F0A34201D1FFF7B4FF3046FEF7CEFD00200C
S214003A0070BD00BF441C00200C4A136800217BB127
S214003A1083420AD1836879B18B6083681BB15A6987
S214003A2041690A445A610020704719469B68EEE7D0
S214003A300028EFD0022070471360EEE7441C0020F9
S214003A4070B5144DFEF7A5FD2C780646D4B9124B7A
S214003A501C60124B1C60124B1C8000F093F9012076
S214003A6000F000FA00F04CFA0E4B0246186070B1F7
S214003A7023460D4840F2E73128F030F80B4B18602B
S214003A8001232B703046FEF788FD002070BD2320F2
S214003A90FCE700BF2C1C0020441C0020301C00202B
S214003AA03A1C0020401C002018FCFFFF341C00209D
S214003AB02DE9F0410546F8B1FEF76BFD0F4F0646BF
S214003AC0FFF734FF2846D7F80080FFF79DFF04462F
S214003AD028B13046FEF761FD2046BDE8F081A845D6
S214003AE03B6803D123B1FFF73BFFF2E7002BF0D191
S214003AF0022000F0C5F9ECE72224EDE7441C002084
S214003B0038B50C46054698B191B100230B70FEF708
S214003B1040FD084B1B6801210BB122781AB1FEF755
S214003B203CFD002038BD9D420CBF21709B68F3E72A
S214003B302220F7E7441C0020F0B587B01F4600237C
S214003B400D4616468DF817300446A0B10DF1170144
S214003B50FFF7D6FF9DF817207AB9BDF834300293E8
S214003B609DF830302946CDE9007320463346FFF7EE
S214003B701DFF07B0F0BD2220FBE70320F9E7000099
S214003B8070B5FEF706FD064600F03EF9094B1C88A8
S214003B9005460120A4B200F08BF918B100F034F904
S214003BA0013405463046FEF7F8FC002242EA0500DE
S214003BB0214670BD3A1C00200A4B1B68834210B594
S214003BC00C460CD3084B19684FF47A720023A0FBFE
S214003BD0010127F083FF01302060002010BD212066
S214003BE0FCE700BF341C0020401C00200000000042
S214003BF0F8B516461BA3D3E900238B4208BF8242C2
S214003C002AD3174B1A684FF47A73A0FB034503FBBD
S214003C100155C2B1531E13EA020014D1B2FA82F261
S214003C20C2F11F02C2F12007A2F1200124FA02F31A
S214003C3005FA07F73B4325FA01F10B4325FA02F292
S214003C40C6E90032F8BD00232046294627F046FF85
S214003C50C6E900010020F5E72120F3E7AFF3008076
S214003C60401C0020EFA7C64B37894100C2072DE94C
S214003C70F84F04460BD53F4A138801339BB2138096
S214003C80FFF754FE3C4B1B680BB1FFF769FEA3071A
S214003C906DD53A4F00F0B8F83D688046451BFEF7F4
S214003CA078FC002683463246B246334B1C6814B175
S214003CB06369AB4214D9012E314B51D1D288022A06
S214003CC04ED11E70002C4ED06369C7F800805D1B75
S214003CD06561FFF745FE5846BDE8F84FFEF75DBC48
S214003CE0C7F8008023462A465969914209D81879B0
S214003CF094F804C0844588BF1C469B68521A002B63
S214003D00F2D15846FEF749FCD4F814B0C4F814A013
S214003D10FEF73FFC81462046FFF776FE4846FEF754
S214003D203CFC23694BB1FEF734FC216981462046F2
S214003D30FFF7D8FD4846FEF730FCE36813B121686C
S214003D402046984700F060F8D844A5EB0805814661
S214003D500544FEF71EFC013683462246C846A4E705
S214003D6000221A70AEE7022000F08AF8B3E7BDE83A
S214003D70F88F00BF3A1C0020441C0020301C002096
S214003D803C1C002010B51C4B86B05968186803AA66
S214003D9003C2197A53F8090F117001909A881748D0
S214003DA09B79ADF8082001218DF80A300024FDF734
S214003DB0BFFF03A88DF80C408DF81040FFF7CCF934
S214003DC001A901208DF80440FFF7A6F90C4A536AB2
S214003DD023F4FF6323F00703536240F2FF7313627A
S214003DE001209460FFF7B2F9064B4FF08042C3F80B
S214003DF080211A6006B010BD3A600300A0091400C6
S214003E000020044000E100E0014B9868704700BFC6
S214003E1000200440114A9368516D9269520704D4F9
S214003E20CA1A022A01D899420DD1C21A012A98BF8D
S214003E30981C0A4BB0F1FF3F28BF013058655A6AFC
S214003E4042F004025A62064A137833B103490B6DF6
S214003E5043F002030B6500231370704700200440F4
S214003E603E1000208207054A00F00103516A48BF51
S214003E7043F004030B435362704700BF0020044026
S214003E80830700F0010209D5074B01211970074985
S214003E900B6D23F0030342F004020B6503494B6AE3
S214003EA023EA02034B6270473E10002000200440C5
S214003EB0064B01289B6904D0022805D1C3F3800075
S214003EC0704703F001007047002070470020044050
S214003ED010B5FEF75EFB094A93690446590703F0DE
S214003EE0010003F0070348BF40F002001362FFF72B
S214003EF0BDFE2046BDE81040FEF74FBB0020044044
S214003F000148FEF761B800BFA009140008B527F005
S214003F1041FD27F08BFD27F08BFD27F092FDBDE8D5
S214003F20084027F097BD000010B50446FCF750FA8D
S214003F304FF47A735C43B0FBF3F0064BB3FBF0F040
S214003F40B4FBF0F0800803D0BDE8104000F008B8DD
S214003F5010BD00BF40420F0000000000000000003F
S214003F60013800D0FCE7704701F08CB81822002119
S214003F70014828F010B800BF501C002007B5FFF716
S214003F80FFFD6A46FFF734FE28B1054B054A064892
S214003F904E2127F023FF009803B05DF804FB00BF16
S214003FA0796003004A6003009060030030B517484C
S214003FB085B00C461546FFF77BFD154B2C441C6060
S214003FC0FFF7DCFF134B201A00284FF001041C708B
S214003FD003DC01F057F805B030BD03A9FFF7ECFD90
S214003FE0034628B10C4B0D4A6B210D4827F0F6FE10
S214003FF0CDE900040B4A03990448FFF79DFD00280D
S214004000E9D0054B054A6F21EFE700BF501C0020A2
S214004010481C00204C1C00207960030061600300EF
S21400402090600300693F000008B50348FFF740FDB5
S214004030024B00221A7008BD501C00204C1C0020A9
S21400404070B5094D2B7806466BB1084B1C68FFF718
S21400405095FF201A002806DC00232B703046BDE8AA
S214004060704013F045BB70BD4C1C0020481C00205F
S21400407020B1034B98420CBF17200120704700BFA9
S2140040800BE000F02DE9F7430E46174632B329B38E
S2140040900002DFF84C8040F40034002545EA0409AD
S2140040A001AB6A464946D8F800002AF08FFDFFF7B4
S2140040B0DFFF17280BD13B4632464946D8F80000AA
S2140040C02AF0F6FC03B0BDE8F043FFF7D1BF10B905
S2140040D001350B2DE2D103B0BDE8F0830720FAE7E7
S2140040E014100020024B1968024B18682AF0F8BB1F
S2140040F01810002014100020014B18682AF0C2BCCB
S214004100141000202DE9F04F8BB00902CDE90232E1
S21400411041F400360024A146172546F00A072D482C
S21400412000973346042206A900682AF095FD6FF032
S214004130030306A98346021903FB0413944201D124
S214004140002333E0039953F824608C4240D1214881
S21400415005AB04AA314600682AF038FDFFF788FF51
S214004160054610BB059B029A1FFA83F9EAB1149A1A
S214004170DAB1484627F0BAFE0246824615484B4654
S214004180314600682AF0DEFCFFF772FF054640B9AC
S214004190149B02981A8851464A4588BF4A4627F01B
S2140041A0D6FE504627F0AAFE5DB90123BBF1030FE9
S2140041B005D90A2C06F1010601DC002BAFD0149BB2
S2140041C013B1149BA3F8009028460BB0BDE8F08FFF
S2140041D00134B3E7141000202DE9F04F090241F432
S2140041E00035DFF894A08BB090460024172745F0E2
S2140041F00A06214800962B46042206A900682AF0E3
S2140042002BFD031903936FF0030906AB834609FBE6
S2140042100439039B9C4201D100231EE0444559F813
S214004220245002D0B8F1FF3F24D105AB04AA29469A
S214004230DAF800002AF0CAFCFFF71AFF074640B972
S2140042402946DAF800002AF017FDFFF711FF0746A7
S21400425060B9B8F1FF3F0DD00123BBF1030F05D9BC
S2140042600A2C05F1010501DC002BC2D038460BB044
S214004270BDE8F08F0134CCE71410002070B5154669
S2140042804FF0FF320C461E46FFF7A6FF08B1172870
S21400429006D1324629462046BDE87040FFF7F2BEFA
S2140042A070BD10B50024A1B24FF0FF3200200134DB
S2140042B0FFF792FF082CF6D110BD000008B5FEF7F8
S2140042C0FFFE034B1860BDE80840FEF7F3BE00BFD4
S2140042D0681C0020BFF34F8F0549064BCA6802F4DE
S2140042E0E0621343CB60BFF34F8F00BFFDE700BF14
S2140042F000ED00E00400FA050E4B1B68DA070ED44A
S21400430059050ED41A050ED4D9050ED49A050ED426
S214004310094A1A40002A0CBF0720052070470020D3
S214004320704702207047082070470120704703201E
S214004330704700BF681C00201C000100704700008A
S214004340054B1A79824205D85A7982422CBF184604
S2140043500020704700207047041E002038B50C4629
S2140043608A888968054627F0F2FDE16841B1A08891
S2140043706288121A92B22844BDE8384027F0E7BD9A
S21400438038BD000037B50546134B144C296818682D
S2140043909B880090ADF80430206859B100222BF0BD
S2140043A02DFA2B7983420CD00D4B0E4ADF210E4896
S2140043B027F014FD2BF0E4FB18B10C4B094AE6215C
S2140043C0F5E7694620682BF070FA18B1074B054AE6
S2140043D0EA21ECE703B030BDD8600300B45F0020EC
S2140043E00C64030035610300356403007C6403003D
S2140043F01E4B1F491A68096830B5521A102A85B034
S2140044001D4606D11B4B1C4A40F2C7211B4827F00D
S214004410E5FC69461C682BF01BFBBDF80230032B3D
S21400442004F00F0404D8164B134A40F2CD21EDE7F2
S214004430182B0AD9BDF804201823172AADF8023025
S21400444082BFADF8043000230393192363430D485D
S214004450BDF80220C254013318446946FFF77EFFB8
S2140044602B6801332B6005B030BD00BF001E002056
S214004470FC1D00209B640300E86103003564030014
S214004480B56403006C1C00202DE9FF4791469A4650
S21400449002F400120023134304461CD0694B1B7819
S2140044A0002B64D001A92BF09CFB30B1664B674A09
S2140044B040F26F31664827F091FC9DF80C30032BD4
S2140044C047D09DF80C30022B05D1BDF8040010F043
S2140044D007FB002842DA09F02A520AF011031343B8
S2140044E011D009F40002002313434CD0594B1B682B
S2140044F01D7815F0200506D120462AF009FF564BF8
S2140045001D70564B1D7009F002020023134308D09D
S21400451020462AF0FDFE504B0E221A704F4B00220A
S2140045201A7009F008020023134302D020462BF02D
S2140045309AFA00220AF48073134339D000221146F7
S21400454020462BF022FA98B33F4B454A40F2CF3133
S214004550B0E701A810F0E0FA0028B2DB20462BF006
S2140045603EFB60B1384B394A40F27731A2E72BF078
S21400457036FB20B1344B354A40F27E319AE720466E
S214004580FFF736FFA7E700220AF001031343204691
S214004590DFF8C480314D07D02AF0BAFE0F2388F822
S2140045A0003000232B70AEE72AF0B2FE0B23F6E7AE
S2140045B009F001020023134315D020462BF073FAAE
S2140045C0054620462AF0A4FE264B022215F5007F5B
S2140045D01A70254B0FBF7F22042295FBF2F56DB2B1
S2140045E00CBF1A701D7000260AF0800756EA0703F3
S2140045F018D020462AF06AFE0B2804D11B4B184A16
S21400460040F2EF3156E7031FDBB2022B04D9032832
S2140046100DD1124B1B782BB10F4B0B221A700F4B80
S21400462000221A7000F02EFD04B0BDE8F0870228C4
S214004630EFD00A28F6D10B4B02221A700A4B7F22C3
S214004640EFE700BF072000207C6403001F62030022
S21400465035640300B0200020A9200020A8200020F8
S2140046603C6203000620002005200020F8600300BE
S2140046702DE9FF41184B16461A780D4602F0FF0149
S21400468032BB01221A70154C154B187020682AF0A0
S2140046903BFEE8B2FFF754FE8046D8B1114F3B68A8
S2140046A0834203D0FFF76EFEC7F80080FF238DF825
S2140046B004300D4B2068CDE90236324601AB294660
S2140046C02AF05EFE003018BF012004B0BDE8F0817D
S2140046D00520FAE70720F8E706200020B45F002050
S2140046E0042000200020002020A107000000000079
S2140046F0F7B5474C474B484F2360002141F60B2344
S2140047003960BB802046C4E901112AF0C5FD054684
S21400471028B9424B424AB521424827F05FFB4FF08A
S21400472001112BF064F918B13F4B3D4ABD21F3E768
S2140047303E4928462BF0F0F918B13B4B384AC021C9
S214004740EAE731A3D3E900232846CDE900234FF05A
S214004750FF324FF0FF332BF08FF8024618B1324B82
S2140047602F4ACF21D8E7802304F5BA7128462BF0CC
S2140047704BF9802803D02E4B294AD221CCE72D4E68
S21400478038463560FFF7FEFD012130682AF0A2FDAD
S214004790044620B1244B284A40F22F11BCE7274B91
S2140047A0274A98801A60274B274A98800B201A6061
S2140047B0FFF7C6FD254B186020B9254B1E4A40F270
S2140047C03711A9E721464FF4C872224827F0E3FBC9
S2140047D0214B1C60214B1C60214B93F9004004EBDD
S2140047E08404FEF7C3FE610030682BF07AF818B137
S2140047F00D4B1C4AF3218FE71B4B18701B4B187090
S2140048001B4B187003B0F0BD0B00A02A91010000EE
S2140048100C1E002089440000041E0020676203006E
S21400482027610300356403007C640300E86403002A
S21400483076620300B45F00205E6103001020002053
S21400484028200020B0200020C820002000200020C3
S214004850A86203006C1C0020001E0020FC1D002027
S214004860472100204961030006200020A9200020DF
S214004870A82000202DE917480A4B186C5C6C4FF0F6
S214004880000B4BEA00022346CDE900234B1E02AA8A
S214004890073112F8010D03F8010F8B42F9D103B06E
S2140048A0BDE81088B081E00F10B508460C4610F041
S2140048B011F9074B0022214618682BF065F930B134
S2140048C0044B054A054840F28D1127F087FA10BDC3
S2140048D0B45F00207C6403006D6103003564030050
S2140048E008B5074B002218682BF05EF930B1054B6F
S2140048F0054A06484FF4CD7127F070FA08BD00BF90
S214004900B45F00207C64030081610300356403000B
S21400491008B5074B002218682BF03EF930B1054B5E
S214004920054A06484FF4D37127F058FA08BD00BF71
S214004930B45F00207C6403009F61030035640300BD
S214004940034B1A780AB901221A700020704700BF7C
S214004950A7200020034B1A780AB100221A70002004
S214004960704700BFA720002038B50A4C2378032BD9
S2140049700DD063B1084D0122002128682AF0C4FC3E
S21400498028682AF0C5FC01232370002038BD0D20BE
S214004990FCE700BFA7200020B45F00202DE9FF4100
S2140049A0184F3A7888463AB30846FFF7C9FC0446DB
S2140049B020B3154E154D3368834208D001221146A8
S2140049C028682AF0A1FC2046FFF7DCFC34600023B0
S2140049D0CDE90133039301AAFF23414628688DF8E9
S2140049E004302AF0BDFC58B902233B70084B83F80C
S2140049F0068004B0BDE8F0810D20FAE70720F8E74E
S214004A000120F6E7A720002000200020B45F002049
S214004A10102000202DE9F04F3E4B3F4E80460D46BD
S214004A2093E807008BB033780DF1100989E807008A
S214004A3003F0FF0433B1394B394A3A4840F20921B2
S214004A4027F0CCF938490B78002B5ED0032B5CD0CE
S214004A50A879FFF775FC8246002858D0DFF8DCB04E
S214004A60324F03230B70DBF800303C700122834288
S214004A7032702F4C08D0114620682AF045FC50466C
S214004A80FFF780FCCBF800A00AA9AB8801F8193D17
S214004A9001231A4620682AF0B3FF9DF80F202968E4
S214004AA02068023A002392B22AF0AAFF214A07CAD7
S214004AB007AB83E807002A68A97C127811F0020F7A
S214004AC0C2F34012A97915D0287C8DF812001A4836
S214004AD0007800938DF813004B4620682AF030FCCF
S214004AE0044658B9294640461AF0E4FF20460BB063
S214004AF0BDE8F08F20682AF013FCF1E70F230024AE
S214004B003B70347000F0BEFAF0E70D20EFE70720A8
S214004B10EDE700BFE0600300A8200020D16403009A
S214004B20BA61030035640300A7200020A9200020F6
S214004B30B45F0020EC6003003F100020002000203F
S214004B4000487047B020002070B5114B10229979AC
S214004B500020FFF78DFDC8B92AF0A9FF0D4D0646C7
S214004B602C462B78012B05D12AF0A1FF801BB0F52F
S214004B70967FF6D32378022B04BF074B18784FF0A6
S214004B8000030CBF40B27F20237070BD7F20FCE77F
S214004B901020002006200020052000200B20704753
S214004BA0014B1878704700BF0820002008B5074B57
S214004BB01970074B18682AF0FFFF30B1054B064AFC
S214004BC006484FF4297127F009F908BD082000208F
S214004BD0B45F00207C640300CE61030035640300EC
S214004BE04FF47A735A430120FFF742BD2DE9F04F88
S214004BF08E4C8DB0804603AA012120682AF024FF3F
S214004C0027460546002871D09DF80C30072B6DD13D
S214004C10014607AA20682AF01EFF8146002861D1B7
S214004C20BDF80E3005995E1C91F800B0B6B2B345DB
S214004C3006D07F4B7F4A4FF442717F4827F0CEF86C
S214004C401A1F7A2A04D97D4B7A4A40F20B31F4E7D0
S214004C50BDF8102022B97A4B764A4FF44471ECE73F
S214004C60DFF804A20131013B013A0591DAF80000B1
S214004C70ADF80E3003A9ADF81020FFF76FFB2946FC
S214004C8020682AF0F2FE9DF82930AAF804B0002821
S214004C90544608BF0025002B4BD0BBF1050F06D1AC
S214004CA0DAF800301B7803F00703022B04D0654BBC
S214004CB0604A40F22331C0E738682AF029FB624B8D
S214004CC0DAF8002083F80090604B92781B689B7897
S214004CD09A425F4B16BF0E2283F800901A7000F0BF
S214004CE0D1F91DB1294638682AF0BFFE594A137813
S214004CF0032B40F08A80544B1B78002B40F08580B5
S214004D00534B19780221117050490A68127812F034
S214004D10200F1A4602D01878002873D04B49137813
S214004D20002240461AF0CEFE00F0ACF90DB0BDE809
S214004D30F08F494B1B780BB9052ED2D0474B00930A
S214004D4000221A709DF82A2022749DF82B20627487
S214004D509DF8242022B9424B364A40F23D316CE79A
S214004D60013607A9386808962AF079FE20B13D4B2F
S214004D70304A40F2413160E7079BD4F800A0C4E90E
S214004D8002309AF8003003F00703032B10D00026F9
S214004D90A37C354966F30003A374009B40461A784B
S214004DA01AF080FE002E9AD138682AF0B1FA96E7FB
S214004DB0DFF8CC90A388CB462C4AD9F800101268AE
S214004DC08A42E4D0192001F00F01294E414372189F
S214004DD05078DAB2904213D1725C0193881C30444A
S214004DE0013A514627F0A4F8019BB0FA80F67609FE
S214004DF0DBF800200132CBF80020002EDCD0C7E71D
S214004E000026F5E71B78184A8BE71A4B1B78012B10
S214004E108CD1194B1A78022A88D100221A70174BA7
S214004E201978404649B21AF05AFE7DE7B45F002072
S214004E30C36203000B62030035640300EC620300E8
S214004E402F63030050630300A8200020B02000203A
S214004E50A9200020A72000200820002009200020EC
S214004E60C86303007C64030010200020001E00209E
S214004E706C1C0020042000200620002005200020B6
S214004E80FC1D002021B1034B1B780B7000207047DF
S214004E900720704747210020094B10B50C4601EB50
S214004EA08101490018682AF01CFD30B1054B064AFE
S214004EB006484FF48B6126F091FF054B1C7010BD21
S214004EC0B45F00207C6403004B620300356403007B
S214004ED04721002021B1034B1B780B700020704740
S214004EE0072070473F100020014B002019707047C4
S214004EF03F1000206FF063007047000010B572B6D8
S214004F004F4950480FF0CEFE4F4900230B76E02065
S214004F104B768B764023C876087748778877CB77AA
S214004F204A4B8022602481F8202081F8210081F8F5
S214004F30220081F8232083F8002383F801432024ED
S214004F4083F8024383F8034383F8042383F8052396
S214004F5083F8062383F8072383F8082383F80923B6
S214004F6083F80A2383F80B2383F80C2383F80D2396
S214004F7083F80E2383F80F2383F8102383F8112376
S214004F8083F8122383F8132383F8142383F8152356
S214004F9083F8162383F8172383F8182383F8192336
S214004FA083F81A2383F81B2383F81C2383F81D2316
S214004FB083F81E2383F81F2383F8202383F82123F6
S214004FC083F8224383F8232383F8242383F82523B6
S214004FD083F8262383F8272383F8282383F82923B6
S214004FE083F82A2383F82B2383F82C2383F82D2396
S214004FF083F82E2383F82F2383F8302383F8312376
S21400500083F83203CA68124B22F4E0621204120CD0
S2140050101343CB60FEF77AFF2AF038F9FEF710FD4F
S21400502028B10C4B0C4A0D48662126F0D7FE62B616
S214005030FFF75EFBFEF79AFFBDE81040FFF73EB9AC
S21400504005520000E551000000ED00E000E100E040
S2140050500003FA0579600300046503000E6503008B
S2140050600020704710B5064B0446186000F082F822
S2140050702046FFF7BBFD2046BDE81040FEF7E0BF28
S214005080B85F002070470000F8B5124C1D46164663
S214005090B4F88020B4F882302B4403F07F039342A8
S2140050A007460DD0B4F882002A463146204426F042
S2140050B04EFFB4F882302B4403F07F03A4F882300E
S2140050C0054B2A4631463846FBF7DAFFBDE8F8407E
S2140050D0FFF7D8BF4822002089500000024B00226C
S2140050E01A80FFF7CFBF00BFD0220020F8B50F4BC5
S2140050F00F4F104D104E0022A3F88020A3F88220F8
S21400510026F0AAFC8124013C01D12046F8BD334696
S214005110391B01222868FBF7B3FF08492868334685
S2140051200122091BFBF7ACFFEDE700BF4822002079
S214005130C82100209C100020895000004822002032
S214005140084B10B51C685CB91860074B19800146FF
S21400515006481A880068064BFCF716FD204610BD68
S2140051600520FCE7CC220020D02200209C10002046
S214005170DD50000038B5184CB4F88250B4F88030D2
S214005180ADB29D420CD2B4F88000B4F88010C1F1E4
S214005190800189B2204426F06FFB0023A4F88030FB
S2140051A0B4F880309D420AD0B4F88000B4F880107D
S2140051B0691A89B2204426F05FFBA4F88050074A9B
S2140051C0136843B1064B1B889BB223B91360BDE836
S2140051D0384026F048BB38BD48220020CC220020AC
S2140051E0D022002070B504460E46FDF7CBF93146B6
S2140051F00546204626F010FE04462846FDF7C6F96A
S214005200204670BD38B50546FDF7BCF9044628466D
S21400521026F074FE2046BDE83840FDF7B7B90368AF
S21400522030B5CD1A002D02DC6FF05F0030BD1C7863
S21400523014F0800F0AD15C1C04601B7813600368AE
S214005240C91A13688B42EFD80020EFE704F07F04FA
S214005250013C032C27D8DFE804F00209121E012DBA
S214005260E2D05C78146002330360E8E7022DDBDDF1
S214005270B3F8014064BAA4B214600333F4E7032D14
S214005280D2DD9C785D78240244EA0544DD782C4320
S21400529014600433E8E7042DC6DDD3F8014024BAD1
S2140052A014600533E0E76FF06300BFE770B404688E
S2140052B00E1B002E07DD26789E4208D101340460BE
S2140052C070BCFFF7ACBF6FF05F0070BC70476FF04C
S2140052D06100FAE737B50123154601AA0446FFF731
S2140052E0E5FF50B9019B012B09D1236813F8012B68
S2140052F0003218BF01222A60236003B030BD6FF071
S2140053006300FAE737B50223154601AA0446FFF7FD
S214005310CDFF68B9019B013B032B14D8236893F992
S2140053200030002B0FDB2860019B5A1E01920BB940
S21400533003B030BD2368296813F8012B42EA012226
S2140053402A602360F0E76FF06300F1E737B50223C9
S214005350154601AA0446FFF7A9FF40B9019A21683D
S214005360284600F015FE2368019A1344236003B014
S21400537030BD70B5032304460E461546FFF796FF6C
S21400538098B9136893B1013B1360226812782A71AA
S214005390072A0ED8226801322260AA6022681344C7
S2140053A0B342236018BF6FF0650070BD6FF05F00FA
S2140053B0FBE76FF06300F8E738B5032304461546AD
S2140053C0FFF774FF58B913685A1E012B2A6004D9D8
S2140053D023685A1C22601B780BB16FF0670038BD3B
S2140053E02DE9F7431446984601AA302305460F4692
S2140053F0FFF75CFF064630B92B68019A13449F42BC
S2140054001DD06FF06506304603B0BDE8F0831B780C
S21400541023604A46434639462846FFF747FFC0B949
S2140054202B68A3602B6862681344BB422B6008D2CB
S21400543010210120FFF7D6FEE060044658B104F1C3
S21400544004092B68BB42E2D34FF00003E360DAD0D6
S214005450D7E70646D7E76FF06906D4E72DE9F743A6
S21400546090461F4601AA302304468946FFF71EFFD2
S214005470054600BB2668A9EB0609B9F1000F37DD23
S2140054804246337842F8043B019B1E4431460623CD
S2140054902046FFF70BFF054668B92368C8F80830B2
S2140054A02168D8F804208B18B342236007D10C215A
S2140054B0384606F015FB284603B0BDE8F083895C45
S2140054C03A46013342F8041B204623603146FFF774
S2140054D0A6FE05460028EED12368BB6023687A68DE
S2140054E01344B34223600CBF05466FF06505E2E740
S2140054F06FF05F05DFE703687F2AA3EB010107D89B
S214005500002969DD591E016003F8012C012070474F
S214005510FF2A0DD801295FDD591E016003F8012C12
S21400552003685A1E0260812203F8012C022070478D
S214005530B2F5803F13D202294EDD591E016003F8F2
S214005540012C0368120A591E016003F8012C036837
S2140055505A1E0260822203F8012C03207047B2F123
S214005560807F19D2032937DD591E016003F8012C0C
S2140055700368591E0160110A03F8011C0368120C27
S214005580591E016003F8012C03685A1E026083222C
S21400559003F8012C0420704704291DDD591E016004
S2140055A003F8012C0368591E0160110A03F8011C58
S2140055B00368591E0160110C03F8011C0368120EE3
S2140055C0591E016003F8012C03685A1E02608422EB
S2140055D003F8012C052070476FF06B0070470368D6
S2140055E0591A0029C1BF03F1FF310160012003F8F9
S2140055F0012CD8BF6FF06B0070472DE9F0410646CE
S21400560010460F46904600F0BDFC3168B94204468D
S21400561004D26FF06B052846BDE8F081CB1B8342B1
S214005620F7D3091A02463160404600F0E9FC054609
S2140056300028F0D1D8F80030012B0CD1336893F94C
S2140056400020002A07DADA1B002AE2DD5A1E326042
S214005650013403F8010C224639463046FFF74BFF6B
S214005660051ED8DB022239463046FFF7B8FF002871
S214005670A6BF641905190546CDE700002DE9F043DD
S214005680DDF81CE0DFF8148100273C46BC46F445F4
S214005690654629D25E5D202E23D0AEEB0509B9F112
S2140056A0010F25D00D2E23D103EB050999F80190A3
S2140056B0B9F10A0F12D065456CD13D2E02D10137E3
S2140056C0022F67D816F0800F64D118F806607F2E78
S2140056D060D03F2E01D8002F5CD1013405F1010CBB
S2140056E0D5E70135AE45D5D124B91460002021E0B8
S2140056F00A2EDFE704F0070C0626E40806FB0CFC7F
S21400570074430CF1070CE41B04EBDC0478B18C4208
S2140057100DD80027DFF884E0DFF884801D440146BA
S21400572003263C469D4207D1091A1160DEE7146045
S2140057306FF02900BDE8F08313F8019BA9F10A0C6D
S2140057405FFA8CFCBCF1160F04D828FA0CFC1CF08F
S214005750010FE7D11EF809C00134BCF1400F08BFA5
S214005760013E0CF03F0C042C4CEA8717DAD17EB1D0
S2140057703C0C012E0C7002D101310024D2E7022E1F
S2140057804FEA17244C7016BF8F7002310331F4E7CE
S2140057903446C7E76FF02B00CCE700BF5665030022
S2140057A0090040000023F0B5161F1C46844203D1B2
S2140057B002EB8402B3B9F0BD56F804CFACEB030598
S2140057C0356051F82470BD422CBF4FF0000E4FF0EC
S2140057D0010EED1B9C452CBF73460EF10103356090
S2140057E00134E3E71168C81A994242F8040B2CBF4B
S2140057F000230123DEE72DE9F04384460D4602F13F
S21400580040044FF0000EBCF10F0F54F8408C05F129
S214005810400504F1400400F2BB804FEA101C6FF014
S2140058200F0404FB0C0007284FEA8C1C01EB0C0548
S21400583002EB0C0440F2938051F80C60A3FB066761
S2140058401EEB060E2CBF4FF001094FF0000918EBB7
S2140058500E0142F80C106E68B9442CBF01220022DB
S214005860A3FB06674A44921966682CBF01210021F3
S21400587092196260AE6801EB070C4FF0000128BF7A
S2140058800121A3FB066761448919A6682CBF012283
S21400589000228919A160EE6802EB070C4FF00002A7
S2140058A028BF0122A3FB066762449219E6682CBF54
S2140058B0012100219219E2602E6901EB070C4FF0DE
