S00F00006E6F6465746573742E7333377F
S3150000000048E70320A99C0100A5800000ED9B0100A4
S31500000010A70A02020002000004180FAC10681001C3
S3150000002000000000000000000000000000000000CA
S31500000030000000007CB70100000000000000000086
S315000000400000000000000000FFFFFFFFFFFFFFFFB2
S31500000050FFFFFFFFFFFFFFFFFFFFFFFFFFFFFFFFAA
S3150000006000E00F000000000000000000FFFFFFFF9F
S31500000070FFFFFFFF0100000000000000000000007D
S31500000080000000000000000068FF032068FF032056
S3150000009048E703204FE10100C29C0100E8DD032090
S311000000A0B8100020000010000000000056
S3150000020048E70320A99C0100A5800000ED9B0100A2
S315000002102DCC0000F19B0100F59B010000000000C1
S315000002200000000000000000000000004F1A00005F
S31500000230F99B01005F150000835E000077730000E4
S315000002407DCD0000CB1B01005F1A0000019C010060
S3150000025091160100071C0100D11B0100D31B0100F0
S31500000260CD1B0100D7510100E1FE00005501010040
S315000002709B770000019C0100019C0100D1990100BF
S31500000280019C0100019C0100EFFE0000019C0100A1
S31500000290019C0100019C0100019C0100019C0100E0
S315000002A0019C0100019C0100019C0100019C0100D0
S315000002B0091C0100CF1B010005590100391C010072
S315000002C0019C01000D9C0100019C0100019C0100A4
S315000002D0019C0100019C0100019C0100019C0100A0
S315000002E0019C0100019C0100019C0100019C010090
S315000002F0019C0100019C0100019C0100019C010080
S31500000300019C0100019C01000000000050410348CF
S31500000310016830BF41F000410160704700BF4C31B9
S315000003200E401248816B89B201B1012141F671324A
S31500000330826346F21A32036843F001030360C26423
S315000003404FF4807343604269D307FCD44FF40072C4
S31500000350420C00180022C264C9B203685B085B0045
S31500000360036001B182630020704708000E40000060
S31500000370704700002DE9F047DFF8244823A10FF26B
S3150000038060590FF26C5ADFF81C880646207800F098
S3150000039045FE0027AAA512E0294600F03FFE0CE024
S315000003A093681268494600F039FE306800F0A8FAF2
S315000003B0F2D00FF2345100F031FE7F1CBFB230682C
S315000003C000EB07122078516849B14145E8D15169DF
S315000003D0002918BF4145F0D012685146EBE700BF2F
S315000003E029A100F01BFE207831A100F017FE20782D
S315000003F03BA100F013FE207844A100F00FFE207808
S315000004002946BDE8F04700F009BE0000434F4D4DB8
S31500000410414E44205B504152414D45544552535D37
S31500000420205B2D204445534352495054494F4E5D5D
S315000004300D0A202077686572653A20623D6275660E
S315000004406665722C2073313D696E74385F742C209A
S3150000045073323D696E7431365F742C2075313D758B
S31500000460696E74385F742C2075323D75696E74310F
S31500000470365F742C2075343D75696E7433325F7443
S315000004800D0A0D0A0000000020202120202D2052F8
S315000004906563616C6C73207468652070726576693B
S315000004A06F757320636F6D6D616E640D0A000000D9
S315000004B020205B7461625D202D20417474656D702F
S315000004C0747320746F2074616220636F6D706C6545
S315000004D0746520636F6D6D616E640D0A0000000027
S315000004E0202020202A2A204E4F54453A20616C6C49
S315000004F020696E7075742076616C75657320617203
S315000005006520696E20686578210D0A00202020206C
S315000005102A2A20436F6D6D616E64732061726520B7
S315000005204E4F5420636173652073656E73697469F9
S3150000053076650D0A00000000A0F141011A293CBFB2
S315000005402030C0B2704700002DE9F84F80460024E5
S31500000550D8F80810DFF848660868C7B2384600F0D1
S315000005600DFE5FFA80F90025B9F1200F06DD30781F
S3150000057034A1BDE8F84F202200F050BD384600F007
S31500000580E5FD8246A34607E01AF80B00FFF7D4FF05
S315000005900AF80B000BF1010BCB45F5DB4FEA09021C
S315000005A039A1504600F08CFF30B9012504E03078BF
S315000005B037A13A4600F032FDD8F800202101101D7F
S315000005C0405800283AD0DFF8DCB5641C5845A4B280
S315000005D0F2D15758002DEAD1384600F0A5FF48451C
S315000005E0EAD14A465146384600F06AFF0028E3D170
S315000005F0404625460FF2DC280FF2EC290FF2980A46
S31500000600044621682F01081DC059B8B1584515D0B8
S31500000610C819836802683078514600F0FFFC2068EC
S31500000620C019C26830781AB9414600F0F7FC02E0FA
S31500000630494600F0F3FC6D1CADB2E2E7BDE8F18F70
S315000006400D0A00004572726F723A206C697374204D
S31500000650617267756D656E7420746F6F206C6F6E56
S31500000660672C207765206F6E6C7920737570706FBC
S31500000670727420757020746F2025752062797465F8
S31500000680732E0D0A000000006D6F64756C657300B3
S3150000069025700D0A0000000025702025700000005E
S315000006A070B5044688B0A068016801B10121DFF881
S315000006B0F8542970406800B10120DFF8F06430700A
S315000006C016A001F051F9A068C16801B10121DFF857
S315000006D0E0241170006900B10120DFF8D81400BFD2
S315000006E018A308700493127891F800000FF25C01C9
S315000006F018A305920790069101203278009376A1FF
S3150000070003900291019204F111012B780FF24C0231
S3150000071014A001F029F908B070BD00005475726E7E
S31500000720696E67206F66662074616773206E6F74EA
S315000007302079657420737570706F727465640D0A24
S315000007400000000064656C696D00000074657874D3
S3150000075000000000636F6D6D616E64006865616422
S31500000760657200007B264E20566572626F7369744F
S3150000077079206F7074696F6E732073657420746F5F
S315000007803A0D0A2674750D0A2674750D0A267475B7
S315000007900D0A2674750D0A2674757D0D0A00000073
S315000007A0DFF81414007CDFF8F83351F820201878AD
S315000007B001A100F033BC00004349204572726F72FC
S315000007C03A2025700D0A000038B5DFF8D4432078AA
S315000007D040A5294600F022FC94F800000CA100F088
S315000007E01DFC2078294600F019FC207811A100F0A4
S315000007F015FC207839A100F011FC207810A100F03A
S315000008000DFC207811A1BDE8344000F007BC0000C3
S31500000810456D626572204E6F646520546573742061
S315000008204170706C69636174696F6E2076312E3029
S315000008300000000053657020313020323032300025
S3150000084031313A31353A3134000000000D0A0D0AD3
S31500000850000000002DE9F24F054692462E6B002758
S3150000086012E01CA100F0DAFB0BE08B681CA1CC4C5B
S3150000087000F0D4FB286800F043F8F2D01AA100F08B
S31500000880CDFB7F1CBFB21036706808B3D6F8008067
S31500000890DDF8009000240BE019F8010BFFF74CFE81
S315000008A0834618F8010BFFF747FE8345E9D1641C20
S315000008B0A0B25045F0D3BA4B286800EB0711187860
S315000008C04C68B84B0A689C42CFD100BF08A1D6E756
S315000008D0BDE8F18F0D0A0000746167002C2000004E
S315000008E02020257020257000202D2025700D0A005F
S315000008F02D2D2D2D202570202D2D2D2D0D0A00009E
S3150000090000EB0710C2682078002A70472DE9F847E7
S31500000910ADF5017D0DF10400A9A14FF4807201F03F
S3150000092053F84FF000098DF80190A52001F0CDF89D
S3150000093001F014F900F092FB00F0E7F9002001F055
S315000009405BFA804628B100F0DBF9002001F054FA8A
S31500000950804600F0DAF9012001F04EFA070005D0D2
S3150000096000F0CEF9012001F047FA074600F0CDF974
S31500000970022001F041FA060005D000F0C1F902207C
S3150000098001F03AFA064601F0C5FAB8F1000F844DB7
S315000009900AD0002F68D0002E00F06B8040F20721AD
S315000009A0C7A001F0BDFA03E0002F18BF002E5CD0EF
S315000009B085F80090281D01F0EAFB281DFFF704FFCB
S315000009C0DFF8F801C2A60FF2103801F048FE00F079
S315000009D0AAF928780FF2743100F020FB6DA700F019
S315000009E0A6F9281D02F0B4F800F09DF928780FF258
S315000009F0683100F013FB00F09AF9281D03F058FE49
S31500000A0000F091F928780FF25C3100F007FB00F056
S31500000A108EF9281D03F06AFE00F085F928780FF29A
S31500000A20503100F0FBFA00F082F9281D03F080FE39
S31500000A3000F079F928780FF2443100F0EFFA00F06F
S31500000A4076F9281D03F089FE00F06DF995F800008F
S31500000A50A3A100F0E3FA00F06AF9281D04F00CFEE9
S31500000A604DA64EA741AC91E0002E64D0012028701F
S31500000A70A0E7022129709DE728780DF10103FF22E6
S31500000A8041A901F002FA002846D001F01BF801F056
S31500000A9073F904F027FA9DF8010010B341A9084440
S31500000AA010F8011C09291CD100F041F99DF801003C
S31500000AB0411E8DF8011041A99DF80120281DFFF760
S31500000AC0C9FE9DF801100020605400F028F90020AE
S31500000AD004E000F01FF99DF80000401C00F008F942
S31500000AE0F7D39DF804012128C6D100F020F94A4623
S31500000AF001A941A800F068FFA9F101008DF80100E5
S31500000B0000F00DF9002000F0F3F8B5D200F002F97C
S31500000B109DF80000401CF6E700218DF800109DF8B6
S31500000B200020A05C511C0A2818BF0D2818BF0028F9
S31500000B30F3D116E02E702878FF289CD1002669464E
S31500000B40F0B201F09DF938B99DF800000D2818BFE4
S31500000B500A2818BF2A28EDD0761CF1B20329EEDB4D
S31500000B60E9E70D20A0548DF8001041A99DF800205A
S31500000B70281D01F017FB9DF800A0524641A901A8C7
S31500000B8000F022FF0020D1468DF8010000F0C7F8E2
S31500000B9072E700005D0D0A00256300000D0A0000E3
S31500000BA0ACE7032071030000EEEB0320EFEB03201C
S31500000BB0F0EB0320F1EB032080E903209BA7E9314A
S31500000BC00D00000000000000000000000000000012
S31500000BD0000000000000000000000000000000000F
S31500000BE000000000000000000000000000000000FF
S31500000BF000000000000000000000000000000000EF
S31500000C0000000000000000000000000000000000DE
S31500000C1000000000000000000000000000000000CE
S31500000C2000000000000000000000000000000000BE
S31500000C3000000000000000000000000000000000AE
S31500000C40000000000000000000000000000000009E
S31500000C50000000000000000000000000000000008E
S31500000C60000000000000000000000000000000007E
S31500000C70000000000000000000000000000000006E
S31500000C80000000000000000000000000000000005E
S31500000C90000000000000000000000000000000004E
S31500000CA0000000000000000000000000000000003E
S31500000CB0000000000000000000000000000000002E
S31500000CC0706C6174666F726D746573742E63000068
S31500000CD05B494E49542000000D0A3E2000000000EA
S31500000CE0736574506572546573745478000000001F
S31500000CF08DF800009DF801109DF8000088427047AD
S31500000D00012300224FF416417047012300224FF4BD
S31500000D10E1317047225C2878314600F07FB94146C0
S31500000D20287800F07BB92878314600F077B9287822
S31500000D30394600F073B980B504F010FEBDE80240F4
S31500000D400020E3E50020704705F067B9696E697415
S31500000D50546F6B656E7300006372617368696E66CB
S31500000D606F0000007265736574737472696E670054
S31500000D70696E6974526164696F0000007365656429
S31500000D80506E72670000000070B513461044DCB266
S31500000D9064B101F00F060909451E0A2EACBF3724BF
S31500000DA03024A41928462C705B1EF0E7104470BD51
S31500000DB0F0B5002341B1002806D52D231370012379
S31500000DC0B0F1004F18BF4042002100249AA500262A
S31500000DD001E0C01B761C55F82470B842F9D2F7B270
S31500000DE00FB90F0004D0D9B2303656545B1C01211E
S31500000DF0641C092CEBDBD9B2303050545B1CD8B2E2
S31500000E00F0BD2DE9F84F824696B04FF0000914A8C0
S31500000E10884617461D4604ACCB46019012E04FF0BB
S31500000E20010B074600E004460198844209D39DF869
S31500000E300020A41A00F0D4F8002851D159FA84F9F8
S31500000E4004AC7F1C04A88DF800009DF800003978DA
S31500000E50201A00290FD0252905D05FEA0B0208BF0A
S31500000E6004F8011BE0D05FEA0B0114BF4FF0000B42
S31500000E707F1C39780A0000F0A680B1F1250216D051
S31500000E800B3A092A40F28080283A75D00A3A12D0E5
S31500000E90521E3CD0521E57D0083A55D0121F39D098
S31500000EA0D21E37D0921E4FD0D21E65D0BCE7252069
S31500000EB004F8010BB8E729686A68039120460835EB
S31500000EC002920024029A9442ADD20399095D02224D
S31500000ED0FFF75AFF0199884206D300F085F80028EB
S31500000EE07AD159FA86F904A80299491E8C423CBF68
S31500000EF0202200F8012B0199884206D300F074F8ED
S31500000F00002869D159FA86F904A8641CDAE755F86D
S31500000F10040BCDE755F8046B044600F061F8002891
S31500000F205AD159FA84F9314604AC064600E0761CDB
S31500000F30F0B2085C0028FAD1F2B24046D047002849
S31500000F404AD159FA86F96FE76C290AD17A7855F8A9
S31500000F50040B752A0EBF00210121642A07D17F1CCC
S31500000F6005E0752955F8040B0CBF00210121224626
S31500000F70FFF71EFF241857E755F8041B0222C9B2D3
S31500000F802046FFF701FF4EE77878782818BF5828E3
S31500000F904FF0010BEFD17F1C781E32294FF0000B6A
S31500000FA004D155F8040B81B20422E9E734297FF411
S31500000FB036AF55F8046B0422310C2046FFF7E4FEE9
S31500000FC00422B1B2DDE70546EAB200F00AF818B924
S31500000FD0A9445FFA89F000E0002017B0BDE8F08F61
S31500000FE0E2B204A9404650479DF80020861AF2B2A4
S31500000FF004A94046504708A110E00CB438B5044691
S3150000100004AA00F013F8054603A1204600F006F8EE
S31500001010284632BC5DF80CFB0D0A00000CB480B506
S3150000102002AA00F003F802BC5DF80CFB80B506F0DE
S3150000103031FEC0B202BD000000CA9A3B00E1F505D0
S315000010408096980040420F00A086010010270000FD
S31500001050E8030000640000000A00000010B5DFF895
S315000010603804DFF830140068DFF83024C8601368ED
S3150000107048615B0800EB43040C6118B100F00AF804
S31500001080652806DABDE81040AF210FF2204000F0D7
S3150000109047BF10BD10B5DFF8FC4320696269904276
S315000010A002D2C52100F0CEF82069626900E0E2684C
S315000010B0801A4FF6FE71084010BDDFF8D813CA68D3
S315000010C0904203D34969884200F05DB90020704719
S315000010D080B510B1FFF7F1FF00B1012002BD30B1BC
S315000010E0DFF8B023D168401A4010401C80B2704728
S315000010F0010001D100207047DFF89813CA6802EB9F
S315000011004000801E70474088C0F30C00C01C0004DD
S31500001110800C4000001D80B2704710B50446FFF7F2
S31500001120F2FFDFF870134A6904EB40004FF6FF74D4
S31500001130904204D20388A34208BF801CF8D010BD99
S3150000114080B5FFF7D5FFBDE80240C1E710B5040042
S3150000115012D0FFF7F5FF18B940F2794100F072F8A6
S315000011602046FFF7C5FF38B101880A0402D5D0F83A
S315000011700A0010BD083010BD002010BD10B50100DA
S3150000118013D0FFF7B5FF0446FFF7A2FF18B940F2E8
S31500001190934100F057F844B12088010401D5208915
S315000011A010BD6088C0F30C0010BD002010BD2DE9F5
S315000011B0F04100F044F804003FD0FFF789FF0FF23A
S315000011C0EC2718B940F2A64100F078F82846FFF758
S315000011D0D5FF80462046FFF7A0FF464505462CD0A2
S315000011E003DB40F2AE4100F069F82088010448BFF5
S315000011F0268122D466802046FFF785FF04EB400453
S3150000120006F068FEDFF88C124A692E1BB6B29542CC
S3150000121004BF4C61002606F063FE082E06DA31464E
S315000012202046BDE8F041FF2206F060BE08212046B8
S3150000123006F0ACFEA6F108006080BDE8F081054628
S315000012400E4655E70FF2642000F06ABE38B50D462B
S31500001250FFF74EFF04000AD0FFF73AFF18B940F235
S31500001260EB41FFF7EFFF04EB4500808832BD00201D
S3150000127032BDF8B50D461646FFF73AFF04000FF2E9
S315000012802C2714D0FFF724FF18B940F2F64100F0DE
S3150000129015F83046FFF72CFFFFF71AFF18B940F292
S315000012A0F74100F00BF804EB45008680F1BD3846A7
S315000012B0BDE8F44040F2FA4100F032BE384600F094
S315000012C02FBE2DE9F84F8846C11C8910DFF8C4519E
S315000012D049000027091D2E690FF2D01AB0F5005FEC
S315000012E004461FFA81F904DB40F22651504600F00D
S315000012F017FE06F0EFFD83466969E86908B9711AB9
S3150000130003E05FEA080202D0411A4E1009E0301AE3
S315000013104010064680B220B940F24C51504600F0CB
S31500001320FFFDB6B24E4514DB6F6907EB49006861F5
S31500001330E86928B1B8F1000F04BF00EB4900E86185
S3150000134000207C80B880F8803880083429896418A9
S315000013502C81584606F0C4FD3846BDE8F24FBEE67D
S3150000136070B504460D4611462846FFF7AAFF064605
S315000013703CB1300005D0FFF7E9FE2A46214606F0CB
S3150000138045FE304670BD8041C00F70472DE9FE4FC7
S3150000139004468846208816469B46FFF7A9FE074660
S315000013A0FFF796FE18B940F29A61FFF74BFF3888AF
S315000013B00104354603D538892D183D8167E000F0D4
S315000013C073F8019000F06CF8814606F083FD0096F4
S315000013D08246304E706981451DD1FFF75BFEA842FB
S315000013E003D2504606F07CFD21E001982D18BBF192
S315000013F0000F7D8008D02088FFF7A8FE019B009A89
S315000014004146184400F0D0FA00F04AF870615046A0
S3150000141006F066FD3BE0504606F062FD00F044F83B
S315000014202D180021A8B2FFF74CFF070001D11820A4
S315000014302EE000F039F805462088FFF787FE0646BD
S315000014403846FFF783FE2A46314600F0ADFABBF177
S31500001450000F384609D0FFF779FE00F024F8009A0D
S315000014604146284400F0A0FA07E0FFF76FFE00F0BF
S315000014701AF80099284406F089FD20880121FFF713
S31500001480E5FE024601213846FFF7F3FE27800020DD
S31500001490BDE8FE8F64F703204CE8032050E80320E4
S315000014A03846FFF73ABE0546208867E662756666E7
S315000014B065722D6D616E6167656D656E742E630074
S315000014C00300002013F0030F09D0521E22BF13F8A9
S315000014D0010B11F801CBB0EB0C00F3D0704711F003
S315000014E0030F14D1121F22BF53F8040B51F804CB7B
S315000014F06045F7D0121D0AD200BA9CFA8CFCB0EBFC
S315000015000C0038BF6FF0000088BF01207047521EE4
S3150000151022BF13F8010B11F801CBB0EB0C00F6D08B
S31500001520521C08BF1046704700F10103810704D022
S3150000153010F8011B820781B1FAD10268A2F10131CC
S31500001540914311F0803104BF50F8042FF6E709BA31
S31500001550B1FA81F100EBD100401CC01A7047704708
S3150000156038B50446651D206A2368451B2079EAB212
S31500001570611D984708B1002032BD94F829002D1846
S31500001580611D84F829502162012032BD38B5044618
S31500001590002500E06D1CE8B2085C0028FAD120792D
S315000015A02368EAB2984730B994F829002D1884F8D0
S315000015B02950012032BD002032BD2DE9FF4B0746E0
S315000015C00C46781D386207F11501796200209046B5
S315000015D087F82900DFF8C05315E02AB1791D396272
S315000015E001E01100F9D1044626B100F09DF97D20F5
S315000015F001F8010D386A796A884203D300F09AF936
S31500001600002867D0641C2178002900F06B81252909
S31500001610687818BF26290ED07B291CBF7D2923296F
S3150000162007D10028E6D03A6A521C3A6202F8011D38
S31500001630E0E7A878F5E714F8013F252B18BF262B1D
S3150000164004D100F071F901F8013DD3E726290BD149
S3150000165050B101266E2B18BF4E2B11D000F064F945
S315000016607B2001F8010D00E00026217800224E299A
S3150000167006D0542923D06E2902D074291FD032E017
S31500001680287858F804BB0028B4D036B1386A7B21D4
S315000016900170821C3A622823437000F04BF900283F
S315000016A018D000F036F9002814D0002EA2D0386ADF
S315000016B029210170821C3A627D2343709AE700F06B
S315000016C037F9002806D000F024F9002802D000F0EF
S315000016D031F9002800F0828000F026F93A2001F85E
S315000016E0010D0122641C207894F801E0A0F130037A
S315000016F0DBB2981E052835D2BEF1640F18BFBEF1C5
S31500001700750F2FD158F8040B012180B2BEF1640F7A
S315000017104FF0000C814606D15FEA004E03D5C04368
S31500001720401C8C4680B248B14FF00A0E90FBFEF08A
S3150000173080B200280CF1010CF6D10BE00CF1010C83
S3150000174008E0D7F820E00EF1010EC7F820E02020CF
S315000017500EF8010D604600F1010CC0B29842F0DBB4
S31500001760641C00E0002194F800C0601EBCF1000F6C
S315000017703FF437AFBCF1320F18BFBCF1340F00F0A5
S315000017808D80BCF1480F0AD0BCF1580F16D0BCF1C1
S31500001790630F15D0BCF1640F24D0BCF1680F72D072
S315000017A0BCF16C0F51D0BCF1700F18BFBCF1730FB8
S315000017B00DD0BCF1750F15D0BCF1780F65D00CE7D4
S315000017C0386A411C396258F8041B01700CE700F0B6
S315000017D0AFF818B100F09DF80028F7D1002004B04A
S315000017E0BDE8F08B002912BF1FFA89F058F8040BE8
S315000017F080B228B900F098F8302001F8010DF3E620
S315000018000023BCF1640F0ED101040CD53A6A521CB8
S315000018103A622D21B0F5004F02F8011D03D0404277
S3150000182080B2002866D04FF00A0C90FBFCFC0A211F
S3150000183001FB1C00D9B25B1C0DF801001FFA8CF0ED
S31500001840EFE7D8B200F078F854E058F8040B002817
S31500001850D0D0002200280AD500F066F82D23B0F17A
S31500001860004F01F8013D02D04042002848D00A232B
S31500001870B0FBF3F30A2101FB1300D1B2521C0DF8A1
S3150000188001001846F1E700F047F8022258F8041B59
S31500001890386AC9B2FFF778FA3862A5E614F8010F7C
S315000018A0682818BF48280BD100F036F814F8011C38
S315000018B0386A32290AD158F8041B042289B2E9E7AA
S315000018C0782818BF5828F1D0641E8DE658F804BB56
S315000018D004224FEA1B41FFF757FA386204221FFA27
S315000018E08BF1D7E700F026F800283FF477AF97F89A
S315000018F0290074E71846431EC0B20028A1D173E63A
S315000019001046421EC0B20028F9D0D0B200F014F83A
S31500001910F6E75946384639E6386A30210170821CA6
S315000019203A62782343707047396A491C39627047B6
S3150000193058F804BB384613E6396A1DF80000491CFE
S315000019403962303001F8010D70470EB410B5134AF4
S31500001950014610788BB0002428B1114A00F013F824
S3150000196000B9012420460AE00EB410B50C4A8BB02B
S31500001970014600F008F8002400B9012420460BB007
S3150000198010BC5DF810FB0748137800908DF8043002
S315000019900DAA684611E60000EFEB0320EEEB0320EC
S315000019A0ACE70320C17C000062B38B0708D0521E4F
S315000019B011F8013B00F8013B00F024808B07F6D1BB
S315000019C0830740F0208000BF103A07D330B4B1E857
S315000019D03810103AA0E83810F9D230BC530724BFAB
S315000019E0B1E80810A0E8081044BF51F8043B40F8DD
S315000019F0043BD20724BF31F8022B20F8022B44BF48
S31500001A000B7803707047121F17D35B0009D151F88A
S31500001A10043B20F8023B1B0C121F20F8023BF6D2B7
S31500001A200BE051F8043B00F8013B1B0A20F8023B8F
S31500001A301B0C121F00F8013BF3D238BF121D521EB9
S31500001A4024BF11F8013B00F8013BF8D87047FEE7C8
S31500001A50890001EB401101F184410868704706F0E6
S31500001A6021BB00007FB50121334806F003FC0122AB
S31500001A700121012006F0C4FE0421072007F006F824
S31500001A8033A292E838006946032281E838000D2126
S31500001A908DF8081001268DF809208DF800608DF864
S31500001AA007606946254C204607F080F82449042043
S31500001AB008600222234962620860A26A42F00202BA
S31500001AC0A2627FBD1D4807F065B8A52803D1002195
S31500001AD01A4807F046B870471848006800F0010039
S31500001AE07047194908680028FCD1704738B5044684
S31500001AF00D4600F016F804F00F01034624052A46A9
S31500001B00200E01B0BDE8304007F0FFB800F00F012D
S31500001B100005000E30220D4B50431A1802F11C002E
S31500001B2096E700F00F010005000E3022074B5043E8
S31500001B301A1802F10C008BE730253E000020054004
S31500001B4080E200E000E100E00820054000A000403F
S31500001B5001000000000000010F00000010B5012187
S31500001B608D488E4C06F086FB8D48012101600020D1
S31500001B7007F087F8012304220221052007F0C5F8A3
S31500001B80012007F00BF900F010F807F052F90120D8
S31500001B90207007F043FA01234022211D92A007F08E
S31500001BA008FA80490860C00F10BD70B501220121F6
S31500001BB0042006F025FE7C487C4C01687C4D7D4E59
S31500001BC041F0010101600021C26842F08072C260EA
S31500001BD002227948206029603160784878490A6095
S31500001BE006F07FFB7749784A784B0818B0FBF2F08D
S31500001BF0401E1860002129644FF4807274487549AC
S31500001C0020653160744802602B6843F480732B6052
S31500001C1070BD38B506F05EF9604D297800240229BA
S31500001C2012BF01240321297006F05AF904BB61484A
S31500001C300168CA070ED569490B6823F440630B6037
S31500001C40016849084900016002681102FCD4642059
S31500001C5007F001FA00220021042006F0D1FD5849C0
S31500001C605D4B00200860186001224F4908602A7009
S31500001C7031BD4D48006800B10120C0B27047D12285
S31500001C8002704170090A817055490A78C2700420B1
S31500001C90521C0A7070472DE9F14F82B04D1D07F0B6
S31500001CA04BFA002400904FF6FF7ADFF83881DFF810
S31500001CB000913D4E1DE002980019514610F8027C35
S31500001CC0384607F06DFA82465C463A480168CA070C
S31500001CD00FD5F06840F08070F060D9F8001041F43C
S31500001CE08071C9F80010D8F800000028F1D088F8F3
S31500001CF00070316851B3E0B2E9B2884226D207F0EB
S31500001D001BFA0099401A80B240F2F512904223DA8B
S31500001D10E0B210B95B270124D7E7012802D16F1F73
S31500001D200224D2E704F1010BE8B2E4B2C11E8C42F0
S31500001D3008BF5746C8D0821E944208BF4FEA1A27EA
S31500001D40C2D0401E8442B6D15D27BDE7E4B2EDB2F3
S31500001D50AC4208BF002000D00120BDE8FE8F10B5C0
S31500001D600C4600222178052902DBFFF794FF024684
S31500001D7004202070104610BD80B50A4B186890B03C
S31500001D804022694607F0FBF820B1C2B2694612202C
S31500001D9007F0E8FA11B000BD00350A0000F703208D
S31500001DA01088144248E80320F0ED00E0B00F00E090
S31500001DB0000E00E0800E00E055CEACC506000E0019
S31500001DC0F00004E0FCAC0600F8590D00100004E039
S31500001DD0FF0300400D000100040304E0001000E0D2
S31500001DE05EFF0320200000E073696C616273767504
S31500001DF0617274646F776E002DE9F0410446904677
S31500001E00012522008AB00F461E4606D0012C1DD0A1
S31500001E10102C02D0202C19D01FE0002105F023FD44
S31500001E200546012C18BF202C08D0022C18BF212CE7
S31500001E3004D0032C1CBF222C232C1BD1012E01976E
S31500001E40ADF80C800BD14FF480500CE04FEA0D003A
S31500001E5026A12822FFF7B8FDE3E701200BE0022EBA
S31500001E6003D14FF44050ADF80A006946204605F00C
S31500001E70FAFC0546E8B20AB0BDE8F08105F0B9BD46
S31500001E8080B505F0C1FDC0B202BD80B505F00BFE00
S31500001E90C0B202BD7CB5044600200D4616468DF83C
S31500001EA0000001E0FFF70EFE6B463246294620464B
S31500001EB0FFF7EBFF0028F5D176BD80B505F07AFE79
S31500001EC0C0B202BD80B505F091FFC0B202BD0CB430
S31500001ED080B50A46014602AB0348FEF792FF02BCF4
S31500001EE000205DF80CFB00008B7D00000000014027
S31500001EF000C2010000000010000000000300020004
S31500001F000300000000000000000000001E1E00008C
S31500001F1010001000002080F31188704742DE7047E1
S31500001F2038B504460D4604F0CBFBFFF7CBFD07F0B2
S31500001F3079FA2946204607F045F92B464FEA04026E
S31500001F4076A10120FFF7C3FF29462046BDE83440AD
S31500001F50E4E769482DE9F843684E0168B1654FF436
S31500001F602068026A6649F2650B68336649687166DD
S31500001F70426AB266816AF166C26A3267016B71674C
S31500001F80806B96F83810B06748074CBF346CF46B1A
S31500001F9007F068FA002232658442DFF868E10146FC
S31500001FA024BFAEF12007A742A146716506F1900253
S31500001FB0554BDFF858C118D3A0697064E469B4645E
S31500001FC0B56DC5F30805062D13D1604511D39842AA
S31500001FD00FD200884DF64264A0420AD17068B468F8
S31500001FE05060946040F2017803E000247464B464A5
S31500001FF081464748814238BF0146084670456AD245
S315000020000C68B4F1CD3F08BF091DF6D063E0062C7D
S3150000201009D1C4B2002C0CBF0520401E06F17C0479
S31500002020C5B244F82510F14520D25EF8041D61457D
S31500002030F9D39942F7D2CC07F5D5002406F17C05F1
S3150000204055F824708F42E2D0641C062CF8D3DEE7E4
S31500002050F16F002306F17C0506EB8304D4F880407B
S3150000206045F823405B1C042BF6D911600146481E37
S31500002070C9B20029ECD1B06DC0F30800032810D016
S31500002080042811D0052812D0062813D00C2817D002
S31500002090122818D11F480268910719D540F2025834
S315000020A016E040F6012813E040F6022810E040F65C
S315000020B003280DE0B8F5206F0AD140F6042807E0A2
S315000020C040F6052804E018B1432838BF40F6072833
S315000020D04046BDE8F2831049081AF064002100204A
S315000020E006F17C04C5B2401CC7B244F82510062F81
S315000020F0F8D3002097E7000004ED00E00000002080
S3150000210000E300E048E70320C29C010070030000E2
S315000021109C0000201C20054048E703200D0A5B4177
S3150000212053534552543A25703A25645D0D0A000012
S315000021302DE9F14181B0FFF721F8C4B20025002650
S31500002140E10748BF002020D400270FF2A448F8B2C8
S31500002150A04215DABDF80400F9B207F0D4F918F870
S31500002160002002F00F02F80758BF160106D5BDF889
S3150000217004003243E9B207F0DEF96D1C7F1CE6E786
S31500002180E9B201A807F078F90120BDE8F68100F16F
S31500002190240100224A80C273C2830A7082730068D7
S315000021A0C86070472DE9F74F82B0054600208DF8CC
S315000021B0010005F1240608E0687B70720122EA73CB
S315000021C029469DF8000000F0AEF903980027002488
S315000021D060BB9DF810006946FFF752FE002839D013
S315000021E0262826D00121284600F08FF978208DF880
S315000021F00000A046102700218DF80110E97B082970
S31500002200E3D8DFE811F00A004B008E00EA00EA008E
S3150000221041014D01AD009E00D7E7102FCCD09DF8AF
S315000022200000232836D10821E973CEE79DF8100077
S3150000223020B99DF8010005B0BDE8F08F0398401C59
S31500002240039010F8011D9DF810008DF80010411E36
S315000022508DF81010A0469DF8000067280FD29DF853
S3150000226000100FF28C30405C00F0300700F00F08D1
S31500002270400607D5717A884504DA012402E07B28F6
S3150000228038BF10279DF800000A2818BF0D28B2D1C4
S315000022900121B1E7202F98D0032029E1102F1CBF80
S315000022A09DF800005F2800D01CB130780C28F3DAC6
S315000022B086E7202F18BF302F3FD1327805F1110164
S315000022C0002088544FF00009F06801900DE01AF8DC
S315000022D0010B00F021F91BF8011B81420CD001987B
S315000022E000F1100109F1010901910199486820B333
S315000022F0D1F800A005F1110B9BF800000028E6D1EB
S315000023009AF800100029EAD1A5F81E90F068E98B2A
S3150000231000EB0112002190682862A9733170022235
S31500002320EA73002C687B70722FD02B203072C6F8AF
S3150000233004800421687B707276E70321284600F04A
S31500002340E4F89DF80100002809D0287C20B16968CE
S3150000235028468847002028742846FFF718FF34E7E8
S315000023609DF8010018B1284600F0E9F8F4E79DF859
S315000023700000232805D1284600F0E1F80820E8737C
S3150000238023E7202FFCD00420B2E09DF800002D2882
S3150000239018BF2B2804D13072002171600321C9E7D0
S315000023A022280AD100210020FEF78BFF002870802A
S315000023B00BD000F0A5F80520E1E77B28D0D100215D
S315000023C00020FEF77EFF0028708000F0908000F06D
S315000023D097F810207072062126E744B17068717A6A
S315000023E0042201FB0088EA73C6F80480EDE69DF836
S315000023F00000782818BF582804D1706810B9102139
S315000024007172E2E69DF80000742818BF542803D1C3
S31500002410706808B90A21F3E7032956D0202F18BFA0
S31500002420302F52D1296A08784A78337A71682D2B71
S3150000243008BF4942752808D1342A1AD00020312A0B
S3150000244014BF4FF6FF72FF220FE0732808D1312A1E
S3150000245007BF6FF07F007F22284847F6FF7204E02F
S315000024600421284600F051F86BE78142A8BF8A4252
S3150000247008DB0222284600F081F80028F4D002206A
S31500002480E8734EE70621ECE79DF8000022281ED1EE
S315000024900021284600F08AF80028B2D002206EE714
S315000024A09DF800007D280DD17088FFF741FE044697
S315000024B00121284600F07AF808B10220E873002CC2
S315000024C09FD102E0202F9CD00CB9072010E0708825
S315000024D0FEF754FEFF2808BF082009D00123012279
S315000024E0694605F12600FEF751FF002889D0022033
S315000024F08DF800009DF8001020E700000080FFFF27
S31500002500002105F1260006F0B7BF027C1AB90823A0
S31500002510C37301745FE07047A0F141011A293CBF03
S315000025202030C0B2704738B50C4694F82450FFF7F7
S31500002530F3FF61196D1C487484F8245031BD10B541
S315000025400446216A087830B162280CBF01200220B7
S31500002550085C2A2807D1216BE28B01EB0213204687
S315000025605968884706E00420207420466168884739
S31500002570002020742046BDE810402CE010B5837B77
S31500002580047BA34204D10521FFF7BFFF002010BD45
S31500002590846844F82310817B491C8173016A8B5C33
S315000025A02A2B1CBF89180162012010BD80B5026A62
S315000025B01378622B04D00421FFF7A7FF002002BD89
S315000025C0C38C03F0FF03002203EB0121C284012226
S315000025D0BDE80840D2E7837B002100E0491CCAB26F
S315000025E09A42FBD30022C18C827301B1C284704728
S315000025F00000000000000000002020202020000035
S3150000260000000000000000000000000000000000C4
S3150000261020003030000000000000003000300000D4
S3150000262040414243444546474849000000000000F7
S31500002630005A5B5C5D5E5F101010101010101010D9
S3150000264010101010101010101010103000000000A4
S31500002650005A5B5C5D5E5F0000B10C30704706F0AF
S31500002660A9BF38B50D460446002103F075F9294681
S31500002670204607F0EAF808B1002032BD204632BDF8
S3150000268070B50D00064614BF012400241F21204604
S3150000269008F060FB284606F0ACFF002086F8B8007C
S315000026A03067F5661F21204608F054FB4FF6FF748D
S315000026B00020E96888420CD2AA68182111FB00F1B3
S315000026C01144C989A14201DA0C0002D0401CC0B2F3
S315000026D0EFE7DFF800030021016041603046214644
S315000026E000F0D0F8204670BD704710B5044607F0DC
S315000026F046F9002C0CBF002004F10C00806F01008D
S31500002700DFF8D01208BFDFF8D002886010BD38B5F8
S3150000271000F0A3F9054607F0E5F9012801D00220EB
S3150000272032BD21462846BDE8344007F079B9DFF8C6
S31500002730A4020068704710B50C4607F083F91CB177
S3150000274007F0D0F90128FBD1DFF890225368BDE8E5
S315000027501040002103201847010001D100207047D6
S3150000276043F2C922904203D2652803D264207047FF
S3150000277043F2C820704738B50C4605462088FFF757
S31500002780EBFF20806088FFF7E7FF6080A088FFF7F7
S31500002790E3FFA080E088FFF7DFFFE08043F2C92275
S315000027A0208943F2C821904228BF084620816089CB
S315000027B0904238BF014661812846FFF74DFF21460A
S315000027C0BDE8344008F0DFB92DE9F04B026F1AB1CD
S315000027D003898AB29A424CD0C46E002C1CBFA268F0
S315000027E0002A01D0E26812B90320BDE8F08BD0F8C8
S315000027F0808000258B46A946002706460021E06812
S31500002800814539D2A268D0191FFA8BF2C3899A4240
S3150000281022BF028A1FFA8BF39A4219D305465FEA52
S315000028200800B5F9122003D0B6F9EE00824223DA89
S31500002830FF2047F6FF739A4205D096F8AC10A6F132
S315000028400C0008F093FA72799042014680F01480E9
S3150000285009F101091837D2E75FEA080004D000231E
S315000028602A4600213046C047A6F808B0356786F8E4
S31500002870B5400020BDE8F08B002D0C46ECD10120C0
S31500002880BDE8F08BF0B581B004460D4608F0DAFAE3
S315000028900646A9B22046FFF797FF070006D1002398
S315000028A00022A9B2204600F007F80746304608F095
S315000028B0CDFA384601B0F0BD2DE9F84781B005469E
S315000028C00F46144608F0F2F9424EB6F80CA04FF047
S315000028D0000808F015FAC14618B1C6F8048008F0D9
S315000028E00AFA286F7168884203D110B1B8B2504510
S315000028F06AD007F0F7F8012803D001210120FFF77D
S315000029001AFF3068E8B1EA6E90420BD1716849B19E
S315000029102B6F994206D1B8B2824518BF4FF0010914
S31500002920E4B217E0016861B11268914209D1296FDA
S315000029300A687168012411B1096891420AD0416898
S3150000294004E0286FE96E026809680124284608F049
S315000029503FF88046D5F880C0BCF1000F0BD16979ED
S3150000296095F8B5009DF80420814288BF01462846A7
S3150000297007F0EFFC04E001AB002200212846E04707
S315000029805FEA08000ED1E86E3060B9F1000F296FDA
S31500002990716008BF002C17D0BFB2F760284607F059
S315000029A042FD804684B1B8F101008041C00F332159
S315000029B008F0D0F99DF80410284608F021F8296F90
S315000029C0B268A5F10C009047404602B0BDE8F0871A
S315000029D000897047A8E90320E926000084EB03205C
S315000029E001281CBF0428022801D1012070470020BD
S315000029F0704738B500F02DF840B16878FFF7F0FF62
S31500002A0020B1297868780143490701D5012032BDF4
S31500002A1029462046BDE8344007F0E7BB10B500F074
S31500002A201CF82146BDE81040E3E738B500F011F880
S31500002A3038B16878FFF7D4FF00281CBF68780428EF
S31500002A4001D1012032BD29462046BDE8344007F0B9
S31500002A50F0BB0D4604462878C2E70C46FCE510B5E7
S31500002A60FFF7FBFF2146BDE81040DEE7FEB5DDE9D6
S31500002A70086714461D46FFF7EFFDCDE900672246BD
S31500002A802B4606F040FFFEBD10B5FFF7E6FF2146D8
S31500002A90BDE8104007F082BF2DE91040DFF8684717
S31500002AA005A12078FEF7BAFA94F8000006A1BDE861
S31500002AB01040FEF7B3BA0000286C6974746C652088
S31500002AC0656E6469616E00002C20616C6C20646127
S31500002AD0746120726570726573656E7465642061D9
S31500002AE0732062797465206172726179290D0A001A
S31500002AF001460878A0F130030A2B38BF30380AD3D4
S31500002B00A0F14103062B38BF373804D3A0F1610288
S31500002B10062A02D25738000100E000204978A1F1C8
S31500002B2030030A2B02D2401830380EE0A1F14103DF
S31500002B30062B02D24018373807E0A1F16102062AB7
S31500002B4039BF401857380006000FC0B27047000062
S31500002B5010B508F07FF9020018D0DFF8AC462078EF
S31500002B60042A08BF0FF2280107D0062A08BF0FF271
S31500002B706C0102D0072A03D129A1FEF74FFA02E021
S31500002B8039A1FEF74BFA207844A190E710BD00006A
S31500002B9068616C537461636B496E6974546F6B65DD
S31500002BA06E73204641494C45442077697468204538
S31500002BB04D4245525F454550524F4D5F4D46475F2A
S31500002BC0535441434B5F56455253494F4E5F4D490F
S31500002BD0534D415443480D0A0000000068616C5390
S31500002BE07461636B496E6974546F6B656E732046CE
S31500002BF041494C4544207769746820454D42455209
S31500002C005F454550524F4D5F4D46475F56455253BF
S31500002C10494F4E5F4D49534D415443480D0A0000FC
S31500002C2068616C537461636B496E6974546F6B654C
S31500002C306E73204641494C454420776974682045A7
S31500002C404D4245525F454550524F4D5F53544143A7
S31500002C504B5F56455253494F4E5F4D49534D415474
S31500002C6043480D0A0000000068616C537461636B91
S31500002C70496E6974546F6B656E73204641494C45C5
S31500002C8044207769746820456D6265725374617477
S31500002C9075733A2025580D0A00000000546F6B65C5
S31500002CA06E7320617265207374696C6C2061637445
S31500002CB0697665207768656E207573696E6720741E
S31500002CC0686973206170706C69636174696F6E2ED8
S31500002CD00D0A00002DE9F84FC0B08068DFF82875AE
S31500002CE00568FFF7D9FEA8B208F025F98046A8B214
S31500002CF008F0FEFA0446A8B208F0E1FB8346002C71
S31500002D0038781ABF4FF6FF7290450FF2005128D05F
S31500002D102346AAB20FF2D811FEF780F900250FF26A
S31500002D2070290FF2702A06E000F01CF8761CF0B24B
S31500002D30A042F9DB6D1CE8B2584510DABBF1010F71
S31500002D40234603D17F2201F0BDF906E0EAB201F085
S31500002D50B9F938785146FEF761F90026E7E7387881
S31500002D6051465BE01DF8002038784946FEF756B913
S31500002D702DE9F84F0446C0B0A168DFF88C740E68E0
S31500002D80B0B208F0B5FA8046B0B208F0D4F883467F
S31500002D90B0B208F094FB0646B8F1000FAFA006D11A
S31500002DA004F11101FEF7E0FD0FF2B42135E04FF614
S31500002DB0FF72934504F1110104D1FEF7D5FD0FF220
S31500002DC0C4212AE0FEF7D0FD97F8000016A142467E
S31500002DD0FEF724F900240FF2B8190FF2B81A06E02C
S31500002DE0FFF7C0FF6D1CE8B24045F9DB641CE0B29A
S31500002DF0B04211DA012E434604D17F22594601F032
S31500002E0062F907E0E2B2594601F05DF938785146B9
S31500002E10FEF704F90025E6E708A13878FEF7FEF884
S31500002E2041B0BDE8F08F00007B73697A653A25648E
S31500002E307D7B76616C75653A000000007D7D0D0A2C
S31500002E40000000002DE9F047C0B0806807684468BC
S31500002E50DFF8B463FFF720FEB8B208F049FA8046FF
S31500002E60B8B208F068F88146B8B208F028FB054603
S31500002E70B8F1000F30781ABF4FF6FF7291450FF286
S31500002E808C3130D0A5F1010A15B1E1B28A450BDAD1
S31500002E900FF28431FEF7C2F830780FF2B4315346A0
S31500002EA00022FEF7BBF820E04346BAB210A1FEF7B7
S31500002EB0B5F8012D08BF7F244346E2B2494601F02A
S31500002EC002F934A530782946FEF7A8F8002430A781
S31500002ED004E01DF8012001F003F9641CE1B230782A
S31500002EE04145F6DB2946FEF799F840B0BDE8F08784
S31500002EF05B2532785D28256429203D002DE9F847B9
S31500002F00C1B08068C04F0668FFF7C6FDB0B208F0D2
S31500002F10EFF98046B0B208F00EF88246B0B208F07B
S31500002F20CEFAB8F1000F1CBF4FF6FF718A45064670
S31500002F3005D138780FF2D421FEF770F827E0002487
S31500002F400FF230391FE016FB08F338785B1E08FBDA
S31500002F5004524946FEF762F8387803226946FEF7BE
S31500002F6099FF6846FFF7C4FD01A948556D1C454504
S31500002F70E9DB012E434601AA14BFE1B27F21504688
S31500002F8007F0A8FF641CB442B8BF0025EFDB61E080
S31500002F90202558000D0A00002DE9F0470646C2B06C
S31500002FA0B06841680768C9B2ADF804100846FEF774
S31500002FB0E5F80446B8B208F09BF90546B8B207F042
S31500002FC0BAFF8246B8B208F07AFA814628008E4FD8
S31500002FD00FF2880804D100F0BDF800BF20A136E04A
S31500002FE04FF6FF718A4503D100F0B4F825A12EE013
S31500002FF0EA2D05DD00F0AEF85FF0EA022BA106E04F
S31500003000AC4208D000F0A6F84FEA05023AA138789B
S31500003010FEF704F81EE0002000902B46BDF80410D1
S31500003020002202A806F042FA0024E0B248450BDA74
S31500003030B9F1010F2B4602AA14BFE1B27F21504617
S3150000304007F048FF641CF0E700F084F83DA13878EB
S31500003050FDF7E4FF42B0BDE8F08700007B264E0096
S315000030607B72657475726E3A317D7B746F6B656EBB
S315000030702073697A65206973207A65726F7D7D0D8C
S315000030800A0000007B72657475726E3A317D7B6949
S315000030906E76616C696420746F6B656E2061646422
S315000030A0726573737D7D0D0A000000007B72657486
S315000030B075726E3A317D7B6F6E6C7920746F6B65BD
S315000030C06E73206F662073697A6520757020746F41
S315000030D0202564422061726520737570706F72746A
S315000030E06564206279207468697320636F6D6D6111
S315000030F06E647D7D0D0A00007B72657475726E3A92
S31500003100317D7B74686520656E74657265642062C6
S31500003110756666657220646F6573206E6F74206DC8
S3150000312061746368207468697320746F6B656E27B9
S31500003130732073697A652028256442297D7D0D0AEE
S31500003140000000007B72657475726E3A307D7D0DED
S315000031500A00000006F111014046FEF705BC00001A
S315000031602DE9F847C1B0806804684668DFF8045E58
S31500003170FFF792FCA0B208F0BBF88046A0B207F0B9
S31500003180DAFE8246A0B208F09AF90446B8F1000FBA
S3150000319028781CBF4FF6FF72924503D11BA1FDF79D
S315000031A03DFF30E0671E14B1F1B28F420ADA00BF6C
S315000031B019A1FDF733FF287825A13B460022FDF72C
S315000031C02DFF20E000270FF2AC0911E02878A8F1C6
S315000031D001033A464946FDF721FF2878032269464E
S315000031E0FEF758FE6846FFF783FC01A9C8557F1C09
S315000031F04745EBDB012C08BF7F26434601AAF1B207
S31500003200504607F067FE25E7ACE703206E6F742093
S31500003210666F756E640D0A004552524F523A20444D
S3150000322065736972656420696E64657820697320C8
S315000032306F7574206F662072616E676520666F72A7
S31500003240207468697320746F6B656E0D0A00000048
S315000032502020202020202056616C69642072616E37
S315000032606765206973202558207468727520255873
S315000032700D0A00006461746120627974655B2564DF
S31500003280206F662025645D3A000000002DE9F043BA
S31500003290A5B0DFF8E05CDFF8E09CFFF7FDFB2878DF
S315000032A04EF24552FFF761FD2878DFF8D01CFEF795
S315000032B004FEDFF8CC0C0188082300F009FF002487
S315000032C0E1A700F009FF00F0F1FEFAD30FF27C3817
S315000032D000F009FF28784CF25632FFF746FD2878B1
S315000032E0DFF8A01CFEF7E9FD0124DFF89C0C00F0D6
S315000032F0EDFE9DF8002000F0F2FE9DF8012000F0A2
S31500003300EEFE641EF1D100F0EEFE28784EF2453254
S31500003310FFF72BFD2878DFF8741CFEF7CEFDDFF8EB
S31500003320700C0188082300F0D3FE00F0D5FE00F0F3
S31500003330BDFEFAD300F0D7FE28784EF67352FFF79B
S3150000334014FD28780FF66041FEF7B7FDDFF8440C50
S315000033500188102300F0BCFE002400F0BDFE00F042
S31500003360ADFEFAD300F0BFFE28784CF24E22FFF7EE
S31500003370FCFC28780FF63C41FEF79FFDDFF8180CA1
S315000033800188102300F0A4FE002400F0A5FE00F042
S3150000339095FEFAD300F0A7FE28784CF64412FFF704
S315000033A0E4FC28780FF61C41FEF787FD0124DFF8C0
S315000033B0EC0B00F08BFE9DF8002000F090FE9DF8CF
S315000033C0012000F08CFE641EF1D100F08CFE2878FE
S315000033D04DF24302FFF7C9FC28780FF6F831FEF7E5
S315000033E06CFD0124DFF8B80B00F070FE9DF800209C
S315000033F000F075FE9DF8012000F071FE641EF1D10B
S3150000340000F071FE28784CF24312FFF7AEFC2878E4
S315000034100FF6D031FEF751FDDFF8880B0188022345
S31500003420E2B200F050FE9DF8002000F058FE9DF834
S31500003430012000F054FE641C60B21428ECDB00F09E
S3150000344052FE28784DF64322FFF78FFC28780FF6B8
S31500003450A431FEF732FDDFF8980C0188012300F055
S3150000346037FE9DF8002000F03AFE00F03CFE28787A
S315000034704DF64822FFF779FC28780FF69031FEF7D3
S315000034801CFDDFF8700C0188012300F021FE9DF879
S31500003490002000F024FE00F026FE28784DF6522289
S315000034A0FFF763FC28780FF67C31FEF706FDDFF8A0
S315000034B0480C0188102300F00BFE002400F00CFEDF
S315000034C000F0FCFDFAD300F00EFE28784DF24E32E5
S315000034D0FFF74BFC28780FF66C31FEF7EEFCDFF8B1
S315000034E01C0C0188102300F0F3FD002400F0F4FD0D
S315000034F000F0E4FDFAD300F0F6FD28784DF24632EE
S31500003500FFF733FC28780FF65031FEF7D6FC01247E
S31500003510DFF8EC0B00F0DAFD9DF8002000F0DFFD8F
S315000035209DF8012000F0DBFD641EF1D100F0DBFD0B
S3150000353028784CF24332FFF718FC28780FF6303122
S31500003540FEF7BBFC0124DFF8BC0B00F0BFFD9DF8C5
S31500003550002000F0C4FD9DF8012000F0C0FD641EAF
S31500003560F1D100F0C0FD28784CF65352FFF7FDFB71
S3150000357028780FF61031FEF7A0FCDFF88C0B0188D7
S31500003580082300F0A5FD00F0A7FD00F08FFDFAD39B
S3150000359000F0A9FD28784CF25432FFF7E6FB2878B4
S315000035A00FF6F421FEF789FC0124DFF8600B00F02A
S315000035B08DFD9DF8002000F092FD9DF8012000F0A1
S315000035C08EFD641EF1D100F08EFD28784DF6540272
S315000035D0FFF7CBFB28780FF69031FEF76EFC01243F
S315000035E0DFF82C0B00F072FD9DF8002000F077FD4F
S315000035F09DF8012000F073FD641EF1D100F073FD0B
S3150000360028784CF65442FFF7B0FB28780FF6643161
S31500003610FEF753FCDFF8FC0A0188012300F058FD91
S315000036209DF8002000F05BFD00F05DFD28784DF26E
S315000036305702FFF79AFB28780FF64831FEF73DFC54
S31500003640DFF8D40A04E000BF202558000D0A000068
S315000036500188102300F03CFD00F03EFD00F02EFD39
S31500003660FAD300F040FD28784CF25732FFF77DFB85
S3150000367028780FF62431FEF720FCDFF8A00A01882F
S31500003680042300F025FD002400F026FD00F012FDC5
S31500003690FAD300F028FD28784CF65752FFF765FB61
S315000036A028780FF60831FEF708FCDFF8740A01885F
S315000036B0042300F00DFD002400F00EFD00F0FAFCDE
S315000036C0FAD300F010FD28784DF25752FFF74DFB64
S315000036D028780FF6EC21FEF7F0FBDFF8480A0188A0
S315000036E0042300F0F5FC002400F0F6FC00F0E2FCF8
S315000036F0FAD300F0F8FC28784CF25742FFF735FB76
S3150000370028780FF6D021FEF7D8FBDFF81C0A0188CF
S31500003710042300F0DDFC002400F0DEFC00F0CAFC0F
S31500003720FAD300F0E0FC28784CF24B22FFF71DFBA1
S3150000373028780FF6B421FEF7C0FBDFF8F009018800
S31500003740102300F0C5FC002400F0C6FC00F0B6FC17
S31500003750FAD300F0C8FC28784CF24232FFF705FB9A
S3150000376028780FF69C21FEF7A8FBDFF8C40901882C
S315000037705C2300F0ADFC002400F0AEFC641CE0B25B
S315000037805C28F9D300F0AFFC28784CF64312FFF71B
S31500003790ECFA28780FF67821FEF78FFBDFF894090C
S315000037A00188142300F094FC002400F095FC641CAE
S315000037B0E0B21428F9D300F096FC28784DF2433293
S315000037C0FFF7D3FA28780FF66021FEF776FB01247F
S315000037D0DFF8640900F07AFC9DF8002000F07FFC19
S315000037E09DF8012000F07BFC641EF1D100F07BFC0B
S315000037F028784DF24232FFF7B8FA28780FF63C21C6
S31500003800FEF75BFBDFF834090188102300F060FC4B
S3150000381000F062FC00F052FCFAD300F064FC287859
S315000038204CF24532FFF7A1FA28780FF62C21FEF765
S3150000383044FBDFF80C090188942300F049FC0024BE
S3150000384000F04AFC641CE0B29428F9D300F04BFC6B
S3150000385028784DF25832FFF788FA28780FF60C21AF
S31500003860FEF72BFBDFF8DC080188202300F030FC94
S31500003870002400F031FC00F015FCFAD300F033FC14
S3150000388028784DF25932FFF770FA28780FF6F811BA
S31500003890FEF713FBDFF8B0080188202300F018FCC0
S315000038A0002400F019FC00F0FDFBFAD300F01BFC2D
S315000038B028784CF64B22FFF758FA28780FF6E411D1
S315000038C0FEF7FBFADFF884080188222300F000FCEB
S315000038D0002400F001FC641CE0B22228F9D300F0B9
S315000038E002FC28784DF65022FFF73FFA28780FF6AB
S315000038F0C811FEF7E2FADFF858080188202300F025
S31500003900E7FB002400F0E8FB00F0CCFBFAD300F064
S31500003910EAFB28784DF65522FFF727FA28780FF6A6
S31500003920A411FEF7CAFADFF82C080188202300F05C
S31500003930CFFB002400F0D0FB00F0B4FBFAD300F07C
S31500003940D2FB28784DF65122FFF70FFA28780FF6AA
S315000039508011FEF7B2FADFF8000801885A2300F05A
S31500003960B7FB002400F0B8FB641CE0B25A28F9D378
S3150000397000F0B9FB28784CF64B62FFF7F6F9287889
S315000039800FF65C11FEF799FADFF8D00701881023CD
S3150000399000F09EFB002400F09FFB00F08FFBFAD3A3
S315000039A000F0A1FB28784DF64922FFF7DEF92878CA
S315000039B00FF64011FEF781FADFF8A407018801230C
S315000039C000F086FB9DF8002000F089FB00F08BFBE1
S315000039D028784BF23462FFF7C8F928780FF62811D9
S315000039E0FEF76BFADFF87C070188082300F070FB0E
S315000039F0002400F071FB00F059FBFAD300F073FBD2
S31500003A0028784FF60172FFF7B0F928780FF60411FF
S31500003A10FEF753FA012402237F22002100F053FB14
S31500003A209DF8002000F05BFB9DF8012000F057FB9D
S31500003A30641EF0D100F057FB28784EF22312FFF7F0
S31500003A4094F928780FF6E401FEF737FA04237F226B
S31500003A50012100F038FB00F03FFB00F02BFBFAD30E
S31500003A6000F041FB28784EF27542FFF77EF9287880
S31500003A700FF6D001FEF721FA11237F22022100F072
S31500003A8022FB002400F028FB00F018FBFAD900F016
S31500003A902AFB28784EF26322FFF767F928780FF69B
S31500003AA0B801FEF70AFA04237F22032100F00BFB7C
S31500003AB0002400F011FB00F0FDFAFAD300F013FB2E
S31500003AC028784EF26352FFF750F928780FF69C01DA
S31500003AD0FEF7F3F904237F22042100F0F4FA002410
S31500003AE000F0FAFA00F0E6FAFAD300F0FCFA2878C9
S31500003AF04EF26212FFF739F928780FF68401FEF7C5
S31500003B00DCF9012402237F22052100F0DCFA9DF86E
S31500003B10002000F0E4FA9DF8012000F0E0FA641EAF
S31500003B20F0D100F0E0FA28784EF67932FFF71DF969
S31500003B3028780FF66401FEF7C0F911237F220621CB
S31500003B4000F0C1FA00F0C8FA00F0B8FAFAD900F0AD
S31500003B50CAFA28784EF66462FFF707F928780FF656
S31500003B604401FEF7AAF910237F22072100F0ABFAE1
S31500003B70002400F0B1FA00F0A1FAFAD300F0B3FA8B
S31500003B8028784EF22412FFF7F0F828780FF6240171
S31500003B90FEF793F91A237F22082100F094FA0024F5
S31500003BA000F09AFA641CE0B21A28F9D300F09BFAE6
S31500003BB028784EF22512FFF7D8F828780FF6080174
S31500003BC0FEF77BF908237F22092100F07CFA002406
S31500003BD000F082FA00F06AFAFAD300F084FA287844
S31500003BE04EF22612FFF7C1F828780FF2F871FEF7A9
S31500003BF064F90A237F220A2100F065FA002400F006
S31500003C006BFA641CE0B20A28F9D300F06CFA287843
S31500003C104EF22712FFF7A9F828780FF2DC71FEF7AB
S31500003C204CF9012402237F220B2100F04CFA9DF867
S31500003C30002000F054FA9DF8012000F050FA641EAE
S31500003C40F0D100F050FA28784EF22812FFF78DF8DE
S31500003C5028780FF2C471FEF730F918237F220C2161
S31500003C6000F031FA00F038FA641CE0B21828F9D3F3
S31500003C7000F039FA28784EF22912FFF776F82878FC
S31500003C800FF2B071FEF719F901237F220D2100F022
S31500003C901AFA9DF8002000F022FA00F024FA28789B
S31500003CA04EF21022FFF761F828780FF2A071FEF7A6
S31500003CB004F900F018FA28784EF21122FFF755F8A9
S31500003CC028780FF2A471FEF7F8F800F00CFA2878BD
S31500003CD04EF21222FFF749F828780FF2AC71FEF780
S31500003CE0ECF800F000FA28784EF21322FFF73DF8C0
S31500003CF028780FF2B871FEF7E0F800F0F4F92878AA
S31500003D004EF21422FFF731F828780FF2C471FEF74D
S31500003D10D4F800F0E8F928784EF21522FFF725F8D6
S31500003D2028780FF2D471FEF7C8F800F0DCF928788D
S31500003D304EF22022FFF719F828780FF2DC71FEF711
S31500003D40BCF804237F22142100F0BDF9002400F002
S31500003D50C3F900F0AFF9FAD300F0C5F928784EF2AE
S31500003D602122FFF702F828780FF2D071FEF7A5F8A6
S31500003D7000F0B9F928784EF27422FEF7F6FF28789B
S31500003D800FF2E471FEF799F800F0ADF928784FF6D6
S31500003D900D72FEF7EAFF28780FF2E071FEF78DF854
S31500003DA000240B23E2B2172100F08DF90026F1B2B0
S31500003DB000F093F9761CF0B20A28F8D9641C61B2B7
S31500003DC00529EEDD00F08FF928784EF25642FEF70F
S31500003DD0CCFF28780FF2B871FEF76FF800F083F980
S31500003DE028784FF46542FEF7C0FF28780FF2B071CD
S31500003DF0FEF763F800F077F928784EF20352FEF7E3
S31500003E00B4FF28780FF2B071FEF757F800240123AB
S31500003E10E2B21A2100F057F99DF8002000F05FF990
S31500003E20641C60B20528F2DD00F05DF928784EF2D8
S31500003E300152FEF79AFF28780FF29871FEF73DF8C7
S31500003E4010237F221B2100F03EF9002400F044F9E4
S31500003E5000F034F9FAD300F046F928784EF202520F
S31500003E60FEF783FF28780FF27C71FEF726F82823E9
S31500003E707F221C2100F027F9002400F02DF9641C94
S31500003E80E0B22828F9D300F02EF928784EF258220D
S31500003E90FEF76BFF28780FF26071FEF70EF812231B
S31500003EA07F221D2100F00FF9002400F015F9641C93
S31500003EB0E0B21128F9D900F016F928784EF2592205
S31500003EC0FEF753FF28780FF24071FDF7F6FF002446
S31500003ED03423E2B21E2100F0F6F80026F1B200F01B
S31500003EE0FCF8761CF0B23428F8D3641C61B20529BC
S31500003EF0EEDB00F0F8F828784EF25B22FEF735FF8D
S31500003F0028780FF21C71FDF7D8FF00F0ECF828783E
S31500003F104EF25A22FEF729FF28780FF21C71FDF7A0
S31500003F20CCFF00F0E0F828784EF25C22FEF71DFF89
S31500003F3028780FF21871FDF7C0FF00F0D4F8287842
S31500003F404EF25052FEF711FF28780FF22071FDF75E
S31500003F50B4FF00F0C8F828784EF25152FEF705FF7C
S31500003F6028780FF22471FDF7A8FF00F0BCF825B001
S31500003F70BDE8F083ACE7032000B7010008B70100F5
S31500003F80B8DF01001CB70100BADF010030B701003D
S31500003F90BCDF0100BEDF0100C0DF0100C2DF01009F
S31500003FA0C4DF0100C6DF01004D46475F5354524946
S31500003FB04E4700004D46475F424F4152445F4E41D7
S31500003FC04D4500004D46475F4D414E55465F4944BD
S31500003FD0000000004D46475F5048595F434F4E462C
S31500003FE0494700004D46475F4153485F434F4E46A1
S31500003FF0494700004D46475F5A574156455F434F74
S31500004000554E5452595F4652455100004D46475F42
S315000040105A574156455F48575F56455253494F4E8A
S31500004020000000004D46475F5A574156455F5053C2
S315000040304555444F5F52414E444F4D5F4E554D429C
S31500004040455200004D46475F53455249414C5F4E2D
S31500004050554D4245520000004D46475F53594E5458
S31500004060485F465245515F4F46465345540000004F
S315000040704D46475F4343415F5448524553484F4C72
S31500004080440000004D46475F455A53505F53544F16
S3150000409052414745000000004D46475F4354554E88
S315000040A045000000641CE0B220287047641CE0B2A2
S315000040B008287047641CE0B204287047641CE0B20C
S315000040C0102870474146684606F0E6BE018802237E
S315000040D07F22684606F0E0BEE1B21DF8012028788E
S315000040E03946FCF79BBF28784146FCF797BF00008E
S315000040F0C8DF0100CADF0100CCDF0100CEDF01000E
S31500004100D0DF0100D2DF0100D4DF0100D6DF0100DD
S31500004110D8DF0100DADF0100DCDF0100DEDF0100AD
S31500004120E0DF0100E2DF0100E4DF0100E6DF01007D
S31500004130E8DF0100EADF0100ECDF0100EEDF01004D
S31500004140F0DF0100F2DF0100F4DF0100F6DF01001D
S31500004150F8DF0100FADF0100FCDF0100FEDF0100ED
S3150000416000E0010002E001004D46475F584F5F54F2
S31500004170554E45004D46475F4C46584F5F54554E89
S31500004180450000004D46475F4C4F434B4249545350
S315000041905F504C57000000004D46475F4C4F434B65
S315000041A0424954535F434C57300000004D46475F29
S315000041B04C4F434B424954535F4D4C57000000004F
S315000041C04D46475F4C4F434B424954535F554C57FE
S315000041D0000000004D46475F4C4F434B4249545345
S315000041E05F444C57000000004D46475F424F4F5416
S315000041F04C4F41445F4145535F4B45590000000019
S315000042004D46475F43424B455F44415441000000E1
S315000042104D46475F494E5354414C4C4154494F4ECD
S315000042205F434F44450000004D46475F53454355A5
S31500004230524954595F434F4E464947004D46475FE2
S315000042405345435552455F424F4F544C4F414445A9
S31500004250525F4B45590000004D46475F43424B4570
S315000042605F3238334B315F44415441004D46475F1E
S315000042705349474E45445F424F4F544C4F41444586
S31500004280525F4B45595F58004D46475F5349474E6D
S3150000429045445F424F4F544C4F414445525F4B4556
S315000042A0595F59004D46475F5448524541445F4A5D
S315000042B04F494E5F4B4559004D46475F5A575F5031
S315000042C0524B00004D46475F5A575F50554B000012
S315000042D04D46475F5A575F51525F434F4445000072
S315000042E04D46475F4E564D335F43525950544F5FCC
S315000042F04B4559004D46475F5A575F494E49544909
S31500004300414C495A454400004D46475F4555495F73
S3150000431036340000535441434B5F4E56444154419A
S315000043205F56455253494F4E0000000053544143D7
S315000043304B5F4150535F4652414D455F434F554E8B
S3150000434054455200535441434B5F414C5445524EE1
S315000043504154455F4B455900535441434B5F424FCF
S315000043604F545F434F554E544552000053544143FA
S315000043704B5F4E4F4E43455F434F554E544552009B
S31500004380535441434B5F414E414C595349535F523D
S3150000439045424F4F54000000535441434B5F4B4539
S315000043A059530000535441434B5F4E4F44455F44BD
S315000043B041544100535441434B5F54525553545F4B
S315000043C043454E5445520000535441434B5F4E45BE
S315000043D054574F524B5F4D414E4147454D454E5404
S315000043E000000000535441434B5F504152454E5428
S315000043F05F494E464F000000535441434B5F5041C6
S3150000440052454E545F4144444954494F4E414C5FD6
S31500004410494E464F00000000535441434B5F4D55F3
S315000044204C54495F5048595F4E574B5F494E464F73
S3150000443000000000535441434B5F4D494E5F5245C7
S315000044404345495645445F52535349004D554C54D4
S31500004450495F4E4554574F524B5F535441434B5F50
S315000044604B455953000000004D554C54495F4E458D
S3150000447054574F524B5F535441434B5F4E4F444545
S315000044805F444154410000004D554C54495F4E4530
S3150000449054574F524B5F535441434B5F414C544525
S315000044A0524E4154455F4B45590000004D554C5402
S315000044B0495F4E4554574F524B5F535441434B5FF0
S315000044C054525553545F43454E5445520000000024
S315000044D04D554C54495F4E4554574F524B5F5354BC
S315000044E041434B5F4E4554574F524B5F4D414E41F2
S315000044F047454D454E5400004D554C54495F4E4579
S3150000450054574F524B5F535441434B5F50415245B2
S315000045104E545F494E464F004D554C54495F4E45EB
S3150000452054574F524B5F535441434B5F4E4F4E438C
S31500004530455F434F554E5445520000004D554C546F
S31500004540495F4E4554574F524B5F535441434B5F5F
S31500004550504152454E545F4144444954494F4E419F
S315000045604C5F494E464F0000535441434B5F42490E
S315000045704E44494E475F5441424C450053544143D3
S315000045804B5F4348494C445F5441424C4500000050
S31500004590535441434B5F4B45595F5441424C450090
S315000045A0535441434B5F4345525449464943415452
S315000045B0455F5441424C4500535441434B5F41448F
S315000045C0444954494F4E414C5F4348494C445F442B
S315000045D041544100535441434B5F5A4C4C5F444154
S315000045E054410000535441434B5F5A4C4C5F534572
S315000045F04355524954590000535441434B5F475069
S315000046005F44415441000000535441434B5F4750BF
S315000046105F50524F58595F5441424C4500000000CC
S31500004620535441434B5F47505F494E434F4D494EAC
S31500004630475F464300000000535441434B5F4750D9
S315000046405F53494E4B5F5441424C450053544143DE
S315000046504B5F47505F494E434F4D494E475F464378
S315000046605F494E5F53494E4B000000004D554C5478
S31500004670495F50414E5F535441434B5F4348494C59
S31500004680445F5441424C45004D554C54495F50419E
S315000046904E5F535441434B5F4144444954494F4E46
S315000046A0414C5F4348494C445F444154410000003B
S315000046B010B506F0D7FF40F2A174C440E0070BD551
S315000046C0064C207806F0EEFF207807F093F8207865
S315000046D0BDE8104007F05EB910BD00BFACE703208F
S315000046E05FF02A010AA0FDF71BBC000010B501F01F
S315000046F06BFB044601F05EFB02462346DFF80C0026
S3150000470007A10078BDE81040FCF788BCACE70320A1
S3150000471072657365742D746573742E6300000000F2
S3150000472052455345543A25702D25700D0A00000058
S3150000473010B50446002002F0C1F9002002F0D8F9B5
S3150000474007F03EFC012002F029F9204607F0D9FEC9
S315000047502046BDE8104000F099BF80B5022100F068
S315000047602FF9009808F01EF801BD8068DFF8BC1428
S3150000477002680A7008780228A8BF0FF2F44305DA27
S31500004780002814BF0FF2F4430FF2F843DFF8A01429
S315000047900FF2CC42D1F81013FFE70FF2B840FDF745
S315000047A0E3B80000F8B502F060F8DFF888440FF2CD
S315000047B0685204EB8000C368DFF87404D0F8501325
S315000047C00FF23850FDF7D0F8DFF86C04006808F0F7
S315000047D02EF80528054614D8DFE800F003100E0968
S315000047E00C060FF2EC420EE00FF2D8420BE00FF28D
S315000047F0C84208E07AA206E07AA204E00FF2B042CC
S3150000480001E00FF2D8420FF2EC410FF2E0400FF256
S31500004810D447FDF7A9F80026F0B254F8201005F0A9
S3150000482001023846FDF7A0F8761C6D08F0B20228A2
S31500004830F2D9BDE8F2408FE038B50446DFF8F02340
S31500004840A0680568D2F860130FF2D840FDF78CF81F
S31500004850EDB215B1012D07D00CE00FF2D040FDF7F7
S3150000486083F801F02DFF05E00FF2D440FDF77CF848
S3150000487001F0F9FF0FF2D840FDF776F82046BDE8C3
S3150000488032408FE7F8B507460D4684B0284601F05A
S31500004890B6FB0446284601F066FD06460FF22C528A
S315000048A03CB92B4607F111010FF20850FDF75CF8F1
S315000048B010E00FF24C500FF240510290009105F0BB
S315000048C01F00019003942B4607F111010FF20450CB
S315000048D0FDF74AF8AE420FF2AC4405D032460FF26D
S315000048E028512046FDF740F8284601F023FD10F137
S315000048F0010F0FF264430FF2684102D10FF26842D2
S3150000490002E018B90FF2684218460BE0DFF82C23D4
S31500004910DFF82813B0FBF2F201FB120129B90FF2FE
S315000049206C412046FDF720F813E0DFF814231378D6
S315000049304FF47A74B0FBF4F2214601FB1201002910
S315000049400EBF0FF2504102460FF258411846FCF7CF
S3150000495065FB05B0BDE8F04095A0FDF705B810B5BC
S31500004960044601F0A9FC01462046BDE8104089E74F
S3150000497038B5054601F079FF0400DFF8B402D0F837
S3150000498030130FF28C4018BF0124FCF7EDFF01F045
S315000049906AFFA8680068C0B201F096FB02460FF2F3
S315000049A008310FF2A040FCF7DFFF0CB101F088FEE2
S315000049B001F082FC01462846BDE8344062E7012149
S315000049C0684601F07EBA10B5044602F036F904F1E5
S315000049D01101BDE81040034688A233E10000000043
S315000049E054780000527800002DE9F84F84B007464D
S315000049F00C4615461E4601F038FF010018BF01217E
S31500004A008DF8031001F052FF002D8DF8020016D12B
S31500004A100125022001F04DFF642004F01CFB01F08B
S31500004A204BFC8DF800000397029664B99DF8006070
S31500004A30012006F01F0400FA04F4002109E0E8D57D
S31500004A406D420020E6E7E00E4601F6B224F0784417
S31500004A500121019115E0039800F1110133464A4600
S31500004A600FF21840FCF780FF04E0FCF77DFF50A032
S31500004A70FCF77AFF9DF8010001218140641A761C3B
S31500004A80F6B2002C69D006F01F008DF8010024FA5A
S31500004A9000F2D007F3D501F00FFC86420FF2583929
S31500004AA004D0304601F010FB0028D4D14FF07F0A25
S31500004AB06FF07F080027AB460DE0802004F0CBFAAC
S31500004AC001F0EDFFC7198045B8BF80465045B8BF15
S31500004AD08246ABF1010BBBF1000FEEDC9DF8400006
S31500004AE097FBF5F758B1504601F060FC824678B264
S31500004AF001F05CFC0746404601F058FC80460398EE
S31500004B0000F1110147A0FCF72FFF019828B13246AA
S31500004B1049460FF2D010FCF727FF02980FF23839FA
S31500004B2020B1014652464846FCF71EFF0E9820B1BA
S31500004B3001463AB24846FCF717FF0F9820B10146E6
S31500004B4042464846FCF710FF9DF84000002814BF77
S31500004B500FF20C300FF21C3087E79DF800008642FA
S31500004B6018BF01F0B1FA9DF8020001F0A2FE9DF80F
S31500004B70030020B105B0BDE8F04F01F0A1BD05B0BE
S31500004B80BDE8F08FE0B5002102910191009101226C
S31500004B900FF2083308E0E0B50121002202910192EC
S31500004BA0009221A301220021FFF71EFF07BD00008E
S31500004BB07D0D0A003EB58368847B1A680FF2EC25EA
S31500004BC00021022CA8BF59680023029300950FF21A
S31500004BD0E4240FF2D0230194FFF706FF37BD80B51A
S31500004BE002F0A7F8034612480FF2E022D0F8B013FD
S31500004BF00FF2C820BDE80050FCF7B6BE43434100A3
S31500004C0010B50B4AD2F8C01304460FF2D020FCF7B9
S31500004C10ABFEA068016848B202F054F82046BDE831
S31500004C201040DCE77B264E0045440000F2EB0320F3
S31500004C30A0B00100E4E70320D0EC032040420F00BF
S31500004C40ACE7032081A0FCF78FBE81680968C9B272
S31500004C5018E600007B264E202674737D0D0A0000A0
S31500004C605045522054657374204D6F6465000000F2
S31500004C70656E61626C65642D6E657700656E616256
S31500004C806C65640064697361626C656400000000B1
S31500004C9061736C65657000006177616B650000008B
S31500004CA0656E6572677900007374617475730000D0
S31500004CB049646C650000000052784163746976654A
S31500004CC000000000547841637469766500000000B6
S31500004CD0496E61637469766500000000556E6B6EFF
S31500004CE06F776E002026746800000000202674731B
S31500004CF00000000052665374617465007B264E20E6
S31500004D00526164696F20706F776572207374617485
S31500004D106520267473000000706F776572207374C7
S31500004D20617465007B264E2000000000536C6565AB
S31500004D3070696E6720726164696F2E2E2E00000006
S31500004D4057616B696E6720726164696F2E2E2E0043
S31500004D50646F6E657D0D0A002026747000000000E9
S31500004D606672657100000000696C6C6567616C00B5
S31500004D7050657252616D526164696F436F6E666908
S31500004D8067000000202674750000000066726571D9
S31500004D904D487A00207B667265714B487A3A256CDD
S31500004DA07D000000207B66726571487A3A256C7D2D
S31500004DB0000000007B264E20526164696F20636804
S31500004DC0616E6E656C202674680000006368616E13
S31500004DD06E656C007B264E20526164696F206368A5
S31500004DE0616E6E656C2026746820282674642069BE
S31500004DF06E202674642900006368616E000000005E
S31500004E0070616765000000005074694368616E0058
S31500004E107B264E2053657474696E67206368616EE5
S31500004E206E656C20616E642063616C696272617488
S31500004E30696E6720286173206E6565646564292E36
S31500004E402E2E00002674687D0D0A00007B264E205B
S31500004E502674647D0D0A000020267464000000009C
S31500004E60205B3830322E31352E3420756E697473DE
S31500004E705D000000205B64426D5D00007B264E20D5
S31500004E80267468205B696E76616C6964206368616C
S31500004E906E6E656C5D7D0D0A00000000525353492D
S31500004EA0000000006D696E525353490061766752E7
S31500004EB0535349006D617852535349007B264E2067
S31500004EC02674642064426D7D0D0A00004343412030
S31500004ED05468726573686F6C640000007B264E7DB3
S31500004EE00D0A000080B5002002F0C3F8BDE80140BD
S31500004EF007F07CBB10B5DFF81441DFF81431607D94
S31500004F0018710122E0694FF47A7107F046FD01003D
S31500004F101CBF0121217510BDDFF8F010C861887D26
S31500004F20DFF8EC104871E5E770B58EB00C460CA8BA
S31500004F3007F02AFD054607F05FFD064607F020FD4F
S31500004F40BDF836100FF24C02BDF830300B910A92C4
S31500004F50059303950346BDF834100FF240020FF295
S31500004F6044050FF248000991089201960095BDF894
S31500004F7032100FF28002079106920FF280010FF2B3
S31500004F808402049102922146DFF88820FCF7ECFCAB
S31500004F900EB070BD737573700000000063726974A3
S31500004FA000000000616363656C0000007B264E20F4
S31500004FB02674752026743268202674642F313030AA
S31500004FC025250D0A20202674642F31303025252012
S31500004FD02674642F3130302525202674642F313015
S31500004FE0302525202674642F31303025257D0D0A85
S31500004FF0000000006C696D690000000074616C6B54
S3150000500000000000757365640000000000E80320DE
S31500005010B4F103202050000038786946FCF730BF11
S315000050206D6F6465000000002DE9F047064688466E
S31500005030924607F0D2FCDFF8E074F870040938787D
S3150000504018BF641E28B1386B07EB8000416A491C03
S3150000505041628C2EBE700FF24419DFF8645543D0BE
S3150000506001F011FC66B1402E22D0882E18BF892E81
S315000050704DD08C2E38D08D2E34D08F2E0CD03BE0D8
S315000050803869396A401C386164183C62287D0028FA
S315000050903DD040F23A5137E0B869396A401CB861F0
S315000050A064183C62287D002831D040F23F512BE045
S315000050B0F869396A401CF861641838783C6260B156
S315000050C007F09EFC032806D1786B401C7863386B8A
S315000050D080F00100386307F095FC287DB8B140F2F6
S315000050E04B5111E007F076FC7869401C7861287D09
S315000050F068B140F2525107E04FEA06022DA10120A5
S31500005100FCF7E5FE40F263514846FCF709FF402EE6
S3150000511087F801A0C7F83C8019D13879012811DD3C
S31500005120411E38893971401C3881C9B22A2007F0DE
S3150000513075FCE86900224FF47A7107F02EFC0646EA
S3150000514028B929E000212A2007F068FC03E0002E98
S3150000515018BF8F2E1ED0787901281BDD401E798955
S315000051607871491C7981DFF86405017801290ADD27
S31500005170E969DFF85C05814205D10278082A02DD7B
S31500005180C178491CC170688B03F065FFBDE8F04724
S31500005190FFF7B0BE01202875BDE8F0877068792D4D
S315000051A0636F6D6D6F6E2D74782D746573742E63D9
S315000051B000000000656D626572526164696F547229
S315000051C0616E736D6974436F6D706C657465497358
S315000051D07243616C6C6261636B2073746174757386
S315000051E03A2030782578000080B501F069F800F0A3
S315000051F017F8D0F8A01407E080B501F074F800F0B5
S315000052000FF8D0F8C01400BF02A0BDE80050FCF7AC
S31500005210ABBB00007B264E2026746464426D7D0085
S315000052204FEA0003DFF8B00400A2704761637475AB
S31500005230616C506F776572003EB50446A1680D68D3
S3150000524068B201F04CF801906BB200F02DF8D0F87E
S31500005250B0140FF24400FCF787FB22A0FCF784FB96
S315000052602046BDE83E40BFE73EB50446A1680D684E
S3150000527028B201F03DF8CDF804002BB200F014F886
S31500005280D0F8D01404A0FCF76FFB16A0FCF76CFB5B
S315000052902046BDE83E40AFE77B264E202674646478
S315000052A0426D202674647D000FF26041DFF8280409
S315000052B00FF2604200917047E0B5DFF820140FF25C
S315000052C090420B8B0092019300F111010FF268429C
S315000052D00FF2504038E18168DFF800340A681A831B
S315000052E0EAE700000D0A00002DE9F14F84B081685D
S315000052F00A880192511E8941C90F02914FF0010A95
S3150000530001F0B3FA00B101208DF801004FF0000B57
S31500005310814DDFF8AC6268697B4FADF80200D84674
S315000053200198012811D000F006F93878029921B1C8
S315000053300FF23C41FBF772FE03E0019A77A1FBF7FF
S315000053406DFE00F0F2F800F0EBF8DFF88443DFF8CA
S315000053509093802249462046FCF736FBDFF86C0323
S3150000536001780129C4BF2078082819DD99F80110B1
S3150000537001F0200141F0C1016170D0461821A170F1
S315000053802118029818B101F805BC002004E0019824
S3150000539001F8050C019800122178611801F8040C37
S315000053A0D94663E000208DF8000069463878FCF79E
S315000053B067FD00F0C5F85FD09DF8001038786429C5
S315000053C006D100F0A3F8049800F11101002007E0CF
S315000053D0442907D100F09AF8049800F11101012040
S315000053E0FFF7A2FD09F10100DFF8F8121FFA80F9B4
S315000053F0087820B100F074FD08B107F015FB308B7A
S3150000540003F029FEDFF8C4120878A0B1B8F1000F46
S3150000541018BF84F803A0207803280CDD201800F8B4
S3150000542003AC4FEA2A202178611801F8020C0AF130
S3150000543001001FFA80FA002030750121A97020466C
S31500005440FFF76AFD8346B8B903F076FE8346307DE2
S3150000545050B9FFF747FD03F06FFEA0EB0B0080B2DB
S3150000546040F2D1718842F2D395F802B00298002832
S3150000547098D10198814595DB38780FF218314A4664
S31500005480FBF7CCFD707B40B1AA8ABDF802000FF293
S315000054902031121A3878FBF7C1FD38780FF2343113
S315000054A05A46FBF7BBFDDFF840020FF24431028893
S315000054B03878FBF7B3FD38780FF25431FBF7AEFDC1
S315000054C069783878002914BF0FF260310FF2643121
S315000054D0FBF7A4FD01F0E4FB28B1AA6B38780FF2C4
S315000054E05C31FBF79BFDEA6B38780FF27C31FBF7FA
S315000054F095FD642003F0AFFD9DF8010008B101F0B1
S31500005500DFF805B0BDE8F08FACE703204A460FF29E
S315000055108421FBF783BD0000B4F10320257500004C
S3150000552038780FF2DC11FBF779BD328B38780FF241
S315000055304C21FBF773BD38780FF22C21FBF76EBDBB
S315000055409DF8000065287047FCF70EFA07BD38B5D0
S3150000555000F038F800F02CF818BF0124FBF75EFDC8
S3150000556001F081F901F030FB02E02878FFF755FDE4
S31500005570FFF7E6FFF9D101F038FB15E038B500F08A
S3150000558021F800F015F818BF0124FBF747FD01F0DC
S315000055906AF901F039FB02E02878FFF73EFDFFF7D4
S315000055A0CFFFF9D101F048FB0CB101F089F831BD0C
S315000055B0DFF838510FF248110400287870470000D0
S315000055C000E8032000208DF8000001F04EB92DE917
S315000055D0F041DFF818410FF2C02120780FF2C825FC
S315000055E00FF2BC28DFF8F870FBF718FD002615E06F
S315000055F0BA5D20784146FBF711FD711006EB9172FA
S315000056009210B6EB820007D139788E4204DA207800
S3150000561032462946FBF702FD761CF6B23878401C66
S315000056208642E5DBBDE8F0818068DFF8B4200168DA
S31500005630117070472DE9F84304460027A068DFF88B
S31500005640AC5006680FF26C28DFF89490761CF6B220
S31500005650802E06DAA06800EB8701486809F8060084
