S01100005A334C69676874536F632E73333739
S31500004000D84D01202DB103005D360200DDAD030061
S31500004010A70A0A010042000004180FAC106810013C
S31500004020000000000000000000000000000000008A
S315000040300000000060E60300000000000000000031
S315000040400000000000000000FFFFFFFFFFFFFFFF72
S31500004050FFFFFFFF00600F000000000000000000EF
S31500004060FFFFFFFFFFFFFFFF8000000000000000D2
S31500004070000000000000000000000000000000003A
S315000040800000000000000000647E0120647E012024
S31500004090D84D01205A3B040046B103007844012064
S311000040A08810002000E00F000000000067
S31500004200D84D01202DB103005D360200DDAD03005F
S3150000421021000300E1AD0300E5AD0300000000004E
S31500004220000000000000000000000000AFF60000E3
S31500004230E9AD0300F7D200003F090100730B01004E
S31500004240F1AD0300F1AD0300F1AD0300F1AD0300E4
S31500004250F1AD030059000300ABB70200F1AD030056
S31500004260F1AD0300F1AD0300CD30030015D8020017
S31500004270F1AD0300F1AD0300F1AD0300F1AD0300B4
S31500004280F1AD0300F1AD0300F1AD03006B340100A5
S31500004290F1AD030093840300F1AD0300F1AD03001B
S315000042A0F1AD03001D8203000D820300F1AD030092
S315000042B0F1AD0300F1AD0300F1AD03008766030025
S315000042C04366030041660300F16003008566030050
S315000042D04566030049660300476603001DB00300F8
S315000042E0BD660300F1AD0300F1AD0300F9D2000095
S315000042F0F1AD0300F1AD0300F1AD03007748010015
S31500004300F1AD0300F1AD0300F1AD0300F1AD030023
S31500004310F1AD0300F1AD0300F1AD0300F1AD030013
S31500004320F1AD0300F1AD0300F1AD0300F1AD030003
S31500004330F1AD0300102510B5494A494C4A4B1B689C
S31500004340234207D103408B420DD0521EF6D16FF0A7
S31500004350020010BD4548034202D06FF0010C201642
S315000043604FF0FF3010BD002010BD70B5404D6860A5
S31500004370E8680E46410702D518200870BD56F804B5
S315000043800B141F02E008101D241FA86044B1082169
S315000043900820FFF7CFFF0100F4D00421296070BD8B
S315000043A0042028600021211612C4162304D10C1003
S315000043B005BDE87040BCE77054301341F671312AF0
S315000043C04C01222A4BE568E1621A606060022626EB
S315000043D030300B2D0CFFF7ABFF05F0010501000394
S315000043E036201CFFF7A3FF0121204A11600DB10002
S315000043F021E16270BD2DE9F843184F3D68894614E6
S31500004400464A200A80462D0C39620122164B0020AE
S315000044103A100B1A6009E0324649464046FFF79FBC
S315000044207E501F0DD1B044B144A41B4CB108F50019
S3150000443056760B7603A6EB0806B442ECD22646EA7D
S31500004440E70121095C10133962BDE8F283000080A0
S31500004450969800060001001C00034002081210088E
S31500004460130C1004000120034000000080B54549EC
S315000044700988454A002000F0D3FB5328A8BF5220E4
S3150000448002BD2DE9FE4300F071F800F076FD064608
S31500004490019400963AA3412200F05DF800F060F81E
S315000044A0FFF7E4FF8146E0B2B04216DA3888C01C56
S315000044B0814512DB6A46E1B2404600F05CFD50B130
S315000044C0BDF8000000F0ABFD9DF8020000F098FD7D
S315000044D02878401C2870641CE5E737E02DE9FE4388
S315000044E000F044F800F045FD06460194009624A32A
S315000044F0422200F030F800F033F8FFF7B7FF8146AC
S31500004500E0B2B04222DA3888083081451EDB6A46BE
S31500004510E1B2404600F02BFDB0B1BDF8000000F05E
S315000045207EFD9DF8020000F06BFDBDF8040000F072
S3150000453076FDBDF8060000F072FD9DF8080000F05B
S315000045405FFD2878401C2870641CD9E700F0FFFA4C
S315000045500120BDE8FE834FF48051092000F0A6BE7D
S3150000456039880A484518002000F04ABD0446084824
S315000045700168084F0A6892F80580404670470000B7
S315000045807575000002780120D85D0120E45D0120E8
S31500004590C05E0120AE7A012080B501F076FAFF28D0
S315000045A005D0032803D2DFF81818085C02BD0020E6
S315000045B002BDE0B50221009101AB0022032101F00A
S315000045C0B3FD20B9BDF8040010B1012000E00020C1
S315000045D0C0B20EBDF8B5069F002400250646092F79
S315000045E002D300200021F4BDA4460DE0A7EB000E87
S315000045F0B6441EF8010C2D0245EA1465002110EBA5
S3150000460004240CF1010C4D415FFA8CF0B842EDD355
S315000046109D4206D828BF944203D2101B63EB0501C6
S31500004620F4BDA01A65EB0301F4BD10B50268DFF80E
S31500004630941713880B8054884C8052790A7103684A
S315000046401A794FF48A53CB804A71026893799A0695
S31500004650DFF8742744BF4FF48B53CB8081691378FE
S3150000466039B9C088DFF8641703F0FD0308801370BA
S3150000467010BD43F002031370DFF854478169162218
S31500004680204601F05BFF0022227010BD80B500209D
S3150000469001F0A5FFFF2001F053FA01F0AEFF00F094
S315000046A0C4FE01460122DFF8180701F0C1FFDFF85A
S315000046B01437DFF820275221DFF81C0700F0E1FD50
S315000046C002F01CF802F03CF902F02CFA03F0FFF9B4
S315000046D003F001FF03F022FFBDE8014000F07CBFBC
S315000046E0704780B504F019F820B905F055FD08B9F2
S315000046F003F06DFC00F057FCBDE8014000F062BC21
S3150000470070B5034600204FF6FF72DFF8D04634F846
S31500004710305095420ED09D4209D1B3F57C4F0ADB4D
S3150000472004EBC0056E888E4205D00D0003D0401CF8
S3150000473080B2ECE7104670BD10B50446FFF7E0FF07
S31500004740DFF89C164FF6FF720B88904203D1224683
S31500004750DFF8901606E0DFF8841601EBC000426829
S31500004760DFF884161846BDE8104005F03CBEDFF8B9
S315000047707C06006800B1008A70471CB50446DFF865
S315000047807016087800283CD005F006FF0246DFF8D0
S315000047906416022005F027FE206841880091A28950
S315000047A04379DFF85416022005F01DFE022005F0BD
S315000047B0D5FD20B12068218A4088FFF7BDFFE07B48
S315000047C028B1228ADFF83416022005F00CFEE07CC0
S315000047D0DFF82C160090A068A37C0278022005F072
S315000047E002FE217DA289A4680123521A92B22144B5
S315000047F0022005F0E9FEB0A10220BDE81C4005F04C
S31500004800ECBD13BD10B504462168487901F03DF9A9
S31500004810FF281DD0DFF8EC1501EB0010217F027B8D
S315000048208A4215D1226840881188884206D04FF600
S31500004830FF7399420CD1B0F5004F09DA20790228AE
S3150000484018BF032806D11189507906F023F908B953
S31500004850002010BDA07B0028204602D006F068F993
S3150000486001E006F095F900B1012010BD7CB51446B3
S3150000487022785507DFF890554CBF05220322934254
S3150000488004D200922A46DFF8841533E0089E069A81
S3150000489030603171F280B460B381207800F001009D
S315000048A0B0732178890801F00101F17320780121A4
S315000048B03175C00800F001007075F07B30B11A4602
S315000048C0204600F00DFC317D891C31753082307D2B
S315000048D0B389411C3175205CB074481C3075C9B26F
S315000048E0615CC4B2A342F17409D2C0B200902A46F8
S315000048F0DFF81C15022005F070FD002076BD079834
S31500004900B06106F070FC3077012076BD2DE9F14FDD
S3150000491084B00F469246DFF8FC549B460E9EDDF8A7
S315000049203C802846DFF8F014202206F021FD02958F
S315000049300498CDF8048000965B465246394600241A
S31500004940FFF794FFDFF8A494002869D0C9F8005057
S31500004950A87CDFF8C81408702846FFF70EFF284623
S31500004960FFF763FE284606F060FD30BBB8F1000F86
S3150000497025D1042F18BF052F03D0022F18BF032FF0
S3150000498001D1012200E00022E98828680191012175
S31500004990438800930388E87C00F01FF998B12868E3
S315000049A0817988060FD4DFF878440121217000222E
S315000049B0284600F0D2F800202070012430E098F854
S315000049C0140081072CD528684179FF2924D10026B7
S315000049D0DFF8F08300F029FDF1B2814220D2F0B277
S315000049E001F055F80746F0B200F023FD90B12868B3
S315000049F02A8A4188384600F090FF58B12846FFF7CA
S31500004A0014FE2868477188F804702846FFF7FAFEF6
S31500004A1000B10124761CDDE72846FFF7F3FE0446C5
S31500004A2000F0D8FA1621DFF8A80306F01DFD0020D5
S31500004A30C9F80000204605B0BDE8F08FDFF8E413A2
S31500004A400878401C0870FFE700F07F007047DFF829
S31500004A5078130A78002814BF42F0010202F0FE0221
S31500004A600A707047DFF8C0130870704780B1DFF82E
S31500004A70B8130978012904D1018841F04001018069
S31500004A807047022904D102884FF6BF710A4002809E
S31500004A90704778B1DFF894130A78012A04D1DFF859
S31500004AA0902313780B7001E0022A03D1017841F0BC
S31500004AB010010170704700005D000000FEB5C24D98
S31500004AC02B78D90701D50020FEBDDFF82013096831
S31500004AD0BC4C71B109688A79960603D5E28842F022
S31500004AE02002E28089794A0603D5E18841F0400137
S31500004AF0E180B94A11784E07C84947BF0F78D77089
S31500004B000E7856709B0709D5B2480188B04806F062
S31500004B10E2FE297801F0FD012970FEBDAB4B1D8830
S31500004B204FF6FC762946B14208DA0190A948009270
S31500004B3003882246002007F0A9F8FEBD0090134620
S31500004B40A44802882146284607F06FF8FEBD0020DB
S31500004B50B4E70146A5480068002270B504462079EE
S31500004B600E461546002818BF01280BD1A06801780B
S31500004B70CA0601D5300005D0A07B002804BFE07C22
S31500004B800B2801D1002070BD0021924A1180607D62
S31500004B90E17B00280CBF0820002011B900F030FA94
S31500004BA006E040F0040000F02BFA208A00F037FA05
S31500004BB0A07C00F025FA0B2000F022FAE07C00F041
S31500004BC01FFA304600F01CFA2046FFF72EFD284655
S31500004BD0BDE8704072E70022BFE770B51D46954BF1
S31500004BE01C788F4E012C01D0337813B10020307021
S31500004BF070BD0B0002D10AB1002070BD002C1EBF93
S31500004C00049C4FF657439C4206D003460A4621466B
S31500004C10284600F059F900B1012070BD00000000DF
S31500004C2038B5D28852240346950608464FF6FD71DC
S31500004C3048BF4924550548BF083C150548BF083CF0
S31500004C40120448BFA41E032B0ED8DFE803F00902A6
S31500004C50060BC0B207F03EFC02E0C0B207F064FEED
S31500004C60014601E0641EE4B2084600F048F9241A41
S31500004C70E0B232BD4254120A0844427070470844FA
S31500004C800270110A130C120E41708370C2707047C5
S31500004C9070B50C000546164608BF002003D02178E3
S31500004CA0FF2902D1FF20287070BD204600F03AFA95
S31500004CB0864288BF06463246611C681C01F03EFCEF
S31500004CC02E7070BDF8B505460C00164603D10020BF
S31500004CD068702970F1BD2078FF2804BF6078FF282E
S31500004CE002D128706870F1BD204600F020FA074610
S31500004CF0BE42B8BF37463A46A11CA81C01F01EFCAE
S31500004D002F703F126F70F1BD2DE9F041541E0BB3A9
S31500004D10042A46DC0023002698465FFA88F5954269
S31500004D2025D2651B002814BF10F805C04FF0000CF3
S31500004D30571E4D5DA7EB0807FF000CFA07FC05FAA6
S31500004D4007F74CEA03033E4308F10108E5E7AE42E4
S31500004D5024DB5B1CDDB2954223D2651B00280CBF09
S31500004D600026465D4D5DB542F1DA01201AE0042ABF
S31500004D7010DAD5000120D2006D1E00FA02F252426E
S31500004D8043FA05F1CC0746FA05F048BF1343C007BE
S31500004D9048BF16439E42E8DBB34202DA4FF0FF30CB
S31500004DA000E00020BDE8F0810021234A01E0891CD3
S31500004DB0C9B2535C8342FAD350184078704700005A
S31500004DC09C5E0120D85D0120087E0120027801202A
S31500004DD0C45E0120AE7A0120E45D01200CD0030000
S31500004DE0C47D012058CF030070CF0300C05E0120B0
S31500004DF0B657012078CF030080CF0300A0CF030071
S31500004E00ACCF03003C5C0120E8CF0300CCCF03000D
S31500004E10F0CF0300A05E01205CD00300BA5701204A
S31500004E20047E0120BB570120057E0120067E01205D
S31500004E30077E0120B95701207CD0030028380828B6
S31500004E408041C00F704710B500F009F8FF2801D166
S31500004E50A32010BD002104F83010002010BD044628
S31500004E60084600F012BE38B500F00BF8FF2801D155
S31500004E70A32032BD294604EBC000BDE8344001F052
S31500004E806DBC04460846154600F0FFBD40B11C281F
S31500004E900BD01D280CD01E2818BF1F2805D009E0EE
S31500004EA00B39102906D2002070471B29FBDB01E0D5
S31500004EB00929F8DB8A2070477047012070470120D6
S31500004EC070470120704770470020704700207047E8
S31500004ED00020704700207047002070470020704770
S31500004EE00120704701207047B520704700207047A9
S31500004EF00020704700207047002070477047002050
S31500004F007047002070477047704700207047842024
S31500004F1070477047704770477047704770477047D3
S31500004F2000207047704770477047002070477047F1
S31500004F3007F0BABE03207047002070470348016897
S31500004F400878012808BF022070470000385E01205B
S31500004F50002070474FF6FE720121C28181810161F6
S31500004F60002202700120704770477047704700208A
S31500004F707047002070470020704700207047704738
S31500004F8000207047704700207047002070470020BF
S31500004F9070470020704700207047002070470020AF
S31500004FA07047002070477047B52070470020704753
S31500004FB00020704770470020704770477047B52043
S31500004FC070477047704770470020704770477047BA
S31500004FD07047704780B500204C49087007F00EFFF7
S31500004FE04B4A108052214B4806F03EFA00204A49AF
S31500004FF008804A4800210022002380E80E0001BDF7
S3150000500010B545490A88522A07DA424CA054521C68
S315000050100A8092B2A018401E10BD002010BD38B5FF
S315000050200546C0B2FFF7ECFF0446280AFFF7E8FF83
S31500005030002C18BF002801D0204632BD002032BD0A
S31500005040F8B50746C0B2FFF7DBFF06463804000E88
S31500005050FFF7D6FF05463802000EFFF7D1FF0446DC
S31500005060380EFFF7CDFF002E18BF002D05D0002CFF
S3150000507018BF002801D03046F2BD0020F2BD2DE950
S31500005080F041254D2E880C46A04608EB0601522914
S315000050900CDA204F01462246B81901F04FFAA4193E
S315000050A02C80A4B2A4EB0804381900E00020BDE867
S315000050B0F08130B504461D4600205B189A4207DA97
S315000050C030BD5218224412F8013C6D1E03EB00203D
S315000050D0EAB2002AF5D130BD0423EAE70323E8E764
S315000050E080B50223FFF7E5FF80B202BD03460C48F8
S315000050F0914200D3704710B55C5CFF2C08BF0024BA
S315000051006418641CA242A8BF581810BD087E01206E
S3150000511002780120E45D0120AE7A0120D85D0120ED
S31500005120C27A01200078FF2808BF0020704780B5AA
S3150000513002220021FFF7D4FF4FF6FF72904208BF0C
S31500005140002002BD2DE9F24F022940F39580190097
S3150000515005D0BDF800100529F7DB42F004028246AF
S3150000516001268AF80020180005D08AF801301B0AAB
S315000051708AF8023003260A9CFFF760FC0AF806004C
S31500005180761CB0B20AF80040761C4FF0000BDDF832
S31500005190309007E0BAB24146504406F0D9F8BE193D
S315000051A00BF1010B0B985FFA8BF1405C002865D080
S315000051B000250024A046732834DC4C2859F8048BBB
S315000051C01CBF5328622811D159F8047B4C2806D1FC
S315000051D0BDB24FF6FF70854236D0022434E0532824
S315000051E032D1FDB2FF2D2FD001242DE06C2804D141
S315000051F04046FFF79CFF871C26E0732804D14046F3
S31500005200FFF790FF471C1FE0A0F130010A2938BFC5
S31500005210A0F1300718D3A0F1410107292CD2A0F143
S31500005220370711E00027752808BF01240AD0762821
S3150000523008BF022406D0782808BF032402D07728A6
S315000052401AD1042459F8045BBDF80010B2B2B8B202
S315000052508218A218914205DA0EE00AF80050761C70
S315000052602D0A641EE1B2B0B20029F6D1B9B2002906
S3150000527096D0B8F1000F8DD1002000E0B0B2BDE8A5
S31500005280F28F10B5404C20604048018040490A60CA
S31500005290404A136010BD7FB50C46089909AD0093CE
S315000052A002951346019100F017F808E07FB50C4609
S315000052B008A90092029100F00FF801930023FFF76E
S315000052C041FF33490A68334B108019684FF48A52FC
S315000052D04C80CA8004B070BD02462C4D2A4E2988E7
S315000052E03068704738B50346294C27482568026858
S315000052F028482988006801B0BDE8304006F0F2BCB5
S315000053000020EFE77FB500F028F806F03CFC04B07B
S3150000531070BD0023F6E710B51B481D4B02681C68DC
S315000053201C4800682188BDE8104006F045BC7CB5E5
S315000053300192154A1468164D2E680094154C338850
S31500005340226806F0A3FC76BD0022F0E77FB500F0E8
S3150000535004F806F07FFC04B070BD0D4C0091256882
S315000053600293094901920B680A4E2A8831687047F0
S315000053700023EBE7074800687047064A1368187170
S315000053801068417170470000CC5D0120CE77012086
S31500005390D05D0120D45D0120DFF8F818F0B50A6869
S315000053A088B0DFF8F41803A80260D1E90027DFF817
S315000053B0EC18DFF8EC4804A8D4E90056C0E9002749
S315000053C00A68DFF8E04801A806AB0260C3E90056A8
S315000053D025680320DFF8D01802AB002408701D6092
S315000053E000940021DFF8C40806AEDFF8C42803AC39
S315000053F002EB0112655C04AC157036F8113053806F
S3150000540034F8113002AC9380655C01AB95715C5C3D
S3150000541000EBC40595601DF801400125491C147375
S3150000542055730229E1DD08B0F0BDDFF87C0800788D
S315000054307047DFF87C1801EB0010407B00F001009C
S315000054407047412818BF422803D0432818BF442874
S3150000545001D10120704700207047412818BF42281B
S3150000546001D10120704700207047432818BF442807
S3150000547001D10120704700207047F8B515461E4639
S31500005480069A079B044600F05DFA60B1042100F01D
S315000054905EFD070007D0204601F0A6F832462946F1
S315000054A02046B84794E0F1BD2DE9FC47140081463B
S315000054B088461F461CBF0A9D002D1FD0F7B12878CD
S315000054C00C9B0107618820794CBF4022802200F0A6
S315000054D039FA98B1082100F03AFD824670B1207978
S315000054E00B9E01F081F8009501963B462246414607
S315000054F04846D047BDE8F34701F07FB8BDE8F387DB
S31500005500F8B5069C16461A460546234600F01AFAD2
S31500005510D0B121000BD1022100F019FD040013D0F7
S31500005520284601F061F831462846A0470BE01021D5
S3150000553000F00DFD070007D0284601F055F8224679
S3150000554031462846B84743E0F1BD2DE9F843089CAB
S3150000555090461A460646234600F0F4F908B9862016
S3150000556016E000259CB9202100F0F1FC814670B1BF
S315000055700B9F0A9C099D304601F036F8009723469A
S315000055802A4641463046C847054601F036F82846C1
S31500005590BDE8F283F8B504462078A568002601F038
S315000055A023F811E0F1B214222868514347183988CC
S315000055B02078FFF788FC0121384600F0C8FC01007E
S315000055C01CBF20788847761C2979F0B28842E9D337
S315000055D0BDE8F14001F011B838B50024DFF8C8562F
S315000055E00AE0DFF8540A210600EB1150427BD1078E
S315000055F048BFFFF7CFFF641C2978E0B28842F0D39A
S3150000560031BD5CB585B00A9C00268DF80800ADF862
S315000056100A108DF80C30ADF80E200196ADF810404A
S3150000562000960023002201A902A800F082F8019842
S3150000563007B050BD7CB5069D1446A6782A0008BF63
S31500005640E278412E18BF422E06D0432E09D1921E73
S3150000565092B2FFF737FB15E0521ED2B2FFF718FBE6
S3150000566010E0442EF3D033B92B0004D0E3789D42EA
S3150000567001D2892076BD19B9114607F039FE01E03D
S3150000568000F05CFF002076BD10B5002301E0001D90
S315000056905B1C9CB28C4204D204889442F7D14088A9
S315000056A010BD002010BDDFF89419401A0C2290FBA3
S315000056B0F2F20021DFF8880910E00288B2F57C4F8B
S315000056C0A8BF00F002B80846EDE7DFF87819401ADF
S315000056D0142290FBF2F20021DFF86C0992B2D3E7B4
S315000056E010B50C460188628891420DD1037B227960
S315000056F0134209D0B1F57C4F04DBFFF7E6FF2189A1
S31500005700884201D1012010BD002010BD10B51446FD
S315000057100A88E3889A420AD10288B2F57C4F04DAF5
S31500005720FFF7CBFF2189884201D1012010BD00205F
S3150000573010BD2DE9F74F82B0044698460025002794
S3150000574003E0C88845197F1CFFB2DFF85C150A78AC
S31500005750974280F0AC80DFF8580500EB07102378FD
S31500005760027881689A42ECD10091407BC107EAD564
S31500005770002603E0B9F80A004519761C0099F0B234
S315000057800A799042DFD20A68F1B2142048432146D2
S3150000579002EB00094846FFF7A3FF0028EAD04FF0C6
S315000057A0000B09E09AF804000BF1010B10F0300F22
S315000057B004BF9AF803004519B9F808101FFA8BF0D0
S315000057C08842DAD21FFA8BF20C21D9F804004A4338
S315000057D000EB020A224651464846FFF797FF00288B
S315000057E0E0D003982746544600B10460207981062C
S315000057F011D5DFF84808002105E00279930644BF79
S31500005800C27851180C30A042F7D3DFF8400889B2AD
S3150000581000EB010B04E0DFF83818ADB201EB050B25
S315000058200E9E049D3046E6B121464846FFF745FFE9
S315000058300246238879883878AA46FFF742FBF8B1F2
S315000058402079C1062AD5002E214648461AD0FFF7F0
S3150000585034FF00950346798838782246FFF742FBE5
S3150000586026E02DB321464846FFF727FF0246238848
S3150000587079883878DA46AB46FFF721FB0028DFD176
S315000058807E2015E0FFF719FFE178009503460191A8
S31500005890798838782246FFF723FB09E0CDF80080A7
S315000058A03346224651465846FFF7C4FE00E086209E
S315000058B005B0BDE8F08F2DE9F84304468846164644
S315000058C0994600252179E8B2884221D2EAB214230A
S315000058D020685A4387183888404517D131000AD0C6
S315000058E0802E03D1397B0A0605D40FE0402E0DD158
S315000058F0397B4A060AD5B0F57C4F0CDB3846FFF7F4
S31500005900E4FE484518BF5FEA090004D06D1CD9E7DC
S315000059100020BDE8F2833846FBE7134680B507E072
S31500005920134680B5402204E0134680B5802200E08D
S31500005930002200F007F800B1012002BD80B5002367
S315000059404022F6E770B50C4615461E4600F09DF857
S31500005950FF2801D1002070BD2146DFF8DC4604EBAC
S31500005960001033462A468068BDE87040A3E770B54C
S315000059700C4615461E46002100F02FF8032800DAD3
S31500005980EAE7002070BD1346402201E00022FAE754
S315000059902DE9F84F82468B46904699460026FFF73A
S315000059A0D1FF08B9FF2016E00027DFF80443DFF82F
S315000059B0F8522978F8B288420CD20001205C504592
S315000059C008D04B4642465946FFF7D1FF00B1761C38
S315000059D07F1CEEE7F0B2BDE8F28F70B50022DFF86B
S315000059E0D032DFF8C4522E78D4B2B4420BD224019E
S315000059F01D5D854205D10D0007D01C44647BE5077B
S31500005A0003D4521CEDE7FF2070BDD0B270BD80B547
S31500005A100021FFF7E2FFFF2801D1002002BD00F0C0
S31500005A2061F8407B00F0010002BD70B50E460446E9
S31500005A300021FFF7D2FFFF2801D1002070BDDFF85B
S31500005A40F81501EB00153200687B00F0010114BF68
S31500005A5040F0010000206873B14214D076B12846A8
S31500005A60FFF798FD0FE0142200685143761C0844A6
S31500005A70027B01882046D20900F0D8FEA868F1B260
S31500005A8002799142EFD3012070BD0121A5E7DFF82D
S31500005A90A8150001085C7047F8B50C46FFF7F5FF3E
S31500005AA001460020FF291FBFDFF88C2502EB0111FC
S31500005AB08968002915D0002214270D79D3B2AB428C
S31500005AC00ED2D6B20B687E43451C33441B7B2600A0
S31500005AD001D11B0600E05E0648BF2846521CECE7D3
S31500005AE0C0B2F2BDDFF8501501EB00107047F8B5F3
S31500005AF00C461546FFF7C9FF01460022FF291DD0B7
S31500005B0000234FF0140C01E0521C5B1CDFF8280543
S31500005B1000EB0116DFB2B0680679B7420ED2006814
S31500005B200CFB07F73844067B15B1760602D4ECE782
S31500005B303706EAD5D6B2A642E6D1F2BD0020F2BDBE
S31500005B40002109E010B50446012100F005F82046C1
S31500005B50BDE8104005F068BC2DE9F14F88B08946D4
S31500005B6005F041FB50490A780023069005928DF80E
S31500005B700430DFF8C4A40AE00AEB0010017B0698A3
S31500005B80814214D09DF80400401C8DF804009DF855
S31500005B9004000599884258DA9DF82020FF2AEBD0A8
S31500005BA01046FFF772FF8DF80400FF2854D0002737
S31500005BB056E00328ACBFD6F808B006F1080B012062
S31500005BC0009000235A46002102A8FFF7B2FD5FEAC3
S31500005BD0090007D0BDF80A201AF8081033465846BF
S31500005BE000F003F9641C2989A0B2884237D2A2B218
S31500005BF00C2168684A4386183379D906F2D41AF814
S31500005C0008208DF808202988ADF80A103079410659
S31500005C1028464CBF802140218DF80C103188ADF804
S31500005C200E103146FFF749FDADF810003179F078D6
S31500005C304A07BED5D6F808B00328C0DBDBF800B0AB
S31500005C40BDE79DF82000FF289CD0B9F1000F04BFE6
S31500005C509DF8200000F02EF809B0BDE8F08F7F1CFB
S31500005C609DF80400F9B24FEA00180AF1080050F84E
S31500005C70080002799142E4D20168FBB21420434342
S31500005C80CD182A8940F22D118A42A8BF07F05AFB87
S31500005C900024A8E7F0BD0300FCBD030008BE030016
S31500005CA0F4BD030004BE0300FF7D012078C4030099
S31500005CB03C5C01207CB5044605F095FA05460120BA
S31500005CC000F0A8FC44F20306012C03D0FF2C08BF09
S31500005CD0A84227D101237F22242100F083F800F077
S31500005CE06CF800F07BF801237F22252100F07AF87A
S31500005CF03020009001AB324600F070F801237F227D
S31500005D00262100F06FF8202000F058F8082100F056
S31500005D1066F801237F22272100F064F800F052F88C
S31500005D2000F05DF8022000F075FC022C03D0FF2C79
S31500005D3008BFA84240D101237F22282100F052F853
S31500005D4000F03BF8062100F046F801237F222921C6
S31500005D5000F048F83020009001AB3246062100F0F2
S31500005D603AF801237F222A2100F03CF8202000F097
S31500005D7025F8082100F02FF801237F222B2100F0BF
S31500005D8031F800F01FF800F026F802237F222C21BC
S31500005D9000F028F82120009001AB072200F019F846
S31500005DA002237F222D2100F01DF82120009001AB57
S31500005DB044F2100200F00DF873BD1020009001AB04
S31500005DC0002270472020009001AB4FF4804208214A
S31500005DD070474FF44071022000F079B90621012086
S31500005DE000F075B901A807F0B0BB7CB504461D46A6
S31500005DF02879830740F1A3800023ADF8003004B969
S31500005E006C4644F2030601293AD1062A1AD128889B
S31500005E1050B900F099F838B92879410604D400F051
S31500005E208FF8242007F0C2FB2888B0420BD100F07F
S31500005E308BF8002807D1287941061CD400F080F899
S31500005E4025207AE0082A7AD1288850B900F07CF813
S31500005E5038B92879410604D400F072F8262007F0F4
S31500005E60A5FB2888B0F5804F69D100F06DF80028B1
S31500005E7065D12879410662D400F062F827205CE0FB
S31500005E8002295CD1062A1AD1288850B900F05CF89C
S31500005E9038B92879410604D400F052F8282007F0D2
S31500005EA085FB2888B0424AD100F04EF8002846D13A
S31500005EB02879410643D400F043F829203DE0082A1A
S31500005EC01AD1288850B900F03FF838B92879410628
S31500005ED004D400F035F82A2007F068FB2888B0F5CE
S31500005EE0804F2CD100F030F848BB2879410626D4E3
S31500005EF000F026F82B2020E0B2F5407F1FD128883D
S31500005F0007280BD100F020F840B92879410605D4BE
S31500005F10022322467F212C2007F048FB288844F2E2
S31500005F20100188420BD100F00FF840B928794106DC
S31500005F3005D4022322467F212D2007F037FB73BDAF
S31500005F40012322467F2170472846FFF7ACBB30B5B8
S31500005F50047B012200230C4205D1002030BD1442EF
S31500005F6018BF5B1C5200D5B28D42F8D30069DBB274
S31500005F7050F8230030BD3749401A8003020C002137
S31500005F803548FFF781BB2DE9FE4F002700284FF06B
S31500005F900108487D06D008B9022407E0012804D18B
S31500005FA0012403E008B9082400E004240E980C9D9F
S31500005FB0B9460D9EDDF83CB08A46ADF80020019347
S31500005FC0ADF830508DF83800224800EB8905298855
S31500005FD0BDF80000814224D1E978214221D0A97878
S31500005FE09DF8380081421CD3E9789AF80F00CA065A
S31500005FF008D5B0B12846FFF7BEFFBAF810108142A7
S3150000600001D00EE068B9BB4513D0BDF83000874219
S315000060100FDAA9780198C15532887F1CBFB2521C8D
S31500006020328009F10109B9F14B0FCDDB4046BDE8DD
S31500006030FE8F4FF00008F9E73C5C012074BF0300B7
S3150000604094C403004CC3030090C403000C5D0120FC
S315000060506C5C012044BE030070BF03002DE9F847C5
S3150000606085B0109D0F9F0E9C0295019706468A46A5
S31500006070904699460094FEF720FF010003D00228BF
S3150000608003D002D30EE001200CE00CBF012000205B
S3150000609000210491039002950197009400F01DFAE7
S315000060A000F06AF906B0BDE8F087F0B585B00A9D44
S315000060B00B9C0026012704960397029401950096EF
S315000060C017E078B585B000F00BF8802304E078B5CA
S315000060D085B000F005F8402300F04EF906B070BD1B
S315000060E00A9C0025012601930495039602940095C7
S315000060F0704700F041F905B0F0BDF0B5012785B055
S3150000610004970A9D0B9E0C9C002703970294019608
S315000061100095EEE77FB5099C089D0A9E029400242F
S3150000612003960195009410E038B584B000F006F8A7
S315000061304023FFE700F0E0F905B030BD089C0025DC
S315000061400193039502940095704700F0D5F904B0C9
S3150000615070BD2DE9F84F84B0DDF8389090461C46A6
S3150000616005468A464B4622460026ADF80060FFF7F4
S31500006170E9FBB34607008DF80450ADF806A08DF88C
S315000061800840ADF80A80ADF80C904FD001A9FFF792
S31500006190A7FA00284AD0ADF802800024DDF83C902A
S315000061A0DDF840A0BDF8008015E0B1B249450FD238
S315000061B0FEF735FFA878FEF723FF5FEA0A0006D050
S315000061C02879C10754BF05200720FEF719FF761C62
S315000061D008F10108641C3989A0B288421ED2A2B215
S315000061E00C2178684A433B888518B3F57C4F09DA59
S315000061F0288801AA2946ADF80A003846FFF786FA2C
S315000062000028E7D02888BDF802108842CDD20BF1CD
S31500006210010BDDE7002005B0BDE8F08FB6B21FFA2E
S315000062208BF006441FFA88F08642F3D10120F2E78C
S315000062302DE9F84795B04FF00009DFF830A101E0ED
S3150000624009F10109FFF7F1F85FFA89F1814236D2C7
S31500006250002738E0A078FFF708F9D0B104A8FEF7C8
S3150000626066FF16E0002103914122029204A90191E2
S315000062700090228829881AF8080000F03DF986283F
S3150000628007D0A078FFF7E9F80028E3D004A8FEF7C6
S3150000629049FF761C2989B0B2884213D2B2B20C21CA
S315000062A068684A43841807F04DF821462846FFF7E8
S315000062B004FA21794A064CBF80234023D2E716B060
S315000062C0BDE8F0877F1C4FEA09604FEA10580AF1D3
S315000062D0080050F80800F9B202799142B0D201687C
S315000062E0FBB2142043430026CD18D3E7F8B596B089
S315000062F01D9D1646052D2FDB04AC039441271C9AE1
S31500006300029705AC01940092324600F0F5F80400BD
S3150000631024D19DF81000412205A907F0BDF904001B
S315000063201AD02D1FA54217DB3046FEF778FE002057
S31500006330FEF766FE9DF810000D4DFEF761FE2E88F5
S31500006340C6F152018C4207DA0A4B224605A9981972
S3150000635000F0F4F8A4192C8017B0F0BD3046FEF713
S315000063605EFE2046FEF74CFEF6E700003C5C012090
S31500006370AE7A0120E45D01202DE9F84F88B006468B
S31500006380129D00208A4690469946049000908DF80A
S315000063901460ADF816A08DF81890ADF81A80ADF817
S315000063A01C500023002204A905A8FFF7C2F904988F
S315000063B008B986208DE0159860B904999DF85000BB
S315000063C08A78904218BF8D20F4D10979C80758BF42
S315000063D08820EFD50498139F0179480726D504999C
S315000063E088684168049802918168886804990190D8
S315000063F08878FEF723FD834604985B46C1788DF8BE
S31500006400001002290A4639461EDC02A8FEF77CFC6B
S315000064109DF8002004465B46394601A8FEF774FC49
S31500006420012C1CBF4FF0FF3188421CD01698002863
S315000064304ED104984FF6FF723946807807F02CF952
S31500006440040012D1012044E00298FEF75DFC012809
S3150000645009D09DF8002001985B463946FEF754FCAA
S3150000646010F1010FE2D1872033E00397C0B200F0AC
S3150000647039F8FEF788FD01002BD10397E0B200F052
S3150000648031F8FFF762F8010023D1012000900023C4
S315000064903A46002105A8FFF74CF9010019D1049BE3
S315000064A0524631463846FFF7A0FC029700F01BF82B
S315000064B001F0A8FD03979DF85000E4B20294019004
S315000064C000F00AF8FEF75EFD00F006F8FFF718F890
S315000064D0002009B0BDE8F08F00954B464246514674
S315000064E03046704702909DF8500000954B4601904B
S315000064F04246514630467047F0B585B01C460A9E66
S315000065000B9D0C9B002701978DF80800ADF80A102B
S315000065108DF80C40ADF80E20ADF8106000972A46B5
S3150000652001A902A8FFF705F9010004D10D9911B1DF
S31500006530019A93780B7005B0F0BD704781423ABF5F
S315000065405318984204F004BF8018990707D0521ECA
S3150000655024BF13F8011D00F8011DF6D87047810706
S315000065601BD1103A07D330B433E93210103A20E980
S315000065703210F9D230BC1032121F24BF53F8041D5A
S3150000658040F8041DF8D838BF121D521E24BF13F858
S31500006590011D00F8011DF8D87047121FF3D3C1077B
S315000065A009D153F8041D121F20F8041D4FEA31418A
S315000065B04180F6D2E7E753F8041D121F00F8041DC8
S315000065C04FEA3121A0F801104FEA3141C170F2D2F1
S315000065D0D9E770470C480D4908600020704700B1A4
S315000065E0702070470020704780B500F013F8FF2830
S315000065F001D1A32002BD002002BD002070477047D4
S3150000660000BF034800787047FE180400385E01207A
S315000066103C5C012080B5FFF738FAFF2818BF002040
S3150000662002BD00210170704707F06EB800F0A4B8F3
S3150000663062F30F2262F31F4200B500BF13009646B5
S315000066409446103928BFA0E80C50FAD85FEA417C7E
S3150000665028BF0CC048BF40F8042BC90728BF20F844
S31500006660022B48BF00F8012B00BD704738B5044621
S315000066700D461046FFF7B3FF00202070A847BDE87F
S315000066803140FFF7BABF002253495448EEE70022D3
S3150000669053495448EAE770B5044616460D46304657
S315000066A0FFF7A2FF002020703046A847BDE87040E3
S315000066B0FFF7A3BF01224C494C48ECE701224C49A5
S315000066C04C48E8E701224C494C48E4E70222464997
S315000066D04B48E0E7022246494A48DCE7022246499F
S315000066E04948D8E7012249494948D4E7022247499F
S315000066F04848D0E7F22245494748CCE780B5012013
S3150000670007F006F9454807F097F84549087001BDB6
S3150000671080B507F015F9012805D041480078BDE895
S31500006720024007F074B801BDF0B5002400E0641C17
S315000067303C4D2E88E3B2B3420ED2E7B20C256F432E
S31500006740394B3B441E78864201BF5D888D421E79D7
S315000067509642ECD11846F0BD0020F0BD80B519B9BF
S3150000676006F0D2FF002002BDB1F1004F02D206F0C2
S31500006770D6FFF7E7022002BDB1F5000F3CBF0902C4
S31500006780FFF7ECBF0220704770B505461E46FFF7BF
S31500006790CBFF04000ED02846FFF739F950B1A068A8
S315000067A03146FFF7DBFF28B904990598A07161719E
S315000067B0002070BD022070BD1CB5049C00931346DA
S315000067C001940022FFF7E0FF16BD80B50023009379
S315000067D0FFF7F2FF02BD0000CDF40100C45B01200B
S315000067E07B350200CC5B01200FDD0200945B0120AB
S315000067F063E102009C5B012079E50200A45B0120B5
S31500006800AC5B0120B45B0120BC5B012051DE0200C1
S31500006810D45B0120DC5B0120E45B0120E44F012016
S315000068206B7D01208C570120304F012080B5FFF78A
S315000068307BFF20B1806800210170002002BD02208C
S3150000684002BD0022F2E7704780B59749022003F0A7
S31500006850C4FDFF20FFF776F9FF2004F01CF9FF20A6
S3150000686007F04CFC06F0E6F900F06AF8FEF77DFB4F
S3150000687000208E49088001BDF8B500F097F8009811
S3150000688005B000F0010000BD18B587B001A9684643
S3150000689006F0A8FC9DF80F00854C0822A070BDF8F4
S315000068A00C0001A92080201DFFF748FE9DF814006A
S315000068B00022002160732046FEF758FB00207B492A
S315000068C0088008B010BD80B5684606F095FC932890
S315000068D009D1784801680A78012A8DF8002004BF9A
S315000068E002218DF800109DF8000002BD78B58FB02A
S315000068F004460D4616462C2104A804F0B5FD8DF875
S315000069001240ADF8106005A8FEF7F8FA00F04EF850
S315000069100098ADF83600FFF7D6FF8DF8380000F086
S3150000692048F8294604A807F050FF010004D15F4942
S315000069300A8842F480720A8010B070BD08F003BB6A
S315000069401FB5032408F03EFB00B1072408F03CFB0A
S3150000695008B144F00804204608F0F8FA564808F052
S31500006960FFFA564808F0FFFA00F020F80098C10731
S315000069701BD55349022003F030FD4E4801680878C4
S31500006980012808BF022007F0B3FF08F01FFB00F044
S315000069900DF8009840F080000090684608F0C0FAB4
S315000069A000F007F8032003F093FC1FBD684608F0CB
S315000069B0ADBA78B58FB005A84249282204F0D8FCB4
S315000069C006F020FA08B100201AE001A803F05FFCE7
S315000069D004003D4D3D4E02D000903D4B0AE005A817
S315000069E0FEF7C2FA05A901A807F049FF040006D080
S315000069F00090384B32462946022003F0EEFC204632
S31500006A0010B070BD10B52948018841F400710180AD
S31500006A1003F0C2FB01280CBF0124002408F090FB00
S31500006A2028B102462C49022003F0D7FC00E024B12D
S31500006A3008F035FABDE8104006E710BD1FB504465C
S31500006A401A480088810504D5912C2BD1FFF7FCFE4E
S31500006A501FBD10F08F0F11D0902C02D1FFF714FF3D
S31500006A601FBD912C1ED002901C48009001941C4B17
S31500006A70164A1C49022003F0B0FC1FBDFFF796FF23
S31500006A80902C0FD10098C1070CD5420852000092F5
S31500006A90002101910291ADF80C10684608F040FA09
S31500006AA008F0F9FD1FBD000088B403008A770120B5
S31500006AB07C5A0120385E0120008810020070EF0524
S31500006AC058B40300A4B40300CCB40300E0B403003C
S31500006AD0E8B4030000B5030018B5030080B5030051
S31500006AE068B5030048B5030080B5FFF727FF00F03F
S31500006AF0FE00BDE8024008F029BA10B5FFF71EFFF8
S31500006B0040F0010408F05EFA08B144F0040408F00D
S31500006B105BFA08B144F008042046BDE8104008F0CE
S31500006B2015BA70471CB5DFF8C04A0A21204604F0A2
S31500006B309BFC6021DFF8E80C04F096FCA020608046
S31500006B40052120208DF80410009001AB1022212190
S31500006B50F220FFF7B6FA13BD0020DFF88C1A00B555
S31500006B6008704FF0FF3187B00491002100238DF8A3
S31500006B701800039002900191009304AA09F018F9F5
S31500006B8007B000BD18B5DFF8604A207A87B0C107A4
S31500006B9012D54FF0FF32002104928DF8181009F03B
S31500006BA08AFE0020002100232072039102900190AA
S31500006BB0009304AA09F0FCF80020DFF8681C0870AE
S31500006BC008B010BD80B5FFF7C7FF0020DFF8581CDE
S31500006BD0087001BD2DE9F04700F00108C0F342043A
S31500006BE08946924606094509DFF8400C016806F019
S31500006BF0010605F001050A685079F22826D1DFF86A
S31500006C00E879387820B109F0EAFEF98888421DD182
S31500006C10B8F1000F18D009F0E2FEF8800120A0219B
S31500006C20E207387079807C7046BF4FF47A7101FBB9
S31500006C3009F1DFF8FC1B7D71DFF8EC0B06F06FFD48
S31500006C4026B187F804A001E0FFF786FF0120BDE822
S31500006C50F087002070472DE9F34F8FB007461546A1
S31500006C609846DDF884900AA8142104F0FDFB780A02
S31500006C7000F0030AC7F341108DF81800F80A00F077
S31500006C80070BDFF8B00B002438400828DFF89C0B10
S31500006C90016808BFA1460A79042A08BF01242B000F
S31500006CA01A9D08BF0AAB05B90AAD1F9E06B90AAE02
S31500006CB0109ACDF8008007F0070107A809F046FFF3
S31500006CC0002854D0DFF8801B012003F08CFB00F075
S31500006CD0F1F84CD1BAF1010F49D09DF82400C0B1AA
S31500006CE0022844D10022082107A803F0C1FA00288F
S31500006CF03DD107F01800182839D0ABF1050002285D
S31500006D0035D39DF8180068B9F8060BD47CBB8520EE
S31500006D102BE0079858B310F1070FEAD310F1010FD3
S31500006D2025D1E6E71E9A20981C9904921B9B9DF894
S31500006D30182001900091CDF814900396029507A9AA
S31500006D4038460AF079FA38B1DFF89C0841788807A6
S31500006D500DD5FFF701FF0AE0380708D509F0A1FFB6
S31500006D60FF2808BF002C02D18920FDF7F2FE012082
S31500006D7011B0BDE8F08F2DE9F8418FB080460F467F
S31500006D8016461D46169C0AA8142104F06DFB04B98C
S31500006D900AAC00F08FF84ED1189B2946179A199D18
S31500006DA0F02B49D0F32B67D100228DF824200792CF
S31500006DB000293CD10AF0C5FC87423AD1DFF8645A73
S31500006DC02878DFF8244810B1207A81076ED506F0BE
S31500006DD01BF80B3840F0100004AA01238DF81000B0
S31500006DE000210192009303910291F32307AA012047
S31500006DF008F0DEFF0120207206F006F806F10B010E
S31500006E0088420BD001200B3600FA06F1002203203F
S31500006E1009F0EAFC207A00F0FD0002E0207A40F05A
S31500006E200200207241F28831284606F078FC0120E3
S31500006E303DE0FFF7A7FE39E018F007008DF81800CF
S31500006E4008BF049101D000F03CF80AF07AFC8742B2
S31500006E5009D1002000216A1C0390029101922B782F
S31500006E600093F0231EE000200021002303900291EE
S31500006E700190009304AA17E0F72B03DAA3F1B00000
S31500006E80102813D218F003008DF8180008BF0491DB
S31500006E9001D000F016F80021681C039102910190C0
S31500006EA02C78009404AA012008F082FF002010B07C
S31500006EB0BDE8F081DFF8740901680A685079F228A4
S31500006EC0704702218DF818108DF81920216804A842
S31500006ED00160616841607047002070472DE9F04706
S31500006EE0044662688846002192B24046FDF7C2FE1B
S31500006EF0207C08F1020530B9A26800212846FDF77A
S31500006F00BEFE2D1D07E0022805D1082204F1080166
S31500006F1000F09EF80835207C022804BF607C05F846
S31500006F20010B6168880403D5A28A00F096F8AD1CAF
S31500006F30606841040FD5A07D002105F8010BA26908
S31500006F4028462D1DFDF79BFE102204F11C0100F0C2
S31500006F507FF8103507E0800605D5A269002128468E
S31500006F60FDF78DFE2D1D20794FF00C0A41060ED53A
S31500006F7000F05EF800F061F805D100F067F800F067
S31500006F806AF800F04EF87F1CF9B20229F2DB60685D
S31500006F90C10517D500F04CF8FAB20AFB02F204F16B
S31500006FA02C018E183378022B08D1728800F055F820
S31500006FB0B288AD1C00F051F800F033F87F1CF9B22E
S31500006FC00229E9DB04F14400017805F8011B227966
S31500006FD002F01802182A1CBF407805F8010B6268F7
S31500006FE0100403D5120C00F038F8AD1C6068C1031C
S31500006FF012D500F01DF800F020F809D100F026F8AF
S3150000700000F029F899F80000AD1C0A3089F8000054
S315000070107F1CF9B20229EEDBA5EB080188B2BDE8B8
S31500007020F08799F80000AD1C401C89F800007047F5
S315000070300027A94605F8017B7047FAB20AFB02F25F
S3150000704004F12C018E183378032B70470822B11CEB
S315000070502846FFF773BA7289083500212846FDF7DE
S3150000706009BE2DE9F84F0F46B6B000F00701C0F390
S31500007070C1008DF8041000909346984607A8142185
S315000070800026002504F0F0F9DFF8A0170968BBF127
S31500007090000F087908BF0DF11C0B00284DD10968B7
S315000070A04879F2283CD10FA9E8B209F07FFD002803
S315000070B036D19DF83C00FF2818BF761C6D1CE8B23F
S315000070C00428F0DD9DF80001F4B2DFF8705906904F
S315000070D00098DFF86C99DFF86CA960BB9DF8041086
S315000070E03A46CDF800805B460CA809F02FFD002833
S315000070F000F085800CA809F0B0FD0646FF2822D0D6
S3150000710000200122FF23059004900392029301942C
S31500007110009000F07AF80FA9304609F047FD0028E4
S3150000712071D1288809EB00010FA8FFF7D7FE29883F
S315000071304018288061E00098012860D19DF8000180
S31500007140F6B2B04209D30021059104910391069944
S315000071508B220291019400924DE000200590069842
S315000071600021FF220491039202900194009153465C
S315000071700B22212101200027FEF798F80024B846AB
S315000071800FA95FFA88F009F011FD00283BD19DF8A0
S315000071903C00FF2819D09DF800017F1CF9B28842F7
S315000071A013D221A90FA8FFF799FE2E8883460BEB71
S315000071B0060052280FD25A4621A909EB0600FFF70E
S315000071C0BDF9B344A5F800B0641C08F101085FFAE4
S315000071D088F00428D4DD89F80640FDF7B8FC742849
S315000071E00DD100200590039006980021FFB204916E
S315000071F002900197009100F008F8FDF7A8FC012025
S3150000720037B0BDE8F08F0020FAE753460B22212164
S315000072100120FEF74BB82DE9F04F0024F228A7B065
S315000072204FF0000A08BF21294DD1112A02BF802B39
S315000072303098002847D1DDF8C480B8F1050F42DD4B
S315000072401120FDF7ECFEDFF8F4572E880027DFF853
S31500007250F097361DB6B2B3466946F8B209F0A6FCF9
S3150000726030BB9DF80000FF280FD012A96846FFF733
S3150000727035FE0446301980451CDB224612A909EB6F
S315000072800600A619FFF75AF9B6B27F1CF8B2052810
S31500007290E2DBA6EB0B065FEA0A000ED10020FDF743
S315000072A0AFFE4320FDF7ACFEB0B2FDF7B8FE06E038
S315000072B0002009E04FF0890AEBE7FDF7A1FE2888D8
S315000072C0012436182E80204627B0BDE8F08F2DE920
S315000072D0F04F8BB0C44E307868B10A93187A002804
S315000072E004BF1B68002B06D0199CE02C18BFE22CAB
S315000072F001D0179B0BB1012014E1DDF874901C9DA1
S31500007300DDF868A0DDF85480149F8DF824208DF8F0
S31500007310251083460AF015FA9DF825100690189850
S3150000732007919DF8241002900A98CDF820A0CDF878
S3150000733014900495039401970091437A02460168DC
S315000073404BEA071040EA881444F4006009F0A5FBF4
S31500007350FEF710F80446F2202071607105200AF04D
S315000073600EFB707910B100F012F80DE09DF82400C4
S31500007370A0F10C05E088A57240F00200E0800A98B2
S315000073800CF05CF800F088F800F03AF9B3E7F18801
S315000073900020FDF7D9BF2DE9F84F8AB005461C46F7
S315000073A0207A002804BF2368002B73D030B92368E5
S315000073B013F1070F02D313F1010F6BD102280AD183
S315000073C00023D8B2205C18B95B1CDEB2082EF8DBAD
S315000073D0DBB2082B5ED0169800285BD1179E237A65
S315000073E03000159818BF43F008037E2D18BF7F2D77
S315000073F003D143F4007300B10420149D43EA8013C3
S31500007400DFF8E4912F0147F4006799F805003B4344
S31500007410ADF826300F468DF82420DDF868A0DDF89B
S315000074207080DDF874B090B10AF08BF900F03AF88C
S31500007430002E14BF202005200AF0A1FAFDF79AFFBE
S3150000744000F0DAF8B9F80610FFF7A2FF20E00AF01C
S3150000745078F900F027F8FDF78DFF00F0CDF89DF8DC
S315000074602410A1F10C05C188857241F00201C1808A
S3150000747036B17F0900F0BAF83F0E2037B8B200E007
S3150000748005200AF07CFA20460BF0D8FF00F004F83D
S3150000749000F0B6F8012045E00146EAB24FF6FD706D
S315000074A0FDF766BF06909DF864001899CDF820A0F8
S315000074B003909DF824000797CDF814B0CDF81080FE
S315000074C0029101950090637A2168BDF82600224654
S315000074D009F0E3BA01E0000000BF2DE9F84F8AB0D9
S315000074E0DDF85080DDF854E0DDF858C0179FDDF870
S315000074F06090199EDDF868A01B9D1C9CDDF874B099
S3150000750007950894CDF824B0CDF818A00596CDF8C7
S3150000751010900397CDF808C0CDF804E0CDF80080B0
S31500007520FFF739FF0BB0BDE8F08F2DE9F84F8AB0B1
S315000075302D4E3478002C1EBF347A04F00304012C3F
S315000075404FD008257E281598149C08BF4FF4027565
S31500007550800140EA04108DF824200F4640F40060B4
S315000075602843ADF826007079DDF860B0DDF8648058
S31500007570DDF868A01C9DDDF8749068B10AF0E1F8AA
S3150000758000F041F8FDF7F6FE00F036F820200AF08C
S31500007590F6F9FFF7FCFE22E01E460AF0D2F800F0EC
S315000075A032F8FDF7E7FE00F027F87F099DF8241072
S315000075B000F01CF8A1F10C04C1883F0E847241F062
S315000075C00201C1802037B8B20AF0D9F930460BF073
S315000075D035FF0146E2B24FF6FD70FDF7C9FE00F039
S315000075E00FF801209EE70000286F012007F006072C
S315000075F0C7F103077F077047F22101714171704798
S3150000760000200AF0BCB906909DF82400CDF820A011
S3150000761007970090BDF82600CDF814900495CDF894
S315000076200C80CDF808B0019400230022002109F057
S3150000763034BA2DE9F84F9AB02B9891460C4602467B
S315000076401F46FF2A00F0E78048214A43DFF8F83357
S3150000765019680D1DAB58091D43F400738B5043F494
S315000076608063AB5008A909F0A1FA002840F0D38046
S3150000767007973E7A00214FF00C0808FB01F208A894
S31500007680104490F82C00002814BF032846F0080682
S3150000769003D0022808BF46F02006491C0229ECDB6D
S315000076A09DF82400299DDDF89CA0010624992598C3
S315000076B048BF46F0100646EA8116E02D46EA002647
S315000076C046F4A046B6B218BFE12D03D1DFF87C23FD
S315000076D0107820B15FEA0A0018BF46F400668DF8FC
S315000076E01890289F01B94F46DDF8B4B0DDF8B09088
S315000076F00AF027F805940490CDF80CB0CDF8089060
S31500007700019500970798640904F00604C4F1030480
S31500007710437A0246016864073046240E09F082F96E
S315000077202034ADF800409DF81850DDF81C90002478
S315000077304FF6FC7B08FB04F108A8471807F12C0656
S315000077403078002818BF032818D1FDF713FEFFF77D
S3150000775053FF5FEA0A0014BF202005200AF00FF944
S315000077607089584506DB07F12E0009F05BFF584586
S31500007770B8BF70817189FFF70BFE20E0022820D187
S31500007780FDF7F8FDFFF738FFA5F109078772C188F5
S3150000779000F052F85FEA0A0014BFBDF800000520A9
S315000077A00AF0EDF8B0884FF6FF71884204BF4846EC
S315000077B00BF044FE01467088FAB2FDF7AAFDFFF70A
S315000077C01FFF641C022CB5DB9DF82400010622D5A0
S315000077D0FDF7D0FDFFF710FFC1888572BAF1000FE3
S315000077E000F02AF814BFBDF8000005200AF0C7F81B
S315000077F00998810448BFBDF8348003D448460BF08D
S315000078001DFE804648460BF019FE2A464146FDF706
S3150000781080FDFFF7F5FE01201BB0BDE8F08F0000EC
S31500007820346F01209C6F0120946F0120C05E0120FF
S31500007830007102000800020041F00201C1809DF8BB
S315000078406410C1727047000014E6030001207047FF
S315000078502DE9F84F06460C467C48017A9EB015463F
S31500007860C80703D59DF8B410E32966D19DF8A0009A
S315000078700B93002802BF75490878002810D11846D6
S3150000788009F0EBF9FF280BD00CA909F08FF90028B5
S3150000789053D10D98410450D49DF8460000284CD190
S315000078A0002E8DF8286018BF7C2E05D07F2E44D17F
S315000078B066490878002840D0644908788DF82A403F
S315000078C08DF82950299C2A9D2B9EDDF8B090DDF875
S315000078D0B8A02F9FDDF8C080DDF8C4B0002862D0C4
S315000078E0280003D000F087F8FFF7F1FC9DF8280088
S315000078F07F2804BF9DF8A000032803D100F064F898
S3150000790003214AE09DF8B400E0282CD020D3E228D9
S3150000791014D002D3E32816D01AE09DF8A010E12077
S31500007920059000F061F89DF82800CDF824B000F02D
S3150000793045F800F053F8FFF7CDFD3CE000F05DF8A8
S31500007940FFF7CAFD37E000F058F8FFF7EEFD32E02A
S315000079509DF828107C291AD1A0F1E4020C2A24BF34
S31500007960B038102823D29DF8B4009DF8A0100590D9
S31500007970CDF824B0009100F021F800F02FF80B9B11
S315000079809DF829209DF82A109DF8280008E07F29F7
S315000079900DD100F019F89DF8A01000F025F87E2012
S315000079A0FFF7F9FC07E09DF8B400E22803D000F0E9
S315000079B022F8FFF73EFE1FB0BDE8F08FCDF820801D
S315000079C00797CDF818A070479DF8B400CDF824B0FD
S315000079D0CDF820800797CDF818A00590CDF8109027
S315000079E0039602950194704700910B9B9DF8292000
S315000079F09DF82A1070479DF8B4009DF8A0100590D8
S31500007A000B9B00919DF829209DF82A109DF82800CF
S31500007A10CDF824B0CDF820800797CDF818A0CDF882
S31500007A201090039602950194704728B90748017A89
S31500007A30C80748BFFFF7A6B870470000AE7A012016
S31500007A40E45D012020E6030094530120286F012005
S31500007A50912800D0704780B500F05FFE18B9BDE8E8
S31500007A6001400BF011BE01BD1CB5059C1CB1049C68
S31500007A70009404F02FF913BD30B50246DFF8FC0977
S31500007A800023DFF8FC5903E0D45C5B1C60406843CC
S31500007A908B42F9DB30BD024608460E2A04DA14236F
S31500007AA0D2B2302105F051BD70470A460E2804DADD
S31500007AB0C1B21423302005F079BD7047902800D05C
S31500007AC0704780B50BF006FEBDE801403CE330B5DB
S31500007AD085B00025DFF8AC4900228DF80120694603
S31500007AE0A8B2FFF7D8FF9DF8010060B19DF800002D
S31500007AF028B9AAB2182042430121A01801746D1CAE
S31500007B00A9B20E29E8DBDFF88009058000F01CFB2E
S31500007B1005B030BDDFF87009008870472DE9F04FD9
S31500007B2000249FB0A046A346A146002667E0D0B237
S31500007B30092862D258E0CBA10091BDF81C20BDF8FF
S31500007B4016100A234FF0FF09FDF7A5FB9DF8150057
S31500007B504FF48A51E1802071BDF81C8000250AA9E6
S31500007B60E8B204F0E7FE002802BF9DF829009DF860
S31500007B701510884202BFBDF82A00BDF816108842CB
S31500007B8009D19DF835109DF828002246FDF748F8E2
S31500007B90484598BF81466D1CE8B20228DFDDBDF876
S31500007BA01800FDF73CFA9DF81000FDF729FA51463A
S31500007BB00EA8FDF764FA002038740BF03FFE38601B
S31500007BC0002000909DF810000EAB5246412818BFC9
S31500007BD04228ACD1AAF10101C9B20DF13900FFF773
S31500007BE04BFF00906B4604220020C7E90200D2B288
S31500007BF0194607F10800FEF7A1FC761CB6B2DFF8BD
S31500007C00880801888E426FDA05A93046FFF743FFE0
S31500007C100BF014FE18227243DFF868188F183968C3
S31500007C20411A9DF814000028E7D1BDF820304FF422
S31500007C307A7253439942E0D3387C30B9BDF82200BA
S31500007C400028DAD042439142D7D304A80390BDF866
S31500007C501C0041210EAA0291019200909DF81A3053
S31500007C60BDF81820BDF816109DF81500FEF744FC67
S31500007C700028C2D19DF81000FDF7F7FB0028BCD103
S31500007C809DF8100041220EA905F006FD5FEA000AE4
S31500007C90B3D00AF10302E4B120799DF8153061886A
S31500007CA0834204BFBDF816308B4210D19DF81A30BE
S31500007CB0DB095B4504BFBDF81C30434507D1DFF83F
S31500007CC0CC371D88D2B252199145BFF668AF00F085
S31500007CD015F8FDF74FFB04469DF81A005FEAD01B26
S31500007CE014BF0020082026E71CB16188207900F027
S31500007CF005F800F029FA1FB0BDE8F08F10B50C4664
S31500007D00FCF74AFC08B9032C0BD1DFF88407FDF712
S31500007D10E9FAB42808BFFDF7F3FABDE81040FDF70D
S31500007D20FABA10BD2DE9F04F87B00546687D0026EA
S31500007D302C7D00284BA100912F6807BF08204FF02B
S31500007D40400800204FF080082A8A07237988FDF72B
S31500007D50A2FA8DF80580AA89A1B2C81C904276DAEB
S31500007D60A868641C415C8DF80610A1B2FDF7B8F94D
S31500007D7080469DF80600A41C10B101284ED057E09D
S31500007D80A868A1B2641C425CA1B2A41C8DF80420B0
S31500007D90AA894FF0000AFDF7A3F9074600F064F838
S31500007DA081469DF80400FCF7FFFF60B99DF80400CA
S31500007DB005F060FCAA898346A8685B46A1B2FDF778
S31500007DC078F982465C44298A28689DF8053000F0D7
S31500007DD0F8F800281FBF80789DF8041088428D2788
S31500007DE027D1286841798DF80910286841889DF8BF
S31500007DF00500ADF80C80ADF80A108DF80E00298A42
S31500007E00ADF81470ADF81690ADF81010CDF818A0B6
S31500007E1002A800F01EFA07009DD00AE000F024F840
S31500007E209DF8052003464146284600F0BBFAF2E7D6
S31500007E3085273846FDF7E4F89DF806000126FDF78C
S31500007E40DFF84046FDF7EBF8852F84D103E016B93D
S31500007E500020FDF7D5F8FCF77AFE012007B0BDE853
S31500007E60F08F000000000000AA89A868A1B2A41C37
S31500007E70FDF736B92DE9F84F86B00446607D277DBB
S31500007E80B0A1002800912668228A07BF08204FF07B
S31500007E90400900204FF0800909237188DFF8E8A522
S31500007EA0FDF7F9F908E08620FDF7AAF82846FDF760
S31500007EB0A7F84046FDF7B3F8A289B9B2CB1C9A429F
S31500007EC055DBA0687F1C455CB9B2FDF709F9BF1CFC
S31500007ED08046012D3ED8218A20684B4600F071F875
S31500007EE00600E0D04FF0000BBAF800205FFA8BF0E6
S31500007EF090423DD201A9FFF7CEFD9DF80400A842AD
S31500007F0001BF21689DF805004A7990421FD1BDF84E
S31500007F1006004A88904204BFBDF80800404516D1C5
S31500007F209DF80A00484502BFBDF80C00228A90421F
S31500007F300DD19DF8040000281CD0BDF81000E28881
S31500007F40904202BF9DF812000979884212D00BF1C7
S31500007F50010BC9E78520A7E75FFA88F0FDF750F81F
S31500007F604FEA1828761E28E0BDF81400A2E772E74B
S31500007F708B2099E70020FDF743F82846FDF740F8E7
S31500007F804046FDF74CF815B1012DEDD094E7B078D9
S31500007F90FDF736F8BDF81000FDF741F8BDF8120000
S31500007FA0FDF73DF8B078FCF7FFFE002884D1B078E5
S31500007FB005F060FB0646DDF81480F0B20028CBD150
S31500007FC07AE70091418840794246FDF71ABB80B5B1
S31500007FD003E0401E80B200F0FEF8DFF8AC1408881B
S31500007FE00028F6D1DFF8AC14087002BD10B5DFF832
S31500007FF098341C88B121A04202D200F024F9002155
S31500008000084610BD2DE9F84787B0074688469146D1
S315000080109A46109D0024DFF8706400E0641C3288E4
S31500008020A0B2904252D202A9FFF735FD9DF8080092
S31500008030002804BF9DF80900B842EFD1BDF80A0038
S31500008040404504BFBDF80C004845E7D19DF80E0039
S31500008050504504BFBDF81000A842DFD1119E002094
S315000080600190129D304605F005FB412E014628463B
S3150000807018BF422E08D1FDF755F80146681CFFF7D8
S31500008080FBFC019001A80421A4B218256C43DFF87B
S31500008090F47300912744D7E90223FCF79BFA0446C0
S315000080A00D463046FCF780FE012804D10022954299
S315000080B008BF944206D148B9002106988D4201D8DE
S315000080C0844203D301223A7400F03EF808B0BDE8BA
S315000080D0F08710B542784B789A4202BF42884B88A7
S315000080E09A421AD182888B889A4202BF82798B790A
S315000080F09A4212D102890B899A4202BF02780C7801
S31500008100A2420AD13AB182898B899A4202BF807B08
S31500008110897B884201D1012010BD002010BD014697
S3150000812038B5DFF8645328884FF6FF740E2805DA51
S315000081300446FFF7BAFC2888401C2880204632BD3A
S3150000814000000000000000002DE9F04F4FF0FF395D
S3150000815085B0CA460026DFF82CB34FF47A77DFF8ED
S31500008160288309E0A11A03E014B19442FAD200214F
S31500008170514598BF8A46761CB8F80020B0B29042A6
S3150000818021D200F05DF89DF800000028F3D1BDF87B
S315000081900C50BDF80E400BF051FBB3B218214B4307
S315000081A07D437C435BF803205B444946821A187C76
S315000081B00028D9D09542DAD3A91AD9E7002101704F
S315000081C005B0BDE8F08FB3481AF1010FF6D051465D
S315000081D0FEF7C4FAF4E7F8B5AB4D2B88044690B029
S315000081E09C422BD200F02CF8288800228DF8012022
S315000081F0401E81B22880A14202D16946204618E07D
S31500008200182605A980B2FFF746FC29889D4F0AA8C3
S3150000821071431822394403F0ABF805A9204674438C
S31500008220FFF743FC0AA93819182203F0A1F869469A
S315000082302888FFF73AFC6846FCF78AFE11B0F0BDC5
S315000082406946FFF728BC80B5FFF7C5FFBDE80140CA
S315000082507AE72DE9F84386B0054628898A4E37889D
S315000082600090AB79AA88698868784FF00108FDF715
S31500008270C8F908B9862092E0E88920B1A989884220
S3150000828038BF8720F7D3002400E0641C3188A0B2F1
S31500008290884222D201A9FFF7FEFB9DF804000028C0
S315000082A002BF9DF8050069788842EED1BDF8060048
S315000082B06988884202BFBDF80800A9888842E4D1CF
S315000082C09DF80A00A979884202BFBDF80C002989E9
S315000082D08842DAD14FF000082746E8894FF6FF7149
S315000082E0884207D1B8F1000F04BFB8B2FFF7ABFF61
S315000082F0002054E0002400281FFA87F904BFA8894B
S3150000830088420AD11422294601A8FEF717F901A8C6
S315000083100BF031FA08B1012402E0B8F1000F17D0D2
S31500008320B9F10E0FA8BF892039DA00208DF80400B4
S3150000833069788DF805106888ADF80600A888ADF84C
S315000083400800A8798DF80A002889ADF80C003CB918
S31500008350A889ADF81000E889ADF8120028690590E3
S3150000836001A8FCF7F5FD050018D13088B9B28142A5
S3150000837004BF401C3080182000FB09F4414E0BF06E
S315000083805DFA305106F1080200202244C2E90000DD
S3150000839001A9B8B2FFF789FBFFF7D6FE284607B05A
S315000083A0BDE8F0832DE9F847374E85B00446984678
S315000083B0378800258946924600E06D1C3288A8B2AF
S315000083C0904257D2FFF73CFF9DF80000012801BFFD
S315000083D020689DF8011042799142EED1BDF8021055
S315000083E04288914204BFBDF804104945E5D19DF885
S315000083F00610514502BFBDF80810228A9142DCD111
S31500008400BDF80C10E288914202BF9DF80E1000796B
S315000084108142D2D12F4618E001218DF80010206844
S3150000842041798DF8011020684188ADF804908DF8E7
S3150000843006A0ADF80210218AADF80810E088ADF864
S315000084400C00216808798DF80E00ADF8108068469A
S31500008450FCF77EFD040009D13088B9B28142694635
S3150000846004BF401C3080B8B2FFF71FFB204606B0A1
S31500008470BDE8F0870E2FCFDB8920F8E7C59D1C816C
S3150000848093010001A8580120CA7D0120AE7A01207F
S31500008490697A00006C61012080B5A0B040887D2219
S315000084A0694604F0C8FD01001CBF694603F0DEF80A
S315000084B021B000BD0B46014680B5002218460BF0E0
S315000084C069FD010001D1182002BD01220121BDE88C
S315000084D008400BF05FBF80B502F0CAFF0120BDE87F
S315000084E0024010B5040014BF084800200CF014F830
S315000084F050B1002C0346064914BF064A064A02201C
S31500008500BDE8104001F069BF10BD00002CE3030078
S31500008510E8E2030014E3030020E3030080B55221E0
S315000085204F4802F0A1FFFF2252214E48BDE8084005
S31500008530FEF77EB8FEB5054601F092FD06462846D2
S3150000854001F09EFD9DF800102A464FF6FF7416B303
S31500008550019B212A1B781EDA4220434E022B09DAA0
S315000085604343F01830F81230A34214D05B1C20F8B5
S31500008570123010E00FD1002306EB420700FB03F692
S3150000858037F806E0A6451CBF0EF1010E27F806E0F7
S315000085905B1C022BF2DB334F314E37F8123036F8C4
S315000085A012C09C458041C043C00FA4451CBF0CF1BE
S315000085B0010C26F812C0092D18BF0B2D0AD1B6F8EA
S315000085C014C0BF8A01EB0C0EBE45AEBFB782614434
S315000085D0B1820CE01D2D0AD1B6F83AC07F8F01EBAF
S315000085E00C0EBE45BDBF491E61447187778736F8BC
S315000085F01210994203D310B92846FCF78FFC0020CD
S315000086001A49C6B28A5DAA4204D0401CC6B2112ECF
S31500008610F7DBF7BD112E15DA02F0E7FD0546144823
S3150000862001788D4203DBDD2112480CF00FF8222081
S3150000863045431149481930F81610A1421CBF491C80
S3150000864020F81610F7BD5221054802F00DBFFF2293
S3150000865052210448FDF7ECBF024A22F81010704779
S315000086607C720120D0720120487301209CF903001E
S31500008670C75701208CF9030024730120DFF8181B6B
S31500008680C873704770B5DFF8145B29783824DFF8B3
S31500008690106B3068614301448A78112A04D0B821EE
S315000086A0DFF8000B0BF0D2FF28783168412214FB6B
S315000086B000F40819827070BD10B5022002F098FD12
S315000086C002F09DFDDFF8D43ADFF8D40A1C78016881
S315000086D038204443DFF8C02A08194178042903D119
S315000086E0107C401D107405E04FF47A7102F11800F9
S315000086F005F015F8BDE8104002F082BD80B5DFF840
S31500008700A80A0BF0B9F9DFF8A40A0BF0B5F90CF0DA
S3150000871099F8BDE801400CF0B6B8DFF8802ADFF81A
S31500008720800A1378016838204343C81880783328B4
S315000087301CBF4328532801D10120704700207047F1
S315000087402DE9FF4E0CF0CFFD09F0F3F8002867D0B5
S31500008750DFF8444A00202076DFF8540A01790C300D
S3150000876001F025FA207D18B10CF086F8002020755E
S315000087700021217300F056F80DF0AEFA0CF026FE3B
S31500008780DFF8900C00274825DFF8106ADFF824BAD6
S3150000879000F1E40900F1E20A9BF80010F8B2884201
S315000087A03ED202F02CFD30784FF6FF7268433AF85D
S315000087B00010914218BF012107D100220821484428
S315000087C001F056FD411E8941C90F94F8202002F0A0
S315000087D001020A4220D03078082268433AF8001095
S315000087E0ADF8081009EB00016846FDF7A7FE0A235D
S315000087F00A2201F02FFADFF8A80996F800C00168EE
S31500008800382010FB0CFC02230B2201EB0C0000F1BC
S315000088102C0100200DF086FC02F0F2FC7F1CBBE769
S31500008820BDE8FF8E10B5DFF874090178DFF870290E
S315000088303820136810FB01F018444078032818BF4D
S3150000884004280CD148204143DFF8C82B5018B0F853
S31500008850E2104FF6FF72914208BF032008D001F0E4
S315000088601FFC044601F025FC214603F0F0FF022020
S3150000887001F03AFC0DF004FD01F040F80DF058FA55
S3150000888001F080FA20B10020BDE810400DF0A0BF35
S3150000889010BDF8B5DFF80049DFF80079E073002174
S315000088A04FF6FF7001F0ECFA39783825DFF8F068FA
S315000088B03068694301448878032818BF002823D00C
S315000088C0332818BF432819D100F038F8387815FB3B
S315000088D000F5306841194978032918BF042907D1E2
S315000088E00321801C4155E07BBDE8F24002F0F2BC5A
S315000088F0E07B02F0EFFCBDE8F14093E721208870B1
S31500008900BDE8F14006F089BCF1BD38B5DFF88C381A
S3150000891001F0ACFA00214FF6FE701519A97008F0A7
S315000089201CFF4FF6FF7008F034FFDFF86C4800F0CC
S3150000893005F8E07BBDE8324002F0CCBCE37B1322B5
S3150000894065A103200EF08BBBFEB50446E07A152226
S31500008950029094F90A1003200191238934A100930F
S3150000896023460EF07CFB20890EF0D3FB08B10220D3
S31500008970FEBD00F0FCFA0A44907888B9208900F020
S315000089804DFD0DD00EF075FC50B902F03AFC38B929
S3150000899002F039FC30B1DFF8800A0178022901DAE9
S315000089A07020FEBD31783868694301440A79900722
S315000089B008D508F0C6FE4FF6FE72904203D10EF0BF
S315000089C05DFE00E00020214601F08CF80100CFD1C9
S315000089D000F0C7FA0A7990074CBF0220012001F087
S315000089E044F8002101200FF015F90100C0D1DFF88D
S315000089F0E01B087808B110F066FB0022082120462B
S31500008A0001F036FC30B10421204610F0EBFB08B132
S31500008A10A520FEBDDFF8BC0B01780020DFF8B82BDF
S31500008A20E081217462612046BDE8FE40CCE1000091
S31500008A304238705742420000F8B50446DFF89C0BF6
S31500008A400EF062FB06462346182200F0BDFDDFF855
S31500008A504C370020307093F800C0DFF844173820F8
S31500008A600A6810FB0CFC702502EB0C004178032908
S31500008A7018BF042915D0406B0025210008BF80F8D7
S31500008A8024500ED0FF2C03D1012180F8241008E0D9
S31500008A900122A70080F824207F1C3902304604F00A
S31500008AA03EFE00F02BFF2846F2BD38B504F033FF3A
S31500008AB00446DFF8281B0EF028FB0546FF2818BFE2
S31500008AC002F09DFB00202070FFF7B6FFFF2D01D0BE
S31500008AD001F093BA31BD00004242000038B588B0BB
S31500008AE004460D46686916220790297C0691E88996
S31500008AF00590297B0491E87A039095F90A100320E2
S31500008B0002912B89CDF800500BA1019323460EF05C
S31500008B10A6FA01200BF001FF287B00280CBF4FF6B8
S31500008B20FE7008F00EFE2B462246014609B00120D3
S31500008B30BDE83040A6E0000042423870574242424B
S31500008B40574244002DE9F047DFF8509699F800C0E7
S31500008B508846DFF84C663824316814FB0CFC1D4649
S31500008B6082468B1C13F80C0000284BD1170049D005
S31500008B70042F47DC0EF07DFB002843D102F041FBB9
S31500008B8000283FD102F03FFB08B1042F3ADB287BD7
S31500008B90032817D14FF6FE71884515D1012F08BF5E
S31500008BA04FF0000810D0022F2CD108F0CAFD4FF666
S31500008BB0FC71884202DA08F0C4FD01E00EF05EFDA9
S31500008BC0804601E0012F1DD0BAF1000F0CD0287BA2
S31500008BD0032838460CBF01210021012F18BF0020B1
S31500008BE00FF018F801002BD12946404600F07AFF15
S31500008BF0010025D102F001FB02F0E4FA20B102F0F7
S31500008C0002FB08B170201BE099F80020306814FBC5
S31500008C1002F4811C085D332818BF532803D00020B6
S31500008C20DFF874158873384600F01FFFDFF8A019C7
S31500008C30087820B102F0E7FA08B910F044FA0020EB
S31500008C40BDE8F08738B50446DFF84C5508222146C2
S31500008C50281DFDF773FC207BDFF840350228C8BFCE
S31500008C600020287028789421E9730028DFF8300561
S31500008C701C780CBF012131210268382044431019A9
S31500008C80817031BD38B51C46FFF75CFF010032D15B
S31500008C90207B0328204602D1BDE8324094E0FFF74E
S31500008CA0D1FFDFF8F4040021818101F03BFB01468E
S31500008CB040094FF0010305D1DFF8700C027803FA82
S31500008CC001F108E001F01F0140F0180003FA01F17C
S31500008CD0052241EAC061052007F086FD01000AD0A1
S31500008CE0DFF8B844DFF8B81425780B6838214D430F
S31500008CF0002259198A7032BDF8B586B006460C4670
S31500008D0017461D46082204F10C016846FDF716FCBD
S31500008D1021898DF80A700022ADF8081021788DF8A7
S31500008D200C206B468DF80B1032464FF6FE71012073
S31500008D30FFF708FF01000AD16846FFF783FF2046C8
S31500008D4000F007F8010004BFDFF84C140D7507B0FA
S31500008D50F0BD10B50446DFF84424DFF84404137868
S31500008D60016838204343C8184078032818BF0428F0
S31500008D7006D1E079C10744BF94F9050010F041FA25
S31500008D80207801F02DF801F068F822896189034600
S31500008D90002010F031FB040004D09420FFF779FD89
S31500008DA0204610BDDFF8F0439420E073022002F065
S31500008DB01EFA00F004F803202074002010BDC8211C
S31500008DC004F1180004F0ABBC10B5044600220821DB
S31500008DD001F04EFA08B1012010BD08F0B2FC0022E5
S31500008DE04FF6FF7100F0B9FE217C204600F0DFFE51
S31500008DF06269E189207C0DF08CFADFF8A023DFF8A8
S31500008E00A0031378016838204343C8184178012924
S31500008E1008BF0FF019FDFFF705FD002010BD2DE975
S31500008E20FC4100F0A4F804460A44907810B90EF00C
S31500008E3020FA08B1702092E00BF078FDDFF8588335
S31500008E402CB10222214608F12000FDF777FB684687
S31500008E5000F0E0FF08B1932081E09DF80030142275
S31500008E6000F0B2FB00F0FAFE010078D19DF8000098
S31500008E7000F0FBFD327838686A43411C885C0128A3
S31500008E8018BF022808D0032818BF042842D10020A2
S31500008E9001F03CF800283DD000F0F7FE3278386843
S31500008EA06A43411C885C032814BF042810F0A3FB06
S31500008EB0FFF7B8FC012010F0C5FB01004FD1307858
S31500008EC0396868434A1C125C032A18BF042A0ED16B
S31500008ED098F820309C0708D50522DFF8FC160120FB
S31500008EE000F062F8010039D039E0032A01D0042AE3
S31500008EF034D1084400F12C0102230B2201200DF08D
S31500008F0011F900F02EF891F82C20500726D50CF018
S31500008F108BFB23E031783868132215FB01F5012419
S31500008F2041198A70002088F80D0001F0FBF940090C
S31500008F3003D101F0F7F984400BE001F0F3F945099C
S31500008F4001F0F0F900F01F0045F01805844044EAEE
S31500008F50C56405222146072007F046FC0020BDE82F
S31500008F60F6813178386815FB01F5411970478B4E4B
S31500008F70327838258A4F39686A437047FF2213E0F2
S31500008F800000000038B50446104603280D4618BFF9
S31500008F90042801D0022032BD00F067FD2946204694
S31500008FA05FF0FF02BDE838402DE9FC4116468046D9
S31500008FB07A4A0D4600F0F1FD3FD08778022F07D0A0
S31500008FC0032F3AD15FEA080102D10079810734D430
S31500008FD0332001F089F80CF086F915F0784F294610
S31500008FE012BF0522DFF844090278052007F0FCFBD2
S31500008FF00446A0B9684F387301200BF08EFC08F0C8
S31500009000BCFB78805FEA080014BF0220012038709C
S31500009010381D00F017FF00207873BE7302E0384653
S3150000902001F062F85FEA08003146284602D010F0E7
S315000090302CFB03E010F028FB00E07024019400955F
S3150000904043462C2203A103200EF009F82046BDE872
S31500009050F6810000424244420000000010B50AF0CA
S315000090608FFE00F11004204610F015FB4FF6FF515D
S3150000907001402046BDE8104010F013BB2DE9FF4724
S315000090800646464D08F05DFB2A788246DFF81091C9
S315000090903824D9F800006243411C885C032818BFB5
S315000090A0042806D1F079C10744BF96F9050010F0EF
S315000090B0A8F83078DFF8387C4FF0480800F090FECA
S315000090C07089002100F0DCFE01F0E4F878B1BAF115
S315000090D0000F03D04FF6F8718A4508DB0EF0CEFA82
S315000090E02978824618FB01F17A5A9042F6D050460A
S315000090F008F033FB308908F04CFB06208DF8080099
S3150000910000F0ABFE8DF80900002001900090287851
S31500009110022302AA18FB00F00121385A10F049FC7C
S31500009120064620B91820FFF7B4FB182024E028785B
S3150000913018FB00F8304637F80810174F10F076FE87
S31500009140387802281CBF3046FFF788FF00F06FF81A
S31500009150E8B19420F873022002F049F82A78D9F889
S31500009160000000F0B9FC0AD1C82107F1180004F08C
S31500009170D6FA03203874002004B0BDE8F0874FF417
S31500009180167107F1180004F0CAFA0020F2E79420DD
S31500009190FFF77FFB0120EFE7CC750120507E012011
S315000091A07C53012044A00000EC7D0120E87D0120D5
S315000091B0F0750120C757012078B587B00C461646D2
S315000091C01D4630B9204610F0EAFF03A90FF0A4FEB1
S315000091D003A80C99019007238DF8096001208DF8EA
S315000091E00830360A8DF80B1000908DF80A600423BB
S315000091F002AA0121204610F0DCFB060014D021460D
S3150000920010F014FE15B93046FFF728FF0D9808B97F
S3150000921030460AE0204611F0EFF818B1304611F05A
S3150000922094F901E000F003F8002008B070BD0022B8
S315000092300021304611F06DBD2DE9F64F85B08A4606
S315000092401C46104610F0B9FE0546BDF8180003A9E5
S31500009250002710F0EAFB002C4FF6FF79B84614BF42
S315000092604FF0010BBB460026BBF1000F07D008B13B
S315000092700DF10C086678760806F0010604E0BDF8E4
S31500009280180010F00FFE8046DFF8F01B0978DFF8B3
S31500009290782C382012684143531C585C032818BFA9
S315000092A0042800F0B38010986B1C11441D5C8DF8E7
S315000092B008A0680800F001008DF8090028068878E3
S315000092C058BF45F08005022807D15FEA0A0002BFB1
S315000092D0496B91F82400002801D1022730E040466E
S315000092E008F0A0F9ADF80000BDF8180010F0F0FD88
S315000092F0814608B94FF0010930000CBF4FF0050A4E
S315000093004FF0010ABBF1000F04D0201D10F0C3F985
S31500009310834601E0BDF800B0BDF8180010F054FD1A
S31500009320CDF80490CDF800A02B465A46414600F0F1
S3150000933001000FF0D1FC00F071F8814608BF01274B
S315000093409CB19DF8080018B9484600F067F802D1AC
S31500009350201D10F0A0F90121019101460097334626
S315000093604A464046FFF728FF0AE0BDF8180010F00D
S315000093702BFD3B464A46414600F0010010F02DF811
S315000093809DF8090020B94FF6FF71404612F010F81B
S31500009390002F3BD19DF8090028B14146484612F0FE
S315000093A035F812F09BF830001EBF48464FF6FF71A5
S315000093B0884219D010F0F3FEFF2815D0DFF8BC7AEA
S315000093C097F800C0DFF8401B0A68382111FB0CFC37
S315000093D002F134034BF6FF7153F80C20526832F851
S315000093E010300B4022F8103084B108F0AAF90EB103
S315000093F0002405E09DF80810002914BF0324012469
S31500009400014643464A46204612F076FA07B0BDE8C2
S31500009410F08F0000BC780120DB5701204FF6FF716A
S31500009420884270472DE9FE4F81460F46144601A932
S31500009430384610F0FAFA834600200090384610F0BD
S31500009440BCFD8246DFF8745B5FEA090108D0BBF118
S31500009450000F18BF0DF1040B10F0DCFA064604E00D
S31500009460384610F01FFD83462E46384610F0A5FDFF
S3150000947002590DF10100009210F00DF980469DF899
S3150000948003405FEA090006D008222946304612F05A
S3150000949083FD002823D1DFF8E46931783825DFF829
S315000094A0647B15FB01F13A685318D87818B19AF81D
S315000094B00100830714D55FEA090011D0901C415CB6
S315000094C0022908BF002C0BD1404608F046F90CF0E3
S315000094D003FC992300F077F8992001F0FBFE6AE07F
S315000094E000F0D8FE002818BF002C03D09420FFF708
S315000094F0D0F960E000F0CEFE00285CD0584611F0AE
S315000095009EFDFF28DFF8E84718BF5FEA090106D18C
S315000095103278482059464243A05A11F077FF11F09D
S31500009520DDFF317848205A4641434046615ADFF80C
S31500009530D84A00F012FBDFF8D40A90F902100902AB
S3150000954061843078396815FB00F08A1C125C012AA8
S3150000955016BF312A11224322891C0A54022001F027
S3150000956046FEDFF8AC0A0168FFF72AFC10F043F864
S3150000957000202074317815FB01F539684A19D07836
S3150000958020B904F1180004F0BFF812E0B9F1000F99
S3150000959006D09AF80100820702D5FFF7D1F808E055
S315000095A0481C415D042904D10521FFF709FC092067
S315000095B02074AD21E17300F0E5FB10B100200DF041
S315000095C007F9BDE8F78F1322CBA103200DF047BDA5
S315000095D0E05701204E7E012000F8FF073875012074
S315000095E02DE9F04F88468DB0404610F0E6FC8346E4
S315000095F00922002112F004FD0190404610F052FCB1
S31500009600814602AB052205A9404612F051FD8DF8B0
S31500009610000002281ED0019D9DF808003826DFF8BC
S315000096205C784519EDB20BEB050A9AF80000DFF8F5
S31500009630D44901280FD0022819D0042800F0DF8071
S31500009640062822D0072800F0958008283AD07C28E2
S3150000965000F0A780F9E0404610F0B6FB0095002325
