S02800007365637572652D6170702D626F6F746C6F616465722D7370692D6D3435706532302E733337CC
S31508000000000400207500000881000008810000082F
S31508000010A70B0A0100000000010200690020000881
S31508000020041E0000250D0008B3120008300600085B
S315080000308F07000819080008770800080D08000847
S31508000040ED07000841090008F10700080000000054
S31508000050FFFFFFFF05480068202100EA010020B1E4
S315080000600348016842688D46104770472C000040D7
S3150800007000200008FFF7EEFF00F00DF800F042F848
S3150800008005E00000854670474348008870474FF4EE
S31508000090017000F09BB838B500F0C6F84FF20F04AF
S315080000A03E4D28B140F2052028806C80012032BDE3
S315080000B03B480068C10615D56888A0421ED1288825
S315080000C040F2022188421CBF40F20622904215D017
S315080000D040F2011188421EBFB0F58A7F40F2111125
S315080000E088420BD02F4C208A40F6A721884205D19A
S315080000F02068FFF7C7FF6068804700BF002032BD51
S315080001000000000038B50400274872B6016849089F
S315080001104900016000F0CEF821480068000910F097
S3150800012001000CBF2149224902E0CD2201F8012B2A
S31508000130204B9942F9D3204A2049214B03E012F873
S31508000140015B01F8015B9942F9D31E491E4A002357
S3150800015001E001F8013B9142FBD3104A53884FF264
S315080001600F05AB4240F205210AD113888B4205D010
S3150800017030B1180A012818BF022801D1194601E032
S3150800018004B90021044801804CF23C31518000F04A
S315080001901FFABDE832407AE7B40C002000000020C0
S315080001A02C00004000200008FCED00E000000020C4
S315080001B09800002000040020081800080004002009
S315080001C00404002004040020BD0C002010B50E4ACB
S315080001D00E4C30211160216010230D4A0D4C116020
S315080001E02360010A00290C4908BF000208804FF263
S315080001F00F004880BFF35F8F084800210160416007
S3150800020007480849086010BD3020004030C8004043
S3150800021030C0004010D00040000000201C400040C4
S315080002200400FA050CED00E00020704780B500F0E8
S3150800023003FA0121152000F00BFA152000F031FA17
S315080002400121072000F004FA072000F01FFA1748DA
S31508000250016821F01001016001BD0000052800D9E0
S31508000260704710B5DFE800F01721030F1C17104C74
S315080002702088411E2180C0B9072000F01DFA42F2ED
S315080002801071218010BD072000F00BFABDE8104060
S31508000290152000F011BABDE81040152000F0F6B997
S315080002A0BDE81040152000F0FCB910BD00BC0040A8
S315080002B0B60C0020554951200860704738B50446E9
S315080002C05348C1780329D4BF302560254FF4F0710F
S315080002D0B1FBF5F0241A1E2CBCBF4FF40170FFF7D2
S315080002E075FF4C48072101600022426082606C431A
S315080002F0494AE41C4FF00071A4081160641E44606A
S3150800030031BD434A01215170D8E72DE9F041444FE8
S31508000310424D78883E4E4FF6FF78404540F2DC5411
S315080003201CD14048018802237F22B81C00F0E2F95C
S315080003307888404504BF02217980A869810703D4DB
S31508000340A86940F00200A8610120B07020467988AB
S315080003502960FFF7D6FF2046BDE8F081A869810726
S31508000360EED52C480168CA0348BF00F03BF8B078C0
S315080003700028F0D1A968A8687A8811F0010103D18C
S315080003800F2A08D2521C06E0830704D5387810B124
S31508000390022AC8BF521E90B20228B8BF022239707C
S315080003A07A80286879888842CED1A86900F0030047
S315080003B0032808D0A869154A40F00100A861012160
S315080003C0E961512010600020C6E710B5044601E037
S315080003D000F0B8F92046FFF798FF0100F8D110BDE4
S315080003E00220F2E70B480C4B002141600022826094
S315080003F0016821F00201016005494A704FF0007258
S315080004001A60887808B100228A7070470080004018
S31508000410B80C002010E000E004ED00E004400040C5
S3150800042000040020041800080078704700210160C5
S315080004308180C18001817047F8B504460D4616468D
S31508000440002712E02068803020600021E1808020AB
S31508000450A1882081491CA18004F10A02E088411C78
S31508000460E180BBB2105CE8547F1CB8B2B0420CD233
S31508000470E08823899842EFD32068802204F10A0194
S3150800048000F0CAF90100DDD0F2BD0020F2BD172048
S31508000490704710B5044600F0D7F82046BDE810406E
S315080004A000F073BA2DE9F047A4B000F057FA00F04F
S315080004B0CBF800F0ADFA0121684600F0B1FADFF892
S315080004C0088108F1800500206860A86000F08EF9B0
S315080004D000280FBFE8608168E96040882880684680
S315080004E000F06EFB002807463FD1BDF806102878B5
S315080004F0BDF80460694401F10A098107F4B20ED512
S31508000500E96861B1686822184F1E22EA070710B128
S31508000510A868B84203D2384600F012FAAF605FFA0C
S3150800052086FA68685246494600F0A5F9074618BB98
S3150800053068685246414600F06FF9002000E0401C0A
S31508000540F1B2884218DA18F8001019F8002091421A
S31508000550F5D083270420FFF781FE0121384600F0F5
S31508000560B5FA384624B0BDE8F087172802D01B2F05
S31508000570B5D0EFE70020F5E768682418002F6C600F
S31508000580ADD0F4E778B5D9B0044636A8FFF74EFFE4
S31508000590012100914FF402630C4A36A901A800F024
S315080005A0C1FB00BF0FF288051EA600F04DF820001B
S315080005B014BF3246002201A9284600F07AFE5028C8
S315080005C0F3D05AB070BD0000240C002004040020AB
S315080005D010B5FFF759FD044600F09CFEFFF726FE0E
S315080005E000F0D5F818B14FF40170FFF7EFFD00F0F1
S315080005F02BF840F2011084421CBF40F211118C42C4
S3150800060009D0B4F58A7F1FBF40F20520844240F224
S3150800061003218C4201D1012000E0002000F07CFE7D
S31508000620002010BD75170008B11700082904000836
S31508000630390400088F0400081148012181604EF62C
S31508000640BE224260016070470E490120086070476B
S31508000650F0B5C20892020C4CA518830010F00400ED
S3150800066014BF6E68A65803F00C030F279F40BE43BD
S315080006709940314308B16960F0BDA150F0BD000052
S31508000680006000400860004000B000401149C20800
S3150800069001EB8223012100F0070001FA00F05861FE
S315080006A070470C49C20801EB8223012100F00700BC
S315080006B001FA00F018617047C108064A02EB812169
S315080006C00122CB6800F0070002FA00F05840C86023
S315080006D07047000000B0004038B515467F2A08BFAD
S315080006E00025154C21431A4605FB0311BDE8384081
S315080006F000F056BE70B51E00044615461BD04BF2D8
S315080007003462914211D1092E28BF082633467F222A
S3150800071040F61201FFF7E0FF4FEA060207A120465E
S3150800072000F05FFE38B940F2A27133462A462046E9
S31508000730BDE87040D0E770BD00000408FFFFFFFF6A
S31508000740FFFFFFFF07490A68032809D34B6D43F0EB
S3150800075001034B650B689B1AC3F313038342F9D352
S315080007607047000038200040704908604868020752
S31508000770FCD5086870476D49FF2008604A6813076A
S31508000780FCD54A68930748BF0868C0B2704710B5D9
S3150800079009210020FFF75CFF04210120FFF758FF1D
S315080007A009210220FFF754FF01210320FFF750FF1C
S315080007B05F48604C0021C1600161416010224260BF
S315080007C00221016042F21070FFF7BCFF082060604A
S315080007D09F20FFF7C9FFFFF7CEFF082120282160D9
S315080007E001D1002010BD862010BD000055A070471D
S315080007F00020704710B54F4C082161600520FFF7AF
S31508000800B3FFFFF7B8FF0821216010BD80B5FFF7D9
S31508000810F1FFC007FBD401BDF8B5064646480C46AD
S31508000820154686423CBFA919814201D38520F2BDEF
S31508000830FFF7E0FFC007FBD43E4F0821796003208D
S31508000840FFF792FF300200F079F8300400F076F8EE
S31508000850F0B2FFF789FF05E0FFF7F6FEFFF78BFF1B
S3150800086004F8010B2846451E80B20028F4D108205A
S3150800087038600020F2BD2DE9F84F04462E48844220
S315080008803DBF15461219824285204DD220064FF4E7
S315080008908078894607D0260A360206F58076B2425F
S315080008A005D3361B06E040F201118D4201DA2E46C9
S315080008B000E04646A8B2002836D0B246CB46FFF737
S315080008C099FFC007FBD41B4F082179600620FFF764
S315080008D04BFF0820386078600A20FFF745FF2002A2
S315080008E000F02CF8200400F029F8E0B203E0FFF746
S315080008F0ABFE1BF8010BFFF737FF5046A0F1010AC4
S3150800090080B20028F3D108203860FFF773FFC007CC
S31508000910FBD4B0B20419AD1BA8B240F20111B6B2AD
S315080009208842B144C5DAC2E7BDE8F28F3CC0004050
S3150800093054C0004010B0004001000400000E13E748
S315080009408820704702020000000000000001000035
S3150800095000000400FC1700080100000080B52948C3
S315080009606821416102228260012101600920092172
S31508000970FFF76EFEBDE8044004210A20FFF768BEB3
S31508000980214801684A06FCD570472049CA685307BA
S31508000990FCD50860704710B503E000F01CF811603C
S315080009A0401C01780029F8D110BD10B501090A29A3
S315080009B0B4BF3031373100F00EF800F00F00C9B27D
S315080009C00A281160B4BF30303730D1684B07FCD5E0
S315080009D0C0B2106010BD0D4AD3685C07FBD57047DE
S315080009E00948016811F0020018BF0120704707493D
S315080009F0CA68920703D5096801700020704701206C
S31508000A007047000054C8004048C800403CC8004031
S31508000A1080B56846FFF7EBFF0028FAD001BD000055
S31508000A200170012201290CBF80214021818042707A
S31508000A3000218270C18001810E22224801608262F3
S31508000A40036823F010030360416341620121416199
S31508000A5070472DE9F0411B4F1B4E05463868400884
S31508000A600C46400038604FF0FF3190463160C7F8B9
S31508000A702C8000207862396841F001013960FFF75F
S31508000A80E3FD012D1BD17CB9FFF7AAFF88B93068B1
S31508000A90C107F4D55FEA0800F1D03868400840007D
S31508000AA038601620BDE8F0812046FFF7A0FF002831
S31508000AB0EDD138684008400038600020F2E7012090
S31508000AC0F0E7000000E0004000A8004038B5044602
S31508000AD00D4600F009F800F007F82A462146BDE859
S31508000AE038401820FFF7D5BC2A4621461820FFF7BC
S31508000AF0D0BC7CB50446002020814AF6B432207862
S31508000B006946FFF7A6FF08B11C2076BD9DF80000D0
S31508000B10032818BF182801D1182076BD042801D14A
S31508000B20172076BD012801D0212076BD002500E0DA
S31508000B306D1CA188E8B2091D88423EDA04F10A0153
S31508000B400144207840F2DD22FFF783FF0028EFD02A
S31508000B50262076BD014604F10C00EAB26D1C805CC5
S31508000B6000F050FCA288E9B29142F3D3A37AE17A65
S31508000B70CD18FF2D01D0222076BD04F10C05AE5C00
S31508000B80B6EB102F01D0232076BDA118C0B2497B41
S31508000B90814201D0242076BDA078834207D0401E2A
S31508000BA0C0B2834201D1272076BD252076BD02201A
S31508000BB0921CE0802281002076BD00250020D1E726
S31508000BC038B505466878012804D025D303283FD0D0
S31508000BD01AD321E0297801293CD13B246846FFF73E
S31508000BE006FF0028FAD04320FFF7CFFE287840F208
S31508000BF0DD220021FFF72DFF60B32046441EC0B258
S31508000C000028F0D11B2032BDFFF702FF00F03BF8A9
S31508000C10A878401CA8701FE0182032BDA00605D58C
S31508000C202A78A9781520FFF734FC07E0600622D455
S31508000C30182C18BF1C2C1ED0172C05D064B90320FD
S31508000C40FFF70CFB002032BD00F01DF8032068708A
S31508000C50172032BD022068702846FFF74AFF0400B5
S31508000C6018BFFFF7D5FE272CD8D1A8782A78411EB9
S31508000C70C9B20620D7E720462978FFF727FF0420C0
S31508000C806870204632BD2A78A9780620FFF701BC8D
S31508000C90F8B504460D4616461F4607E03046A047F7
S31508000CA0294600F0C1FB05467F1E761CB8B200280F
S31508000CB0F4D12846F2BD38B50C461546014605E07E
S31508000CC014F8010B00F0B0FB01466D1EA8B200280F
S31508000CD0F6D1084632BDF8B507460E4614461D46F7
S31508000CE030683B682A4621469847070005D1F068D0
S31508000CF02A462146FFF7DFFFF060D6F8A81096F8D7
S31508000D00A7006918C6F8A81050B1AC362A4621467D
S31508000D10304600F05FFC2A462146304600F0DAFBF2
S31508000D203846F2BD78B589B004460E98A07223817C
S31508000D3062600D46022228686946FFF76DFDBDF818
S31508000D40000048B32868202201A9FFF765FD0020A6
S31508000D500FF2B45101AA135C0E5CB3421CD1401CBD
S31508000D600828F8DBBDF80C0040BAA8B9079801BAFC
S31508000D70202911D306BAFFF739FDC06886420BD27F
S31508000D80202201A94FF0FF30FFF795FFC24988429C
S31508000D9002D1079800BA2860002025604FF0FF317D
S31508000DA02074E16004F1A400802200218270018091
S31508000DB0C1704160282204F1AC0000F00BFB0AB0B8
S31508000DC070BD2DE9F84F8B4605469BF81B70D06819
S31508000DD0B149802FA8BF8027884254D11C0050D023
S31508000DE0D4F808804FF0FF394FF0000A0BEB4A00A1
S31508000DF000F1480100910E7810E0B0B2FF2817D034
S31508000E00FFF722FC320452094FF4006342F00062F5
S31508000E1049464046FFF73CFF8146761C00984178D4
S31508000E20B2B29142E9D20AF1010ABAF1060FDDDB44
S31508000E30DBF844006FEA0901884224D1A96863688F
S31508000E4008BA7A0859469847C8B9E868A96806BA30
S31508000E500ABAA0683B464FF0FF31FFF719FFC043B7
S31508000E6086420CD140F6A720ABF810000122A968EB
S31508000E70636808BA0BF110011030984708B1422090
S31508000E8002E0172000E04320BDE8F28F2DE9FE4F6F
S31508000E900F46D7F804803C89ADF800409246834651
S31508000EA004234246FFF717FF01000FD1B8F80000E8
S31508000EB0B8F8021040BA4CBA1FFA80F9A4B2E00793
S31508000EC005D54FF20861894518BF46207DD140F601
S31508000ED021008442A8BF4E2077DA002C74D0B9F1DD
S31508000EE0000F07F13C056D4E0DD04FF20862B9EBC5
S31508000EF002016ED040F2FC52891A65D0FF397BD0C8
S31508000F00FE3979D0BFE0387C08B151205DE08D2CE0
S31508000F1028BF4F2059D2234607F1180239465846AA
S31508000F20FFF7D9FE010050D1EA78802AA8BF8022AF
S31508000F3002F10C00844201BF388B40BA00F47F40AE
S31508000F40B0F5007F43D1788B40BA4EF250318842D3
S31508000F5002BFB88E40F6A721884238D1F88E00F431
S31508000F607F41B1F5807F01BFF96909BAF3699942F2
S31508000F702DD1318B40F2032399420DD1B0F5847FF0
S31508000F8025DB686C410522D1454B464C181AA04210
S31508000F901DD2B0F5005F1AD34FF6FF70B88607F179
S31508000FA024014FF0FF30FFF786FE396A09BAC943B4
S31508000FB0884204BF2878042809D168781E2818BFF3
S31508000FC0062804D1012038740020BDE8FE8F45208C
S31508000FD0FBE7387C90B1BDF80050AC42B4BFA146DF
S31508000FE0A9464B4600F060F80100EED1A4EB0904CF
S31508000FF0A4B2002CF1D1E7E7387C08B94120E4E730
S31508001000042300F051F80100DFD1D8F80000211FB1
S3150800101000BA89B201900291019AF069824238BFFA
S315080010204820D2D302988118EA6B914228BF4920FA
S31508001030CBD24FF603508145544626D12CB301999D
S3150800104022680220904700B34A20BEE734B1320432
S315080010506368520C41462846984790B9AAEB0600A1
S31508001060B6B21FFA80FA7519BAF1000FACD0CA45A4
S31508001070B4BF56464E46B3B200F016F80100E5D0A6
S31508001080A3E74B20A1E744209FE7BDF80090DDF8D1
S3150800109008A0019DE8E70000E320BBDE0000000889
S315080010A00000030801C0020042463946584612E6C7
S315080010B02DE9F843174604463D891028884638BF67
S315080010C04E2030D307F1AC0904234A4600F02DF828
S315080010D0010028D10C2307F1B00200F026F8010020
S315080010E021D1D7F8AC0000BAC7F8AC00103CA1B2C1
S315080010F0484600F0B7F905E079683246484600F0F8
S31508001100E9F9A41BA0B250B1A6B2AE4288BF2E46DA
S315080011107A68334600F009F80100EDD003E0484646
S3150800112000F0FBF90020BDE8F28339464046D2E5D7
S315080011302DE9FF4781460D4605F1A404A0786F689E
S31508001140832890464FF6071A05D1A688822250466C
S315080011505146A2700CE004233A4600F0A8F80100B4
S315080011606AD13888798840BA80B24EBAB6B2014692
S31508001170F20706D54FF6062399421CBF514546206D
S315080011805AD14FF20972A178801A56D04FF4FF72DD
S31508001190801A37D0FF382CD0FF3802D0FF3868D0F5
S315080011A07FE0802967D1062E20D3062301AA294687
S315080011B04846FFF790FD010019D1BDF8040040BA72
S315080011C000F47F40B0F5007F01BFBDF8080040BAC3
S315080011D04EF25031884209D1BDF8060041BA0129BC
S315080011E003BF40BA20800020522000E0452081211C
S315080011F055E081293FD12A4649463046FFF758FF30
S3150800120082214CE0822936D1042E2DD301200021DB
S31508001210E0706160424629464846FFF737FE0100FE
S3150800122022D10021E17061688E421DD3B14239D2C4
S315080012308322A270761A666034E082291BD105F1F2
S31508001240AC08404600F069F92889B042B8BF4F207B
S3150800125028DB334600F029F8010023D1F2B23946DB
S31508001260404600F080F908B954201BE0002084218C
S3150800127015E0842901D0512014E0042E18BF4C2013
S3150800128010D1042300F011F801000BD143462A4679
S3150800129005F1240105F11400FFF793FD8521A170DE
S315080012A000E0442004B0BDE8F0873A46294648469F
S315080012B011E570B50D46044628898028164601DAD8
S315080012C04F2070BD00F0C2F860B9532070BD8F2161
S315080012D085F8A61070BD286861688847172812D156
S315080012E0002070BD324629462046FFF721FF002818
S315080012F018BF1728EBD195F8A6008528EBD0A87A51
S315080013000028EFD0502070BD534C4142494252202C
S3150800131000000000FFF764B810B504460020FEF789
S315080013209DFF24BB0020FFF72DF950B90120FFF7D8
S3150800133029F930B90520FEF791FF40F20120FEF7A2
S3150800134045FF0420FEF78AFF0120FEF787FFBDE868
S31508001350104040F20320FEF739BF00BF0CA0FFF78C
S315080013601AFBFFF70DFB40F20220FEF72FFFFFF7EF
S3150800137099F80400F1D000BF07A0FFF70CFB204640
S31508001380FFF713FB01A0FFF706FBF0E70D0A0000C5
S315080013900D0A4F6B0D0A00000D0A45525220000037
S315080013A010B5814212D210441144401E491E93B210
S315080013B0002B1EBF11F8013900F80139521EF6D16B
S315080013C010BD11F8014B00F8014B521E93B2002BC9
S315080013D0F7D110BD130003D00A46194600F026B906
S315080013E0704710B5034600E0521E90B218B100F0DF
S315080013F003F8F9D0001B10BD13F8010B11F8014BC7
S31508001400A04270470A0A42EA01225040C0F303117B
S31508001410484080EA003041010206C9B2D20E41EACC
S315080014200221484080B270470A0A484000F0FF008F
S3150800143008214308C007184644BF034B5840491EB5
S31508001440F7D15040704700002083B8ED002060496E
S315080014500A5CFF2A04D1401C1028F9DB00207047DB
S315080014600120704713B5044682B0206800BA01907F
S315080014703A21039800B17A2121740C22211D04F126
S315080014801100FFF78DFF03220DF1050104F11D0080
S31508001490FFF786FF00F03CF80398D0B1B0F57F4F10
S315080014A005D200BA039002220DF10E010EE000BF2C
S315080014B05DA000880399ADF80000022208BA0390DF
S315080014C06946204600F006F8042203A9204600F0E3
S315080014D001F81FBDF8B504460D461646002714E068
S315080014E094F82500EA5D2044017C5140017494F883
S315080014F02500401C84F82500C0B2102804D300F04B
S3150800150007F8002184F825107F1CB742E8D3F1BDFF
S315080015102F4904F1100000F0F3B81FB504466846D9
S31508001520102100F0F7F894F82520C2F11002D01027
S3150800153002EB10710911A2EB011269462046FFF76A
S31508001540C9FF1FBD1FB50C46011D6A46002000F0E5
S3150800155027F80020215C1DF8003059402154401C12
S315080015601028F7DB1FBD38B5102A04460D4607D1EB
S31508001570216A94F82420206802EB0112904201D0D7
S31508001580002032BD29462046FFF7DCFF102204F171
S3150800159010012846FFF725FF401E8041C00F32BDC7
S315080015A011B581B0144600BA0190022323700C22AB
S315080015B0601CFFF7F5FE03220DF1050104F10D008D
S315080015C0FFF7EEFE0249204600F09AF813BD000028
S315080015D0F80804082DE9FF4105460E469046002006
S315080015E0002705F120041AE0010006D120686A46A2
S315080015F0291D401CFFF7D4FF01202379F15D1DF852
S3150800160003205140F1552179491CCAB2102A04DB3E
S315080016102068401C20600021002021717F1C47455E
S31508001620E2D3BDE8FF810000FFFE000062F30F224F
S3150800163062F31F42401810F0030308D0C91A1FD3DB
S31508001640DB0748BF00F8012D28BF20F8022D13003C
S3150800165030B414461546103928BF20E93C00FAD89C
S31508001660490728BF20E90C0048BF40F8042D890027
S3150800167028BF20F8022D48BF00F8012D30BC70475E
S31508001680C91818BF00F8012DCB0728BF00F8012D8F
S31508001690704700000268174912BACA60426812BA4F
S315080016A08A60826812BA4A60C06800BA08607047E1
S315080016B030B5114980220A600623104A13600724B0
S315080016C00C601568AB07FCD5002350F823405B1C5B
S315080016D024BA042B8C62F8D313685C07FCD5002265
S315080016E00B6B1BBA40F82230521C042AF8D330BDC3
S315080016F000000000383000400030004010A00040D4
S3150800170010B504460846FFF7C5FF2046BDE8104059
S31508001710CEE70000002200F001B8000000B500BFC7
S31508001720130096469446103928BFA0E80C50FAD8FC
S315080017305FEA417C28BF0CC048BF40F8042BC907A4
S3150800174028BF20F8022B48BF00F8012B00BD000077
S315080017502748018A40F6A772914204BF408A10F4CE
S315080017607F4F03D1022801DB012070470020704714
S3150800177000000000F8B504461C4E012030700D46E6
S31508001780FFF7E6FF18B94FF40170FEF71FFD18487A
S31508001790876A294644F48070B8470021317000BF33
S315080017A014A618B9294644F40070B847305CF2BD4F
S315080017B02DE9F041044688465600FFF7C9FF18B9D7
S315080017C04FF40170FEF702FDDFF8240009A5476A09
S315080017D00023324641462046B84720B93346002200
S315080017E041462046B847285CBDE8F081BC0C00207D
S315080017F000000408000202024B4B46474D343550A0
S3110800180045323000EE0800000100FFFF32
S705080000757D
