S01D00006275696C642F64656275672F6F742D626C652D646D702E733337B1
S21400000000100020310300002D0300002D03000027
S214000010213F00002D0300002D0300002D030000EB
S2140000202D0300002D0300002D03000021650000B5
S2140000302D0300002D03000091650000F56500000B
S2140000402D03000015DA04002D0300002D03000028
S21400005065D1040081DA040021DA040039DA0400EC
S21400006019DA0400DD080000B10900002D030000C5
S2140000702D0300002D0300002D0300002D030000BB
S2140000802D0300002D030000D50900002D030000FD
S2140000902D0300002D0300002D0300002D0300009B
S2140000A02D0300002D0300002D0300002D0300008B
S2140000B085DA04001DDA0400194B0000C5DA0400D6
S2140000C02D030000D5C204002D0300002D03000000
S2140000D02D0300002D0300002D0300002D0300005B
S2140000E02D0300002D0300002D0300002D0300004B
S2140000F02D0300002D0300002D0300002D0300003B
S2140001002D0300002D0300002D03000010B5054C44
S214000110237833B9044B13B10448AFF300800123AE
S214000120237010BDD814002000000000B06C05003D
S21400013008B5034B1BB103490348AFF3008008BD65
S21400014000000000DC140020B06C0500154B002BEE
S21400015008BF134B9D46A3F5803A00218B460F46F9
S2140001601348144A121A2FF040F90F4B002B00D0F8
S21400017098470E4B002B00D0984700200021040023
S2140001800D000D48002802D00C48AFF300802FF079
S214000190AFF8200029002EF0E9FA2FF083F800BF10
S2140001A00000080000100020000000000000000012
S2140001B0D81400202C820020000000000000000060
S2140001C008B50121044801F0BDFE2DF0FBFEBDE898
S2140001D0084000F009B800BF00350A0001210148B8
S2140001E001F0B0BE00350A002DE9F0433B4D3C4F10
S2140001F0DFF80091DFF800810FCD87B06C460FC4A2
S21400020095E80300374D84E803000121364801F0E5
S21400021099FE38460121012401F094FE334B0293E7
S214000220694628468DF80E4003F0C0FB234604229C
S21400023000210A2003F042F82246002302210A2069
S21400024003F03CF8234604220721052003F036F885
S2140002500422214623460A2003F030F8244BAB67DD
S2140002600B236B6702264FF4487004F081FCC9F834
S2140002700060142004F07CFCC8F80060232004F022
S21400028077FCC9F80060B921284603F0D0FB0023AC
S2140002901A461946C8F800600A2003F00FF8002333
S2140002A01A4631460A2003F009F8234600220721A1
S2140002B0052003F003F82346002221460A2002F018
S2140002C0FDFF284603F008FB0021A967384669674A
S2140002D001F038FE07B0BDE8F08300BFE017050068
S2140002E0006204000008014000350A0000127A008F
S2140002F01E1D0012ECA10044ECA100460023036082
S214000300704703680B60016070470000054A0649A5
S2140003101368184488428CBF4FF0FF3310601846AD
S214000320704700BF0010002000000420FEE7000019
S21400033008B500F069F8064B0649074A8B4201D318
S214000340FFF704FF52F8040F43F8040BF6E700BF6C
S21400035000100020D8140020B46C05000048704738
S21400036000F04902104AD2F8943003F00703023B2B
S214000370032B13D8DFE803F00C14020E0B4B1B689C
S214000380D2F80001C0F304200130B3FBF0F0704750
S214000390074BF4E7074B1B685B08F1E7054BEEE7F6
S2140003A04FF40043ECE700BF00400E401010002062
S2140003B0081000200C10002008B5FFF7D3FF054BEF
S2140003C0D3F80831C3F308230133B0FBF3F0024B34
S2140003D0186008BD00400E4004100020014B18684D
S2140003E0704700BF08100020054B1860054BD3F877
S2140003F0943003F00703022B01D1FFF7DDBF7047EF
S2140004000810002000400E40044B054A9A60D3F8BE
S214000410882042F47002C3F88820704700ED00E0A0
S214000420000000004FF4004070474FF47A707047A9
S214000430014B1868704700BF1010002043680BB1CE
S214000440006818472220704783680BB10068184779
S214000450FF20704730235843034B034401EBC3018E
S21400046089000868704700BF1CA010420F4B70B58B
S2140004700F4C014618780023DAB2904200D870BDBF
S21400048054F82320126856798E421D4603F1010364
S214000490F2D11079FFF7DEFFB0FA80F04009107055
S2140004A054F82500BDE870402EF026B9B446050085
S2140004B08010002013B504460121124801F042FDC9
S2140004C0002301226179207902F0F8FE6179207913
S2140004D0FFF7C0FFA379B0FA80F04009022B207026
S2140004E00DD100F049FA0849607900F053FA6279B4
S2140004F020790123CDE90033114602F093FE002057
S21400050002B010BD00350A006D0400000078704788
S21400051008B5024641790079FFF79CFF91790129D9
S21400052017D153885B0063F03F039BB200280CBFD3
S214000530184643F001004FF6E073984202D111705E
S214000540508008BD4FF6DF73984204BF0023137037
S214000550F6E70029F5D1B0FA80F040091070F0E710
S2140005602DE9F04F9B46584B85B01B78109F9DF8A1
S21400057044A0DDF85080064689461546002B00F05C
S2140005809280072A00F291800E9B002B00F08D804F
S2140005900F9B002B00F08980129BB3F5006F00F3D1
S2140005A08480012801D1002F7FD0484B03EB051330
S2140005B01B7B002B7BD0464C1022002168462EF079
S2140005C014FF04EB45141022B9F1000F5CD1494624
S2140005D020462EF00AFFA37843F01003A370E378BA
S2140005E043F03003E370BAF1000F03D1DBB243F0FF
S2140005F00303E3703649129BCDF800B06A01013B55
S214000600885A01EB020C63F30E1088520E9BCCF84E
S21400061008300F9BCCF804309DF84C109CF8033043
S214000620012E61F383038CF8033042D11323CCF8F8
S2140006300C309CE80F000CF1100E8EE80F00DCF872
S2140006401C20CCF814706FF0030161F39F02B9F11F
S214000650010FCCF81C2004D10F9BCCF81830CCF836
S21400066004701A492A018B1841F802800027159A4F
S2140006705A6028469F605E732246694602F094FEE2
S214000680384605B0BDE8F08F002120462EF0ADFEBE
S2140006901023A3700323E370BAF1000FAAD1DBB2D4
S2140006A043F03003A5E70B48EBE70B48E9E70B48B8
S2140006B0E7E7B8F1000FD4D19CF8023068F30413D2
S2140006C08CF80230CDE700BF74160020F41400202A
S2140006D074150020028000F0018000F0078000F012
S2140006E038B5104B1B780546BBB1C0B102F0A1F877
S2140006F00D49002301EB0312147B3CB92B60012348
S2140007001373146002F099F8204638BD0133082BA5
S214000710F0D102F092F80548F7E70548F5E70548F6
S214000720F3E700BF74160020F4140020048000F0E5
S214000730028000F0018000F013B5164B1868019097
S21400074000238DF8043002F074F8134B1C7824B1A3
S21400075002F073F8114802B010BD01221A7002F0C0
S2140007606CF80F4B1C731C7783F82C4083F83C40C6
S21400077083F84C4083F85C4083F86C4083F87C40F8
S21400078004230DEB03008DF8073002F0E3FD20464E
S214000790E1E700BFF817050074160020038000F09C
S2140007A0F414002010B588B00E9C07940D9C069497
S2140007B09DF8304005940B9C04949DF828400394C3
S2140007C00024CDE9013400920B460246214620461D
S2140007D0FFF7C6FE08B010BD10B588B00E9C079493
S2140007E00D9C06949DF8304005940B9C04949DF84F
S2140007F0284003940024CDE9013400920B460246BB
S21400080001212046FFF7ACFE08B010BD08B50A4B24
S2140008101B785BB107280BD8084B03EB00131B7B38
S21400082043B1002102F08CFD002008BD0448FCE71F
S2140008300448FAE70448F8E774160020F414002089
S214000840028000F0018000F0078000F008B50A4B37
S2140008501B785BB107280BD8084B03EB00131B7BF8
S21400086043B1012102F06CFD002008BD0448FCE7FE
S2140008700448FAE70448F8E774160020F414002049
S214000880028000F0018000F0078000F00D4B1B781E
S21400089093B1072812D889B10B4B03EB00131B7BCF
S2140008A073B10A4B1A6A012303FA00F010401ABF0C
S2140008B000200B7008707047054870470548704761
S2140008C00548704774160020F414002000200E40DF
S2140008D0028000F0018000F0078000F02DE9F84368
S2140008E0174E326EF36E12EA030800D5FEE7154C7B
S2140008F0DFF854900127002518EA070F16D0236862
S214000900B7669BB1A16862680131A1602846984726
S214000910637B012B0AD148B909EB4513197B1A7F73
S21400092060F3410160F3410219731A770135082D0F
S2140009304FEA470704F11004DED1BDE8F88300BF94
S21400094000200E40F41400207415002070B5094EE7
S2140009500446012504B970BD94FAA4F0B0FA80F0FC
S21400096005FA00F324EA030456F82030002BF1D0F1
S2140009709847EFE778160020054B4FF48022C3F81F
S21400098080211A604FF48062C3F880211A60704795
S21400099000E100E038B504460D4601F04AFF034B7F
S2140009A043F82450BDE8384001F047BF78160020D1
S2140009B0074BD3F82804D3F81C24104020F42A5000
S2140009C020F02A004004400CC3F82404FFF7BEBF02
S2140009D000A00040074BD3F82804D3F81C2410408E
S2140009E020F4AA4020F055000004000CC3F82404AC
S2140009F0FFF7ACBF00A00040024B1968024B186816
S214000A0031F0B6BA1810002014100020704710B548
S214000A1000239A4201D1002010BD50F8234041F82F
S214000A2023400133F5E7000070B5940022460546E2
S214000A300E4602F023FE431C02D018B1064800E022
S214000A40064870BD2246314628462EF09BFC0028FC
S214000A50034808BF0020F4E724E000F021E000F09F
S214000A6010E000F013B5044601A802F08FFE9DF8D2
S214000A700630238040F201136380064B5B6B1B0E2F
S214000A800A33012203F01F0302FA03F30020636017
S214000A9002B010BDB081E00F02F020BD08B502F034
S214000AA00DFD002008BD000010B5044602F09EFDB6
S214000AB0431C02D018B10D4800E00D4810BD0D4B88
S214000AC05B6B1B0E0A3303F01F020123934023F0D7
S214000AD0030320462344984201D10020EEE750F855
S214000AE0042B0132F7D00448E8E700BF24E000F00A
S214000AF021E000F0B081E00F0EE000F008B501F054
S214000B0091FE014B186008BD50790020014B186813
S214000B1001F08CBE507900200A460139014403F0EA
S214000B2089B9000038B141B1013AB2F5006F044806
S214000B3038BF00207047034870470148704700BF21
S214000B40037000F0027000F038B504460D4601F060
S214000B5070FEA28892B222B92A6001F06EFE0648A4
S214000B6038BD6388142202FB034308332B6001F070
S214000B7064FE0020F4E700BF0B7000F038B50446B2
S214000B800D4601F056FEA3889BB223B92B6001F0F8
S214000B9054FE0C4838BD6388E188142202FB0343E8
S214000BA008332B6063885A1C92FBF1F301FB132376
S214000BB09BB26380A388013B9BB2A38001F03DFEFD
S214000BC00020E7E70B7000F0034610B593F83230CC
S214000BD00068012B0AD102F051FC044603F0E6FD42
S214000BE024235843B0FBF4F0013010BD02F048FE59
S214000BF0F3E70000427E30235343044A1A44437FFF
S214000C0003EBC2039B001868C0B270471CA01042DA
S214000C1013B51D4A002352F82340617F81420ED04F
S214000C200133042BF7D102B010BD0028FBD19DF88C
S214000C300730002BF7D06068FFF7E8FDF3E794F87D
S214000C403130022BEFD12046FFF7D4FF637D2075AD
S214000C50022BE8D194F82E3003F0FF02002BE2D1ED
S214000C6002A9606801F8012DFFF710FE237D1BB175
S214000C7094F82F30002BD8D0002384F82F306068EB
S214000C80FFF7E4FDCFE700BFF81C002090F83230F5
S214000C9053B903680122DA601A69D007FCD55A6F87
S214000CA042F001025A677047012B0CD103685A6C58
S214000CB09107FCD401225A609A68D207FCD55A6D77
S214000CC042F001025A65704790F832303BB903682B
S214000CD05A6F22F001025A670222DA607047012B2F
S214000CE009D103685A6C9207FCD45A6D22F00102AF
S214000CF05A6502225A6070470F49104B0A782AB983
S214000D00C3E90022C3E9022201220A70002253F836
S214000D102210814208D00132042AF8D1002153F86B
S214000D2021201AB943F82100002070470131042918
S214000D30F5D10348704700BF081D0020F81C0020AE
S214000D40027000F010B50446FFF7F6FC0021201DE7
S214000D50FFF7C6FC014608B1044810BD04F10800C0
S214000D60FFF7BEFC0028F8D0F6E700BF0E7000F0D4
S214000D702DE9F04104461746884601F05AFDA3883F
S214000D80E2889A42054606D800233B6001F055FDEE
S214000D901148BDE8F0812088142606FB0040324644
S214000DA0414608302EF0FDFA22882388E18806FBAB
S214000DB0024208323A605A1C92FBF1F301FB1323FD
S214000DC09BB22380A38801339BB22846A38001F000
S214000DD034FD0020DDE700BF0A7000F038B5044699
S214000DE001F027FD616B01390546616319B9044AB4
S214000DF0012003F01DF92846BDE8384001F01DBD6E
S214000E004C18050037B591F832200B68012A0BBF45
S214000E109C681C69C4F3C004C4F340140D4608461D
S214000E2024B103B0BDE83040FFF7D8BFFFF7CCFED3
S214000E30CDE9004401462B46024A034803F036FC3F
S214000E4003B030BD050E0000047A002038B5044615
S214000E5001F0EFFC636B054623B90121054A0846FD
S214000E6003F0E6F8636B013363632846BDE8384059
S214000E7001F0E3BC4C1805007FB5012380F82C3048
S214000E8090F8323093B90C4A03680392002204901B
S214000E9002924A680192012200920A6801698068FB
S214000EA01C33FFF799FC07B05DF804FB012BEAD072
S214000EB0002380F82C30F6E7F5120000F0B5012389
S214000EC080F82D3090F8323089B004460E464BBB81
S214000ED00568343501F0ADFC0DF11F0107461848D2
S214000EE003F0C8FB40B99DF81F302BB1144803F03F
S214000EF07FFB2046FFF772FF384601F09EFC204637
S214000F00FFF7A4FF0F4B039300230293736801932C
S214000F100123009304943368E16860682A46FFF76B
S214000F2041FC0BE0012B06D105682B6843F4005307
S214000F3045F8283BCEE7002380F82D3009B0F0BDF9
S214000F40047A0020490F0000F0B585B003A9906A26
S214000F501446FFF7F9FD06462046FFF735FE002546
S214000F6023460146CDE900551A4A1B4803F09EFB6E
S214000F701A4B9E421FD0039B1D619D6001F059FCD9
S214000F80039AD768064627B1D2E9002329462046A9
S214000F90B84703A9A06AFFF7F1FDA06A83889BB251
S214000FA063B103A9FFF7D0FD03992046FFF786FF3C
S214000FB0304601F042FC012005B0F0BD84F82D302B
S214000FC094F83230012B01BF2268136823F40053D3
S214000FD01360EDE7050E0000047A00200B7000F0A9
S214000FE073B504460D46C07DE67E002934D0012345
S214000FF00422314602F062F901230222217F207E7C
S21400100002F05CF994F83130022B16D1002301224D
S214001010617F607E02F052F900230422A07EA17F49
S21400102002F04CF90123627F607E01930093114623
S21400103002F0F8F8002002B070BD032BFAD10023AE
S2140010400122617F607E02F039F900230422A17F2D
S214001050A07E02F033F9EDE70B460A46314602F071
S2140010602DF92B462A46217F207E02F027F994F898
S2140010703130022B10D12B462A46617F607E02F06B
S2140010801DF92B462A46A07EA17F02F017F9627F43
S214001090607E01950123C9E7032BCBD12B462A4658
S2140010A0617F607E02F00AF92B462A46CFE72DE9DB
S2140010B0F04104460E461746FFF734FD804650BB07
S2140010C0092001F0CBFB0546A26A93889BB213B1B8
S2140010D094F82E3013B394F8322022BB23681D698F
S2140010E015F0020533D0012384F83030002A3FD1B2
S2140010F03744BE42206836D103699E06FCD555B9F2
S21400110094F83230002B42D123685A6F22F0020244
S2140011105A670822DA604046BDE8F081002DD4D038
S214001120FFF7DCFBD0E7012A1BD123689D6815F08A
S2140011300205D8D1596C8807FCD4042159609968F7
S2140011408907FCD5596D41F002015965CBE70421AA
S214001150D96019698907FCD5596F41F002015967B2
S214001160C1E70025BFE716F8011B02F06AFCC0E7DE
S214001170012AD0D13744B742206803D183681907C3
S214001180FCD5BCE716F8011B02F08CF9F3E7012B3F
S214001190C1D123685A6C9207FCD45A6D22F0020221
S2140011A05A6508225A60B6E710B50446B0B190F802
S2140011B02E3033B990F83130022B0AD06068FFF732
S2140011C025FB94F82E300133DBB284F82E30002055
S2140011D010BDFFF70FFD0028F3D1EFE70048F7E753
S2140011E0027000F010B50446D0B190F82E30CBB1A6
S2140011F090F82E30012B06D190F83130022B0AD011
S2140012006068FFF723FB94F82E30013BDBB284F8CE
S2140012102E30002010BDFFF7EDFC0028F3D1EFE7DD
S2140012200148F7E70148F5E7027000F0057000F0A6
S21400123037B590F83150022D044618D1A37F407D73
S21400124001229A40A37E30215943134B0B4410B918
S21400125003F1806303E0012805D103F1C0631A603F
S214001260002003B030BD217D0029F6D1F0E7012D26
S214001270F6D1037D73B911238DF80730FFF794FF7D
S2140012802A460DF107012046FFF711FF2046FFF71B
S214001290A9FFE5E71323EFE70CA00040F0B587B001
S2140012A004461646FFF73EFC0546F0B9CDE90116A2
S2140012B004936A460E4B606A039601A90593FFF7EE
S2140012C057FD054688B994F82C3073B92046FFF7C9
S2140012D0DDFC00992046FFF7CFFD94F83130032B54
S2140012E003D025752046FFF7A3FF284607B0F0BDBC
S2140012F0017000F073B5506A01A91446FFF724FC8C
S214001300334B98422FD094F83200019B002836D1F8
S2140013102268116C11F4007128D02E49196198606A
S2140013204FF40073936401F084FA0199CD68064681
S21400133035B14A688B682046D31A0A680969A847F7
S21400134001A9606AFFF71AFC606A8588ADB2002DB5
S2140013502FD001A9FFF7F8FB01992046FFF78CFD77
S214001360304601F06AFA012002B070BD106CC50567
S2140013701BD51948186199604FF48073D2E701288D
S21400138013D12268D16A11F0800106D01149196183
S2140013900021996080235363C5E7D06A400604D5D0
S2140013A00D48186199604023F5E700221A619A609B
S2140013B0B9E7012323752046FFF73AFF94F831304A
S2140013C084F82C50032BCBD02046FFF77DFCC7E7D4
S2140013D00B7000F00D7000F00C7000F02DE9F0417D
S2140013E0094F04460D460FCF88B001AE0FC697E8EA
S2140013F0070086E80700002C00F0C68445B9034EB7
S214001400304608B0BDE8F08130180500037000F0E3
S2140014103822002120462DF0E8FF00236363204693
S214001420FFF76AFC06460028EAD12B7C84F83130A8
S214001430CD4A2B682360934284F8320040F07F81C7
S214001440CA4B2362CA4BE3604FF440232361D5E9BD
S21400145006230026626216805680968084F82C60EA
S214001460A3621E805E809E806B6803936B89ADF8D6
S2140014701430AB89ADF81230AB7B8DF810300121FB
S214001480EB7BBC4884F82D6084F82F6005278DF828
S21400149016308DF8117000F055FD0121B64800F0A9
S2140014A051FD0121206A00F04DFD01A928688DF844
S2140014B0046002F043FAD5F800C06A7ADCF87800D7
S2140014C02B7A20F4F85020F01F00104340EA032047
S2140014D00321CCF87800CCF874102068DFF888C2B6
S2140014E0604540F06281BB4240F27A81981F042832
S2140014F040F27881A3F10B00B84240F27581A3F167
S2140015001100062808D9A3F11801062940F26E81B9
S2140015101F2B14BFFF213946042AE17540F268816B
S214001520511F042940F26681A2F10A01052940F202
S2140015306381A2F11001062940F26081A2F1170131
S214001540072940F25D811F2A14BFFF210021217662
S214001550002B58D0012B56D0022B54D0032B52D040
S214001560042B50D0052B4ED0062B00F05381072BB2
S21400157000F05281082B00F05181092B00F05081B9
S2140015800A2B00F04F810B2B00F05A810C2B00F039
S21400159039810D2B00F038810E2B00F037810F2B90
S2140015A000F03681102B00F03581112B00F02E81D3
S2140015B0122B00F02D81132B00F02C81142B00F041
S2140015C02B81152B00F02A81162B00F02981172B72
S2140015D000F02881182B00F02781192B00F02681B7
S2140015E01A2B00F025811B2B00F024811C2B00F009
S2140015F023811D2B00F022811E2B00F021811F2B42
S2140016000CBF0723FF23E376002A00F0A983012AF4
S21400161000F0A883022A00F09183032A00F090834A
S214001620042A00F08F83052A00F08E83062A00F035
S2140016308D83072A00F08C83082A00F08B83092A02
S21400164000F08A830A2A00F06F830B2A00F06E836C
S2140016500C2A00F06D830D2A00F06C830E2A00F031
S2140016606B830F2A00F07083102A00F06383112A20
S21400167000F06283122A00F06783132A00F0668364
S214001680142A00F06583152A00F06483162A00F0F9
S2140016906383172A00F06283182A00F06183192AF0
S2140016A000F060831A2A00F049831B2A00F0488362
S2140016B01C2A00F047831D2A00F036831E2A00F0FD
S2140016C035831F2A14BFFF23002323776B7C6376A2
S2140016D0AB7C6377EB7CA3762B7DA377012120463A
S2140016E0FFF77EFC064600287FF48AAE01F0A1F8DC
S2140016F02F7C032F804640F037832B682A8CDA67CE
S2140017005A6E42F004025A665A6F42F030025A6726
S21400171028684FF0FF3383642B7C032B0CBF052116
S214001720042102F0D1F82B684FF44062DA602046BC
S214001730FFF708FB0646404601F07FF860E60F4AD2
S214001740934206D10E4B23620E4BE3604FF45023B8
S2140017507CE60D4A93421DD10C4B23620C4BE36092
S2140017604FF4602372E600BF000001400042040010
S21400177001000C004041050000350A00000401404D
S2140017800052040001000D00000801400062040041
S21400179001000E00C54A93427FF431AEC44B23626B
S2140017A0C44BE3604FF4702350E6DFF80CC360458B
S2140017B048D1052B14D9981F042813D9A3F10B0080
S2140017C0052811D9A3F1110006287FF6A5AEA3F1CE
S2140017D0180106290AD91F2B14BFFF2105219BE6F5
S2140017E0314699E6012197E6022195E6394693E6C9
S2140017F00021ACE60121AAE60221A8E60321A6E61E
S2140018000521A4E60723FEE60823FCE60923FAE6FC
S2140018100A23F8E60B23F6E60C23F4E60D23F2E69D
S2140018200E23F0E60F23EEE60023ECE60123EAE6BD
S2140018300223E8E60323E6E60423E4E60523E2E6DD
S2140018400623E0E6DFF874C2604540F03981042BD9
S21400185040F2F880591F032940F2F680A3F10901EF
S214001860042940F2F380A3F10E010E2940F2F08025
S214001870A3F11D01012940F2ED801F2B14BFFF21AB
S2140018800A21032AE17540F2E780111F032940F27E
S214001890E580A2F10801042940F2E280A2F10D01E0
S2140018A00E2940F2DF80A2F11C01022940F2DC8002
S2140018B01F2A14BFFF2100212176002B00F0DC80B8
S2140018C0012B00F0DB80022B00F0DA80032B00F007
S2140018D0D980042B00F0D880052B00F0E380062B7F
S2140018E000F0E280072B00F0C180082B00F0C080DB
S2140018F0092B00F0C3800A2B00F0C2800B2B00F0EF
S214001900C1800C2B00F0C0800D2B00F0BF800E2B8A
S21400191000F0C8800F2B00F0C780102B00F0A880C6
S214001920112B00F0A780122B00F0A680132B00F0DE
S214001930A580142B00F0A480152B00F0A380162B96
S21400194000F0A280172B00F0A180182B00F0A080DA
S214001950192B00F09F801A2B00F09E801B2B00F0A6
S2140019609D801C2B00F09C801D2B00F09B801E2B66
S21400197000F09A801F2B0CBF0223FF23E376002A79
S21400198000F0D281012A00F0D181022A00F0D08135
S214001990032A00F0CF81042A00F0E081052A00F037
S2140019A0DF81062A00F0DE81072A00F0C781082AB8
S2140019B000F0BA81092A00F0B9810A2A00F0B8813D
S2140019C00B2A00F0B7810C2A00F0B6810D2A00F031
S2140019D0C5810E2A00F0C4810F2A00F0AF81102ABC
S2140019E000F0AE81112A00F0AD81122A00F09C8131
S2140019F0132A00F09B81142A00F09A81152A00F021
S214001A009981162A00F09881172A00F09D81182ADD
S214001A1000F09C81192A00F09B811A2A00F09A8116
S214001A201B2A00F099811C2A00F098811D2A00F0DC
S214001A3097811E2A00F096811F2A08BF052318BF2B
S214001A40FF2342E631461CE708211AE7012118E782
S214001A50394616E70A2114E700212DE708212BE76F
S214001A60012129E7052127E70A2125E7022385E743
S214001A70032383E7042381E705237FE706237DE727
S214001A8007237BE7082379E7092377E70A2375E727
S214001A900B2373E70C2371E70D236FE70E236DE727
S214001AA00F236BE7002369E7012367E7000C01407B
S214001AB00072040001000F0000040140000801400D
S214001AC0B34EB0427FF49BAC072B21D9A3F108019B
S214001AD0012940F2EF80A3F10A01052940F2EC80CB
S214001AE0A3F11001012940F2E980A3F112010529B2
S214001AF040F2E680A3F11801042940F2E380A3F146
S214001B001D01012940F2E0801F2B14BFFF210A218E
S214001B10062AE17540F2DA80D11F012940F2D8800A
S214001B20A2F10901052940F2D580A2F10F01012991
S214001B3040F2D280A2F11101052940F2CF80A2F135
S214001B401701042940F2CC80A2F11C01022940F2C0
S214001B50C9801F2A14BFFF2103212176002B00F025
S214001B60C780012B00F0C680022B00F0C580032B37
S214001B7000F0CC80042B00F0CB80052B00F0CA8050
S214001B80062B00F0C980072B00F0C880082B00F059
S214001B90B580092B00F0B4800A2B00F0A5800B2B33
S214001BA000F0A4800C2B00F0A3800D2B00F0A28088
S214001BB00E2B00F0A1800F2B00F0A880102B00F059
S214001BC0AB80112B00F0AA80122B00F0A980132BFB
S214001BD000F0A880142B00F09180152B00F0908068
S214001BE0162B00F08F80172B00F08E80182B00F03D
S214001BF08D80192B00F08C801A2B00F08B801B2B0D
S214001C0000F08A801C2B00F089801D2B00F0888055
S214001C101E2B00F087801F2B0CBF0223FF23E376CA
S214001C20002A00F08780012A00F08680022A00F051
S214001C308B80032A00F08A80042A00F08980052A17
S214001C4000F08880062A00F08780072A00F08A8045
S214001C50082A73D0092A67D00A2A67D00B2A67D0C9
S214001C600C2A67D00D2A67D00E2A6DD00F2A71D0A5
S214001C70102A71D0112A71D0122A71D0132A71D06D
S214001C80142A5BD0152A5BD0162A5BD0172A5BD0A5
S214001C90182A5BD0192A5BD01A2A5BD01B2A5BD085
S214001CA01C2A5BD01D2A5BD01E2A5BD01F2A08BFC9
S214001CB00823C4E608212BE7012129E7092127E7A5
S214001CC0022125E7052123E70A2121E7032144E72E
S214001CD0082142E7012140E709213EE702213CE7CF
S214001CE005213AE70A2138E7062398E7072396E70F
S214001CF0082394E7092392E70A2390E702238EE756
S214001D0003238CE704238AE7052388E70B2386E76B
S214001D100C2384E70D2382E70E2380E70F237EE75C
S214001D2000237CE701237AE70623CEE40723CCE4EE
S214001D300823CAE40923C8E40A23C6E40323C4E448
S214001D400423C2E40523C0E40B23BEE40C23BCE456
S214001D500D23BAE40E23B8E40F23B6E40023B4E45C
S214001D600123B2E40223B0E4022F7FF4D1AC607FFB
S214001D700849FEF70FFEFEF7FFFDA6752675677588
S214001D802046FFF755FAC3E4034EFFF739BB00BF02
S214001D90000C0140110C0000027000F0F0B587B096
S214001DA004461646FEF7BEFE054600BBCDE9011604
S214001DB004936A460F4BA06A039601A90593FEF7A3
S214001DC0D7FF054698B994F82D3083B900F031FD59
S214001DD0A36A9B889BB2064633B100992046FFF75C
S214001DE06DF8012384F83030304600F026FD284692
S214001DF007B0F0BD017000F00C4B984210D90C4BA8
S214001E00984210D9022201230A490B600A49D1F8E8
S214001E10003123F0807343EA0263C1F80031704753
S214001E2000221346F0E70122FBE700BF0048E80166
S214001E300090D0034000C84300400E400E4B30B523
S214001E400E4C5B68C9B2002304EBC30215798D42C1
S214001E5003D154F8335085420BD20133052BF3D10E
S214001E60032205494B6823F0407343EA02634B6044
S214001E7030BD5279F5E700BF00000E40641805003B
S214001E8038B5074C41F67133256C2364FEF766FAC5
S214001E900021FFF7D3FF0DB10023236438BD00BF38
S214001EA000000E40044B1B685B0603D4034A13680D
S214001EB0002BFCD1704700BF3C300E40C800C64324
S214001EC008B5FFF7EFFF024B5868C0F3014008BDA6
S214001ED000300E40044BD3F84421D20703D4D3F885
S214001EE040211042FBD1704700400E400C4AD2F809
S214001EF09030516A0B4B21F0300141F0100110B5C3
S214001F005162146BC0F3C31103310F2903EA0403B3
S214001F1028BF0F21034343EA0173136310BD00BFBC
S214001F2000400E4000F8FF0F38B5054C41F67133FF
S214001F30256C2364FFF782FF0DB10023236438BDB0
S214001F4000000E40C0F30322013A38B50546092AC0
S214001F5013D8DFE802F023131212051619121C20FC
S214001F60104C0020C5F3043508B1FFF7B3FF04F1A9
S214001F70047405EBC404A400216038BD00200A4C9C
S214001F80F0E70120094CEDE71020094CEAE74FF492
S214001F908030084CE6E70020074CE3E70020074CBB
S214001FA0E0E700BFB0400E40C0400E40E0400E40AC
S214001FB0E8400E40F0400E4050410E4000400E40BB
S214001FC0C0F30313013B092B2AD8DFE803F0050B07
S214001FD00F1929291F23374B274BD3F80001C0F3CD
S214001FE004207047244BD3F81401F8E7224BD3F8AB
S214001FF00001C0F30060431C012098400138704780
S2140020001D4BD3F80C01C0F3082070471A4BD3F8C9
S2140020100801F8E7194B984204D0194B984207D0AC
S21400202000207047144BD3F8203103F00F03E3E78A
S214002030114BD3F82031C3F30113DDE7114B98425F
S2140020400CD003F5B01303F580539842E8D10A4B41
S214002050D3F82801C0F30120031DCDE7064BD3F8C3
S2140020602831E8E7084B9842DAD1034BD3F8300121
S21400207000F00300704700BF00400E4080061600C8
S21400208080162E0090171A00A009140008B5FFF756
S21400209097FF013008BD000000F00F000138072848
S2140020A048D8DFE800F0040F1947232D4735244BA6
S2140020B0D3F8943003F00703023B052B3CD8214AA3
S2140020C0D05C70471E4BD3F8803003F00703013B0B
S2140020D0032B33D81C4AF3E7194BD3F8843003F0AC
S2140020E00703013B032B29D8184AE9E7144BD3F81A
S2140020F0883003F00703013B032B1FD8144ADFE7A1
S2140021000F4B1B6F13F0010F14BF092007207047F9
S2140021100B4BD3F85C3103F03003202B06D0302B6A
S21400212006D0102B0CBF07200120704704207047F4
S2140021300820704700207047052070470120704730
S21400214000400E40541805005A1805005E18050099
S2140021505A18050008B50146FFF79EFF1B4B99422B
S21400216011D01B4B994212D01A4B994204D11A4BEC
S214002170D3F8800000F007000138032824D8DFE8F1
S21400218000F00A0E1612144BD3F88400F2E7124B36
S214002190D3F88800EEE7BDE80840FEF743B9BDE88F
S2140021A00840FEF745B9BDE80840FEF73EB9FEF721
S2140021B0D9F8094BD3F80031C3F300635A1C012346
S2140021C09340B0FBF3F008BD0020FCE703002000BE
S2140021D00500240002001E0000400E4000F47813A4
S2140021E0B3F5B01F10B504467DD029D8B3F5202F1F
S2140021F007D00AD8B3F5003F62D0B3F5802F54D08D
S2140022005BB9BDE81040FEF7ADB8B3F5602F00F03F
S214002210838004D8B3F5402F58D0002010BDB3F506
S214002220801F00F09080B3F5A01FF6D14C48FFF752
S21400223091FF4C4BD3F8303103F00303D840EDE761
S214002240B3F5101F66D011D8B3F5F01F46D0B3F51E
S214002250001F53D0B3F5D01FDFD14348FFF77AFFF6
S214002260404BD3F82821C2F3011244E0B3F5401FD7
S21400227046D00BD8B3F5381FCFD13C48FFF76AFFDE
S214002280384BD3F82031C3F30113D7E7B3F5481F13
S2140022904BD0B3F5781FC0D1FEF764F80146204650
S2140022A0FFF7F4FEB1FBF0F0B8E7FEF75BF82D4B56
S2140022B0D3F80C31C3F308230133B0FBF3F0ADE7DA
S2140022C0FEF750F8274BD3F80831F3E7FEF74AF845
S2140022D0244BD3F81431C3F30423EDE72348BDE8B9
S2140022E01040FFF737BF2148FFF734FF1D4BD3F8E8
S2140022F0202102F00F0201239340DEE71A48EEE7A2
S2140023001948FFF727FF174BD3F82831C3F30123EB
S2140023101A1DF0E71248E2E71548FFF7BDFE07284A
S21400232011D009287FF479AF6BE71248FFF7B4FEA7
S214002330072808D0082809D004287FF46EAFBDE827
S2140023401040FEF74BB80C4B186867E7FEF70AF824
S214002350044BD3F80031C3F3042303FB00005DE70E
S2140023600500240000400E400300200002001E006E
S21400237006000E00B80032003810002008B5FFF73F
S2140023808BFE02280ABF024B4FF6FF70188808BD66
S2140023903C100020014B1880704700BF3C10002006
S2140023A00E4B5A6A12F0300F04D0202913D0302971
S2140023B000D011B94FF4400200E0094AD3F890105B
S2140023C032EA0101FAD1520246BFD3F8A000C0F3A8
S2140023D08020012070474FF40002EFE700400E40D7
S2140023E0FF33E10702280AD129B1064B4FF480607B
S2140023F0C3F8A800596612B10220FFF7D1BF01202A
S214002400704700BF00400E40F8B5042850D8DFE8FB
S21400241000F00A03116F7400802640240623072567
S214002420002951D048E04FF400764FF4807408231A
S2140024300925F5E7002944D0324C636A13F0300FC3
S21400244037D1314BDB6B636ADB0705D5636A23F054
S214002450300343F010036362042402230325294E4D
S21400246034662A4E33449B001F68002FFCD0FAB116
S2140024703544AD002B68002BFCD0022818D1B9B12A
S214002480204E716A11F0010118D001222021FFF7B9
S214002490A9FFD6F89C70012200210220FFF7B4FFA6
S2140024A0C7F30A00FFF722FD34662B68002BFCD02A
S2140024B0F8BD0424022303250021D0E7FFF770FFB0
S2140024C0E7E70826022303250E4901200E6600FAD8
S2140024D003F3D1F890001842FBD1002AE8D001237C
S2140024E0084A03FA05F5D2F890302B42FBD1DFE715
S2140024F0012402260023254692E7202610240423E2
S21400250005258DE700400E4000300E408004F21096
S214002510112870B506460C4626D1042912D1FDF7BF
S2140025205DFF0546A8B10021284600F017FC06F01E
S2140025300F06013E072E6FD8DFE806F023186A6EF6
S21400254068886E93052904D1614B1D68614B9D42D6
S214002550E9D8023C0A2C5FD8DFE804F01E4E40475C
S2140025605E5E5E5E5E52B5000025E0E75A4D013CB9
S214002570092C51D8DFE804F068515850505F50508D
S214002580504E023C0A2C47D8DFE804F007372930C3
S21400259046464646463B3E000025002004240122CF
S2140025A01146FFF731FFFFF76BFC0DB1FFF77AFC22
S2140025B04A4B5C67FDF700FF0446FDF7D3FEFFF7C6
S2140025C01BFCFFF77DFC01462046FFF7ADFC1DBB5C
S2140025D028460121BDE8704000F0C0BB00254048F9
S2140025E0FFF70AFC02200446D9E700253C48FFF71F
S2140025F003FC01240320D2E7002501200324CEE7B4
S214002600002503200524CAE70724CCE7354DAEE7AE
S214002610354DACE704232B6070BD01221146002027
S214002620FFF7F2FE0223F6E7012211461046FFF7F7
S214002630EBFE0123EFE7FDF795FEFFF7DDFB2B4BE7
S21400264001221A600323E6E70023E4E7072C04D000
S214002650092CE1D1214B012201E0204B00221A6710
S214002660DAE7013C072CD7D801A353F824F000BFC3
S214002670C32600001926000019260000B526000013
S2140026801926000019260000A72600009126000043
S21400269003221249D1F85C3123F0300343EA0213D7
S2140026A0C1F85C31B8E7012211460420FFF7ACFE02
S2140026B00122EEE7012211460220FFF7A5FE0222C4
S2140026C0E7E70022E5E7FFF7DBFB002507246FE7D7
S2140026D00C100020002D310180400E4000400E40BE
S2140026E00148E80188400E4084400E400816C84362
S2140026F0F8B50E4615460AB1184B1B68184B5A6AB1
S214002700002E14BF4FF08053002322F04052002DBD
S21400271014BF4FF00054002413431C43FDF75EFE25
S2140027200121074600F01AFBA5B1FFF7C9FB0146D9
S2140027303846FFF7F9FB1120FFF7A8FCB7FBF0F0CF
S214002740FFF75AFB012211460220FFF75DFE044BFD
S2140027505C62F8BD002EF5D1F9E700BF00300E40F0
S21400276000400E4010B504461120FFF795FC0122EC
S21400277000210220FFF748FE174A217C536A23F007
S2140027800103022908BF43F001035362134B21786B
S2140027901960637AA18843EAC123D362136BA07AD7
S2140027A0217A03F07F630343E08843EAC02343EAC9
S2140027B0C11303310F2928BF0F2143EA01731363A6
S2140027C0A37B617B1B0143EA0133E17B0B43217B47
S2140027D043EA0143536310BD00400E40A004C843C3
S2140027E0014638B51120FFF757FC0C4D0C4BAA6B71
S2140027F00C7813401C434B7844EAC3248B7844EA95
S2140028000364CB7844EA0324AB6BA34205D00021D3
S21400281001220846FFF7F8FDAC6338BD00400E40C5
S21400282080E4FFF8EFF3108072B6704700B962B626
S2140028307047EFF3108072B67047FFF7F7BF0000DF
S2140028404109054A00F01F0352F82100D840C04352
S21400285000F00100704700BF00E100E010B504463C
S214002860EFF31083DB0733D4FFF7EAFF00282ED1FF
S214002870002CA7BF04F1604404F5614404F00F0483
S214002880144BACBF94F800231A5D5209EFF3118382
S21400289013B1B2EB531F1BD20F4C6368C3F308038C
S2140028A0ABB1103BDBB259B20029B5BF03F00F0342
S2140028B001F16043043B03F56143B6BF1B1993F86F
S2140028C00003187E4009824234BF0020012010BD5C
S2140028D00120FCE714ED00E000ED00E0024B9B68F1
S2140028E003EB80000164704700ED00E0F0B5059D45
S2140028F09DF8187000249C4202D10C4B9A60F0BDE3
S21400290037B18C420ED250F8246042F8246005E0BD
S2140029108C4252F8246003D2002EF4D00134EAE749
S214002920002EFBD142F82450F8E700BF00ED00E08F
S2140029300E2910B543680DD801228A4047F2E004FC
S214002940224223F01F0306D140F61F74224201D014
S2140029501943416010BD41F01001F9E770B5066AF1
S214002960056A046A036A102AC1E90065C1E90243E0
S21400297007D1056A046A026A036AC1E90454C1E918
S214002980062370BD034B186880F04000C0F380102B
S214002990704700BF3C300E4042EA032340F201126B
S2140029A093422BD0B3F5817F08D2012B1DD030D3B4
S2140029B0B3F5807F31D0002213461CE040F201229E
S2140029C0934222D006D8B3F5007FF4D1174BD3F844
S2140029D070310DE0B3F5407F23D040F201329342D0
S2140029E0E9D1124BD3F878310BE0104BD3F87431A1
S2140029F0C3F30722DBB203600A6070470B4BD3F8C1
S214002A0074311A0EC3F30743F5E7084BD3F8783151
S214002A10EEE7064BD3F86C31EAE7044BD3F86C319B
S214002A20EFE7024BD3F87031EBE700BFB081E00F61
S214002A3008B5FFF7A7FF18B1024A1368002BFCD1B0
S214002A4008BD00BFC800C64308B5FFF79BFF80B1AE
S214002A50FFF7EEFF074B19685A68C1F30121C2F36E
S214002A60014291421A688CBF42F0100222F0100216
S214002A701A6008BD00300E40064B1B68DB0608D502
S214002A80054B1B69C3F30443082B02BF034B044AE0
S214002A901A60704700300E4000400E400C100020B8
S214002AA0C0EA2101154B0228D3F8803113D0032841
S214002AB014D0012814BFDBB2C3F307231B0323F48F
S214002AC07042B1B9BAB90E49CA6E22F470421343C5
S214002AD0CB6601207047C3F30743EFE71B0EEDE715
S214002AE00749D1F8EC2022F470421343C1F8EC30C9
S214002AF0EFE7002AF4D00020704700BFB081E00F57
S214002B0000300E4070B5FFF73DFF38B1234B1B7801
S214002B10C3F1020210239340214A13612149224C3B
S214002B20D1F8805145F60E03C1F88031236823F0B2
S214002B30AA03DB05DB0D0B66FFF77AFF184B1B6855
S214002B40D80605F0010515D5D1F84031DA01FBD4D9
S214002B50164B1B680B61164B197805290ED1154BC1
S214002B601E68FFF765FF0E4B59683046C1F30141FA
S214002B70FFF7DAF90E4B1978052902D01120FFF776
S214002B80C7FC2368DB075EBF064B02221A661DB130
S214002B90044B0022C3F8802170BD00BF1D1D00201D
S214002BA000300E4000400E400C1D0020181D002076
S214002BB0161D00200C10002010B50B4C0B4BD4F843
S214002BC090201A601120FFF767FA094B1870FFF77C
S214002BD02FFF084B084A5B68C3F301431370074B8B
S214002BE022691A6010BD00BF00400E400C1D002078
S214002BF0161D002000300E401D1D0020181D002050
S214002C007047000010B5044608B1FFF7D5FFFFF780
S214002C101BFF134A136943F004031361FFF7F0FF29
S214002C20104B1B68DB0614D5FFF7FCFD4EF0D4FDF9
S214002C30FFF7FCFD01F086FB6CB1FFF763FF0A4A65
S214002C40136823F00043136044B9BDE81040FDF755
S214002C50B3BB30BFEEE7FFF70FFFF0E710BD00BFD6
S214002C6000ED00E000300E404C310E4010B504463A
S214002C7008B1FFF7A1FFFFF7E7FE1B4BD3F8802153
S214002C8045F60E01D207C3F8801148BF00224FF464
S214002C902071196648BFC3F88021144A136943F0AF
S214002CA004031361FFF7ACFF114B1B68DB0614D55A
S214002CB0FFF7B8FD4EF090FDFFF7B8FD01F042FBC0
S214002CC06CB1FFF71FFF0B4A136823F00043136035
S214002CD044B9BDE81040FDF76FBB30BFEEE7FFF725
S214002CE0CBFEF0E710BD00BF00400E4000ED00E058
S214002CF000300E404C310E40FFF75EBFFFF702BFBC
S214002D0070B504460E46FFF73DFE10B3FFF790FE83
S214002D10104B5B68C3F301439C421AD00E4BD3F8AA
S214002D200031FDF71FFB022C054602D12146FFF7B6
S214002D30FBF8C4F1020210239340064A13610EB159
S214002D40FFF776FE2CB921462846BDE87040FFF70F
S214002D50EBB870BD00300E4000400E4038B502465D
S214002D600D46FFF70FFEB8B142B90C4BD3F8004141
S214002D70FDF7F8FAC4F3042202FB0002084B1B78A6
S214002D8029463BB1074B9A4204D80220BDE838409A
S214002D90FFF7B6BF0020F9E738BD00BF00400E4081
S214002DA01C1D0020002D3101034B02781A700121F2
S214002DB00020FFF7D3BF00BF1C1D00200649427845
S214002DC00B6823F4407343EA0223022A0B6004BF15
S214002DD0024B5B6A704700BF00300E4000400E405A
S214002DE00378134A002B437870B514BF04260026D8
S214002DF0002B8378946914BF02250025002B0379E5
S214002E0024F03F0443EA0403C47814BF08210021D9
S214002E10012C08BF43F0010333432B430B4393615C
S214002E201368417923F4403343EA0143136070BDCD
S214002E3000300E40224B4AF6E85210B5596B5A63E2
S214002E409A6FD407FCD41B6C13F003031EBF1D4AF5
S214002E5001241460834203D108B91A4B186010BDD0
S214002E60032B17D0B3B1164A1446936FDB07FCD476
S214002E70136C23F0030303431364A36F13F00103DF
S214002E80FBD100300F4A18BF01200129106008BF8F
S214002E906363E4E7431E012BE5D8094B4FF4002299
S214002EA0DA629A6FD207FCD41A6C22F0030242F060
S214002EB001021A64024A536A1C03FCD5D3E700BF1A
S214002EC000300E40B40AC6432DE9F04F002389B007
S214002ED0CDE90233CDE90433CDE90633A0F5E1634D
S214002EE0B3F5966F05460191934603D9002009B0C5
S214002EF0BDE8F08F4D4BB0F5E16F8CBF4FF0010A87
S214002F004FF0000AD3F8683100F083801A0EC3F33E
S214002F100743079204934FF496694FF4E164DFF891
S214002F201081D8F84C70C7F301773B46524605A986
S214002F3002A8FFF731FDD8F8EC60C6F30126334649
S214002F40524606A903A8FFF727FD0798049A2C1BEC
S214002F50811A6143B1FBF9F3D1182CBF012300237A
S214002F608842C3D3002BC1D1069A0398131A634331
S214002F70B3FBF9F310EB030A2CBF012300235245E1
S214002F80B4D3002BB2D1059B029A981A4443B4FBE3
S214002F90F9F912EB09092CBF012000204B45A5D3F7
S214002FA00028A3D1BBF1000F0ED0D8F85C3023F474
S214002FB0FE4323F00203B5F5E16F43EA012318BF91
S214002FC002200343C8F85C30019B63B300213846F7
S214002FD0FFF768FD002889D001213046FFF762FD23
S214002FE0002883D0124A536ED14538BFD14623F409
S214002FF0FF73B9F1E70F23F0010328BF4FF0E7098D
S214003000B5F5E16F18BF43F0010343EA4903536681
S2140030106DE7C3F30722DBB2079204934FF41679E9
S2140030204FF496647BE7012061E700BFB081E00FB4
S21400303000300E40304B1A6FD96CC90702F00702F9
S21400304042D5012A40D9132851D9143813288CBFE9
S214003050102308232849013BCA6C180322F47F4238
S21400306040EA03231343CB64244BCA6C1B88C2F389
S21400307003222833013202EB820003EB5303B3FB37
S214003080F0F3C86C013B072B20F0EE6028BF072347
S21400309040F4801040EA0363CB64194BB3F9003068
S2140030A0002B10DB2833500800EB420203EB5303DF
S2140030B0B3FBF2F30A6D072B28BF072322F070023A
S2140030C042EA03130B657047DB6CD90706D4012A66
S2140030D004D809280BD90A380928B8E7064BDB6C50
S2140030E013F00103B6D0012A03D82728AFE704233C
S2140030F0B0E70023AEE700BF00300E40121D0020F0
S214003100141D0020054A064B1B68136F23F00703A7
S2140031101843044B10671888FFF78CBF00300E402A
S2140031208009C643101D0020364B022270B59A63F4
S2140031309B6B03F00F039342044602D000252846FB
S21400314070BDC1888588B0F90C604A294ED9B1F5A2
S214003150FA7F4DD340F6C313994294BF4FF0005107
S2140031604FF040512748C36C23F0405323F001032F
S214003170002EA8BF43F001030B43C364D0F8EC3025
S21400318043F44073C0F8EC301F4B1D80C36E43F011
S2140031908073C3661D4B186800B10420FFF7B2FFAA
S2140031A01B4B218919801B4BB4F90C20A0881A8070
S2140031B0FFF740FFA37BF3B1012B20D0012211467D
S2140031C06088FFF781FE05460028B7D00D4A607874
S2140031D0D36B43F48063D363FFF72CFEA37AA3F18B
S2140031E02002534253410C4A1360A8E70021B9E776
S2140031F04FF08051B6E7034B084A9A65DEE7014B6D
S214003200074AFAE700300E40101D00208009C6432A
S214003210121D0020141D00209407C6437740205737
S214003220372110B7072A70B501F003014FF00F05DC
S21400323023D896001A4CB540256004F10074B040BF
S21400324020600320B04001FA06F61649086001F136
S21400325000710E601449114489000B609DF810300F
S214003260C1F88030012303FA02F2104BC3F824247D
S2140032709DF81430C1F8003370BDA2F10804A40014
S2140032800B4EA54035600B4DA04028600320A040A3
S21400329001FA04F40849086001F100710C60D9E7EE
S2140032A000A4004408A400448020851000A000402C
S2140032B004A4004404A400460CA40044F0B54AB19B
S2140032C030261E4C012546438D4034440BB304F192
S2140032D0C06425603024444304F18044072904F583
S2140032E0204419D865688E000F27B74025EA0705E1
S2140032F002FA06F63543656052B9012202FA01F178
S214003300302250430D4A0244A3B102F1C06211605C
S214003310F0BD04F18064DCE701F18045083DA66855
S214003320AD000F27AF4026EA070602FA05F535433B
S214003330A560E1E702F18062E9E700BF0CA000406B
S214003340034B03449B0081F001011960704700BFE6
S214003350A001F11010B5044601214FF4AA40FEF773
S214003360F1FDB4F8013022785BBA9BB243EA0263FF
S2140033700B4A136000231362D36253634FF000437B
S214003380D3664FF0FF339366064A4FF40071C2F8D7
S2140033908011E3785B01DBB282F80933116010BD5F
S2140033A000200E4000E100E02DE9F041254D91F8A7
S2140033B00BE091F80AC00F7B0C464FF03008C3B202
S2140033C0012608FB00509E402368497BC0F88030E9
S2140033D04FEA0E5343EA0C4343EA475322F00302F4
S2140033E0C0F88810C0F88430C0F89820AE66FFF7A2
S2140033F020FAEB6E3343EB66237A13B16B6B3343E1
S2140034006B63637A13B1EB6A3343EB6222792B6802
S21400341022B1D243120262F47F42134062790AB1AB
S21400342043EA0223A2790AB123EA0203E27902B14F
S2140034301343044A1360044B1E60D663BDE8F04194
S214003440FFF7FBB900200E4028200E44036CDB0774
S21400345002D4436C0B42FCD170470000064B0B4075
S21400346003F58073B0FBF3F203FB12000002B0FB1F
S214003470F3F000EB02207047F8FF0100074B98427C
S21400348010B5044607D10648FEF7A8FEE168BDE879
S2140034901040FFF7E3BF002010BD00BF00A00440AF
S2140034A090171A0010B502460C469368DB06FCD54A
S2140034B040211046FFF7CAFF946210BD054B5A68BC
S2140034C05B68054B41F671321A649A6822F0010275
S2140034D09A60704700300E4000000E40034B9A681A
S2140034E022F001029A6000221A64704700000E4023
S2140034F0094A0A4BD969C90705D512B96FF0020007
S2140035007047013AF6E7002AF8D001221861DA601F
S214003510D86940F3800070478096980000000E40FF
S21400352070B509B9002070BD0E4A0023082550F872
S214003530234094610C4CD5600133D669F60705D557
S21400354014B96FF00200EEE7013CF6E7002CF8D065
S214003550D469A40702D49942E9D1E3E76FF00100E9
S214003560E1E700BF00000E40809698002DE9F84382
S2140035701C4B884641F671311D6C19641A49074682
S21400358048684968996841F00101ADB299609608AB
S2140035904FF00009B14501D3002005E007EB890490
S2140035A02046FFF7A5FF48B10E4B9A6822F00102AD
S2140035B09A600DB100221A64BDE8F883C4F30A04C9
S2140035C0C4F50064A408A6EB09039C4228BF1C4669
S2140035D021464046FFF7A4FF0028E5D1A14408EBAA
S2140035E08408D7E700000E4000300E40204B41F61E
S2140035F071311A6C10B519641E494C68496899688F
S21400360041F00101996001211861D960D9694C0720
S21400361092B209D5996821F0010199600AB1002299
S2140036201A644FF0FF301FE00221134CD960194690
S214003630D869C00700D56CB9C8698B6810F002005D
S21400364023F001038B6007D00AB100230B646FF0F0
S214003650010009E0013CEBE724B902B10C646FF00D
S214003660020001E00AB1086410BD1046FCE700BF86
S21400367000000E4000300E4080969800FFF776BFA0
S214003680014B01229A60704700500E40124BF0B575
S2140036905C68124D124E002318463768EA187F07FA
S2140036A051685A5908D4B2F5806F03D00DD8B2F5D8
S2140036B0007F01D141F48071144202D0214208BF3C
S2140036C010430833482BE8D1F0BDB2F5006FF1D0B7
S2140036D0B2F5803FEDE700BF00500E408C180500A5
S2140036E0E841E00F8B784A789B0143EA82030A7828
S2140036F01343CA7843EA02130A7943EAC2234A7993
S21400370043EA02338A79043043EA42430001014A1D
S2140037101350704700200440014B1860704700BFEC
S21400372000008442427801790378002A827870B5D6
S21400373014BF04260026002AC27814BF10250025D0
S214003740002A42794FEA023242EA012242EA0302A2
S214003750837914BF20240024002BC37942EA034354
S21400376043EA0603027A43EA050314BF4FF4004116
S21400377000212343002A14BF4FF4003200220B43DB
S2140037801343014A136070BD002004400B4A53697E
S21400379011699B0003F03C03C1F381110B43837056
S2140037A0136903F03F0343709369D26903F0F00393
S2140037B0C2F3031213430370704700BFD0FF0FE03D
S2140037C070B5054616461C4619B91448FEF706FDA0
S2140037D00146202C08D001D8ECB170BD402C18D082
S2140037E0602CFAD1042200E0082206FB02F35A08F5
S2140037F002EB4112B2FBF3F2094B203A03EAC20293
S2140038002B6823F060032B602B681C432C606A61D6
S214003810E3E70622E9E71022E7E700BF404105009C
S214003820F8FF7F00F8B5154F14460F401ABB202B43
S21400383007D0402B07D0002B0CBF102540250126B3
S21400384003E01D46FBE78025032607F580777E43C9
S2140038500023324619462BF07FFB544300FB05F746
S21400386005FB0344A2FB05012144324600232BF04E
S21400387073FB3844F8BD80250024E0E7F8FF7F009E
S21400388070B5044605680648FEF7A8FC236861691B
S21400389005F0010203F06003BDE87040FFF7C2BF09
S2140038A04041050038B50546144619B90548FEF7E7
S2140038B095FC014601396400B1FBF4F10902696127
S2140038C038BD00BF40410500CB435B0003F00A0350
S2140038D0C360C1607047000040F6AA63C36041F24F
S2140038E00502002303604260104A83604361C3649C
S2140038F08264036643678367C3670D4B0D4A98422D
S21400390009D0904207D003F50063984203D003F530
S2140039108063984201D100230365002390428365AB
S21400392002D0054A904200D1C3657047F9FF0100F6
S2140039300000014000040140000C014038B5054677
S2140039400C46FFF7C9FF8B7C1BB1036843F080432E
S2140039500360E37C1BB1237D43F08003AB65228AC2
S214003960637B1343E28913436B60D4E90112237B24
S2140039702846FFF725FF637D1BB12B6843F4803391
S2140039802B60A37DE27D1B07120502F4E00203F024
S214003990E04313432B666B6F23F030036B676A6F4D
S2140039A0237E13436B672378EB6038BD38B50C462F
S2140039B00546FFF791FF0A8A897B0368002942F0D3
S2140039C0010214BF4FF48061002113430B43227D94
S2140039D003600368002A14BF4FF00052002213430E
S2140039E00360A37C1BB1E37C43F080038365237BE9
S2140039F043F480536B60D4E901122846FFF752FF68
S214003A00637B0BB11023EB60637D1BB12B6843F423
S214003A1080332B60A37DE27D1B07120503F0E04395
S214003A2002F4E00213432B662378EB6038BD03698B
S214003A305A06FCD5416303699B06FCD5C069C0B233
S214003A40704703695B06FCD54163704738B504468A
S214003A5045F0C1FB0FCC044D0FC594E80F0085E878
S214003A600F00002038BD00BF201D002047F6FF7362
S214003A709A42F0B560D0022960D8314BCE00981932
S214003A8013F831108578012DB8BF01250129194694
S214003A900DD1C3785B1B23B1416831F913109142F5
S214003AA002DC5819C0B2F0BD013B1BB2F3E7406818
S214003AB00028F8D0B0F90030934204DBB0F90230A9
S214003AC09342B8BF13468288FF2A03BFB0F9064068
S214003AD0B0F90870012200221CBFC8242827E41A67
S214003AE094FBF7F414448A1924B25678721EA24244
S214003AF0A8BF22464FF47A7700EBC2010132CC8889
S214003B00896812B213FB041121EAE171B24201F591
S214003B10FA71B1FBF7F104DA00EBC204A4888C4218
S214003B20EAD200EBC20232F8040C884228BF0846EC
S214003B30A84238BF2846B5E7FF20B4E70020B2E722
S214003B40201D00200229F0B54CD8284810F8313046
S214003B50012B11D100EBC1018878CB780128B8BFC2
S214003B600120934294BFC0EB0300C0EB0200C0B23A
S214003B704B6833F91000F0BD92B300EBC1014B68FF
S214003B8083B3B3F902008242F5DDCD78B3F9004085
S214003B90954229D91D1D4B78013BDBB2002197B217
S214003BA0CEB2B3424FEAC10606D905EB060C013188
S214003BB0BCF808C0BC45F3D2A9194FF47A73534336
S214003BC04A68B1F902509B1A022295FBF2F213449E
S214003BD093FBF5F39C4207DB9842CCDC18B2CAE7AD
S214003BE00348C8E70348C6E72046C4E7201D002070
S214003BF00CFEFFFF0080FFFF0148FFF727BF00BF56
S214003C00D41805007FB5094B6A4603F11006154621
S214003C1018685968144603C40833B3422246F7D1DD
S214003C202846FFF781FA002004B070BD8C19050005
S214003C3013B5022300246846ADF8044000948DF8BE
S214003C400530FFF7CDF8204602B010BD70B5154B15
S214003C5086B001AA03F1100615461868596814467E
S214003C6003C40833B3422246F7D11B8823800E4B89
S214003C705A6812030DD49B68C3F308030B48ADF8CB
S214003C800A30FCF7B1FB2846FEF76CFD002006B0B4
S214003C9070BD074B1B884FF6FF72934208BF4FF468
S214003CA0A673EBE79C190500B081E00F00F049020F
S214003CB00001E00F07B5084B18680190202301A803
S214003CC08DF80430FEF78CFD6420FEF763FB0020C1
S214003CD003B05DF804FB00BFAE190500BFF34F8FBD
S214003CE0BFF36F8F054A536A23F480335362D2F8CA
S214003CF0943023F00103C2F89430704700ED00E0E2
S214003D00013A42EA520242EA920242EA121242EAB7
S214003D10122230B542EA12420132B2F5807F38BF35
S214003D204FF480725442044015198D4205D31C602E
S214003D30039B1D60049B1A6030BD5200F2E7000032
S214003D402DE9F043354E364CDFF8E080DFF8E090A2
S214003D50002387B0CDE90333FFF7C0FF3568A560C1
S214003D604FF00053E3606F1C2E4B2361C84537604D
S214003D7041D005AB019304ABA8EB0902484600937B
S214003D80414603ABFFF7BCFFDDE90313059AA760C6
S214003D905FEAD20C4FF0010008BF4FF0200CA3EBF7
S214003DA00803B3FBFCF300FA03F3013BB2FA82F21A
S214003DB05FFA83FEC2F11E0208F1FF335B1AA9EB1D
S214003DC00109B3FBFCF352000344B9FBFCFC00FA08
S214003DD00CF00EFA03F3013802F03E02034342F001
S214003DE0407203F0FF0342F0011242EA032202355A
S214003DF0E16022613560BFF34F8FBFF36F8F0A4AD1
S214003E0005236360536A43F480335362BFF34F8FD6
S214003E10BFF36F8F07B0BDE8F08300BF401D0020E2
S214003E2090ED00E03900011300ED00E0D014002012
S214003E30BC140020F0B5002587B004460E46CDE938
S214003E4003551146FFF74AFF05AB019304AB0A463C
S214003E500093314603ABFFF753FF049B059A039F7D
S214003E60D00803F1FF3108BF2020891B01236FEA29
S214003E70070C0144B1FBF0F103FA01F10139644487
S214003E80C9B266440444B6FBF0F6B4FBF0F08340D7
S214003E90013BB140194301F0FF03FF2B24D0B2FAD7
S214003EA082F11248124CC1F11E01490040EA032378
S214003EB001F03E01226819430E4B9A600132DF6022
S214003EC019612260BFF34F8FBFF36F8F05225A60D0
S214003ED0094A536A43F480335362BFF34F8FBFF3EC
S214003EE06F8F284607B0F0BD2820FBE701000113BE
S214003EF0401D002090ED00E000ED00E0BFF34F8F86
S214003F000549064BCA6802F4E0621343CB60BFF370
S214003F104F8F00BFFDE700BF00ED00E00400FA058C
S214003F2008B5FFF7EBFF08BD034B1B78002B14BF4B
S214003F3001200220704700BF6C1D00200329F8B541
S214003F4098BF124B06460F4694BF5C5C00240328BD
S214003F5005D8DFE800F002080B0E44F002040C4B14
S214003F601D684DB9F8BD44F00804F8E744F0200495
S214003F70F5E744F08004F2E76B681A68144203D051
S214003F805B683946304698472D68EAE7B21905005F
S214003F90681D002038B50B4C227852B10A4D2B789C
S214003FA01BB100F0EEF900232B7000F0EBF90023B4
S214003FB02370064C01212078FFF7C0FF01232370F1
S214003FC038BD00BF661D0020641D00205C1D00205B
S214003FD070B5124EFEF726FC33780546CBB900F0D6
S214003FE0CFFA044620B12846FEF720FC204670BDD6
S214003FF000F0DCFB0A4B186000F030F90948FCF7CB
S2140040007DF9094B1C6000F0FBF9084B1860012392
S21400401033702846FEF70AFC0024E7E7651D0020FB
S214004020701D0020681D0020741D0020601D0020EB
S214004030F8B50D460446FEF7F5FB154A0646601E23
S214004040002D135C134C14BF0121FF210B441354A5
S2140040502278012A17D9FFF767FF8242074612D94E
S2140040600D4D2B781BB100F08CF900232B700B4DF7
S2140040702B781BB100F086F900232B703946207888
S214004080FFF75CFF27703046BDE8F840FEF7CEBB72
S2140040906C1D00205C1D0020641D0020661D002095
S2140040A030B5044685B0B0B1841E012C1CD803A9D7
S2140040B0002000F01FFB0546B0B9154B039A1B689D
S2140040C09A4213D80121134A0846FFF7B1FF124B54
S2140040D001221A7008E0104D2B782BB101460D4ACC
S2140040E00120FFF7A5FF2C7005B030BD0B4B1C68F8
S2140040F000F08AF9039920448842E3D20223CDE9EE
S2140041000053091A2B46064A064800F099FAEBE7D0
S214004110601D0020B61905006F1D0020741D0020CC
S214004120953F0000441D002038B541600446FEF768
S21400413079FB214605460448FCF7E3F82846BDE827
S2140041403840FEF773BB00BF681D0020054B1B6898
S214004150584300F57420044B00F23F20B0FBF3F008
S214004160704700BF701D002040420F002DE9F84345
S214004170FEF758FB054602F089FB00285BD0304F5F
S214004180DFF8D4903E4699F8003033B12D4A1378C4
S214004190013B1370002389F80030FFF7C5FEFFF7D8
S2140041A07FFFFFF7C1FE0128044604D9264B1B7883
S2140041B00BB900F0C5F83878A04203D02146FFF7C7
S2140041C0BDFE3C70012C0CD91F4C23784BB91F4BFD
S2140041D01B7823B900F0D4F81D4B01221A70012376
S2140041E02370307800F0F6F8AFF300802846FEF72C
S2140041F01DFBFEF717FB0546164800F0F9F902F01E
S2140042004CFB80460028BED10F4C227852B1104F8E
S2140042103B781BB100F0B5F887F8008000F0B2F8E4
S214004220002323700020FFF73BFF00213078FFF7C4
S21400423085FE002333702846BDE8F843FEF7F6BA3D
S2140042405C1D00206C1D0020661D00206E1D0020D9
S214004250641D0020441D00206F1D0020D3B502A859
S214004260002300F8083D8DF804308DF80530FEF781
S2140042709BFD022301A88DF80530FEF79FFD294A15
S214004280294CD2F89030D2F8902003F00403002B8B
S214004290264B14BF01210021C2F300321970227090
S2140042A005D04FF41670FFF751FF214B18602378A6
S2140042B0204CF3B11120FDF791FF1A4BD3F80021E3
S2140042C05B6CC2F30422C3F30B4302FB0002013310
S2140042D0194803EB8301561E0027E0FB0167002305
S2140042E0304639462AF038FEFFF730FF2368184478
S2140042F020601E20FFF72AFF236818440F4B20601B
S2140043001B680120C3F303239840C0F1010000EBB3
S21400431080006430FFF71AFF23681844206002B05C
S214004320D0BD00BF00400E40801D0020821D002032
S2140043307C1D0020841D002040420F000020044009
S214004340FEF7DABC08B50B4B1B7893B1022000F0E1
S214004350D3FB70B100F0FCF958B100220121022015
S214004360FEF752F800F0FAF9034B1860034B0122EF
S2140043701A7008BD821D0020781D0020811D0020B7
S2140043807047704738B50E4D0E4C2A782AB92378F8
S2140043901BB100F0E3F90C4B1860FEF7AFFC237876
S2140043A06BB10A4AD2F890301B07FBD500F0D6F95D
S2140043B0054B1B68C01A064B186000232B7038BDCF
S2140043C0811D0020821D0020781D002000400E4028
S2140043D07C1D002002280AD003280BD001280CD10F
S2140043E0064A136923F00403136130BF70470020A8
S2140043F0FEF708BC0020FEF739BC704700ED00E071
S2140044004FF41670FFF7A2BE044B1B680BB103EB0C
S214004410D303034A10681844704700BF7C1D002071
S214004420841D0020104A4161136830B51546ABB9AB
S2140044301060836011E0091B9C6841611A467CB1DC
S21400444023465C698C42F6D9002CF4D052B19060B9
S214004450836013B15A69511A596130BD0022F0E7E2
S2140044602346F4E72860F3E7A01D002010B500F00F
S214004470EFFA094B094A196831B11368C41A4B6937
S214004480A34203D31B1B4B61106003E0C01A00233A
S21400449010604B6110BD00BFA01D00208C1D0020C9
S2140044A038B50F4D2B685C690E4B1B6802201C4408
S2140044B000F0FCFA204600F0D1FA0B492A680023E7
S2140044C00B70D088800702D501230B7038BD926828
S2140044D0002AFBD050690344012BF2D9F6E700BF4F
S2140044E0A01D00208C1D0020941D002070B59DF896
S2140044F014500571002516468560049ABDF81850BC
S214004500C58004460260C0E903360D4629B96161DC
S2140045100BB11146984796B13546FEF78AF906461E
S214004520FFF7A4FF29462046FFF77CFF054B1B68D4
S214004530A34201D1FFF7B4FF3046FEF77EF9002014
S21400454070BD00BFA01D00200C4A136800217BB17F
S21400455083420AD1836879B18B6083681BB15A693C
S21400456041690A445A610020704719469B68EEE785
S2140045700028EFD0022070471360EEE7A01D002051
S21400458070B5144DFEF755F92C780646D4B9124B83
S2140045901C60124B1C60124B1C8000F017FA0120A6
S2140045A000F084FA00F0D0FA0E4B0246186070B1A4
S2140045B023460D4840F2E7312AF0CEFC0B4B18603C
S2140045C001232B703046FEF738F9002070BD2320FB
S2140045D0FCE700BF881D0020A01D00208C1D0020C9
S2140045E0961D00209C1D002018FCFFFF901D00203B
S2140045F02DE9F0410546F8B1FEF71BF90F4F0646C8
S214004600FFF734FF2846D7F80080FFF79DFF0446E3
S21400461028B13046FEF711F92046BDE8F081A845DE
S2140046203B6803D123B1FFF73BFFF2E7002BF0D145
S214004630022000F049FAECE72224EDE7A01D002056
S214004640F0B50D4685B016461F46044680B1FFF706
S214004650CFFFBDF82C3002939DF828300022CDE91C
S2140046600073294633462046FFF740FF05B0F0BDED
S2140046702220FBE738B50C46054698B191B10023D9
S2140046800B70FEF7D6F8084B1B6801210BB1227899
S2140046901AB1FEF7D2F8002038BD9D420CBF21703B
S2140046A09B68F3E72220F7E7A01D0020F0B587B04F
S2140046B01F4600230D4616468DF817300446A0B157
S2140046C00DF11701FFF7D6FF9DF817207AB9BDF850
S2140046D0343002939DF830302946CDE900732046E9
S2140046E03346FFF703FF07B0F0BD2220FBE70320A9
S2140046F0F9E70000F8B507460E46FEF79AF8124BA3
S2140047001B680546002423B92846FEF796F81B20AA
S21400471015E05A691444DA88BA4213D10B4F00F0F8
S21400472097F93B68C01AA0420AD200F091F93B689C
S214004730C01A201A30602846FEF77FF80020F8BD21
S2140047400020F7E79B68DEE7A01D00208C1D0020F8
S214004750014B1878704700BF941D002038B5FEF74F
S21400476068F8054600F074F904462846FEF765F832
S214004770204638BD70B5FEF75CF8064600F068F9CE
S214004780094B1C8805460120A4B200F0B5F918B103
S21400479000F05EF9013405463046FEF74EF800227A
S2140047A042EA0500214670BD961D0020014B1868A0
S2140047B0704700BF9C1D00200A4B1B68834210B543
S2140047C00C460CD3084B19684FF47A720023A0FBF2
S2140047D001012AF0C1FB01302060002010BD21201D
S2140047E0FCE700BF901D00209C1D0020104B1A689F
S2140047F04FF47A7310B5A0FB0301A2B1531E134207
S21400480011D1B2FA82F2C2F11F02C2F12004A2F163
S214004810200301FA04F420FA02F2224321FA03F3F9
S21400482042EA030010BD00232AF096FBFAE700BF19
S2140048309C1D002000000000F8B516461BA3D3E917
S21400484000238B4208BF82422AD3174B1A684FF4C4
S2140048507A73A0FB034503FB0155C2B1531E13EA4E
S214004860020014D1B2FA82F2C2F11F02C2F120078E
S214004870A2F1200124FA02F305FA07F73B4325FAD2
S21400488001F10B4325FA02F2C6E90032F8BD002317
S214004890204629462AF060FBC6E900010020F5E71D
S2140048A02120F3E7AFF300809C1D0020EFA7C64B46
S2140048B037894100C2072DE9F84F04460BD53F4A19
S2140048C0138801339BB21380FFF7D0FD3C4B1B6867
S2140048D00BB1FFF7E5FDA3076DD53A4F00F0B8F82A
S2140048E03D688046451BFDF7A4FF002683463246FA
S2140048F0B246334B1C6814B16369AB4214D9012E1F
S214004900314B51D1D288022A4ED11E70002C4ED087
S2140049106369C7F800805D1B6561FFF7C1FD5846F7
S214004920BDE8F84FFDF789BFC7F8008023462A4642
S2140049305969914209D8187994F804C0844588BF0B
S2140049401C469B68521A002BF2D15846FDF775FF9D
S214004950D4F814B0C4F814A0FDF76BFF81462046C7
S214004960FFF7F2FD4846FDF768FF23694BB1FDF7F8
S21400497060FF216981462046FFF754FD4846FDF753
S2140049805CFFE36813B121682046984700F060F8A2
S214004990D844A5EB080581460544FDF74AFF0136D5
S2140049A083462246C846A4E700221A70AEE70220D5
S2140049B000F08AF8B3E7BDE8F88F00BF961D002028
S2140049C0A01D00208C1D0020981D002010B51C4B3B
S2140049D086B05968186803AA03C2197A53F8090FF3
S2140049E0117001909A8817489B79ADF8082001212C
S2140049F08DF80A300024FDF7A5FA03A88DF80C40C0
S214004A008DF81040FEF78EFE01A901208DF80440B7
S214004A10FEF768FE0C4A536A23F4FF6323F007038D
S214004A20536240F2FF73136201209460FEF774FE37
S214004A30064B4FF08042C3F880211A6006B010BDC6
S214004A40C0190500A00914000020044000E100E0A1
S214004A50014B9868704700BF00200440114A9368D5
S214004A60516D9269520704D4CA1A022A01D8994293
S214004A700DD1C21A012A98BF981C0A4BB0F1FF3F0D
S214004A8028BF013058655A6A42F004025A62064A44
S214004A90137833B103490B6D43F002030B65002313
S214004AA013707047002004403E1000208207054A1D
S214004AB000F00103516A48BF43F004030B435362FE
S214004AC0704700BF00200440830700F0010209D5AC
S214004AD0074B0121197007490B6D23F0030342F0C1
S214004AE004020B6503494B6A23EA02034B627047D4
S214004AF03E10002000200440064B01289B6904D08D
S214004B00022805D1C3F38000704703F00100704708
S214004B10002070470020044010B5FDF78AFE094AC1
S214004B2093690446590703F0010003F0070348BFE2
S214004B3040F002001362FFF7BDFE2046BDE81040BD
S214004B40FDF77BBE002004400148FDF747BB00BFD1
S214004B50A009140008B529F057FA29F0A3FA29F09D
S214004B60A8FA29F0AFFABDE8084029F0B2BA00006A
S214004B7010B50446FBF720FC4FF47A735C43B0FB99
S214004B80F3F0064BB3FBF0F0B4FBF0F0800803D074
S214004B90BDE8104000F004B810BD00BF40420F0052
S214004BA0013800D0FCE77047242070474420704747
S214004BB050207047A020704701F0C2BA182200218A
S214004BC001482AF012BC00BFAC1D002007B5FFF755
S214004BD0D1FD6A46FFF730FE28B1054B054A064868
S214004BE04E212AF039FB009803B05DF804FB00BFA5
S214004BF0FF190500D0190500161A050030B517482C
S214004C0085B00C461546FFF7F3FC154B2C441C608C
S214004C10FFF7DCFF134B201A00284FF001041C702E
S214004C2003DC01F08DFA05B030BD03A9FFF7C4FD23
S214004C30034628B10C4B0D4A6B210D482AF00CFB9D
S214004C40CDE900040B4A03990448FFF72FFD00281E
S214004C50E9D0054B054A6F21EFE700BFAC1D0020E9
S214004C60A41D0020A81D0020FF190500E719050057
S214004C70161A0500B94B000008B50348FFF7B8FC44
S214004C80024B00221A7008BDAC1D0020A81D002093
S214004C9070B5094D2B7806466BB1084B1C68FFF7BC
S214004CA095FF201A002806DC00232B703046BDE84E
S214004CB0704010F0DFBD70BDA81D0020A41D0020B0
S214004CC020B1034B98420CBF17200120704700BF4D
S214004CD00BE000F02DE9F7430E46174632B329B332
S214004CE00002DFF84C8040F40034002545EA040951
S214004CF001AB6A464946D8F800002DF0AFFAFFF738
S214004D00DFFF17280BD13B4632464946D8F800004D
S214004D102DF016FA03B0BDE8F043FFF7D1BF10B987
S214004D2001350B2DE2D103B0BDE8F0830720FAE78A
S214004D3014100020024B1968024B18682DF018B9A1
S214004D401810002014100020014B18682DF0E2B94E
S214004D50141000202DE9F04F8BB00902CDE9023285
S214004D6041F400360024A146172546F00A072D48D0
S214004D7000973346042206A900682DF0B5FA6FF0B6
S214004D80030306A98346021903FB0413944201D1C8
S214004D90002333E0039953F824608C4240D1214825
S214004DA005AB04AA314600682DF058FAFFF788FFD5
S214004DB0054610BB059B029A1FFA83F9EAB1149ABE
S214004DC0DAB148462AF0BCFA0246824615484B46F7
S214004DD0314600682DF0FEF9FFF772FF054640B930
S214004DE0149B02981A8851464A4588BF4A462AF0BC
S214004DF0D8FA50462AF0ACFA5DB90123BBF1030F8E
S214004E0005D90A2C06F1010601DC002BAFD0149B55
S214004E1013B1149BA3F8009028460BB0BDE8F08FA2
S214004E200134B3E714100020084611461A46FFF76F
S214004E3051BF00002DE9F04F090241F40035DFF8BC
S214004E4094A08BB090460024172745F00A06214808
S214004E5000962B46042206A900682DF045FA031991
S214004E6003936FF0030906AB834609FB0439039BE3
S214004E709C4201D100231EE0444559F8245002D03C
S214004E80B8F1FF3F24D105AB04AA2946DAF80000A2
S214004E902DF0E4F9FFF714FF074640B92946DAF883
S214004EA000002DF031FAFFF70BFF074660B9B8F1A6
S214004EB0FF3F0DD00123BBF1030F05D90A2C05F1E6
S214004EC0010501DC002BC2D038460BB0BDE8F08FE0
S214004ED00134CCE71410002070B515464FF0FF32B1
S214004EE00C461E46FFF7A6FF08B1172806D1324625
S214004EF029462046BDE87040FFF7ECBE70BD10B5F1
S214004F000024A1B24FF0FF3200200134FFF792FFD9
S214004F10082CF6D110BD09F0C7BF000008B5FEF793
S214004F20B5FB034B1860BDE80840FEF7A9BB00BF01
S214004F30C41D0020BFF34F8F0549064BCA6802F414
S214004F40E0621343CB60BFF34F8F00BFFDE700BFA7
S214004F5000ED00E00400FA05054B1A79824205D8F8
S214004F605A7982422CBF18460020704700207047AE
S214004F70601F002038B50C468A88896805462AF0E6
S214004F8010FAE16841B1A0886288121A92B22844E9
S214004F90BDE838402AF005BA38BD000037B50546EA
S214004FA0134B144C296818689B880090ADF80430A1
S214004FB0206859B1002243F01FFF2B7983420CD0A2
S214004FC00D4B0E4ADF210E482AF046F944F0CEFD7E
S214004FD018B10C4B094AE621F5E76946206844F00B
S214004FE0D7F818B1074B054AEA21ECE703B030BD05
S214004FF0601A05001C7A0020941D0500BD1A0500E5
S214005000BD1D0500041E05001E4B1F491A680968D1
S21400501030B5521A102A85B01D4606D11B4B1C4AC5
S21400502040F2C7211B482AF017F969461C6844F06D
S2140050308BFABDF80230032B04F00F0404D8164B8D
S214005040134A40F2CD21EDE7182B0AD9BDF804200B
S2140050501823172AADF8023082BFADF804300023BB
S2140050600393192363430D48BDF80220C25401334D
S21400507018446946FFF77EFF2B6801332B6005B0A6
S21400508030BD00BF5C1F0020581F0020231E0500F7
S214005090701B0500BD1D05003D1E0500C81D002037
S2140050A02DE9FF4791469A4602F400120023134367
S2140050B004461CD0694B1B78002B64D001A944F031
S2140050C0EEFD30B1664B674A40F26F3166482AF013
S2140050D0C3F89DF80C30032B47D09DF80C30022BFC
S2140050E005D1BDF8040009F0F3FE002842DA09F005
S2140050F02A520AF01103134311D009F400020023C8
S21400510013434CD0594B1B681D7815F0200506D16B
S214005110204642F03AFF564B1D70564B1D7009F064
S21400512002020023134308D0204642F02EFF504BC5
S2140051300E221A704F4B00221A7009F00802002344
S214005140134302D0204644F027FA00220AF4807364
S214005150134339D000221146204644F009F998B38B
S2140051603F4B454A40F2CF31B0E701A809F00AFFAD
S2140051700028B2DB204644F090FD60B1384B394A37
S21400518040F27731A2E744F088FD20B1344B354A2F
S21400519040F27E319AE72046FFF736FFA7E7002267
S2140051A00AF0010313432046DFF8C480314D07D0D0
S2140051B042F0EBFE0F2388F8003000232B70AEE79A
S2140051C042F0E3FE0B23F6E709F001020023134347
S2140051D015D0204644F004FA0546204642F0D5FE97
S2140051E0264B022215F5007F1A70254B0FBF7F2233
S2140051F0042295FBF2F56DB20CBF1A701D700026E6
S2140052000AF0800756EA070318D0204642F05AFFF5
S2140052100B2804D11B4B184A40F2EF3156E7031F08
S214005220DBB2022B04D903280DD1124B1B782BB10D
S2140052300F4B0B221A700F4B00221A7000F080FFE3
S21400524004B0BDE8F0870228EFD00A28F6D10B4B51
S21400525002221A700A4B7F22EFE700BFCB21002004
S214005260041E0500A71B0500BD1D050070220020BA
S2140052706922002068220020C41B0500CA210020E5
S214005280C9210020801A05002DE9FF41184B16465B
S2140052901A780D4602F0FF0132BB01221A70154C37
S2140052A0154B1870206842F08DFEE8B2FFF754FEEA
S2140052B08046D8B1114F3B68834203D0FFF76EFE9D
S2140052C0C7F80080FF238DF804300D4B2068CDE929
S2140052D00236324601AB294642F0B8FE003018BF0F
S2140052E0012004B0BDE8F0810520FAE70720F8E7C2
S2140052F0CA2100201C7A0020C8210020C4210020DA
S21400530020A107000000000073B54D4D4D4B2B60EB
S2140053104D4E05F5BA730021AB60284641F60B23C7
S21400532069603160B38042F07FFD044628B9474B80
S214005330474AB521474829F08FFF44F0E3FE18B1ED
S214005340454B434AB921F5E74FF00111204644F09A
S2140053505AF818B1404B3E4ABD21EBE73F4920467C
S21400536044F0C4FB18B13C4B394AC021E2E732A3F3
S214005370D3E900232046CDE900234FF0FF324FF05B
S214005380FF3343F0CDFD024618B1334B304ACF21F0
S214005390D0E7802305F5EE71204644F074F88028A7
S2140053A003D02F4B2A4AD221C4E72E4D30462C601C
S2140053B0FFF7F4FD0121286842F08AFE044620B17A
S2140053C0254B294A40F22F11B4E7284B284A9880EB
S2140053D01A60284B284A98800B201A60FFF7BCFDFD
S2140053E0264B186020B9264B1F4A40F23711A1E71A
S2140053F021464FF4C872234829F0F7FF224B1C6061
S214005400224B1C60224B93F9004004EB8404FEF709
S214005410F3FB6100286843F0F7FE18B10E4B1D4AF7
S214005420F32187E71C4B18701C4B18701C4B187028
S21400543002B070BDAFF300800B00A02AF10100009F
S214005440681F0020A1500000601F0020EF1B050011
S214005450AF1A0500BD1D0500041E0500701E0500E0
S214005460FE1B05001C7A0020E61A0500D02100204D
S214005470E82100207022002088220020C42100207D
S214005480301C0500C81D00205C1F0020581F00208F
S21400549007230020D11A0500CA2100206922002017
S2140054A0682200202DE917480A4B186C5C6C4FF0F8
S2140054B0000B4BEA00022346CDE900234B1E02AA4E
S2140054C0073112F8010D03F8010F8B42F9D103B032
S2140054D0BDE81088B081E00F10B508460C4609F00C
S2140054E0F1FC074B00222146186844F05BFB30B104
S2140054F0044B054A054840F28D1129F0ADFE10BD5B
S2140055001C7A0020041E0500F51A0500BD1D0500C6
S21400551008B5074B0022186844F082FB30B1054BF3
S214005520054A06484FF4CD7129F096FE08BD00BF27
S2140055301C7A0020041E0500091B0500BD1D050081
S21400554008B5074B0022186844F04BFB30B1054BFA
S214005550054A06484FF4D37129F07EFE08BD00BF09
S2140055601C7A0020041E0500271B0500BD1D050033
S214005570034B1A780AB901221A700020704700BF40
S21400558067220020034B1A780AB100221A70002006
S214005590704700BF6722002038B50A4C2378032BDB
S2140055A00DD063B1084D01220021286842F00AFDA3
S2140055B0286842F0EAFC01232370002038BD0D2045
S2140055C0FCE700BF672200201C7A00202DE9FF417F
S2140055D0184F3A7888463AB30846FFF7BDFC0446AB
S2140055E020B3154E154D3368834208D0012211466C
S2140055F0286842F0E7FC2046FFF7D0FC3460002322
S214005600CDE90133039301AAFF23414628688DF8AC
S214005610043042F015FD58B902233B70084B83F85E
S214005620068004B0BDE8F0810D20FAE70720F8E711
S2140056300120F6E767220020C42100201C7A002003
S214005640D0210020000000002DE9F04F764B774E69
S21400565083460C4693E8070091B033780DF1280A8C
S2140056608AE8070003F0FF0533B1714B714A7248B0
S21400567040F2092129F0F0FD70490B78002B00F06C
S214005680C780032B00F0C480A079FFF765FC0746AF
S214005690002800F0BF80DFF8B88103230B70D8F82D
S2140056A00010674B0793012281421D703270654DD2
S2140056B008D01146286842F085FC3846FFF76EFC95
S2140056C0C8F8007010A9A38801F8193D01231A46EE
S2140056D0286843F0B9FE9DF8272021682868023A1A
S2140056E0002392B243F0B0FE574B93E807000DAF8D
S2140056F087E80700236893F8008018F0200823D076
S214005700286843F0ACF800286AD0286843F0A7F869
S21400571002900F9829F074F9029B80461846894635
S21400572029F06EF902460B463BA1D1E9000129F0AB
S2140057300BFB02460B464046494629F025F829F061
S214005740EBFB0F904FF00108286843F0AFF89DF888
S2140057502730002848D0981DC00029F061F930A3F2
S214005760D3E9002329F0C6F9CDE90201286843F001
S2140057709DF881460F9829F043F9CDE90401484683
S21400578029F03EF902460B46DDE9020129F0DCFA73
S21400579002460B46DDE9040128F0F6FF29F0BCFBC3
S2140057A00F90A37C2868A1799B0723D50F9B03F550
S2140057B0FA730F93237C8DF82A30244B1B788DF8D0
S2140057C02B3000975346424642F0AEFB0546B0B932
S2140057D05846214618F02AF8284611B0BDE8F08F42
S2140057E00F9BC0330F93ADE70F98063300EB4313C0
S2140057F00F93D6E73B46424642F083FBE6E7079A1E
S2140058000F2300241370347000F09AFC2046E4E75F
S2140058100D20E2E70720E0E70000000060E36641B5
S2140058200000000080842E41681A050068220020CF
S214005830591E0500421B0500BD1D050067220020FD
S214005840692200201C7A0020741A05003F100020F0
S214005850C4210020004870477022002070B5114B0C
S214005860102299790020FFF70FFDC8B943F0D9FE42
S2140058700D4D06462C462B78012B05D143F0D1FE64
S214005880801BB0F5967FF6D32378022B04BF074B18
S21400589018784FF000030CBF40B27F20237070BD15
S2140058A07F20FCE7D0210020CA210020C92100204B
S2140058B00B207047014B1878704700BFCC210020A2
