S01E0000786E63702D636F6D6D736875622D756172742D6475616C2E733337D6
S3150000400068550020295F0300C1C10000155B03004D
S31500004010A70A0A010041000004180CAC1068100140
S31500004020000000000000000000000000000000008A
S3150000403000000000EC640300000000000000000027
S315000040400000000000000000FFFFFFFFFFFFFFFF72
S31500004050FFFFFFFF00E0030000000000000000007B
S31500004060FFFFFFFFFFFFFFFF100000000000000042
S31500004070000000000000000000000000000000003A
S315000040800000000000000000547C0020547C00204A
S3150000409068550020DD820300425F0300084C0020C3
S311000040A0E41100200000040000000000F5
S3150000410068550020295F0300C1C10000155B03004C
S3150000411071450100195B03001D5B030000000000F0
S31500004120000000000000000000000000A75D000085
S31500004130215B03004750000023610000AB7B0000B9
S31500004140694701004D120300D14A0000E10C03004B
S315000041508912030053120300551203004F12030085
S31500004160899402000D970200E5900100E9DB00004A
S31500004170295B0300295B0300075D0300295B03003D
S31500004180295B03001B970200295B0300295B0300E0
S31500004190295B0300295B0300295B0300295B0300FD
S315000041A0295B0300295B0300295B03008B120300D4
S315000041B051120300FFAB0200BB120300295B030090
S315000041C08D5E0300295B030000420F48816B89B2B4
S315000041D001B1012141F67132826346F21A32036857
S315000041E043F001030360C2644FF480734360426985
S315000041F0D307FCD40022C264C9B203685B085B0023
S31500004200036001B182630020704708000E40000081
S315000042101421014800F004B8445F030042DE7047F1
S3150000422038B504460D4600F022FC00F08EFC00F086
S31500004230AFFC2946204600F0B1FC2B4622466D49CC
S31500004240012000F06CFE29462046BDE83440E5E733
S3150000425069482DE9F843694E0168B1654FF4206855
S31500004260026A6749F2650B68336649687166426A95
S31500004270B266816AF166C26A3267016B7167806BEA
S3150000428096F83810B06748074CBF346CF46B00F0F2
S31500004290A5FE002232658442DFF868E1014624BFAC
S315000042A0AEF12007A742A146716506F19002564B72
S315000042B0DFF858C118D3A0697064E469B464B56DB9
S315000042C0C5F30805062D13D1604511D398420FD2C8
S315000042D000884DF64264A0420AD17068B468506006
S315000042E0946040F2017803E000247464B46481466B
S315000042F04748814238BF0146084670456AD20C6875
S31500004300B4F1CD3F08BF091DF6D063E0062C09D1F4
S31500004310C4B2002C0CBF0520401E06F17C04C5B2B9
S3150000432044F82510F14520D25EF8041D6145F9D305
S315000043309942F7D2CC07F5D5002406F17C0555F84D
S3150000434024708F42E2D0641C062CF8D3DEE7F16FAE
S31500004350002306F17C0506EB8304D4F8804045F87B
S3150000436023405B1C042BF6D911600146481EC9B2D6
S315000043700029ECD1B06DC0F30800032810D0042842
S3150000438011D0052812D0062813D00C2817D01228D1
S3150000439018D120480268910719D540F2025816E054
S315000043A040F6012813E040F6022810E040F6032804
S315000043B00DE0B8F5206F0AD140F6042807E040F674
S315000043C0052804E018B1322838BF40F607284046D1
S315000043D0BDE8F2831049081AF0640021002006F1B6
S315000043E07C04C5B2401CC7B244F82510062FF8D38A
S315000043F0002097E75460030004ED00E00000002071
S3150000440000E300E068550020425F03001042000010
S315000044109C0000201C2005406855002038B500F09F
S31500004420C1FA002515725572957215825582FF23C1
S3150000443015711360BDE834408DE2F8B504460D46AB
S31500004440200008BF402D1E46DFF8307603D1797A6A
S315000044502A2000F0E9FD14204443300018BF012053
S31500004460391908713D51DFF81806007800F009FF88
S31500004470BDE8F14000F081BFDFE770B504468D2C42
S315000044801CBF872C8E2C0D46164601D100F099FFD5
S3150000449000F002FABDE870400020EDE770B5044672
S315000044A08D2C1CBF872C8E2C0D46164601D101F093
S315000044B033FC00F0F1F9BDE870400120DCE72DE99E
S315000044C0F042054601F066FC1422DFF8B01512FB37
S315000044D005F28E183468FF2C76D2FF21316001F088
S315000044E05FFCE0B200281CBF40288F280AD12800B4
S315000044F008D0F168012000F015F9F16809780D314E
S3150000450001F05EFD002C307A16BF8F2C01270027A4
S31500004510022803D040F22D1100F000F98D2C18BFAF
S31500004520872C03D08E2C1CBF0020B072C7B1F06858
S3150000453000F032F9A0B1307968B1DFF8480500EB38
S31500004540C50001213172002DBDE8F0420CBF2921C2
S31500004550AC2100F096BD284600F045FA3F212FE039
S31500004560284600F040FA402C4FF6FF790BD101F0B7
S31500004570D6FD707A411E7172F8B1002249460420B8
S3150000458001F05AFE15E08D2C1CBF872C8E2C14D101
S3150000459000224946202001F04FFEB07A68B1401E45
S315000045A0B072C0B228B9DFF8E01401EB8502536897
S315000045B058702846BDE8F0425EE007B10024214667
S315000045C02846BDE8F042FCE001F0EAFB307A032819
S315000045D003D10021284600F0F4F8708A58B101F0A2
S315000045E0D9FB748A0021718201F0DAFBE2B2294616
S315000045F01D2001F05DFE284602F048FA040011D0A5
S3150000460001F0C8FB318A4A1E328201F0C9FB2146FD
S31500004610284602F0D0FD307A20B92846BDE8F0429F
S3150000462002F0BBBDBDE8F08280B5002002F0BEFFFF
S315000046300020FFF744FFBDE8024001203FE7DFF816
S315000046404C241178002900D0704780B5012310282A
S31500004650137003D04FF4E07100F060F8DFF8300417
S31500004660002141700123DFF81404C168BDE8005041
S315000046704FF47A720020A2E138B50546012003F016
S315000046803DF8280015D1DFF8041400200870212019
S31500004690DFF8001400F0C8FC040018BF012C07D096
S315000046A0022C05D1002300228E210020FFF7C5FE33
S315000046B064B92C461420DFF8C413444308190123B7
S315000046C0C1684FF47A72284600F079F9BDE83240A5
S315000046D0002003F013B8F8B5154604460E4614221A
S315000046E0DFF8981312FB04F28F18387A18B140F2EB
S315000046F00E2100F013F8FE6002203872DFF88803FE
S3150000470000EB84014A68DFF89013557000787872E0
S3150000471020460A78BA72BDE8F240ADE70FF298304B
S31500004720FFF77EBD38B504464D1C284602F0ECFF67
S3150000473064B1691D00F44060B0F5406F0CD00846C6
S3150000474002F0E2FFBDE8324003F0CDB8E91D00F407
S315000047504040B0F5404FF2D1BDE83440002003F0B0
S3150000476092B802F0E9BD10B50446080008BF012062
S31500004770210002D104F0D1FA01E006F053FB024613
S31500004780DFF81813204607F0FFFB002010BDDFF806
S315000047900C1307F047BC704710B5441C204602F0C6
S315000047A0B3FF00F00700032809D1092200212046A3
S315000047B007F06CFC205C042801D1012010BD00200C
S315000047C010BD70B5044623461420AC4A43430D463B
S315000047D0D61800213172204602F0DFFC2946204619
S315000047E0BDE8704002F0ABBCF8B504460D4616466F
S315000047F01F4607F0DFFCC0B13FB12846FFF7CCFFEC
S3150000480018B1687840F0200002E0687800F0DF0018
S315000048106870681C02F078FF800606D529460020DD
S31500004820FFF780FF122101F0CBFB0122314628461B
S3150000483002F0FEF801001ED0204602F00FF92246D3
S3150000484014208E49964E42438D182B8A5B1C2B8270
S315000048503088298A884209D2688A401C688205E025
S31500004860204602F013F9288A411E29823088298AB7
S315000048708842F5D3F7E5F1BDF8B500F021F803F06D
S3150000488033FC217803F031FC00F006F8E05501B066
S31500004890BDE8F0400020A7E733462A462146704788
S315000048A0F8B500F00DF807F0F2FA217807F0F0FA03
S315000048B0FFF7F2FFE05501B0BDE8F040012093E7B5
S315000048C00D466F1F0446FFB21646E05D704738B5C9
S315000048D001461423694A13FB01F3D418257A012DE6
S315000048E007D1684B002203F8312000F07CF8032141
S315000048F0217231BD0020EAE70120E8E770B50546E0
S3150000490060492E46002001F83600002401F042FAE4
S3150000491014215A4A4E4391190B7A012B02D10322D4
S3150000492001240A7201F03CFA3CB1284600F05BF81B
S315000049302846BDE870403F2143E770BD0020DDE713
S315000049400120DBE714214D4A48431044037A581EE0
S315000049508041C00F704780B510B1012805D009E02D
S315000049600846BDE8024003F041BE0846BDE80240E5
S3150000497006F047BF4FF46471FFE7FFF7CFFE7020E4
S3150000498002BD02F03ABE02F02CBE10B500F00AF8E5
S31500004990118A29B902F090F8401E8041C00F10BD5F
S315000049A0012010BD04461422344B54431A19704793
S315000049B080B5012002F06AF80028FAD101BD10B5D1
S315000049C00C4611461A4610B1012805D009E02046CA
S315000049D0BDE8104000F0D8BC2046BDE8104001F00C
S315000049E0E9B8702010BD10B5044602F065FD012837
S315000049F004D12046BDE8104007F0D6BB10BD1F48C5
S31500004A00017A01291CBF007F012801D101207047CE
S31500004A1000207047042801DB022070471E490870F9
S31500004A200020704707F08ABB07F08FBB012808BF3C
S31500004A3006F038BA03F0E0BA07F08DBB114607F06E
S31500004A40ACBB002808BF03F0E3BE06F0D1BD80B5BD
S31500004A5010B903F0A1FD01E006F07EFE401E804184
S31500004A60C00F02BD114607F08ABB02F098BD02F0E6
S31500004A70CDBD02F0D2BD03F0B8B80000106700202B
S31500004A80257C002038670020D85800201C7C002098
S31500004A90245900203F4600001B7C0020634700008D
S31500004AA09E5B002080B507F063FBFF2801D0012044
S31500004AB002BD002002BD00006C6F7765722D6D612E
S31500004AC0632D656D6265722D7068792E6300000036
S31500004AD007F076BBF8B5274C2748226884B0012139
S31500004AE00392012707F01EFC01220121012007F095
S31500004AF063FE0421072007F0A7FF204A92E868001A
S31500004B006946032281E868000D218DF808108DF8AA
S31500004B1009208DF800708DF807706946184D2846F3
S31500004B2008F00EF8174904200860022216496A6246
S31500004B300860AA6A42F00202AA62039821688842C3
S31500004B4001D0FFF765FB05B0F0BD0D4807F0ECBFDF
S31500004B50A52803D100210A4807F0CDBF70470848B1
S31500004B60006800F001007047084908680028FCD179
S31500004B7070470000AC55002030053E00E860030099
S31500004B800020054080E200E000E100E0082005404A
S31500004B90602080F31188704708F0F6B803460A468D
S31500004BA0A5A10420FFE70CB41CB5A54C236800930F
S31500004BB004AA00F037F800982168884201D0FFF770
S31500004BC027FB13BC5DF80CFB0A00034602D09BA131
S31500004BD01120E8E77047000080B586B008F046FB74
S31500004BE0102204920021974A0092682305910393AC
S31500004BF0029101910246002395A10120FFF7D3FF00
S31500004C00914881790288437903910292019301794F
S31500004C10C37882780091422090A1FFF7C4FF07B0C5
S31500004C2000BD00002DE9F04F854D0E4687B029687E
S31500004C3006910446904608F0D2FB002748BB08F0D0
S31500004C4020F830B30021002001F08CFEADF80400FE
S31500004C50F8B1002101A808F0F3FB214602A808F0EC
S31500004C6016F8002E044642D100F0A1F888B9BDF826
S31500004C70040001F0D4FD8DF80600BDF8040001F033
S31500004C80B6FD0DF1060108F072F810B1042008F027
S31500004C908EFB06982968884240F0848084E08DF86F
S31500004CA00810012422E0BDF8040001F0B8FD58F810
S31500004CB004AB81461FFA8AF0C0B101F0B0FD83460D
S31500004CC00BEB0901C9B201A808F0BAFB0028E0D134
S31500004CD05FFA8BFB5FFA89F9BDF80400CDF800B0E6
S31500004CE000231FFA8AF2494608F036FC761C307813
S31500004CF00028B9D0A0F130010A2904D20A2101FB0B
S31500004D000707303FF2E700F052F80028C1D13178AA
S31500004D100024422902A80ED044291AD0462925D0BB
S31500004D2057290DD06229BED0662930D06C292BD0E8
S31500004D3070292CD0B3E758F8040B8DF80800B0E7BB
S31500004D4058F8041B8DF8081002240904090E417056
S31500004D50CCE758F8041B8DF808100B0A0A0C090E4C
S31500004D60437082708DF80B100424BFE758F8049B3B
S31500004D70484608F0F1FCC2B20123494601A801F0F9
S31500004D80A7FE0028B2D084E758F8047BAEE758F8AF
S31500004D90041B0123FAB201A801F09AFE002808BFFD
S31500004DA00027EFE7FFF734FA07B0BDE8F08F0123DD
S31500004DB0224602A901A801F08BBE00002DE9F841A8
S31500004DC0122885B004460D46904606D03A2808D0EB
S31500004DD04FF6FE71884220D026E0002008F044FFFE
S31500004DE022E009F014FA06460020FFF71DFE0746EA
S31500004DF00020FFF71BFE034604961248DFF84C100E
S31500004E00B1F8E22017A103900292002001900097CA
S31500004E1000223B20FFF7C7FE06E000224146284657
S31500004E2001F006FE00F04EFA42462946204606B03C
S31500004E30BDE8F04108F0F6BA574600006C70000075
S31500004E40AC5500203C720020E06703004C72002045
S31500004E5042423870424242425700000042424242B9
S31500004E605742000057424257573870420000000030
S31500004E702DE9F043354D04468BB0914628680A90DB
S31500004E800126220088461F4606D0012C1FD0102C72
S31500004E9002D0202C1BD02BE00021204608F02CFF4E
S31500004EA00646012C18BF202C08D0022C18BF212C36
S31500004EB004D0032C1CBF222C232C19D1012FCDF892
S31500004EC00480ADF80C9008D14FF4805009E0684694
S31500004ED01F49282209F09CFAE3E7022F03D14FF479
S31500004EE04050ADF80A006946204608F005FF064620
S31500004EF00A982968884208BFF0B201D0FFF788F9FE
S31500004F000BB0BDE8F08380B508F0B6FFC0B202BDB5
S31500004F1008F0FABF80B509F001F8C0B202BD0CB4C2
S31500004F2038B50A4C256800950A46014604AB09487F
S31500004F3009F0F0FA00982168884208BF002001D0E5
S31500004F40FFF766F932BC5DF80CFB0000AC5500209B
S31500004F50D85F030053E00000890001EB401101F126
S31500004F6084410A607047000010B50446FFF710FE42
S31500004F701E484AF6E8510160C162016B01F00F015B
S31500004F80022913D11A4A01211160806B00F0030037
S31500004F90012818BF022809D100221C211548FFF755
S31500004FA0DBFF002200211448FFF7D6FF200A002865
S31500004FB0124808BF24024FF20F0104804180BFF35C
S31500004FC05F8FBFF34F8F0E490E480A6802F4E06206
S31500004FD002430A60BFF34F8F00BFFDE70A487047E0
S31500004FE009482038704709487047000008300E40CD
S31500004FF04040084060300E4074300E4000000020F3
S315000050000CED00E00400FA05084C0020A00000208A
S31500005010002070470120704701207047002070472C
S31500005020012070470020704700207047012070471C
S3150000503000207047012070477047704700B102207A
S31500005040704700207047704738B54478456800F0CF
S31500005050A1FE0C214C439049904B0A59521B9A428F
S3150000506038BF0D51BDE8324000F09ABE10B5044677
S3150000507009F09EFB6060042020702046BDE81040C9
S31500005080E2E738B504460D4609F092FB2D18656037
S31500005090012020702046BDE83240D5E710B5044611
S315000050A0207860B1042806D009F082FB61687B4B4A
S315000050B0421A9A4201D2002010BD081A10BD4FF0C4
S315000050C0FF3010BD70B5044609F072FB054600F0CE
S315000050D061FE0646606800226FF0004100F007F8A6
S315000050E0451925603046BDE8704000F059BEF8B558
S315000050F005460E46144609F05BFB024600239CB1AA
S31500005100FF20207010E0087860B1042811D04868AC
S31500005110624F111AB9420CD3801AB04202D2064627
S3150000512004B123705B1C083529680029EBD1304691
S31500005130F2BD04B123700020F2BD70B5054609F03A
S3150000514037FB0646564C10E0017869B1042904D0B5
S315000051504168524A711A914206D2042303702060B4
S315000051606968884700202060083528680028EBD148
S3150000517070BD10B5044609F01BFB0C225443464A89
S31500005180464B1159401A984207D214446068FFF7FB
S31500005190D4FF2046BDE8104094E710BD70B5414EDF
S315000051A0414A137804467078984204D35FF0F601BA
S315000051B03FA0FFF735F87578374A691C71702B46A2
S315000051C00C204343D11801264C600E7200E0457056
S315000051D054F8080B0028FAD10846FFF773FF284653
S315000051E070BD00002DE9FC41304C2B4E2268019227
S315000051F00C254FF0FF3306F10801684300930022A7
S315000052000A54284B1878002837D009F045FB20B9F6
S3150000521040F22F1126A0FFF703F809F0C9FA02465B
S315000052200027204B5978F8B2884219D26843DFF834
S315000052306CE03158A2EB010CF4451ED306F10808C8
S31500005240891A18F80000C0B9B9B10098814288BF20
S31500005250014600917F1CE5E7FEF7DAFFBDE8F6811F
S31500005260684600F088F810B9684609F0D2FA0120BD
S31500005270019922689142EFD1F0E709F01AFB00206C
S31500005280F6E70C21044B484318440122027270478A
S315000052900348006870470000E460002001000080B9
S315000052A0DC740020427C0020D47F0300AC55002033
S315000052B06576656E742D636F6E74726F6C2E630007
S315000052C0704770477047019870477047704770473E
S315000052D0702009F00FBB70B5044643381F4D08D047
S315000052E0401E012809D9801E01280ED9C01F32D0C0
S315000052F02AE0BDE870400AF0ABBA0AF079FA20B1AC
S315000053000AF0A6FA0028FBD170BD154E307810BB06
S31500005310012131700AF020FB442C12D00CD3462C0C
S3150000532005D00ED3472C07D140F6010001E040F628
S315000053300200FFF719FE04E04FF49B712846FEF7C2
S315000053406FFF0020307070BD2846BDE870404FF4F6
S31500005350A471FEF765BF70BD00000000A4660300DF
S315000053601A7C0020704700207047002070470120FB
S31500005370704701207047002070477047FFF779BBE0
S31500005380002070470020704738B51546104A5178FE
S3150000539004462220FFF748FE204602F085FF044619
S315000053A06DB120000BD00B49087818B10A480121CD
S315000053B0017004E0002200212046FFF75EF8204637
S315000053C032BD704770477047044908707047000047
S315000053D024590020B75C0020B85C0020317C0020F6
S315000053E080B509F0E5F9DFF858291178484302BD80
S315000053F080B5DFF85019096A05280BD8DFE800F0F8
S315000054000306060808086FF0004002BD086902BDE1
S31500005410C86802BDE82100F0F8F8002002BD10B50A
S315000054200146DFF82009026A106993685468D26859
S315000054308842B4BF012000208B42B4BF0223002360
S315000054408C42B4BF042400248A42B4BF0821002140
S31500005450181820180818401CC0B210BDF8B5DFF89F
S31500005460E458DFF8E4682C6A002C1ABF307800286C
S31500005470002706D061696A7A88188130FFF7CFFF66
S315000054800746287AB84214D001226A74002C1ABF43
S3150000549094F86400401E05F005FD2A7A31783B46F3
S315000054A0C0B200F055FD002169742F720628B8BFFE
S315000054B0307006F015F8A0B1287A002450B1286A99
S315000054C04169687A0F183078FFF792FFFF1DB842DE
S315000054D0B8BF0124E97A2046884202D006F000FCD3
S315000054E0EC72F1BD2DE9F84FDFF85858AC7A064654
S315000054F089460CB10020A872286A10B96FF00040E6
S3150000550081E0FFF76DFFDFF844182A6ADFF83C38C0
S31500005510B0FBF1F801FB08F89169A8EB0100B0FBBC
S31500005520F3F04FF00D0CB8FBF3F3E646B3FBFEFECB
S315000055300CFB1E3E0D28774607D300205061342110
S3150000554002F11C000AF084FA28E038B3DFF8FC7791
S31500005550B1FBF7F1E246B1FBFAFA0CFB1A1C02F1B9
S315000055601C030CF1010C5FFA8CF10D2908BF4FF0FA
S31500005570000C5FFA8CF1576953F821B0A7EB0B07C3
S315000055805761002743F82170401EEAD16746F8B2FA
S31500005590704503D040F2571100F037F8687A002EB4
S315000055A002DD801C861902E044BF361AB61E00F0E2
S315000055B0F1FB95F80CA000212973FFB200F0F0FB77
S315000055C0687AC01D10FB0A66286A4169361B711885
S315000055D0416100F11C0200F11C0352F827107618F5
S315000055E043F82760C0F81880FFF738FFB9F1060FB7
S315000055F004BFDFF8540790F800904846FFF7F8FE1E
S315000056002A6A5169401ABDE8F28F0FF27870FEF7E8
S3150000561007BE2DE9F041804605F044FCDFF824473B
S31500005620074604F1340504F13406002195F86400B8
S31500005630421EBA4215D0002904BF002829466869CF
S3150000564072699042B8BF2E46683504F5827085426D
S31500005650ECD309B10D4604E0682130460AF0F8F9AA
S315000056603546B8F1000F05F1500602D1307D00280D
S315000056705FD13146384605F085FC002853D17F1CA2
S315000056803775608808B996216180DFF8B436B17B3A
S315000056905878DFF8BC264143B2FBF1F02860E08879
S315000056A040B9307808B9012131702868327890FB0A
S315000056B0F2F005E0296842F2107391FBF3F35843C8
S315000056C0E860A08840B9707808B90121717028682F
S315000056D0717890FBF1F001E000F037F8E96881425B
S315000056E0C8BF01466960208858B9B0780A2110FB06
S315000056F001F081B201B90120296880B291FBF0F076
S3150000570001E000F022F8286142F2107229686088F0
S3150000571091FBF2F14143E8688842C8BF0846A86099
S31500005720F07B60720AE0002060722062BDE8F04102
S3150000573094E6206AA84206D0F17B617225620021B8
S31500005740BDE8F041F6E2BDE8F0812A6842F2107346
S3150000575092FBF3F3584370472DE9F04106460D4698
S315000057600020FFF756FFDFF8DC75DFF8DC85386AC6
S315000057702C46062C08BF98F80040002818BF002CBD
S3150000578020D031787A7AB0F85C005618B61C08B189
S31500005790B0420ADB29460020FFF7A4FEB04207DA32
S315000057A01DB94FF40071FFF730FF6FF0004020E0A5
S315000057B0386A062D50F8545F08BF98F800400DB1BE
S315000057C0052C01DA002014E080882D1A012005F04E
S315000057D05AFC04464FF47A72DFF87805DFF878153C
S315000057E002FB0505B5FBF1F10C19FFF7F9FD641C89
S315000057F0201ABDE8F081DFF864251178002904BF7E
S315000058000022FEF74BBEDFF85815012008707047DE
S31500005810DFF85005FFF72ABC10B50246DFF824155D
S31500005820DFF844350120C873186800F09CF8017E43
S315000058304069DFF824454A43B4FBF0F0BDE8104068
S315000058404243DFF82815012006F09EBB38B5DFF885
S3150000585020150446087808B1002032BDDFF8E414AC
S3150000586060788A7B1518A0788542A8BF05460AF09D
S3150000587009F9012194F90320237801FA05F5A918FD
S31500005880B0FBF1F201FB12002179401810FB03F086
S3150000589080B232BD80B5DFF8AC240021D17300F0B0
S315000058A083F8BDE802408D20A5E72DE9F041DFF839
S315000058B094540FF2D046EA7B07461AB140F27B2198
S315000058C000F075F9286A18B94FF41F7100F06FF9E6
S315000058D0286A046E1CB940F27E2100F068F9686AF5
S315000058E006F032F8804650B170280BD0012000F047
S315000058F05BF817B14046FFF77EFF404631E005F002
S31500005900C6FE01E006F0B4F9DFF85C04006800F0BA
S315000059102AF8E288017E4069DFF83C744A43B7FB07
S31500005920F0F000F0F4F928630021A97394F905005A
S3150000593018B940F2A32100F03AF994F905000100E4
S3150000594003D549422974002003E028742046FFF756
S315000059507DFFA88320200AF04AF9A88BFFF75CFF99
S315000059600020BDE8F08118B9DFF8080481680868EE
S31500005970704770B5DFF8CC530446686A06F007F93D
S31500005980060008D1002000F00FF8686A00780021B0
S31500005990FFF7A8FD06E0012000F006F814B1304636
S315000059A0FFF729FF304670BDDFF898138A7B00F0B9
S315000059B00F0040EA021088747047DFF88803407BC6
S315000059C07047DFF88003007A70472DE9FC4D0446E6
S315000059D00020FFF71EFEDFF86C03056A45B92CB1FF
S315000059E042F2107020806080A080E08000204AE0B3
S315000059F0407C10B90021FFF775FD002C42F21078AB
S31500005A002FD02E6806EBD6725210D317CDE900239D
S31500005A102869C117A8FB007B18FB01BBB8184BEB24
S31500005A2003013246F3170AF005F92080AA68D31756
S31500005A30A8FB0201DDE9007218FB0311C0195141F0
S31500005A403246F3170AF0F6F86080DDE9007B6868F5
S31500005A5000F01BF8A080DDE9007BE86800F015F88F
S31500005A60E0802A686C6902EBD270E517A8FB046A2D
S31500005A70C11718FB05AA16EB60004AEB0101D31704
S31500005A800AF0D8F880B2BDE8F68DC117A8FB00234E
S31500005A9018FB0133D01943EB0B013246F3170AF01A
S31500005AA0C9B8E0B5010024D06846082208F0A0FC79
S31500005AB0BDF8020010B99621ADF8021000210022AF
S31500005AC0D3B23DF8130030B142F21173984210DAA6
S31500005AD088420EDB0146521CD0B20428F0D3DDE921
S31500005AE00001984AC2E900010120FFF792FD00205B
S31500005AF00EBD02200EBDF8B5924D0FF28826697BC9
S31500005B000446686AFFF728FE0746012F23DB6FF07D
S31500005B100040874210D0FFF763FCA96A964A3818FE
S31500005B20401A90420AD20320FFF73EFF14B18C20A0
S31500005B30FFF761FE8C20F2BD0220F5E7E87B18B185
S31500005B4040F2733100F033F8394605F11400FFF7DF
S31500005B5098FA0020F2BD687B062801BF7A490878CA
S31500005B606873002804D18549487808B1042169730F
S31500005B70E87B18B140F2853100F019F8687B0428FB
S31500005B8011DB296A00291CBF086E002809D091F88C
S31500005B905300C10707D5012068732046BDE8F240CF
S31500005BA083E6022068732046BDE8F240E1E630460F
S31500005BB0FEF736BBF8B506460F461446FFF710FC4F
S31500005BC0604D6E496E623F18AF62487810B95E4903
S31500005BD0087808B9062000E0012068736848016863
S31500005BE0CA0505D005F11400FFF740FA0020F2BD02
S31500005BF02046BDE8F2407EE70000000070B5514C3B
S31500005C005C4DE17B584E00200329207574D8DFE8EF
S31500005C1001F00206173BBDE8704001206BE73068D3
S31500005C2008B9A8680068216A4B4D0A6E017E128980
S31500005C3000F069F8E0620220E0732B2009F0D7FF3C
S31500005C4005F025FD88B9A07B217C401CA073C0B25D
S31500005C50884205D20320E073292009F0C8FF21E01D
S31500005C60272009F0C4FF04203CE006F073F9E16A3E
S31500005C7006F072F9B0B10020E073282009F0B7FFF2
S31500005C80BDE87040012074E605F001FD80B906F01C
S31500005C9061F9216B06F060F920B12A2009F0A7FF0F
S31500005CA006201FE004F11400BDE87040FFF7DEB9DE
S31500005CB0206A006EFFF7CAFD0146A183306808B965
S31500005CC0A8680068226A156E2A89234D5218017E3B
S31500005CD000F019F8216B06F03FF930B12A2009F0DF
S31500005CE086FF0520BDE87040D4E52C2009F07FFF33
S31500005CF0A08BBDE870408FE5BDE8704040F20C41D6
S31500005D0020A0FEF78DBA40694A43B5FBF0F0424346
S31500005D100021012006F038B90A494A6A487A137800
S31500005D20C3189B1C8B7270470648017B491C017384
S31500005D30704700210020FFF7D5BB0248006A704774
S31500005D40F65B0020EC750020F55B0020E093040074
S31500005D5000A493D620A1070040420F00B75C0020A4
S31500005D60F474002000760020DC7500201158000035
S31500005D70F2740020DC690300010000802C59002029
S31500005D8004ED00E0647574792D6379636C652E63A8
S31500005D9000000000EFF31180602181F31188704745
S31500005DA080F311887047FEE710B5040001D1022088
S31500005DB010BD01F0E7FB00F0E1F82070002010BDF7
S31500005DC01FB5C14C2168029120B383880188C3B9ED
S31500005DD0002904BF418800291CD10022ADF800200B
S31500005DE00388ADF802304188ADF804108188ADF81B
S31500005DF00610684601F0C8FB0299226891420BD151
S31500005E000CE000291CBF4288002A03D09A4238BF02
S31500005E109142E2D30220EFE7FEF7FAF904B010BD93
S31500005E203EB5A94D0400286802900DD0684601F0E1
S31500005E30A7FBBDF802002080BDF804106180BDF804
S31500005E400600A080002000E0022002992A68914204
S31500005E5001D0FEF7DDF93EBD2DE9F84F04460D46AB
S31500005E60012006F07FF9400908BF70206ED0002D92
S31500005E7069D0A046B8F1220F8DF8004063DA934846
S31500005E800078032818BF04285BD1012C5BD10AF0E7
S31500005E908EF928800126002001F072FB6880002719
S31500005EA04FF6FF74DFF828A20FF2402946454CD082
S31500005EB0012006F057F9400931D001F05FFB5FEA97
S31500005EC0000B04D14FF4B2714846FEF7A9F9F8B2B7
S31500005ED001F099FD012822D10021F8B200F070F8F6
S31500005EE0F9B23C23DBF80020594302EBD2705AF892
S31500005EF00130401042F2107EC117CEFB0301D317CA
S31500005F0009F098FE8346F8B201F075FCA04206D06F
S31500005F1025F82600A81C20F826B0761CF6B27F1CB1
S31500005F20F8B22028C2DB9DF80000AB1CF1B281421A
S31500005F303FBF25F82140002223F82120761CF5D307
S31500005F4003E02000A3D1022000E00020BDE8F28F8C
S31500005F5000BF70B5044640091D460CD0204601F02E
S31500005F601CFB0646284600F009F8024604F01F010D
S31500005F7030460BF099F9062070BD000010B560B1EF
S31500005F80401E01280BD9801E01280AD9801E03282D
S31500005F9009D9001F072808D909E000240DE00124CB
S31500005FA00BE0022409E0032407E0042405E040F2A4
S31500005FB0071100BF4DA0FEF733F9E0B210BD000097
S31500005FC02DE9F84F0546884601F01DFD01286DD1E3
S31500005FD03E480078032818BF042867D0012006F041
S31500005FE0C1F8400962D02C46202C5FDAFF2D5DD027
S31500005FF008F0DEFB3C273749354D364A7C43B0FB7B
S31500006000F1FA05EB040901FB0AFAD9F80410AAEB28
S315000060100100B0FBF2F00D23BAFBF2F29C46B2FB94
S31500006020FCFC03FB1C2C0D28664611D34FF0000B1D
S3150000603007FB0BF00021295005F10802342110441A
S315000060400BF002FA0BF1010BBBF1200FF0D322E0AB
S3150000605008B3204FB1FBF7F19E46B1FBFEFE03FBF2
S315000060601E1300265B1CD9B20D2908BF0023D9B226
S3150000607009EB81012F598A68BF1A2F51401E8E6085
S31500006080F0D11E46F0B2604500F0058040F23B11AB
S3150000609016A0FEF7C5F8285940442851F6B209EB78
S315000060A08600816841448160C9F804A0BDE8F18F8B
S315000060B03C214843064A002313500244342102F18E
S315000060C008000BF0C1B90000AC550020347C00205C
S315000060D05C680020E093040010B50024E0B2FFF7EE
S315000060E0E7FF641CE0B22028F8DB10BD656D626531
S315000060F0722D647574792D6379636C652E63000067
S315000061000020704700B1022070470120704701202F
S315000061107047012801D100207047022070470120F6
S315000061207047FEE710B53748374C0021C0E900112B
S3150000613009F0A8FC207009F0A5FC607033480178CE
S31500006140A17010BD2DE9F84F92B06A4600210020DB
S3150000615000F054FEB0B9DFF8B8B02E4C2E4D2F4EDD
S315000061602F4FDFF8C080DFF8C090DFF8C0A000F046
S3150000617016F800F0C0FD28B96A460021012000F09B
S315000061803DFE08B1012007E000F009F8012000F00B
S31500006190B2FD00B10120C0B213B0BDE8F08FCDF85A
S315000061A024B00A940B950C960D97CDF83880CDF84F
S315000061B03C901096CDF844A06A460021704780B501
S315000061C0002000F014F828B1002000F005F808B10E
S315000061D0002002BDFF2002BD1548007802281CBF22
S315000061E01128432801D1012070470020704711482B
S315000061F0007801281CBF0228032801D1012070471E
S315000062000020704730730020C57A0020D15B002043
S31500006210496F0100757001009DD5020069EA010011
S31500006220FBC7020093EC010099B80100BBCE010048
S31500006230357C0020347C002033B585B005468DF8CA
S31500006240042007F079FF0446284607F085FF7CB155
S315000062500028BDF818000FD108F075F88DF8000079
S31500006260FF2804BF00218DF80010CDF808D016E0F5
S31500006270A8B106A8029012E008F065F88DF80000B3
S31500006280FF2804BF00218DF800109DF80000BDF81E
S3150000629018108DF80C0003AAADF80E100292DDE975
S315000062A001010A46014628460BF0D4F807B030BD76
S315000062B073B582B00446154607F03EFF06462046F3
S315000062C007F04AFF2EB120B903A98DF800500191BD
S315000062D005E040F2B31100BF05A0FDF7A1FFDDE91F
S315000062E000010A46014620460BF0B4F87FBD0000C7
S315000062F0656D6265722D6D756C74692D6E6574774A
S315000063006F726B2D737475622E63000010B5DFF823
S31500006310BC07DFF8C4180068DFF8C028C860136837
S3150000632048615B0800EB43040C6118B100F016F8F5
S31500006330652806DABDE81040AF210FF6C400FDF768
S315000063406FBF10BD10B5DFF890486069E2689042F3
S3150000635002D2BF2100F0C7FA60690CE010B5DFF881
S31500006360784820696269904202D2C52100F0BBFAE2
S315000063702069626900E0E268801A4FF6FE71084003
S3150000638010BDDFF85418CA68904203D349698842A1
S3150000639000F061BB0020704780B510B1FFF7F1FF38
S315000063A000B1012002BD30B1DFF82C28D168401AB7
S315000063B04010401C80B27047010001D10020704798
S315000063C0DFF81418CA6802EB4000801E7047408848
S315000063D0C0F30C00C01C0004800C4000001D80B2FD
S315000063E0704710B50446FFF7F2FFDFF8EC174A696D
S315000063F004EB40004FF6FF74904204D20388A34298
S3150000640008BF801CF8D010BD2DE9F843DFF8B84668
S315000064108046208998B3B8F8020001042FD4DFF82B
S31500006420C0770FF2D07138680FF2D4790BF0A6F866
S3150000643020B94FF4C6714846FDF7F2FE002504E088
S315000064400BF09CF888B16D1CADB22089854204DB47
S315000064504FF4C7714846FDF7E3FEA069396800EBC3
S31500006460C50630680028EBD13160B088401CB0808A
S315000064704046FFF7ACFFF18801EB4000F080BDE835
S31500006480F18370B50446DFF85007007801281AD169
S315000064902088FFF791FF050024D002262C462046CF
S315000064A0FFF7B2FF608840F40040608034F81600C1
S315000064B0FFF782FF040002D060880104EFD5761C46
S315000064C0042E0FDAEAE702280CD1FFF763FC054633
S315000064D02088FFF771FF18B10088C0F30E002080F6
S315000064E02846CFE270BDDFF8F0160A78022A08BF08
S315000064F0FFF7C7BF704738B504460D46FFF767FF7D
S315000065006188C1F30D0161804004020C21462846D2
S31500006510BDE838400BF074B810B50C46A04205D261
S3150000652041880A0402D4FFF75CFFF7E710BD2DE9A6
S31500006530F14FDFF8B006DFF89055016894B00020FF
S315000065401291E880FFF726FC6A88ADF80620012143
S31500006550AA88ADF80420297000216A696980A9809B
S315000065600092FFF71DFC2989A869C90009F070FA95
S315000065700DF10600FFF785FF01A8FFF782FF1498CB
S3150000658048B1002401E08047641C1498E1B250F839
S3150000659021000028F7D1EF6800244FF001080DF123
S315000065A0080937E024B1641EE4B259F824A003E0D8
S315000065B000F01AFBBA460746BAF8020000F440415A
S315000065C0B1F5004F26D140F48040AAF802004FF002
S315000065D0020B26465FFA8BF03AF81000FFF7ECFE46
S315000065E0040010D0608801040DD440F4004060809F
S315000065F02046FFF709FF102EBDBF49F82640761C3E
S31500006600F6B24FF000080BF1010B5FFA8BF004288D
S31500006610E0DB3446009EB742C4D3002CC2D1B8F1A9
S31500006620000FB8D0EF68BB46B84615E03846FFF70E
S31500006630CEFE0446788801040BD55846FFF7B3FE14
S31500006640398801F40041084338800BEB440B07EB13
S31500006650440800F0C9FA0746B742E7D3022028707B
S315000066600DF10600FFF70DFF01A8FFF70AFF1498CA
S3150000667048B10026044601E08047761CF0B254F883
S3150000668020000028F8D1EC68274613E04FF00209F5
S3150000669037F81900FFF790FE20B10088C0F30E000E
S315000066A027F8190009F10109B9F1040FF0DB00F030
S315000066B09BFA07464745E9D30AE00446FFF791FEF1
S315000066C04146FFF729FFB842F7D34F452FD154462D
S315000066D0274647453AD22046FFF783FE002C8246DE
S315000066E0F5D060880104F2D500F077F8A04204D115
S315000066F06088C0F30D006080E9E704D201462046B9
S31500006700FFF7F9FEE3E7A14607E05046FFF769FE0B
S315000067104146FFF701FF54468246C24507D2BAF802
S315000067200000C0F30E00FFF747FE8245EDD334B1FB
S3150000673000F053F801001CBF2046FFF7DCFE274699
S315000067404846C0E70022414601A835E0FFF722FB94
S3150000675080460021A81C0BF04FF8FFF72DFE0126FE
S31500006760040007D10021281D0BF046F8FFF724FE90
S31500006770022604464CB9BDF80600BDF80410688030
S31500006780A9800020C5F814B028704046FFF708FB22
S31500006790E4B12046FFF71BFE07465846FFF703FE07
S315000067A080467A00214658460AF02AFF022EC9D0B2
S315000067B0002241460DF106000AF0C8FF0BEB470B1D
S315000067C0C4E7FDF725FD15B0BDE8F08F1298DFF898
S315000067D014140A689042F4D1F5E72088C0F30E003D
S315000067E0EAE580B5FFF7E8FDBDE80240D4E510B55F
S315000067F0040012D0FFF7F5FF18B940F2794100F016
S3150000680072F82046FFF7D8FD38B101880A0402D590
S31500006810D0F80A0010BD083010BD002010BD10B51C
S31500006820010013D0FFF7C8FD0446FFF7B5FD18B900
S3150000683040F2934100F057F844B12088010401D595
S31500006840208910BD6088C0F30C0010BD002010BD6B
S315000068502DE9F04100F044F804003FD0FFF79CFD1D
S315000068600FF29C3718B940F2A64100F078F8284696
S31500006870FFF7D5FF80462046FFF7B3FD46450546A0
S315000068802CD003DB40F2AE4100F069F82088010409
S3150000689048BF268122D466802046FFF798FD04EB88
S315000068A04004FFF777FADFF830134A692E1BB6B2B9
S315000068B0954204BF4C610026FFF772FA082E06DAED
S315000068C031462046BDE8F041FF220AF0E9BF082123
S315000068D020460AF0B9FDA6F108006080BDE8F08107
S315000068E005460E4668E50FF21830FDF799BC38B537
S315000068F00D46FFF761FD04000AD0FFF74DFD18B9FC
S3150000690040F2EB41FFF7EFFF04EB4500808832BD14
S31500006910002032BDF8B50D461646FFF74DFD0400C2
S315000069200FF2DC2714D0FFF737FD18B940F2F64115
S3150000693000F015F83046FFF73FFDFFF72DFD18B9BB
S3150000694040F2F74100F00BF804EB45008680F1BDFC
S315000069503846BDE8F44040F2FA41FDF761BC3846DE
S31500006960FDF75EBC2DE9F84F8846C11C8910DFF89B
S31500006970685249000027091D2E690FF2842AB0F5D6
S31500006980005F04461FFA81F904DB40F226515046A7
S31500006990FDF746FCFFF7FEF983466969E86908B921
S315000069A0711A03E05FEA080202D0411A4E1009E0AC
S315000069B0301A4010064680B220B940F24C5150467B
S315000069C0FDF72EFCB6B24E4514DB6F6907EB4900A6
S315000069D06861E86928B1B8F1000F04BF00EB49000F
S315000069E0E86100207C80B880F880388008346989A6
S315000069F064186C815846FFF7D3F93846BDE8F24F64
S31500006A00D1E4F8B504460D46164600210A20FFF7E4
S31500006A10A9FF0746FFF7D0FC48B10681C0F80A4037
S31500006A20018841F400410180C0F80E503846F2BD9D
S31500006A3070B504460D4611462846FFF793FF0646F5
S31500006A403CB1300005D0FFF7D2FE2A4621460AF0B7
S31500006A50D7FD304670BD8041C00F704770B50C46FB
S31500006A60194D30B1FFF796F9064600222146281D3A
S31500006A7005E0FFF78FF9064600222146A81C0AF01A
S31500006A8065FE3046BDE87040FFF78AB938B5524C0E
S31500006A9028B1FFF77FF905460021201D04E0FFF726
S31500006AA079F905460021A01C0AF0A6FE04462846F0
S31500006AB0FFF776F9204632BD4749002814BF88887B
S31500006AC04888401EC7E70000C4650020B456002071
S31500006AD02DE9FE4F04468846208816469B46FFF75A
S31500006AE06BFC0746FFF758FC18B940F29A61FFF7AE
S31500006AF0FAFE38880104354603D538892D183D81BC
S31500006B0067E000F075F8019000F06EF88146FFF737
S31500006B1041F900968246304E706981451DD1FFF7D6
S31500006B201DFCA84203D25046FFF73AF921E001982E
S31500006B302D18BBF1000F7D8008D02088FFF757FE87
S31500006B40019B009A4146184407F052FC00F04CF8AD
S31500006B5070615046FFF724F93BE05046FFF720F9F5
S31500006B6000F046F82D180021A8B2FFF7FBFE07003B
S31500006B7001D118202EE000F03BF805462088FFF7EB
S31500006B8036FE06463846FFF732FE2A46314607F0FD
S31500006B902FFCBBF1000F384609D0FFF728FE00F0A6
S31500006BA026F8009A4146284407F022FC07E0FFF742
S31500006BB01EFE00F01CF8009928440AF045FC2088C7
S31500006BC00121FFF794FE024601213846FFF7A2FE97
S31500006BD027800020BDE8FE8FC4650020B85600203F
S31500006BE0D4580020AC5500203846FFF7FABB0546BE
S31500006BF0208814E6756E636C61696D65640000003B
S31500006C006275666665722D6D616E6167656D656E2E
S31500006C10742E630070B500244FF49472DFF82819BF
S31500006C2062438D1805F58E70FFF72BFC002605E0F4
S31500006C3005EBC0008030FFF724FC761C95F8C010E9
S31500006C40F0B28842F4D3641C022CE5DB70BDF8B5C3
S31500006C5004462146022901DB2120F2BD00F017F986
S31500006C605518002185F87F10002605EBC60000F1B7
S31500006C708007082138460AF0E7FB761C0020082E1C
S31500006C8038807860F1DB482105F1D40005F1C006B3
S31500006C900AF0DAFB4FF6FE774FF6FF7037837784FC
S31500006CA0F082002185F8F11028467F210AF0CCFBFE
S31500006CB000203070706030733061002205F58E70F0
S31500006CC0B260FF2102808170C1704260017208F0DB
S31500006CD0D9FEDFF878180870FF220121DFF8700866
S31500006CE00AF0DEFD01212046FDF798FB204600F064
S31500006CF043F90020F2BDF8B50228044615461EDA0F
S31500006D004FF49472DFF8403850431E1806F1D4074A
S31500006D10787F00281CBF687F00280BD051B1DFF8B0
S31500006D2034080178022903DB38782978884201D0B3
S31500006D300220F2BD29782046FDF7B4FE08B92120CD
S31500006D40F2BD48222946384607F052FB2046FDF799
S31500006D50F9FD28B196F8240110B9204600F007F88D
S31500006D600020F2BD80B500F002F8002002BD38B563
S31500006D704FF49472DFF8D01712FB00F21144012889
S31500006D80044601F1D40502DC91F8240108B1012082
S31500006D9032BD6A8800212046FDF750FE00F029F832
S31500006DA0AA1D00212046FDF760FE2046FDF73EFEA7
S31500006DB02978814203D02046FDF73EFEC0B9204621
S31500006DC0FDF732FE95F90110814203D02046FDF70A
S31500006DD029FE68B9204600F06FFB05462046FDF700
S31500006DE0B1FD20B129462046FDF7B5FD00B90020CA
S31500006DF032BDAA8800212046FDF734BE38B50228E8
S31500006E00134601DB212032BD4FF49474DFF8385766
S31500006E106043284400F1D4014822184607F0E8FAF6
S31500006E20002032BD38B50346022B0EDA4FF49474B7
S31500006E30DFF814576343EC1854F8C43F002B04BF23
S31500006E40237A002B01D10B0001D1212032BD216014
S31500006E50626000F091F8002032BD10B5044621466C
S31500006E60022901DB212010BD00F011F8501800F1B5
S31500006E70C801002388680B600B7118B18B6020462F
S31500006E80FDF785FC2046FFF76DFF002010BD4FF48F
S31500006E909470DFF8B42641437047F8B50446DFF82E
S31500006EA0B8262546002102F83510FDF74BFD0028CF
S31500006EB053D04FF49471DFF890264D43154405F1F5
S31500006EC0C0063078A8B105F1800705F58E703968DF
S31500006ED0016079684160204600F0E5F83278D2001A
S31500006EE005F1880138460AF08BFB3078411E317077
S31500006EF0F1BD7168080008D001200022307372606D
S31500006F002046884700F02AF8F1BD95F87F008107F2
S31500006F1002D40AF013FD28B100F020F82046BDE89F
S31500006F20F2402FE095F8240150B9B06C40B195F8C5
S31500006F302411482041436818D0F80821904760B9C9
S31500006F40FFF73DF90146307B38B9FF2918BF85F8B0
S31500006F5024112046BDE8F24004E7F1BD95F87F0014
S31500006F6000F0FD0040F0010085F87F00704701E069
S31500006F70012092E7002090E7DFF8DC1501EBC00066
S31500006F80FEF774B87CB500F028F88D1895F87F00E8
S31500006F90C10721D500F0FE0085F87F000AF0BCFC91
S31500006FA0064695F87F00810744BF30460AF0ACFCE0
S31500006FB0314620460AF0D6FD00210191024695F899
S31500006FC0243148204343E8180023D0F814110091D7
S31500006FD02046314600F027F873BD044622464FF49A
S31500006FE09470DFF864154243704710B504460020DC
S31500006FF00AF08AFC224600F0CBF84243881890F843
S315000070007F3043F0020380F87F30D0E04FF4947174
S31500007010DFF834254843104490F87F3003F0FC0332
S3150000702080F87F307047F8B502280446154601DB24
S315000070302120F2BD00F031F8161806F1C007786875
S3150000704020B9387B002818BF022B01D00120F2BDE1
S315000070503A78082A1FDA012B08BF4FEAC20C08D07B
S31500007060D20006F1800106F188000AF0C9FA4FF055
S31500007070000C0798069906EB0C02002322F8805FA5
S31500007080D070937051603878401C38702046FFF7F6
S3150000709073FF0020F2BD1C20F2BD4FF49471DFF89F
S315000070A0A824484370472DE9F843DFF8B064DFF8B9
S315000070B09824054684B030682B464FF494714B43B0
S315000070C00390D71897F8240128B1002187F82411D6
S315000070D02846FFF747FE97F9D5008DF8080007F117
S315000070E0F8043A46B4F824804146002000F041F9FD
S315000070F0246802464FF001099CB102A800210190C4
S3150000710000912B4639464046A047DFF85424814675
S31500007110107830B12846012D04BF9DF90810FDF7FF
S3150000712081FC4A4639462846FDF7D5FA0398316868
S31500007130884201D0FDF76CF805B0BDE8F083F8B5DC
S3150000714004462646022E0D4605DB40F282210FF24A
S315000071502040FDF765F800F01BF846430E4406F59F
S315000071608E77D7F804C0BCF1000F04D0FB783A88BC
S3150000717029462046E0470020388096F87F008107A0
S3150000718005D500F0FD0040F0010086F87F00F1BD56
S315000071904FF49470DFF8B013704710B50228044618
S315000071A005DB40F292210FF2C830FDF739F8204690
S315000071B0BDE81040E0E62DE9F84FDFF8A02313689C
S315000071C0824686B05746012F05934FDCADF8001076
S315000071D00846FFF70CFB040048D0BDF80000FFF797
S315000071E01EFB6178257801F00701022908BF0120FE
S315000071F020D003A90022C0B2C1E900222044A0F198
S315000072000806306808607068486003AED54996F88D
S3150000721003B00878ADF80820002896F802801EBF53
S31500007220D1490B68002B06D04FFA88F25946204602
S315000072309847002075E009220021601C04F026FF13
S315000072408146A5EB0905AD1E6DB2002D0ED4FFF7E4
S315000072509FFF10FB07F7C81900F1C8077B6C3BB10D
S31500007260BDF8000000220121984708B9212058E006
S3150000727002A80090EBB2621C002150460AF074FF8F
S31500007280C0B2002800904BD1BDF808000BF05EF8A4
S3150000729000281CBFBA6C002A04EB090A07D0BDF807
S315000072A008000AF10101904708B9022039E0BDF84B
S315000072B008000BF032F90190BDF808000BF046F813
S315000072C030B101982A460AF1010107F091F807E06A
S315000072D0A94401235FFA89F2611C02A8FFF7F8FBB3
S315000072E0BDF80800FFF783FA80F808B080F8098037
S315000072F09DF80C1081729DF812209DF81110120253
S3150000730042EA0142F1790A43C2603879BDF80810B1
S31500007310002814BF3A68FA6A10001CBF0846904756
S31500007320009805998D4A1368994201D0FCF770FFC1
S3150000733007B0BDE8F08F000070B50446B4F1020F47
S315000073408BA504DB40F217312846FCF769FF4FF4A2
S3150000735094707D4A44431619D6F8D04024B940F2B9
S315000073601A312846FCF75CFF0020C6F8D000A0477B
S3150000737070BD2DE9F8438946484614460BF0D2F80D
S31500007380074648460AF0DBFF661C04281CD148461F
S315000073900AF0F6FF4FF6FF71744D48F64108884231
S315000073A018BF48F661082988F01C0BF0C1F848465A
S315000073B00AF0E6FF0146701D0BF0BAF86988F01D69
S315000073C00BF0B6F8093603E0601C00F09DF9804624
S315000073D048460BF0C2F908B148F010084146601C57
S315000073E00BF0A6F848460BF098F800F01FF80121BC
S315000073F04846FFF77CFA05003E4408D0FFF70FFA2F
S31500007400C7B22846FFF7F3F900F010F83E444F489C
S315000074100178E170361B491C0170761C26702046E7
S31500007420BDE8F8430922012104F030BE01463A4680
S31500007430304606F0DDBF10B54FF49473424C584306
S315000074402318D3F8D00008B1022010BDC3F8D0101D
S315000074501146BDE81040FDF786B92DE9FC41054609
S315000074600F46002B14460CBF802600263846FFF731
S31500007470BEF980463846FFF7D2F92B464FF4947191
S31500007480314A4B43D71846F0080297F82431414653
S31500007490C0B20BF01BF8010008BF01200AD0089902
S315000074A0009100220192024697F8241123462846AD
S315000074B0FFF7B9FDBDE8F6814FF49471224A4843BF
S315000074C01118482291F824315343CA1892F8F10052
S315000074D028B991F8CC00401E8041C00F70470020AB
S315000074E070474FF49471184A4843104490F82401A9
S315000074F0704710B54FF49472134C5043204490F8E3
S31500007500CC10F9B90020FDF71DFAD8B10120FDF71E
S3150000751019FAB8B110490878002804BF087A00287B
S3150000752010D194F87F00002804BF94F8C00000280A
S3150000753008D194F8A70128B994F8E801401E8041C3
S31500007540C00F10BD002010BD4C720020327C002000
S31500007550507C0020D85B00209C740020AC55002095
S31500007560F05B0020B75C00200C670020227300202F
S3150000757075707065722D6D61632E6300FEF7DDBB5D
S31500007580FEF723BAFEF71DBA10B50446FDF7FAFE5C
S315000075902046BDE81040FEF784BA03F08CBC80B5E7
S315000075A001F07AF9BDE8014003F0AABD10B5044622
S315000075B001F0D6FB2046BDE8104003F047BC10B5ED
S315000075C0044601F034F92046BDE8104003F0A5BF9B
S315000075D010B5044601F043F92046BDE8104003F01B
S315000075E0A5BF01F028BA10B5044601F079F8204687
S315000075F0BDE8104004F088BB000010B5044601F059
S31500007600D7F92046BDE8104004F0CCB880B500F0AC
S31500007610E1FEBDE8014004F079B980B500F085FBD4
S31500007620BDE8014004F036BC10B5044600F012FB7C
S315000076302046BDE8104004F031BC38B5044600F0E1
S315000076404EFD0546204604F01DFC854288BF0546D2
S31500007650284632BD1CB5244C2448226800920121DC
S3150000766004F060FE0121224804F05CFE002304229F
S31500007670042105200BF0D9FA002304220521052058
S315000076800BF0D3FA00982168884201D0FCF7C0FDC0
S3150000769013BD10B500F00DF803F1C06304E010B59A
S315000076A000F007F803F180634868012484401C60F9
S315000076B010BD104A104B12F8304030214C431919B6
S315000076C001F10C0302EBC001704710B5094A0A4BE1
S315000076D012F83040302102EBC0024C4319195068B1
S315000076E0012383408B6110BDAC550020404105004D
S315000076F000250A004460030000A0004000281CBFCB
S315000077000020FFF7C6BFCAE74178007800EB0120EA
S3150000771080B27047F8B5002818BF0029164601D078
S31500007720412E01DB2120F2BDDFF838542860696064
S315000077300027DFF83404067012E018232A687B431A
S31500007740D41800200021C4E90401D054FF2228687F
S31500007750C418001D6180184408210AF0A1F87F1C96
S31500007760B742EADB6868710009F06EFE0020F2BDE0
S31500007770F8B500F05BF909B90220F2BD022804DA77
S31500007780DFF8E4633778BC4201D32120F2BD182527
S315000077906C4321440C78844204D10D7CEC0701D55E
S315000077A02E20F2BDDDE9064508704A80081D1A68DC
S315000077B002605A684260002044F00102C1E90425D3
S315000077C0F2BD10B500F033F909B9022010BD00F082
S315000077D016F901D3212010BD182250430844002475
S315000077E0C0E9044404704480FF220821001D0BF008
S315000077F065FA002010BD0246DFF86803016800291B
S315000078004FF6FF7000D1704730B5DFF85C4325783E
S31500007810AA4206D218235A4311440A7CD30748BF0A
S31500007820488830BD10B500F002F951B100F0E7F814
S3150000783007D2182250430844017CCA0701D5001D0F
S3150000784010BD002010BDF8B50446DFF81803056822
S31500007850002D18BF002C13D0002600E0761CDFF8A0
S3150000786008130B78F0B298420AD21827784300F032
S3150000787034F80028F2D1387CC107EFD57888F2BDFC
S315000078804FF6FF70F2BD2DE9F0410646DFF8D4024F
S3150000789005680C46F5B1DFF8D00290F80080464541
S315000078A028BF212017D2002CF0B207D11821484357
S315000078B02844027CD00709D4F0B20CE018235843C0
S315000078C000F00BF810B9387CC107F5D4761CF0B27D
S315000078D04045E8D3FF20BDE8F0812F180822214655
S315000078E0381D0BF009BA70B59E490A6892B100219D
S315000078F0182600E0491C9C4C2578CBB2AB4209D235
S31500007900734313445C888442F4D11B7CDC07F1D5B5
S31500007910C8B270BDFF2070BD01460020B3E710B5A8
S315000079200C46FFF7E0FFFF2808D0FFF77BFF28B1E2
S315000079300168216041686160012010BD002010BD12
S3150000794030B500F08BF852B100F00BF801D32120CE
S3150000795030BD00F00AF802D54180002030BD02207B
S3150000796030BD814C2578A8427047182358431044EF
S31500007970027CD307704710B504460AF0F3FCB0F555
S31500007980006F204602D10AF0FBFC02E00AF009FD76
S3150000799002E0BDE81040A6E7BDE81040BCE730B500
S315000079A0704C2168B1B1704B1D78A84210D21822D4
S315000079B012FB00F21144D1E90423D1070AD5646809
S315000079C034F8100010F4E26F08BF12F00C0002D079
S315000079D0012030BD002030BD10B500F028F861B19F
S315000079E000F00DF801D3012010BD00F049F804D5D0
S315000079F00006000F00F0010010BD002010BD5A4B1C
S31500007A001C78A042704710B500F011F861B1FFF77D
S31500007A10F6FF01D3212010BD182250430A18137C0B
S31500007A20DA0701D5085C10BDFF2010BD0C464D4994
S31500007A300968704730B500F011F852B1FFF791FFB1
S31500007A4007D2022905DA1823584313181C7CE307CA
S31500007A5001D4002030BD1154012030BD414A1268C6
S31500007A60704710B5FFF7E3FF09B9002010BDFFF717
S31500007A70C6FF02D200F004F801D40020002110BD98
S31500007A80182250430844D0E90401C2077047F0B5F4
S31500007A9001463448006808B90220F0BD324D2E7800
S31500007AA0B14201D32120F0BD1824614301440126CF
S31500007AB00027D1E90445BB4208BFB24203D0E00724
S31500007AC001D42D20F0BD0598002819BF22432B4371
S31500007AD024EA020225EA0303C1E904230020F0BDDB
S31500007AE0F8B5204B1B680BB90220F2BD00241E4ED0
S31500007AF03778E5B2BD4214D2182616FB05F51D44AB
S31500007B00D5E9046706F0030EBEF1010F07D1002A7E
S31500007B1007BF86438F4306430F43C5E90467641CCA
S31500007B20E5E70020F2BD2DE9F046FFF797FFAAB181
S31500007B300D4C94F80090002318279A4600E05B1C31
S31500007B40DCB24C450AD27C431444D4E904560540C1
S31500007B500E4008BF5545F2D0012000E00020BDE8E8
S31500007B60F086000044720020EF5B002010B5FFF79E
S31500007B70BAFEFF2804460DD0FFF773FFC00709D5EC
S31500007B802046FFF76EFF0006400E00F0010080F071
S31500007B90010010BD002010BD80B5FFF7A4FEFF2830
S31500007BA001D0012002BD002002BDFEE738B5044623
S31500007BB0FDF73AFA0546DFF82C0A837801789942F0
S31500007BC011D000F043F8641E07D0641E08D0A41E2E
S31500007BD006D0A41E032C03D905E00022194600E0B6
S31500007BE000220BF0DAF8284632BD0BF025BA10B5A4
S31500007BF0DFF8F4394C000146986A22460BF0DBF8B0
S31500007C00A04201D0002010BD012010BDDFF8D82908
S31500007C100146107B002800D1704780B5906A0BF0B2
S31500007C2078FA28B1BDE8044040F29D1100F0C2BCCC
S31500007C3001BD80B500F00AF80BF0B1F800F00300C2
S31500007C40032801D1012002BD002002BDDFF89809FA
S31500007C50806A70473EB5DFF8444A21680191B0F565
S31500007C60004F08D14FF6FF70DFF8345A298800F02C
S31500007C70DBFEBDF80000DFF86C19488300F0C4FD98
S31500007C8001D100203EBDFCF7C3FA00BF2DE9F04F3D
S31500007C904FEA501C0C4600F01F000026DFF8048A4D
S31500007CA02FE00EF1010EEF7E5FFA8EF0B84226D27B
S31500007CB0E8695FFA8EF9142717FB09F94844077A31
S31500007CC007F007076745ECD1477AB942E9DB90F838
S31500007CD001B090F8009007EB0B0AAAEB090A8A4557
S31500007CE0DFDB14B1C91B494421700AB1017A117056
S31500007CF003B11860284600E00020BDE8F08F084672
S31500007D00761C98F80650F1B2A942F5D2D8F80810B8
S31500007D105FFA86FE51F82E504FF0000E0146C2E77C
S31500007D20400918BF40F01800704738B5DFF8B8486A
S31500007D30A06A0BF0C0FA0546E80744BFA06A0BF03C
S31500007D40BFFAE80320D5E16ADFF88C59086A20B942
S31500007D504FF41A712846FCF763FAE06A016A48682C
S31500007D6020B940F26A212846FCF75AFAE26A136AF9
S31500007D70A06A5A680021904730B12846BDE83440D1
S31500007D8040F26B21FCF74CBA31BD7FB5DFF80C49E8
S31500007D9020680390694600220023002581E82C0014
S31500007DA0DFF8405828788DF80000A87A002818BF18
S31500007DB0022810D1DFF8306800F014F858B1B06A24
S31500007DC0012200210AF0EDFF00F00CF818B14FF483
S31500007DD0287100F03FFC03982168884201D0FCF727
S31500007DE017FA7FBD2979B06A6A460BF0D8B8000049
S31500007DF02DE9F047DFF8A49807468EB0D9F80000C1
S31500007E000D90FF2F0AD1DFF89C0881680A68D069B7
S31500007E10477A017A07F01F0747EA4117FDB205F0D6
S31500007E201F001B2847D20021019101AB6A46F8B218
S31500007E30FFF72CFF5FEA00081CBF019800283AD024
S31500007E40DFF8A067DFF8A0473179F8B2884231D071
S31500007E500B3D102D39BFDFF8A8090568DFF8A41916
S31500007E600D68002D1CBF2878032824D0606C85423D
S31500007E7014D002A82946062206F0BAFA656402A9B9
S31500007E80A06A0BF0A7F9B0B9A06A0BA90BF0B7F975
S31500007E90B6F91810A06A0BF063F960B9C4F82C8023
S31500007EA0206B0199884208D19DF8000060733771F4
S31500007EB0FFF76BFF7FE08A2085E0B57ADFF818A828
S31500007EC000F088FA206B38B1A06A0BF05AFA18B1A4
S31500007ED040F2D52100F01AFF019820630199C86885
S31500007EE0606318B940F2DA2100F010FFD8F82000DC
S31500007EF0A16C814219D018B940F2E12100F006FFC9
S31500007F00D8F82010086818B940F2E32100F0FEFE08
S31500007F10D8F82010A06A0A68904718B14FF4397152
S31500007F2000F0F4FED8F82000A0641C229DF80000A2
S31500007F302AA16073377104A806F06AFA606B418A59
S31500007F400901C039ADF81610417C09011439ADF8A4
S31500007F501E1004A9407C0001ADF82200F079401EF5
S31500007F608041C00F8DF82900607C8DF82A00A06A38
S31500007F700BF0D0F918B140F20F3100F0C7FEA06A3D
S31500007F80012201210BF078FA18B14FF44D7100F07F
S31500007F90BDFE00F081FCB08B00F092FCF08B00F08F
S31500007FA0A5FC307A00F05BFC00F045FD00F000FD1A
S31500007FB0284600F077FA94F90E10A06AC90509144C
S31500007FC00BF0A4FC00200D99D9F80020914201D0B5
S31500007FD0FCF71EF90EB0BDE8F087000000000000B7
S31500007FE001000000010101016400000064000000BE
S31500007FF0000000000B000000DFF8E0060079704783
S31500008000DFF8D806B0F91800002854BF05216FF034
S31500008010040108180A2190FBF1F040B270470A21CA
S3150000802010FB01F0FFE7F8B500F5D77140F27722B3
S31500008030914201D38B20F2BDDFF8AC55DFF89C46A8
S315000080402A6B0A26002A1EBFA17E01F0C0018029E4
S3150000805011D0E97B79B992F902100F4617FB06F7A2
S31500008060B842A1BF92F903100A4612FB06F28242F9
S31500008070B8BF11FB06F0297B61B10146A86A0BF077
S315000080806FF818B140F2873100F0E4FAA86A0BF0F5
S315000080908AF801E010FB06F020830020F2BD38B517
S315000080A004460B38102839BFDFF854070068DFF89C
S315000080B05417086888B10023002200212046FFF7E4
S315000080C0E5FD50B104F01F051B2D06D22046FFF733
S315000080D027FE10B928460B2800DAFF2032BDDFF84C
S315000080E0C4184008085C70477047C0B2704711F169
S315000080F0630F01DA0020704711F1240F01DBFF2026
S31500008100704764310902481101EB90618904080E39
S31500008110704770B5DFF8D044DFF808590020E064F6
S31500008120687830B1FDF72CF90246012A18BF032AF8
S3150000813001D1002070BD606BDFF86C38DFF8A464F5
S3150000814000281FBF216B09690029022A17D1E364A1
S31500008150706900F5FA707061607D18B10020002129
S31500008160642203E0E87829794FF4A0722070A28097
S3150000817061708021A878A070E180002031E0DFF8EE
S315000081802C587269A94214D1DFF82819E16402F566
S315000081907A727261617D91B90179217001258278C7
S315000081A0037990F903109540EB18CB185B1E6370AA
S315000081B00DE0E36402F5FA727261617D19B1002285
S315000081C02280642105E0417821708278627001780E
S315000081D00901A1804179A17002891201E280C0885B
S315000081E00001A06000F027FCE070A07841B20029F1
S315000081F048BF4042C0B270BD70B50446DFF8E863C0
S31500008200257896F9160008B18C2070BD3065FFF709
S3150000821080FF30766901DFF8CC23DFF80838507824
S31500008220107301F580715161987910B1AD1EEDB2F0
S3150000823003E0306D40F002003065F17B81B91878BB
S3150000824070B1607881060BD5306D40F00100306565
S315000082506FF00101B175506900F50870506102E0D8
S315000082604FF0FF30B075FDF752FF40B1FDF74DFFFF
S315000082700128316D0CBF082010200843306503200B
S3150000828000F010F96A1CB06A4FF4807392B221466E
S315000082900BF047FB6D1CA84203DA40F2075100F0D1
S315000082A0D9F9002070BD00002DE9FC41DFF83863E4
S315000082B096F916100025091D04296FF0030418D835
S315000082C0DFE801F00A0A1B1B0300FFF795FF050014
S315000082D013D000F0A9FE7AE096F91600A0420CBF72
S315000082E00121002100F0A1FEB57500F0A1FE8E204F
S315000082F06EE000F099FE8C206AE0FCF793FEE0B198
S31500008300F06CDFF8A416884217D1307EA8B1DFF8EA
S3150000831034180868002810D5DFF82C08C168C16039
S315000083200122006800F00F008240521E114204D163
S3150000833000F092FB64200BF042FBFDF72BFD80461C
S3150000834096F9160010F1010F1CBF96F9160010F1F0
S31500008350020F2CD196F91600DFF888724042B075EC
S3150000836006F019FA38620022B06A00F008F9F46CD7
S31500008370B06A3979326D002C07F10C0306D10AF088
S31500008380CEFD010005D1002125200DE000933346E6
S31500008390A047C8B10020B0754FF0FF3139628C2577
S315000083A000F046FE00212620FFF700FC0CE096F9BF
S315000083B01600A0420CBF0121002100F036FE00206D
S315000083C0B0758E2500F034FE4046FDF7E9FC2846E0
S315000083D0BDE8F6812DE9FC41B04C824E2068019043
S315000083E0FDF7D8FC0546B07A012803D12846FDF7EB
S315000083F0D7FC4DE07C4FDFF86489B86A0122012181
S315000084000AF0CFFC00F0B9F825A00188B86AADF8EB
S31500008410001069460BF065FA18B140F2ED5100F014
S31500008420B1F800F0B2F818B140F2EF5100F0AAF836
S31500008430B86A0AF053FD00212C20FFF7B7FB002194
S315000084400A20FFF7B3FB0120B07297F91610091D39
S31500008450072914D8DFE801F01717070B040F0F0FD1
S31500008460FCF748FA0FE06FF00300B8750BE06FF009
S315000084700201B97507E0892000F01EFB03E040F217
S31500008480166100F07FF82846FDF78AFC04F0DDFE51
S3150000849000F0BAF901D0FBF7BBFEBDE8F38100009E
S315000084A0040100002DE9FC417C4D4E4E044628682F
S315000084B00190B17AA14256D02FA3DFF81C8218880A
S315000084C0494FADF80000032949D8DFE801F0410221
S315000084D0362604F0BDFEB86A69460BF002FA18B1FA
S315000084E040F2336100F04EF800F04FF818B140F258
S315000084F0356100F047F87079002814BF0022022287
S31500008500B86A02210BF0B8FA18B140F23A6100F0ED
S3150000851039F80320032CB07225D000F02EF8022083
S31500008520B07200223179B86A0AF039FD18B140F20A
S31500008530476100F027F8022C15D0200018BF032C45
S3150000854011D10020B0720022B86A00F018F80AE0D3
S31500008550022C08D100F011F80220B07203E040F2BC
S315000085605D6100F00FF801982968884201D0FBF799
S315000085704FFEBDE8F38100000402B86A8022802124
S315000085800BF07ABA4046FBF74BBE02208DF800008E
S315000085906946B86A0BF084B95048807A7047000083
S315000085A0032805D8DFE800F00302030312E779E7A2
S315000085B040F27B61DFF8A407FBF732BE10B50A4C28
S315000085C0A06A0AF0F2FB94F916000028434844BF5B
S315000085D00021A175417A012902D1BDE81040F9E6D2
S315000085E010BD000040570020A85C002080B503287D
S315000085F001DB012002BD39494872897A884218BFD9
S31500008600FFF7CEFF002002BD2DE97C4FDFF87C6727
S3150000861003EA010BD6E9088929EA010528EA0004DC
S3150000862002EA000A45EA0B0544EA0A044D4508BF7A
S3150000863044450DD0CDE900230246B06A0B460BF047
S3150000864057F918B140F2A36100F004F8C6E90845ED
S31500008650BDE8738F2048FBF7E3BDDFF83017087BD2
S31500008660002800D1704710B5087D0022002318B1FC
S31500008670DFF81C2706230AE0C87C00B14022174811
S315000086800178807881421CBFDFF808472243BDE8A5
S315000086901040DFF8FC060621B6E70000AC550020C6
S315000086A0AE7F0300D067030038B5DFF89059044663
S315000086B0287B2C7578B1FFF7D0FF002C14BF002261
S315000086C00822A86A08210BF0D7F920B1BDE834408A
S315000086D040F241716EE731BD6490000040570020C2
S315000086E02DE9FC41DFF83C49DFF870860546206835
S315000086F00190022D03DB40F24D71FFF743FFDFF8D7
S315000087003C69307B002871D1DFF82C79B87A0128D2
S3150000871003D040F25371FFF735FF002107F1240023
S315000087200AF021FBB06218B940F25671FFF72AFF32
S3150000873001200AF0A1FB18B940F25971FFF722FF98
S31500008740B06A05210AF025FF18B140F25E71FFF705
S3150000875019FF4FF0FF30DFF8E82840F2A113014679
S31500008760FFF752FFB06A4FF001110AF0B5FD18B1DC
S315000087704FF4EF61FFF706FFB06A09224FF0FF31B1
S315000087800BF07AF918B140F27E71FFF7FBFEB06A82
S31500008790DFF8B0180BF0E3F8012030730223DFF89E
S315000087A0A80801887F2268460BF0E2F9BDF80000B0
S315000087B0C10548BF0020B073FCF734FCFFF774FF17
S315000087C0788BFFF747FA0BF053FA3879FFF710FB6F
S315000087D018B140F29271FFF7D5FEFFF73EFFB7F9E9
S315000087E01800FFF720FCB87900F0D0F82846FFF70C
S315000087F0D7FE00F009F801D0FBF70AFDBDE8F381CA
S31500008800185700201C57002001982168884270479D
S3150000881080B5FFF71BFA01210AF0CEFB10F5007FA9
S3150000882002D16FF07F0002BD8005001602BD10B5B3
S31500008830DFF858250446107B50B1611E8941906AC5
S31500008840C90F0AF00BFE18B140F2C971FFF702FF1B
S315000088502000DFF8E41718BF0120C87110BD38B535
S315000088600446FDF797FA0546DFF8CC07DFF81C2526
S315000088700472D07D38B9107B28B1611E8941906A97
S31500008880C90F0BF049FA2846BDE83240FDF788BA11
S31500008890DFF8A407007A7047DFF8F034187B002869
S315000088A000D1704780B5986ADFF8A01700220AF059
S315000088B0C6FD20B1BDE8044040F2F5717AE601BD7F
S315000088C00146DFF87407DFF874378183187B0028C8
S315000088D000D1704780B5986A00220AF0A1FD20B148
S315000088E0BDE8044040F6110164E601BD0146DFF82B
S315000088F04807DFF84837C183187B002800D1704746
S3150000890080B5986A00220AF07CFD20B1BDE80440DB
S3150000891040F627014EE601BD10B500F02FF8DFF84E
S3150000892018070179A06A01220AF02AFB20B1BDE8E6
S31500008930104040F649013DE610BD80B5DFF8FC1653
S31500008940886A0AF027FB18B140F64E01FFF782FE4F
S31500008950BDE80140FFF719BA10B500F00FF8DFF8CF
S31500008960D8060179A06A00220AF00AFB20B1BDE808
S31500008970104040F659011DE610BD0000DFF8BC4668
S31500008980A06A012201210AF00CBAD6E710B5DFF879
S31500008990FC230446906A21460BF0D1F9DFF89816BD
S315000089A08C7110BDD0580020452F01007890000032
S315000089B0FEB5DFF870460546206801907F2D0CD184
S315000089C04FF6FF70DFF88866318800F02DF8BDF8A5
S315000089D000007E25C10558BF0546FDF7DBF9DFF827
S315000089E0AC730646F87D68B9284641B27E2903D1A4
S315000089F0386B38B190F9040041B27E29BCBF40B251
S31500008A00FFF704F9787B00B10120DFF848160D5412
S31500008A103046FDF7C5F9FFF7F7FE01D0FBF7F8FB87
S31500008A20F7BD000024590020ADF8000002237F2284
S31500008A3068460BF09DB8DFF85413487B00B101205F
S31500008A40DFF8102610567E2805D1086B08B97F205E
S31500008A50704790F90400704700212320FFF7A6B85D
S31500008A60DFF8280390F9161003290AD10022DFF84F
S31500008A70C83582754FF0FF311962816B4020FBF7D4
S31500008A80FCBC704738B50446DFF8B05505F090FEDB
S31500008A90E863FFF7CEF801462046FFF787F8062C75
S31500008AA002D0FCF78FFC01E00020A874BDE831403D
S31500008AB0FBF720BF572F010038B50446DFF87815BD
S31500008AC0DFF8C8524FF0FF30086205F071FEE86328
S31500008AD095F91600012823DBDFF87C15487808B1E4
S31500008AE0E86B286495F9160002280CBF01210021C5
S31500008AF00020A8758D2C16BF872C26202720FFF76F
S31500008B0055F8E87B28B1A86A0AF04FF901202874C5
S31500008B1031BD2046BDE8384000220021FBF7ADBC40
S31500008B2031BD80B5FFF785F801460120FFF73EF815
S31500008B30DFF80815C87C18B1BDE8014000F09DBA01
S31500008B4001BD0000044008404C5008402DE9F8479C
S31500008B50DFF8D0948D4ED9F800000FF2085A8BB08A
S31500008B6006AA0A900321B06A0AF0F5FE040003D1B2
S31500008B7040F6923100F0CAF89DF81800DFF8B854B4
S31500008B80BDF81A8007281CBF6879002819D1B8F1EA
S31500008B90060F16DB08F108008B2812D20020009081
S31500008BA04346DFF8B874B06A3A4621460AF0DFFE5B
S31500008BB0404503D040F6AC3100F0A8F838780106FD
S31500008BC006D5FFF736F801460420FEF7EFFF92E0E0
S31500008BD0B06A01AA21460AF0C6FE18B140F6C231B3
S31500008BE000F094F8787800F00700022830D1FFF7FB
S31500008BF020F801460920FEF7D9FFEC7996F9160010
S31500008C00032822D19DF81100F8B10021B1754FF06B
S31500008C10FF302862B97801F03001202910DAB8F166
S31500008C20060F0DD17C78240904F001042146292081
S31500008C30FEF7BCFFB16B22468F20FBF71EFC5AE005
S31500008C40B16B00224020FBF718FC002C53D105E045
S31500008C509DF8110010B10020FFF702FF7978E8793E
S31500008C6098B18A0611D5287A78B1B06A0BF05DF80A
S31500008C7020B1FEF7DEFF0146062003E0FEF7D9FF2E
S31500008C8001460520FEF792FF0BE001F007010229DD
S31500008C9005D0FEF7CEFF01460920FEF787FF00202C
S31500008CA0B0743978491C414503D040F61D4100F0A7
S31500008CB02DF807EB08042879207008F10808002031
S31500008CC0FEF70FFC6070FF219DF81200A0709DF862
S31500008CD01300E07021715FFA88F10198000C607151
S31500008CE00198000AA0710198E0713846B27CFBF742
S31500008CF0C3FD0020B0740A98D9F80010884201D04C
S31500008D00FBF786FA0CB0BDE8F08700005046FBF78B
S31500008D1087BA0FF25830FBF783BA0001704710B5D7
S31500008D20DFF81403046A002C15D405F034FD041B87
S31500008D3040F2E930A4B284420DD3DFF8001391F972
S31500008D401600032803D1BDE81040002088E6BDE8E0
S31500008D5010408920B0E610BD0000000064900000BD
S31500008D6010B558B9FCF72FFBFDF714F8044600219F
S31500008D700020FEF71BFFFFF7D2FF02E0BDE8104020
S31500008D80CDE72046BDE81040FDF70AB8A85C0020F4
S31500008D90400D0380488D01002DE9F04FDFF884A2D5
S31500008DA0054685B0DAF80000049014466206984637
S31500008DB048BF002002D4200602D50120FFF7B1FEED
S31500008DC0A0029D4F9D4E009525D50021B174387A9D
S31500008DD008B300980AF0A9FFE8B9009801A90AF0BB
S31500008DE064FBC0B99DF80C00022808D1BDF8040048
S31500008DF0FEF779FDFF2808D0FEF7D1FD04E0032831
S31500008E0009D101A809F001FC28B1B06A0AF04BFBB0
S31500008E1008B90120B074A00305D5FEF70AFF014684
S31500008E200320FEF7C3FE96F916000FF23829012833
S31500008E3006DB20024FF0FF3537D596F916100129CB
S31500008E407CDB96F91600032878DAB06A06F1380258
S31500008E5000210AF0DCF905F0ABFCF0637E494878A6
S31500008E6008B1F06B306496F91600012806D0022886
S31500008E7015D10321B175282000215DE00020B075D1
S31500008E803D6200212B20FEF791FEF07B20B100F021
S31500008E90CFF80120307451E0B16B002227E040F694
S31500008EA06E114846FBF7BCF948E008F001030020C4
S31500008EB004F00062834208BF82421BD096F9161066
S31500008EC0B07502290CBF4FF0010B83460420FCF756
S31500008ED07BFA3D62594600F0A8F8F07B0028D6D10F
S31500008EE0F07D002814BF8E208D2000220021FBF784
S31500008EF0C4FA23E0A00148BF892002D4A00003D50C
S31500008F008820FFF7D9FD19E008F0040100239942F3
S31500008F1018BFFFF7A1FD08F002010023994207D010
S31500008F204F4F3968890B01F001012420FEF73EFE00
S31500008F30002C03D500212520FEF738FE200744BF6C
S31500008F400098FFF703FEE00505D5FEF772FE014621
S31500008F500420FEF72BFE14F4863F05D0FEF769FECB
S31500008F6001460220FEF722FEE00144BF0820FFF77B
S31500008F7089FD14F0884F1CBF0720FFF783FDE00032
S31500008F8044BF0620FFF77EFDA00744BF0098FFF709
S31500008F9067FD08F020010023994211D000210A2024
S31500008FA0FEF704FE0098FFF75BFDD6E9080101F025
S31500008FB0400300260027BB421CBF00200AF0C2FE69
S31500008FC008F04001002399421CBF01200AF0BAFEB6
S31500008FD008F080010023994213D0009809F0DBFEC7
S31500008FE078B1022802D0032802D005E0892000E0EB
S31500008FF08720FFF761FD04E040F6DF114846FBF7E6
S315000090000FF908F480710023994218BFFCF7B6F9EE
S315000090100498DAF80010884201D0FBF7F9F805B099
S31500009020BDE8F08FAC55002000212620FEF7BEBD1E
S31500009030B06A09F0BABE000040570020A85C0020C4
S315000090400A00A07FEF800000B27F03003C72002080
S31500009050B47F03009C5B002024590020206500207B
S31500009060044008407068792E630000006C696272E3
S3150000907061696C2E61000000000070477FB5DFF863
S315000090807C4B0FF240052268029201AB2E681E60EF
S315000090908DF805008DF807106B46012201A9042002
S315000090A00BF008F818B140F2993101F01CFA029859
S315000090B02168884208BF9DF8000001D0FBF7A8F898
S315000090C004B070BD120001002DE9F043DFF8FC7A10
S315000090D085B03E6880460C46154699460496684615
S315000090E00FF25801102205F093F98DF803408DF820
S315000090F001802C008DF80250DFF8808B01D00C2CFB
S3150000910003D340F2A73100F0D5FA2246494601A81A
S3150000911005F06EF92D1D6946E8B20AF060FF18B138
S3150000912040F2AB3100F0C6FA04983968884201D0A3
S31500009130FBF76EF805B0BDE8F083000011000000F3
S31500009140000000000000000000000000FEB5DFF88F
S31500009150AC4A0FF23C06236802936D46D6E90073CB
S31500009160C5E900738DF801008DF803108DF8042011
S31500009170694605200AF033FF18B140F2B73101F015
S31500009180B2F902982168884201D0FBF741F8F7BD91
S3150000919011000100000000003EB5DFF8604A0FF242
S315000091A04402034620680190694615680D600C224A
S315000091B0D878C0438DF801005879C0438DF8020075
S315000091C0D879C0438DF8030004200AF073FF18B164
S315000091D04FF4717101F087F900F032FC01D0FBF712
S315000091E017F837BD82000000FEB5DFF8104ADFF839
S315000091F0486B21680191012205468DF8002009215E
S3150000920006F10C0006F024FC06F10C03092202F01C
S31500009210A7FADFF8687A18B140F2CD3102F0B4FC53
S3150000922085B10B2106F1180006F012FC10208DF80E
S31500009230000006F118030B2202F092FA90B14FF4E7
S3150000924075710DE00A21304606F002FCFE208DF80D
S31500009250000033460A2202F083FA18B140F2DB31ED
S3150000926002F092FC00F0ECFB01D0FAF7D1FFF7BD5B
S31500009270DFF8C41A487E0A7E897E000440EA02604E
S3150000928040EA01207047DFF8B00AB0F80D1048BA7E
S3150000929080B2704710B5DFF8A04AE07C227A90428F
S315000092A003D040F20C4101F01EF9E07C10BDFEB582
S315000092B0DFF848490FF23802054620680290D2E9E5
S315000092C00037CDE900370E462F46052F03DB4FF456
S315000092D0856101F008F969466D1CCE55E8B20AF0C1
S315000092E07EFE02992268914201D0FAF791FFFEBDF7
S315000092F01300000000000000FEB5DFF8D068144639
S315000093001D4632680FF25C03019202001B88ADF81D
S31500009310003018BF01220B0018BF01236F4643EA35
S3150000932042037B70DFF8882B11B100215184516212
S3150000933008B1002010846B46022200F014F818B120
S3150000934040F24F4101F0CFF814B19DF800002070B3
S315000093500DB17878287001993068814201D0FAF70A
S3150000936057FFF7BD1500694602200AF0A3BE10B5E7
S3150000937004466079E178002808BF002907D001B1CA
S31500009380012100B1012000230022FFF7B5FF20468E
S31500009390BDE8104000E770B50446DFF8E05812E07B
S315000093A0112803D04FF48E6100F074FDA678361DA7
S315000093B02146F0B20AF013FE18B140F2734100F0F4
S315000093C069FDF6B2344420780028E9D170BD2DE954
S315000093D0F84FDFF8F887DFF8D89A044686B01F46BC
S315000093E0D8F800000590164699F8183099F8192013
S315000093F00D469C4299F81B0099F81A1008BF954231
S3150000940003D18E4208BF87423AD00FF288034FF04D
S31500009410000ED3E900AB02AB7840CDE900AB71405A
S31500009420F246D34683E8004C6A40384031402A4031
S315000094308DF80F008DF80B108DF80D208DF8044077
S315000094408DF805608DF806508DF8077002A8FFF7B5
S31500009450A3FE694608200AF0C2FD18B140F2B641E3
S3150000946001F041F8DFF84C0A89F81840847589F84C
S315000094701950C57589F81A60067689F81B70477603
S315000094800598D8F80010884201D0FAF7C1FE01F01D
S315000094908DBA000011630400000000001CB5DFF85F
S315000094A02C470FF2340220680190694612788DF835
S315000094B0002001200AF093FD18B140F2DD4101F0D1
S315000094C012F8DFF8EC190020087300F0B9FA01D0A1
S315000094D0FAF79EFE13BD00008C0030B50246DFF899
S315000094E05808816A39B10B789A4224BF487890426D
S315000094F001D3084630BDDFF8903B9B79D8B280B1E6
S31500009500DFF8840B84685B1EDDB254F825008842C0
S3150000951018BF0028F2D00578AA4224BF44789442A6
S31500009520ECD330BD70B5044619B9FFF7D6FF01007C
S3150000953011D0CB69002200E0521CC87E82420ADAB2
S31500009540142555435819F7D05D5DAC4224BF4678C3
