S00E00006E63702D7370692E7333372C
S3150000000018E20020551C0300C96E00007917030092
S31500000010A70A0A010001000004180FAC10681001BD
S3150000002000000000000000000000000000000000CA
S3150000003000000000E42103000000000000000000B2
S315000000400000000000000000FFFFFFFFFFFFFFFFB2
S31500000050FFFFFFFF00700700000000000000000027
S31500000060FFFFFFFFFFFFFFFF010000000000000091
S31500000070000000000000000000000000000000007A
S3150000008000000000000000007CFF00207CFF002034
S3150000009018E20020444503006E1C0300B8D8002077
S311000000A09C2D002000000800000000005D
S3150000010018E20020551C0300C96E00007917030091
S31500000110E18500007D170300811703000000000041
S31500000120000000000000000000000000570400006E
S31500000130851703003703000063180000F72100004D
S31500000140BD8700004BA80200F92300008D170300AD
S3150000015011A3020087A8020051A8020053A80200BA
S315000001604DA8020065230100D5250100077B00008C
S315000001700B4800008D1703008D1703005719030065
S31500000180432500008D170300E32501008D170300AA
S315000001908D1703008D1703008D1703008D170300BD
S315000001A08D1703008D1703008D1703008D170300AD
S315000001B089A802004FA80200951B0300FD1C010040
S315000001C0B9A802008D170300851B03008D170300D5
S315000001D08D1703008D1703008D1703008D1703007D
S315000001E08D170300E3310000DB4400008D17030088
S315000001F08D1703008D17030000000000005603480A
S31500000200016830BF41F000410160704700BF4C31CA
S315000002100E400F48816B89B201B1012141F671325E
S31500000220826346F21A32036843F001030360C26434
S315000002304FF4807343604269D307FCD40022C26442
S31500000240C9B203685B085B00036001B182630020EA
S31500000250704708000E4000002DE9F84F8046DFF891
S315000002607C90FF222421484600F048F8DFF870B061
S31500000270FF224FF49571584600F040F819481A4F7E
S315000002801A4C00904FF0240A0026A25D1849BD5D65
S31500000290885D521C02EBD272521000B11932154819
S315000002A030F816100098D21C6A4300F06EF8012D43
S315000002B01CBF2BF816A0AA44761C242EE5DB2423AB
S315000002C04FF480524FF4B0610B4800F05EF8494697
S315000002D04046BDE8F44F00F0AEBB00BFDCE80020AE
S315000002E0DCE90020701C0300D81E0300B41E0300C6
S315000002F0901E0300481E03008C1C030062F30F22AD
S3150000030062F31F4200B500BF1300964694461039AB
S3150000031028BFA0E80C50FAD85FEA417C28BF0CC081
S3150000032048BF40F8042BC90728BF20F8022B48BF56
S3150000033000F8012B00BD70473D49087070472DE954
S31500000340F041160088463A4C1CD0A078677865685C
S315000003503F1AFFB2F3B2BB42B8BFF7B23A464146C4
S31500000360281801F033FAA378FB18F61BA370B844DB
S31500000370F0B238B1A11C284601F075FB0028E4D084
S31500000380012000E00020BDE8F0810EB430B5284D14
S3150000039004462878A0B0B0B101F0EFFA98B18021F8
S315000003A0684669706860022101F0EDFAA87023AB17
S315000003B0224600211F4801F0DCFB6868A91C01F0F9
S315000003C052FB00B9A87020B030BC5DF810FB1A488B
S315000003D000210022002380E80E007047164931F8FC
S315000003E01020521C21F8102070470CB480B502AAC8
S315000003F001F0F8FC01BC5DF80CFB0D4A1178A1B9BF
S31500000400010018BF012810D0042818BF05280CD0F9
S31500000410312818BF332808D037281EBF3B284FF68F
S31500000420FF71884201D0012070470020704700000C
S3150000043030F500203F03000038F50020302818BFB3
S31500000440322806D034281CBF3628382801D0002090
S31500000450704701207047FEE730B5DFF8485ADFF8ED
S31500000460484A2B882468C01A04EB4004002004E0A4
S3150000047034F8103021F81030401C9042F8DB002090
S3150000048030BDDFF8203ADFF8201A1A880968801A8A
S3150000049001EB4001022001F0CDBDF8B504460F4640
S315000004A01646DFF8045AF0B208B34FF6FF70ADF8FF
S315000004B00000002017F8011BC3B2401C0DF8031002
S315000004C0761EC1B2022902DAF1B20029F2D1DFF8B2
S315000004D0D4E92868BEF800301FFA84FCACEB0303AD
S315000004E000F01CFF641C0100DDD000F0EBBB012016
S315000004F0F2BDF8B504460D461646F0B288B10122A3
S3150000050000F010F8641C0020C2B2401C1DF8023036
S31500000510761EC7B2022F05F8013BEEDAF1B20029CA
S31500000520F2D1F1BD6946A0B296E70146DFF87C0933
S31500000530DFF87C29405C525CDFF8C03B595C09B1AE
S3150000054002F5997240EAC21080B2704710B5DFF822
S315000005505C39DFF8AC2B1C5C012C1CBF32F8100098
S31500000560081802EB400010BD70B590B005460C4669
S315000005704FF6FF7604E0A8B2FFF783FF203D203553
S31500000580A9B28C420DD3202201F00AF8002082B2D3
S315000005903DF81230B342EED1401C81B22029F6DB81
S315000005A0EDE710B070BD10B5044661882088FFF7EE
S315000005B0DBFF0121DFF84C2BDFF84C3BA1712088D3
S315000005C011784118188801EB4001891DA18010BDE2
S315000005D010B5DFF8384B00F087F800F040F900F06E
S315000005E03BF9DFF8840C04F10801446004F11002C1
S315000005F08160C26010BD2DE9F0430446DFF8040BAC
S315000006000778B946B9F1060F85B003DD4FF43771A7
S3150000061000F010FB0021A1717A1C208892B201A97A
S31500000620FFF71AFFBDF804104FF6FF76B14218BF68
S31500000630002910D00DF10408711A38F81900884203
S3150000064009D101254D454BDA38F8150040B1BDF802
S315000006500410884214D000F047F805B0BDE8F083D6
S31500000660DFF8081C0A88208812FB052141186A4316
S315000006707118101889B280B2FFF776FF0221A171B6
S315000006806D1CDFE72088381800F08EFFBDF80200E9
S31500000690000B4845DFD120883818401D00F085FF43
S315000006A0BDF80210BDF80200711A000A01F0FF0140
S315000006B08842D0D10320A071012220883F187F1CD8
S315000006C06946B8B2FFF7C8FEBDF80000FF2802D1A0
S315000006D00421A171C1E7B042BFD00028BBD1BCE75D
S315000006E0A0790228CED1B8E720465CE7F8B5DFF856
S315000006F01C4ADFF8745B002004F1080104F11002C3
S31500000700A071A073A075A960EA606C602046FFF72F
S3150000071072FF04F10800FFF76EFF04F11000FFF707
S315000007206AFFA179A07BDFF88067042908D100223F
S315000007300428ADF8002046D1FFF74AFF0120F2BD9C
S31500000740A17D04282BD100200429ADF80000F3D0A8
S31500000750FFF7CAFF00F080F83068DFF8A869238940
S3150000076000F080F8060040D10320A073A07903288A
S315000007704AD1A07B032802D1A07D012863D0A079AD
S3150000078001284AD1A07B032854D1A07D012818BF97
S315000007900328D1D104F1080004F1100157E004291F
S315000007A02BD10020ADF80000FFF79EFF00F057F8B0
S315000007B03068DFF85069238A00F054F8060014D137
S315000007C00320A07519E0A07D0428B5D000F047F8F5
S315000007D000F042F83068DFF82C69238800F042F810
S315000007E0060002D10320A0710AE0304601F0A9FC00
S315000007F01EB14FF4747100F01DFAA0790328B5D12B
S31500000800A07B0128B5D1B7E70228B8D1A07B032881
S3150000081004BFA07D01288FD1BCE7032804BFA07BBD
S31500000820012889D1A07D03280BD104F110002146AF
S3150000083008340CE0022812BF0128A07D0328F0D15D
S31500000840F3E70228EDD1204604F108011034686070
S31500000850EC60A9600020F2BD04F11000A3E604F1EB
S315000008600800A0E63778DFF83C66FF1833887F1C5F
S31500000870FF1A0122694600EB470001F006BC2DE98C
S31500000880FE4F0646DFF87C08DFF8888ADFF8889A8C
S315000008900F460178ADF80810012234880C19641D42
S315000008A0FFF740FEDFF86018BDF80000B1F800A0C1
S315000008B0641C000AADF8000050451CBF01213970C8
S315000008C000251AE0401CC1B2514514D25FFA80FBE4
S315000008D039F81B10BDF806209142F3D1C0B2FFF7DC
S315000008E024FEBDF804304FF6807210401340984243
S315000008F008BF08F80B506D1CADB2BDF8000085426C
S3150000090006DA022201A9FFF70EFEA41C0020DAE790
S315000009100020D14601E0401C80B2484517DA18F89D
S3150000092000108142F7D00120387010E021F815A0A0
S315000009300DE00128DFF8C817F8D0BBF17F0F31F8BA
S31500000940150008BF4FF0000B584421F810A0A1B2C3
S315000009507088C01E88424FF6FF7A28DB00F066F8E2
S31500000960BDF80200FF25504521D0601C00F0D4FDE3
S31500000970BDF80200BDF80610AAEB0002914213D1A1
S3150000098004F1030A040A00F07F0BBDF8000084425C
S315000009900ADA002000E0401C484518DA18F8001072
S315000009A0A142F8D1C5B212E0012038700DE0B48042
S315000009B07088A1B2884208D300F038F8BDF802006A
S315000009C0641C5045F4D001213970BDE8F78F30889A
S315000009D0BDF80830181800EB4400801D012201A95B
S315000009E080B2FFF739FDBDF80400C0F3C710401C04
S315000009F000EBD0700AEB60047088A1B28842D3D3B2
S31500000A00FF2DA4D0DFF8A404405DBBF17F0F14BF17
S31500000A1059460021814286DABDF80210DFF8DC264D
S31500000A20535D0906C90F994283D07CE701220DF177
S31500000A300201A0B210E5F8B58DF80000DFF8AC1B96
S31500000A40DFF86004DFF8C0460288DFF8C0060280DF
S31500000A500B884380DFF8AC361D782188DFF8903BA1
S31500000A60DFF8904BAA1802EB4102921D8280002209
S31500000A7082711A880281AA1802EB41022388DFF8E4
S31500000A80784B4381921D828100228273DFF86C3B92
S31500000A901A880282AA1802EB4101891D2388DFF811
S31500000AA0C847818243820021817501F09FFB00289F
S31500000AB053D12070FFF71AFE9DF80010084318BFA7
S31500000AC001208DF800000122606800882818801C2B
S31500000AD0A11C80B2FFF7C0FC9DF8000000283FD1A2
S31500000AE06068DFF81C766946FFF7C9FEDFF8880BF9
S31500000AF00688A0688179032924D16946FFF7BFFEDD
S31500000B006168DFF8A823002012E0DFF8FC351B88B7
S31500000B10984202DA135C012B09D137F81030B1F88C
S31500000B2000C0634524BFB1F802E09E450AD2401CCE
S31500000B30B042EADB02208871A1686068E268616001
S31500000B40A260E06000204FF6FF7200E0401CB04259
S31500000B5006DA37F810109142F8D101208DF800001E
S31500000B60607828B1012100208DF80010607018E02F
S31500000B709DF8000090B960680388ED18ED1C01220D
S31500000B800DF10201A8B2FFF767FCBDF80200C0F341
S31500000B900310012808BF8DF8000002D09DF8000060
S31500000BA0B8B14D2001F0CDFA6088401C6080E06845
S31500000BB0FFF7F9FC9DF8000000F051F838B100F09D
S31500000BC085F820B19DF8000000F0A2FA08B90120CE
S31500000BD0F2BD0020F2BDF8B50D46DFF82C1517461C
S31500000BE07F2F0A8808BF00271E4695423EBFAF4B9F
S31500000BF0595D8F42044604D2AD4A535D9E4200D1F0
S31500000C001CB940F2646100F015F839462846FFF732
S31500000C109DFCDFF8641B0388485D28B11946284609
S31500000C2000F0C9FC2060F1BD324621461846BDE8F9
S31500000C30F8405EE40FF67C3001F0E0BA38B50446C1
S31500000C4008461146FFF782FC964D0388DFF82C1BF9
S31500000C5028880A681B1A02EB4302226031BDF8B5E8
S31500000C60DFF80416904CDFF8B056002814BFC868A9
S31500000C708868DFF8901400880A788618B61DB6B220
S31500000C80002701E0B61C7F1CDFF87C0401888F4238
S31500000C9016DAF8B2FFF749FCADF80000B3B235F842
S31500000CA01700DFF8DCCABCF800E0ADF80200A3EBE1
S31500000CB00E032068022200F032FB0100E2D001E0C0
S31500000CC00120F2BD01F03DFA0020F2BD2DE9F84FFA
S31500000CD0DFF83404DFF890250188D068DFF8242493
S31500000CE0714C137884B00025ADF808100188BDF862
S31500000CF00800CE1806EB4006B61DB6B200E06D1C25
S31500000D00BDF80800854280F2C2804FF0000A78E004
S31500000D10BDF802105FFA8AF00143ADF802104FF6F3
S31500000D20FF72BDF802005F490F88BDF80010121A65
S31500000D30ADF804204FF6FF732068F21B761C99422B
S31500000D4000EB4200B6B21DD100F0BBF801002BD17A
S31500000D502068F71B012201A900EB470001F095F975
S31500000D60010021D1B61CB6B25148DFF8181AA8F80E
S31500000D700060425D51F825103046FFF78EFB0028D3
S31500000D8038D18DE04A49495D491C01EBD1714FEAE2
S31500000D90C15900F096F8010006D12068F31B012224
S31500000DA001A900F0BDFA010077D1B61CB6B2D3494D
S31500000DB0A8F80060485D002843D0DFF8AC2410781E
S31500000DC00021039128B103AA6946A8B201F012FADC
S31500000DD005E0BDF80010E8B200F0EDFB0390F71B4C
S31500000DE020684FEA196203A900EB470001F04DF9AC
S31500000DF0010052D1DFF89009415D7618B6B20AF1CA
S31500000E00010A2A48475D5FFA8AF1B942BFF477AF13
S31500000E10E8B2FFF79BFB8046B849B8F80000ADF88A
S31500000E200000485DC00140EA0520012FADF8020030
S31500000E307FF46EAFBDF8020040F07F00ADF802000F
S31500000E406DE74FF000085FFA88FBBBEB196FD1DA4C
S31500000E50DFF8141408780028BDF8000004D100F06B
S31500000E6029F8FFF7F9FA03E000F024F801F0C0F9D9
S31500000E702068B344ABEB070301220DF1060100F035
S31500000E804FFA010008BF08F10108DCD005E0DFF8E1
S31500000E90D803C1688E80012002E001F052F90020DB
S31500000EA02FE30000E624030070E20020D81E0300B2
S31500000EB0B41E0300411CADF8001001220DF106011D
S31500000EC0704701220DF1020101F0DFB82DE9F34F61
S31500000ED085B000218DF803104FF00C09DFF8AC58EF
S31500000EE0BDF81810DFF8A868DFF89C385B5C298825
S31500000EF035684C0891FBF9F9A1444D45039302D39B
S31500000F00DB18039309E0182691FBF6F1641AA54253
S31500000F1003D303EB530189B203910025D24CADF8FC
S31500000F2006008DF8042000E06D1C774801888D428C
S31500000F3080F2CF80002687E0012202A91FFA88F0FE
S31500000F40FFF78AFAA3680498DFF834E8B3F804C018
S31500000F50BEF800300068DC44ACEB0303012202A9B2
S31500000F6000F0DEF9010008F1010858D10AF1010A82
S31500000F705FFA8AFBBBEB176FDEDB38E01A468DF8AB
S31500000F800220BDF806309A18ADF8062001235B4A08
S31500000F908DF80330505DC30143EA0523BAF1010F12
S31500000FA0ADF8003040F08B80BDF8002042F07F02A3
S31500000FB0ADF800208A88D21C8A800028DFF8BC178A
S31500000FC0049100F083804146E8B200F0F4FAA36889
S31500000FD0DFF8ACE702903A0E04989F88BEF800301E
S31500000FE00068FB1A02A900F09BF9010017D1BDF8B1
S31500000FF00000A368DFF884774FF6FF71091AADF891
S3150000100008100122DFF878179B88B1F8008038684D
S315000010109B1EA3EB080302A900F082F9010066D12A
S31500001020A3689B883868DB1EA3EB080300F076F9FB
S3150000103001005CD1A0688188A9F8001082889DF81B
S31500001040021051188180761CF1B2DFF8480710F8BB
S3150000105005A05145BFF468AFE8B2FFF777FA8146BD
S31500001060DFF83407475DBDF81800B9F800807F1C2B
S3150000107007EBD777FF05854202BF9DF80410F0B253
S315000010808842E0D060680188884524BF4088404592
S31500001090D9D3BDF806100398814226DADFF8E82690
S315000010A0A168535DB1F804C048889C440CF1030262
S315000010B09042BFF663AF01206070452017E0BDF88F
S315000010C00030F2B21343ADF8003073E74FF0000A78
S315000010D04EE79DF8030040B960680221817160689F
S315000010E0A168E2686160A260E060012002E001F0B0
S315000010F028F8002007B0BDE8F08F0000901E03001E
S31500001100DCE90020D9420300AC42030094E500204C
S315000011102DE9FE4F5FEA0009534DDFF8607614BFF4
S31500001120E868A86801220188DFF870060088029145
S31500001130C0F1FF0101F0FF0141EA0021ADF8021004
S31500001140DFF85C06029990F800A0DFF834060688FE
S31500001150386801EB0A04631D9B1B0DF1020100F0C8
S31500001160DFF8010059D140F6227040EA0A30ADF8A6
S315000011700200E31C38689B1B01220DF1020100F0FE
S31500001180CFF8010049D13868A31C9B1B0122A91C7A
S3150000119000EB430000F079FF01003ED1601CA0EB9C
S315000011A006085FEA09004FF6FE7B07D0FF21ADF87F
S315000011B0021000F05DF801002FD109E06868008890
S315000011C001226946FFF748F9BDF80000012802D15F
S315000011D0ADF800B002E0411EADF800104FF6FF7208
S315000011E0BDF80000121AADF80420A41B38680122CD
S315000011F001A900EB440000F048FF01000DD1029C5C
S315000012005046A0F1010A80B288B1386814FA8AF310
S315000012109B1B00F083F80100F2D000F092FF002043
S31500001220BDE8FE8FA968032088710120F8E7B9F1AF
S31500001230000FF7D0E968032088716868FFF7B3F9F3
S31500001240A868FFF7B0F9EA686868A968AA60A860A4
S315000012506960E8606A600020ADF80200E96000F0AD
S3150000126007F80100D9D1E0E744F50020E2240300A5
S31500001270012238680DF1020100EB480000F005BFBD
S31500001280FEB50446DFF80005455CA0881346628873
S315000012902E18F61CB24205DADFF808250121517036
S315000012A0452033E0C01CDFF8F024A08080B2525CF9
S315000012B01946FFF7F2F860B3DFF8C404DFF8BC7430
S315000012C00688A3883868DB1E9B1B012202A900F052
S315000012D027F801001AD1BDF808004FF6FF71091A68
S315000012E0ADF800100122A38838689B1E9E1B694634
S315000012F000EB460000F0C9FE010007D10898A1885E
S315000013000180A0884019A0800120FEBD00F019FFD1
S315000013100020FEBDDCE80020481E030001226946CD
S3150000132000EB430000F0B1BE2DE9F84F84B005464E
S31500001330894690461C4601F091F8DFF86024138830
S315000013408DF804500127ADF80830B8F17F0F9DF8ED
S315000013500410BDF80800039508BF4FF000088DF88B
S31500001360054081423FBFDFF82C14039A8B5C9845F9
S3150000137007D2DFF824148B5C9C4202D1B9F1000F2E
S3150000138003D140F6D901FFF755FC9DF8040041460C
S31500001390FFF7DCF801250646DFF80C048179B6F87C
S315000013A000A002291FBF817B0229807D022802D16D
S315000013B0432000F0C6FE039ADFF8BC13885C0028C1
S315000013C033D09DF80400514600F0F5F8D9F8001026
S315000013D0814257D0AAF1030000F09EF8DFF8C4530B
S315000013E0DDF80CC06C68DFF8A033628813F80C10C7
S315000013F0A088D21E521A824207DB30B1A868018843
S315000014008A45A4BF4088504572DBE8688179AC689C
S31500001410022938D1442000F094FEE8688179012938
S3150000142031D0452000F08DFE53E09DF805404FF089
S31500001430000B21E00BEBDB700AEB600000F05DF9BE
S3150000144009EB0B0019F80B10407801EB0020611E28
S315000014508B4507D1BDF8001001F0FF0100F0FF0039
S31500001460ADF8001080B2BDF8001088420BF1020002
S3150000147018BF00255FFA80FBA345DBDB002D8DF846
S315000014800540A7D03DE0A8688179012915D1002043
S31500001490FFF7E5FB002834D00020FFF739FE0028CF
S315000014A02FD0BF48BDF8085003789DF8041003EB11
S315000014B04500C01D424680B205E003290FD19DF8C4
S315000014C0041042460020FFF701FD10B100F01CF8A1
S315000014D0B8B93846471EC0B2002810D111E002291B
S315000014E00CBF40F6C81140F6CA11FFF7A3FB08E08F
S315000014F000F00AF828B93846471EC0B200287FF423
S3150000150044AF05B0BDE8F08F0096BDF806309DF8F3
S3150000151004104A462046B3E601220DF1060180B2C8
S31500001520FEF79ABFF8B505469E489D4F43681C884E
S315000015303B78E01800F038F8BDF802000026C0F34A
S315000015400310012811D1192400F029F8BDF8000074
S315000015506D1C30B14FF47F41401A17D0FF3813D0BD
S3150000156016E0B61C641EEFD10EE0192400F017F841
S31500001570BDF800006D1C20B14FF6FF71884203D004
S315000015800BE0761C641EF1D170B2F2BD761CFBE74F
S31500001590BDF80000C0B200B9761CF643F4E701229C
S315000015A06946A8B2FEF758BFC01C01220DF1020120
S315000015B080B2FEF751BF38B50C460021764B00913C
S315000015C069461D5C2A4620466D1CFEF792FF05EB18
S315000015D0D57504EB6504A0B2FFF7A4FF00280099B7
S315000015E048BFC04341FA80F032BD0000EA24030040
S315000015F0A4420300A6420300AA420300A842030035
S31500001600F8B5664A138804466848254630F81560DA
S315000016109C4202D25849485D18B940F68321FFF72B
S3150000162009FB5D494D5D681C00EBD07006EB600759
S31500001630B8B2FFF777FF0346192B0FD20020DFF869
S3150000164040C1DFF838E1ADF8000013FA87F7BCF8BF
S315000016500030DEF80000FFF70BF960B13146204696
S31500001660FFF7A9FF00902B46401C00907F22694699
S315000016702046FFF759FEF1BDAE4203007CB5054694
S3150000168047480678344621464C1EC9B228880229A6
S3150000169025DB50FA84F000F030F8BDF80000002891
S315000016A0F1D0434829880288E6B27243521890B2B4
S315000016B0FEF7E7FE0020ADF8000001222D882F4836
S315000016C0006875192E4E3388ED1A694600EB450001
S315000016D000F0DBFC01000ED000F033FD0BE0FEF75E
S315000016E0D0FE0120A8712D4A29881088891901EB9E
S315000016F04001891DA980E0B276BD0122694680B20B
S31500001700FEF7AABE28488179022908D0817B0229E2
S3150000171008BF083003D0817D022901D11030ADE722
S31500001720002070477CB504461D48067800250CE06D
S31500001730208850FA86F0FFF7E0FFBDF80000002889
S315000017401EBF4FF6FF7188426D1C3046461EC0B262
S315000017500028EDD1E8B276BD13488179022908D078
S31500001760817B022908BF083003D0817D022901D17F
S315000017701030D7E700207047901E030070E200206B
S31500001780E62403004C210300C01C0300DE240300F2
S31500001790BC1C0300D81E0300B41E0300AC420300A9
S315000017A0D942030044F5002094E50020DCE900203E
S315000017B0E224030073696D2D656570726F6D322DBD
S315000017C0696E7465726E616C2E63000081423ABF69
S315000017D05318984200F062BE8018990707D0521E2F
S315000017E024BF13F8011D00F8011DF6D870478107C4
S315000017F01BD1103A07D330B433E93210103A20E93E
S315000018003210F9D230BC1032121F24BF53F8041D17
S3150000181040F8041DF8D838BF121D521E24BF13F815
S31500001820011D00F8011DF8D87047121FF3D3C10738
S3150000183009D153F8041D121F20F8041D4FEA314147
S315000018404180F6D2E7E753F8041D121F00F8041D85
S315000018504FEA3121A0F801104FEA3141C170F2D2AE
S31500001860D9E7FEE780B501218D4800F03BFF8D48A2
S3150000187001210160002001F05AFB0123042202210C
S31500001880052001F098FB0120FEF756FD00F011F847
S31500001890FEF79DFD84490120087001F08DFC0123AF
S315000018A040228249824801F052FC82490860C00FFA
S315000018B002BD70B501220121042001F0CDF97E4858
S315000018C07E4C01687E4D7F4E41F001010160002192
S315000018D0C26842F08072C26002227B4820602960A2
S315000018E031607A487A490A6000F02CFF79497A4AD1
S315000018F07A4B0818B0FBF2F0401E186000212964EC
S315000019004FF48072764877492065316076480260E8
S315000019102B6843F480732B6070BD38B501F058FC1A
S31500001920614D29780024022912BF01240321297060
S3150000193001F054FC04BB63480168CA070ED56B4925
S315000019400B6823F440630B60016849084900016095
S3150000195002681102FCD4642001F045FC002200213B
S31500001960042001F079F95A495F4B0020086018609D
S315000019700122514908602A7031BD4F48006800B104
S315000019800120C0B27047D12202704170090A8170ED
S3150000199057490A78C2700420521C0A7070472DE914
S315000019A0F14F82B04D1D01F095FC002400904FF6DA
S315000019B0FF7ADFF84081DFF808913F4E1DE002987C
S315000019C00019514610F8027C384601F00BFD82469C
S315000019D05C463C480168CA070FD5F06840F0807045
S315000019E0F060D9F8001041F48071C9F80010D8F8F9
S315000019F000000028F1D088F80070316851B3E0B2D9
S31500001A00E9B2884226D201F065FC0099401A80B2FC
S31500001A1040F2F512904223DAE0B210B95B270124B6
S31500001A20D7E7012802D16F1F0224D2E704F1010B88
S31500001A30E8B2E4B2C11E8C4208BF5746C8D0821E27
S31500001A40944208BF4FEA1A27C2D0401E8442B6D13C
S31500001A505D27BDE7E4B2EDB2AC4208BF002000D07E
S31500001A600120BDE8FE8F10B50C460022217805291D
S31500001A7002DBFFF794FF024604202070104610BDDB
S31500001A8080B50C4B186890B04022694601F046FBC1
S31500001A9020B1C2B26946122000F060FA11B000BD52
S31500001AA000350A001088144251FF002038F4002047
S31500001AB04423030004E40020F0ED00E0B00F00E052
S31500001AC0000E00E0800E00E055CEACC506000E000C
S31500001AD0F00004E0FCAC0600F8590D00100004E02C
S31500001AE0FF0300400D000100040304E0001000E0C5
S31500001AF050FF0020200000E070B513461044DCB211
S31500001B0064B101F00F060909451E0A2EACBF372441
S31500001B103024A41928462C705B1EF0E7104470BDD3
S31500001B20F0B5002341B1002806D52D2313700123FB
S31500001B30B0F1004F18BF4042002100248A4D002614
S31500001B4001E0C01B761C55F82470B842F9D2F7B2F2
S31500001B500FB90F0004D0D9B2303656545B1C0121A0
S31500001B60641C092CEBDBD9B2303050545B1CD8B264
S31500001B70F0BD2DE9F84F824696B04FF0000914A843
S31500001B80884617461D4604ACCB46019012E04FF03E
S31500001B90010B074600E004460198844209D39DF8EC
S31500001BA00020A41A00F0D4F8002851D159FA84F97B
S31500001BB004AC7F1C04A88DF800009DF8000039785D
S31500001BC0201A00290FD0252905D05FEA0B0208BF8D
S31500001BD004F8011BE0D05FEA0B0114BF4FF0000BC5
S31500001BE07F1C39780A0000F0A680B1F1250216D0D4
S31500001BF00B3A092A40F28080283A75D00A3A12D068
S31500001C00521E3CD0521E57D0083A55D0121F39D01A
S31500001C10D21E37D0921E4FD0D21E65D0BCE72520EB
S31500001C2004F8010BB8E729686A680391204608356D
S31500001C3002920024029A9442ADD20399095D0222CF
S31500001C40FFF75AFF0199884206D300F085F800286D
S31500001C507AD159FA86F904A80299491E8C423CBFEA
S31500001C60202200F8012B0199884206D300F074F86F
S31500001C70002869D159FA86F904A8641CDAE755F8F0
S31500001C80040BCDE755F8046B044600F061F8002814
S31500001C905AD159FA84F9314604AC064600E0761C5E
S31500001CA0F0B2085C0028FAD1F2B24046D0470028CC
S31500001CB04AD159FA86F96FE76C290AD17A7855F82C
S31500001CC0040B752A0EBF00210121642A07D17F1C4F
S31500001CD005E0752955F8040B0CBF002101212246A9
S31500001CE0FFF71EFF241857E755F8041B0222C9B256
S31500001CF02046FFF701FF4EE77878782818BF582866
S31500001D004FF0010BEFD17F1C781E32294FF0000BEC
S31500001D1004D155F8040B81B20422E9E734297FF493
S31500001D2036AF55F8046B0422310C2046FFF7E4FE6B
S31500001D300422B1B2DDE70546EAB200F00AF818B9A6
S31500001D40A9445FFA89F000E0002017B0BDE8F08FE3
S31500001D50E2B204A9404650479DF80020861AF2B226
S31500001D6004A940465047000020230300FFF788BE21
S31500001D7003460A469FA10420FFE70CB480B502AAD9
S31500001D8000F030F801BC5DF80CFB0A00034602D0F7
S31500001D9099A11120F1E7704780B586B001F06EFD7C
S31500001DA0102204920021954A00926823059103931C
S31500001DB0029101910246002394A10120FFF7DDFF65
S31500001DC08F488179028843790391029201930179C0
S31500001DD0C3788278009142208FA1FFF7CEFF07B02B
S31500001DE000BD00002DE9F04786B007460C46914637
S31500001DF0FEF703FB002640BBFFF7BFFD28B300211B
S31500001E00002002F07EF8ADF80400F0B1002101A830
S31500001E1002F0C0F9394602A8FFF7B5FD002C0746C7
S31500001E203AD100F094F880B9BDF8040001F0C6FF7D
S31500001E308DF80000BDF8040001F0A8FF6946FFF721
S31500001E4012FE10B10420FEF7C9FA06B0BDE8F0870D
S31500001E508DF8081001271EE0BDF8040001F0AEFF62
S31500001E6059F8045B8046A8B2A8B101F0A7FF8246E4
S31500001E700AEB0801C9B201A802F08CF90028E4D1E6
S31500001E805FFA8AF000900023BDF80400AAB25FFA58
S31500001E9088F102F00BFA641C20780028C1D0A0F16A
S31500001EA030010A2904D20A2101FB0606303EF2E778
S31500001EB000F04DF80028C8D121780027422902A851
S31500001EC00ED044291AD0462925D057290DD062298B
S31500001ED0C2D0662930D06C292BD070292CD0B7E718
S31500001EE059F8040B8DF80800B4E759F8041B8DF86F
S31500001EF0081002270904090E4170CCE759F8041BA3
S31500001F008DF808100B0A0A0C090E437082708DF8C2
S31500001F100B100427BFE759F8048B404602F0C2FABB
S31500001F20C2B20123414601A802F090F80028B2D0BF
S31500001F308BE759F8046BAEE759F8041B0123F2B29C
S31500001F4001A802F083F8002808BF0026EFE7012366
S31500001F503A4602A901A802F079B800002DE9F84135
S31500001F60122885B004460D46904606D03A2808D079
S31500001F704FF6FE71884227D033E0002002F085FC40
S31500001F802FE002F093FE0646002003F041FA0746D2
S31500001F90002003F048FA034604961848194A1A49DD
S31500001FA092F800C003900022482010FB0CFC01EBC5
S31500001FB00C00B0F8E2100291019200975FF03B002E
S31500001FC017A1FFF7DAFE0CE000224146284601F091
S31500001FD0E7FF074604F02EFA384600F0A7F804F0AB
S31500001FE02DFA42462946204606B0BDE8F041FEF7E6
S31500001FF025BA0000574600006C700000D0F900209A
S31500002000EC24030067FF002000FA002042423870EB
S3150000201042424242570000004242424257420000BA
S31500002020574242575738704200000000DFF800F070
S315000020302DE2002038B504460D4604F0CDFA012CF9
S3150000204002D1FFF7F3FF02E0284604F053FB18B174
S3150000205004F0CEFA012032BD04F0CAFA002032BDE7
S3150000206080B58308800705D54FF6FF7242EA014224
S31500002070009204E041F07F4141F47F010091042287
S315000020806946980004F077FB02BDF8B506460D4692
S3150000209005F0010106F001000143144601D00120BC
S315000020A0F2BD9CB132462B46611C4FF6FF7C01E027
S315000020B0921C9B1C491E0BD0178867451CBF1888AD
S315000020C00028F5D04B20F2BD04F092FA0020F2BDB4
S315000020D004F082FA012C01D0B00707D535F8021BAF
S315000020E03046FFF7BDFFC0B9B61C641E022C0CD3E8
S315000020F067087F007A002946304604F03CFB60B949
S3150000210006EB470605EB4705E41B002CDCD02988C7
S315000021103046FFF7A5FF0028D6D004F069FAD1E7CC
S31500002120704700207047002070477047704701983D
S31500002130704770477047704770477047702004F0CB
S315000021403FBB70B5044643381F4D08D0401E0128DA
S3150000215009D9801E01280ED9C01F32D02AE0BDE859
S315000021607040FFF7CFBAFFF7F7FA20B1FFF7CAFAC8
S315000021700028FBD170BD154E307810BB012131709F
S31500002180FEF76AF8442C12D00CD3462C05D00ED399
S31500002190472C07D140F6010001E040F6020004F0AA
S315000021A00FFE04E04FF49B71284600F027F800204C
S315000021B0307070BD2846BDE870404FF4A47100F041
S315000021C01DB870BD00000000D423030055FF002099
S315000021D0704700207047002070470120704701209B
S315000021E0704700207047704703F0A8B90020704779
S315000021F0012070477047FEE742DE704738B5044657
S315000022000D4603F0A9F900F029F904F007FE294666
S315000022102046FFF7ADFD2B4622466D49012004F00E
S3150000222042FE29462046BDE83440E5E769482DE9E7
S31500002230F843694E0168B1654FF42068026A674940
S31500002240F2650B68336649687166426AB266816AEE
S31500002250F166C26A3267016B7167806B96F8381057
S31500002260B06748074CBF346CF46B04F0C5FD002220
S3150000227032658442DFF868E1014624BFAEF12007EB
S31500002280A742A146716506F19002564BDFF858C188
S3150000229018D3A0697064E469B464B56DC5F3080524
S315000022A0062D13D1604511D398420FD200884DF602
S315000022B04264A0420AD17068B4685060946040F2EB
S315000022C0017803E000247464B4648146474881427F
S315000022D038BF0146084670456AD20C68B4F1CD3F56
S315000022E008BF091DF6D063E0062C09D1C4B2002C44
S315000022F00CBF0520401E06F17C04C5B244F825102B
S31500002300F14520D25EF8041D6145F9D39942F7D212
S31500002310CC07F5D5002406F17C0555F824708F42CC
S31500002320E2D0641C062CF8D3DEE7F16F002306F139
S315000023307C0506EB8304D4F8804045F823405B1CFB
S31500002340042BF6D911600146481EC9B20029ECD10A
S31500002350B06DC0F30800032810D0042811D005285A
S3150000236012D0062813D00C2817D0122818D12048CE
S315000023700268910719D540F2025816E040F6012886
S3150000238013E040F6022810E040F603280DE0B8F509
S31500002390206F0AD140F6042807E040F6052804E03D
S315000023A018B13F2838BF40F607284046BDE8F283FB
S315000023B01049081AF0640021002006F17C04C5B219
S315000023C0401CC7B244F82510062FF8D3002097E723
S315000023D0701D030004ED00E00000002000E300E0B3
S315000023E018E200206E1C0300580200009C0000202A
S315000023F01C20054018E2002004F066BD7FB50121CF
S31500002400204800F06FF901220121012000F024FC90
S315000024100421072004F05AFD1B4A92E83800694659
S31500002420032281E838000D218DF8081001268DF869
S3150000243009208DF800608DF807606946134C204628
S3150000244004F0B2FD124904200860022211496262BA
S315000024500860A26A42F00202A2627FBD0B4804F045
S3150000246097BDA52803D10021084804F078BD704720
S315000024700648006800F00100704707490868002810
S31500002480FCD1704730253E00041E030000200540A5
S3150000249080E200E000E100E00820054062B38B071F
S315000024A008D0521E11F8013B00F8013B00F02480D1
S315000024B08B07F6D1830740F0208000BF103A07D380
S315000024C030B4B1E83810103AA0E83810F9D230BC70
S315000024D0530724BFB1E80810A0E8081044BF51F81C
S315000024E0043B40F8043BD20724BF31F8022B20F806
S315000024F0022B44BF0B7803707047121F17D35B0083
S3150000250009D151F8043B20F8023B1B0C121F20F89E
S31500002510023BF6D20BE051F8043B00F8013B1B0AE4
S3150000252020F8023B1B0C121F00F8013BF3D238BF08
S31500002530121D521E24BF11F8013B00F8013BF8D8CA
S315000025407047FEE7890001EB401101F184410A6002
S315000025507047890001EB401101F18441086870471A
S3150000256010B5DFF84446A06B420605D4122120467A
S31500002570FFF7EFFF0028F9D110BD80B5FFF7F0FF98
S31500002580DFF824060068000C00F0030002BD0122FB
S31500002590DFF8041610B5884232BF0022DFF8FC15BA
S315000025A0884201D2144600E002241021DFF8F0052B
S315000025B0FFF7C8FFDFF80406016821F0807141EAE1
S315000025C00461016010BDF0B5DFF8D825DFF8F045ED
S315000025D01368002304EBC305CFB22E79BE4203D1A4
S315000025E054F83350854202D25B1C052BF2D3052BDF
S315000025F00EBF032004EBC3004079116821F040713F
S3150000260041EA00611160F0BD38B500F013F841F6FB
S315000026107130286004F01BFD002105E038B500F09C
S3150000262009F841F671322A60FFF7CDFF0CB10020A0
S31500002630286031BDDFF88C552C6804B10124704741
S31500002640C01C0F2801D2000770474FF0704070473A
S3150000265038B50446002500F079F9DFF85025DFF893
S315000026605015944208D0DFF84C25944206D0DFF886
S315000026704825944204D006E0086802E0486800E075
S31500002680886800F00700401E03281BD8DFE800F02A
S3150000269002050C0804F012FD04E004F015FD01E04B
S315000026A004F00FFD05460DE004F0D4FCDFF80C1530
S315000026B00968090E01F001010122491C02FA01F123
S315000026C0B0FBF1F5284632BDDFF8FC144A68D307A3
S315000026D002D40A680242FCD1704780B500F0E4F8E3
S315000026E0401C02BD70B50C460246110A01F00F01EE
S315000026F00020491E0929DFF85C5513D8DFE801F0F0
S3150000270005131212071518121B1FDFF89454C2F393
S31500002710043608B1FFF7D8FF224631462846BDE801
S3150000272070400FE770BD1035F1E730350120EEE758
S3150000273038351020EBE740354FF48030E7E7DFF817
S31500002740EC56E4E7F8B50646DFF88004DFF85C14DB
S315000027500768DFF86004DFF86024DFF860440125CD
S3150000276016F478137AD0B3F5003F31D0B3F5802F45
S315000027702AD0B3F5202F71D0B3F5402F2ED0B3F564
S31500002780602F63D0B3F5801F30D0B3F5A01F30D0D3
S31500002790B3F5B01F35D0B3F5D01F42D0B3F5F01F57
S315000027A025D0B3F5001F4ED0B3F5101F4AD0B3F5B0
S315000027B0381F2DD0B3F5401F39D0B3F5481F50D080
S315000027C0B3F5781F64D06CE004F044FCE16802E0E5
S315000027D004F040FCA168C1F3082104E004F03AFCCF
S315000027E06169C1F30421491CB0FBF1F75AE00846C0
S315000027F029E01046FFF72CFF0746206B00F0030088
S315000028000DE00846FFF724FF216A01F00F0115E0ED
S315000028100846FFF71DFF0746206AC0F30110C740B0
S3150000282040E0FFF715FFA16AC1F3011106E0FFF7CB
S315000028300FFFA16A090A01F00301091D8D40B0FBD3
S31500002840F5F72FE01046FFF703FF1FE0DFF8240639
S3150000285000F07CF8072825D0092822D104F0FAFBDD
S3150000286014E0DFF8340600F071F804280CD00728CD
S3150000287018D0082815D104F0EDFB07462068C0F3F0
S315000028800420401C47430DE004F001FC074609E024
S3150000289004F0E0FB04463046FFF71FFFB4FBF0F7F9
S315000028A000E000273846F2BD01460B0903F00F038E
S315000028B001205B1E092BDFF8042344D8DFE803F070
S315000028C005070B1143431317263B106800E05069B8
S315000028D0C0F3042070471168090E01F00101491C7C
S315000028E026E0D06800E09068C0F308207047DFF863
S315000028F0AC35994204D0DFF8A835994204D022E0DD
S31500002900116A01F00F0113E0116A09E0DFF894354E
S31500002910994204D0DFF89035994204D013E0916AC9
S31500002920C1F3011104E0916A090A01F00301091DCE
S315000029308840401E7047DFF87405814203D1106B52
S3150000294000F003007047002070470000014601F0C8
S315000029500F010120491E0729DFF854254FD8DFE86B
S3150000296001F00415194E26344E3C506A00F007005B
S31500002970801E052808D8DFE800F03E240B03070573
S315000029800B2070470C2070470520704711690FE037
S3150000299002207047516901F00701491E03292FD80B
S315000029A0DFE801F00F020311F2E706207047916994
S315000029B001F00701012904D00229E9D0042902D037
S315000029C07047032070470A207047116811F0010113
S315000029D00FD0012914D109207047DFF8D8140A68EE
S315000029E002F03002102A04D0202A04D0302A04D063
S315000029F07047072070470420704708207047002062
S31500002A00704700002DE9F843074600240326112FDE
S31500002A100D46B04612D1042D02D104F038FB08E071
S31500002A20052D0BD1DFF89004DFF89014006888427A
S31500002A3004D304001CBF002104F0B2FC07F00F070A
S31500002A407F1E072FDFF8689414D8DFE807F00446E6
S31500002A504C9649789684022D4F480CD0032D2ED0E3
S31500002A60042D2FD0052D32D00A2D03D00B2D30D0BA
S31500002A700C2D30D081E004264FF000080122012100
S31500002A80404600F0E9F8FFF7BFFD0CB1FFF768FD1F
S31500002A90C9F8046004F0CEFA054604F0DBFAFFF745
S31500002AA076FDFFF76AFD01462846FFF7B7FD002CC5
S31500002AB063D1BDE8F4430121002004F071BC4FF05E
S31500002AC00108DBE70226B046FFF761FDD6E70126DF
S31500002AD0FAE70526D2E70726D5E709F1100404E050
S31500002AE009F1180401E009F11404012D08D0022DA2
S31500002AF009D0032D0ED0062D13D00A2D1DD03CE093
S31500002B000020206039E001220121002000F0A4F815
S31500002B100220F6E701220121012000F09DF80120A4
S31500002B20EFE704F097FAFFF732FD01220221DFF802
S31500002B302401FFF707FD0320E3E70420E1E7072D63
S31500002B4005D0092D04BF0121C9F8001015E00020A9
S31500002B50C9F8000011E0012D06D0042D16D0072D6E
S31500002B600DD0082D16D008E00020DFF848130A68BB
S31500002B7022F0300242EA00120A60BDE8F183012227
S31500002B800121042000F068F80120EEE700F020F8AB
S31500002B900220EAE70320E8E70148E8010190D003B4
S31500002BA000400E4004000E4004300E4002001E009D
S31500002BB080400E40030020000500240000410E4026
S31500002BC02422030040000E4040410E40F0E3002066
S31500002BD00122012102203FE070B5044600F037F8DB
S31500002BE001220021022000F037F8217CDFF8DC52B8
S31500002BF000200229296808BF0120490840EA41004F
S31500002C002860082122782846FFF79CFCA088617A74
S31500002C1041EAC021A960EE68207AFFF711FDE2883B
S31500002C20A17A06F07F6646EAC226227A0E4346EA73
S31500002C30C2160643EE60A17B607B227B090141EA56
S31500002C400031E07B014341EA0241296170BD112058
S31500002C507CE60000B0400E402DE9F84F042883467C
S31500002C6092466CD8DFE800F04E493F034400012746
S31500002C700220012500260029DFF82081934C60D030
S31500002C80BBF1020F02BF2068C0F3011000284FF00D
S31500002C9000090CD18E4801682268D0074FF001095F
S31500002CA005D5216821F0300141F010012160E7636C
S31500002CB0314600F056F80028FAD0BAF1000F3ED09F
S31500002CC000F04EF80028FBD0BBF1020F37D1B9F166
S31500002CD0000F34D02068C1071BD501222021022015
S31500002CE000F0CAF819E00427082003250226C2E7E7
S31500002CF01027202005250426BDE74027802007252C
S31500002D000626B8E74FF480774FF4007009250826A9
S31500002D10B1E70021022000F08BF8022000F024F831
S31500002D200646012200210220FFF796FF31460220C7
S31500002D3000F036F8E76300F013F80028FBD0BDE892
S31500002D40F18FE063D8F80000F040C107FAD4BAF179
S31500002D50000FF4D0D8F80000E840C107FAD4EEE737
S31500002D6029464046FFF7F5BB401E0328544912D8B2
S31500002D70DFE800F0020C06080869C0F30800704797
S31500002D80086800E0886800F07F00704751480068D6
S31500002D90C0F30A00704700207047000090400E40C4
S31500002DA0F8B5401E0D46032805F07F06444C464FF5
S31500002DB03BD8DFE800F00228101CC5F308051A21ED
S31500002DC03846FFF7C6FB0028F9D12069400A45EAD4
S31500002DD040252561F1BD18213846FFF7BAFB0028CA
S31500002DE0F9D12068C00946EAC0162660F1BD19214E
S31500002DF03846FFF7AEFB0028F9D1A068C00946EABD
S31500002E00C016A660F1BD2F480168626922F0300243
S31500002E1042F010026261C5F3C310FFF711FC226A8B
S31500002E202D490A40154305432562F1BD50410E4028
S31500002E30264A1068C0F30110002818BF002911D0D7
S31500002E40202902D030290DD00FE04FF40000D16EBA
S31500002E5001408142FBD1400209D5D06F800A00F0C3
S31500002E60010070474FF44000F1E71C48EFE70120EE
S31500002E707047000006000E0002280BD1080004D09F
S31500002E8017484FF4806343640160002A1CBF022088
S31500002E90FFF7CEBF01207047B8003200800616004B
S31500002EA080162E0090171A0090273000A0091400F3
S31500002EB070400E405C410E4000E40020012D3101BF
S31500002EC010400E4090400E4040410E4024400E40BF
S31500002ED03C300E409C400E4000F8FF0FFF33E13FB0
S31500002EE064400E40890001EB401101F184410A6003
S31500002EF0704700F1806300F1C0601960026070479E
S31500002F0010B500F00DF804F1806404E010B500F08F
S31500002F1007F804F1C064012303FA01F1216010BD32
S31500002F203022404B5043184400F10C0470473E4990
S31500002F300A68920840EA8200086070472DE9F0416D
S31500002F4001F00305164603240F21082E98460CD2DD
S31500002F50B70000FA07F2B9403448FFF7CAFF05FA8E
S31500002F6007F204FA07F132480DE0A6F108029700CD
S31500002F7000FA07F2B9402F48FFF7BBFF05FA07F240
S31500002F8004FA07F12C482D4FFFF7B3FF079C069D67
S31500002F902B4842463146FFF7A5FF2A4631463846BA
S31500002FA0FFF7A0FF224631460120B0403861BDE858
S31500002FB0F041244896E7F8B50546174638000E4610
S31500002FC01C4607D0002C284602D0FFF79FFF01E0E1
S31500002FD0FFF796FF2A4630201249424388180F22EF
S31500002FE0082E05D2B300416800F015F8416006E0EE
S31500002FF0A6F108039B00816800F00DF881604FB9C7
S31500003000002C3146284602D0BDE8F4407EE7BDE8F4
S31500003010F44075E7F1BD9A4021EA020207FA03F18E
S315000030201143704700A0004044A4004000A40040A3
S3150000303008A4004004A400400CA4004014A40040CE
S3150000304010A4004028A4004010B5DFF87041DFF856
S315000030507011E1610320206160611022DFF86401D4
S31500003060A06122620021A162E16220660022DFF8EF
S315000030705801626210216066A1662267E26630A18D
S315000030806267E31D0868DFF84411186007222046CE
S31500003090FFF714FA2023A37110BDC119224640463A
S315000030A0FFF7FCB92DE9F84300F031F808B9FFF74E
S315000030B0CBFF18204443281900F160060024376925
S315000030C0F568BD420BD2B4687068E41B4C4588BFF6
S315000030D04C46FFF7E2FF00F013F808BF0027ED1B90
S315000030E04D4588BF4D4635B17068C1192A46FFF770
S315000030F0D6FF2C19EF1904B137612046BDE8F283DB
S31500003100B168E7198F42A044A9EB04097047DFF8BC
S31500003110AC5004462878884691467047F8B500F0CA
S315000031200AF800F00FF8FFF7BDFF0446384600F036
S3150000313055F82046F2BD04460D46164600F048B83E
S3150000314052545400074632462946204670472DE918
S31500003150F84300F02AF808B9FFF776FF00F038F8D0
S31500003160726901460027182306F1640C03FB07FE6B
S315000031705CF80E0010B17F1C9742F7DB97420BDA22
S315000031807B43F018002204664566C0F86880026733
S31500003190C266C0F8749001E04FF0FF37FFE70846BB
S315000031A000F01CF83846BDE8F283044E0446307839
S315000031B00D4690469946704746E7000000E8002015
S315000031C078F400205423030088F4002060230300D1
S315000031D0EFF31180602181F31188704780F3118825
S315000031E07047FEE7704704F065BC10B5044605213C
S315000031F01120FFF707FC002200210220FFF72CFD1B
S315000032001E4801686FF3D321016002681C4901EA78
S31500003210C4210A430260012101220220FFF71CFD9E
S31500003220BDE8104004211120FFF7ECBB13480068ED
S315000032300003C00D704713490A68130305D4496893
S31500003240C1F30801018001207047002070477CB55A
S315000032500D4E0C464FF6FF753188ADF8005002232F
S315000032607F22684604F0AEFCBDF80000A84202D0FA
S315000032702080012076BD002076BD000030400E4043
S3150000328000F80F00B481E00FC24203007FB500F0E2
S3150000329011F818B900F015F804F05EFD04B070BD21
S315000032A07FB500F007F818B900F00BF804F06FFDD1
S315000032B004B070BD0446084615461E4602A904F031
S315000032C05BBE0899099800910190334602992A46F7
S315000032D02046704780B500F00DF880B202BD80B57B
S315000032E000F008F8FA21B0FBF1F080B202BD000050
S315000032F000BF0000E0B504F024FE6A4604F06EFE4E
S3150000330018B14C2133A0FEF779FFDDE9000103B0C7
S3150000331000BD000080B504F074FB01211D48FFF7D5
S31500003320E1F904F0EBFC20B15FF0570129A0FEF7AC
S3150000333065FF002002BD1849012008707047FEB5E0
S3150000334004460025216801B92AE000F019F808B101
S3150000335000F00FF8012027E0FEB50C460025216895
S3150000336001B91DE000F00CF808B100F002F80220E7
S315000033701AE001950095002321683A46301D85E73D
S31500003380054E064F35700023009301953A46301DD1
S3150000339086E7000030253E0074F500203733000034
S315000033A004F07FFF0020FEBD05F052F8307840B9EA
S315000033B02146301D04F056FD206804F0F2FD8525F7
S315000033C001E00020307020602846FEBD0146002244
S315000033D00020C1E773797374656D2D74696D65722C
S315000033E02E6300000A0A42EA01225040C0F303118C
S315000033F0484080EA003041010206C9B2D20E41EAD5
S315000034000221484080B270474901020003D4DFF828
S31500003410B00481547047DFF8AC3402F00F021A444E
S3150000342002F8041C704700F0070010B5C0F107034E
S31500003430042B28BF0323C41C072C34BF0020001F05
S31500003440012404FA03F35B1E1940814004FA00F0DC
S31500003450401E1040084310BD0020704700207047F2
S3150000346070471CB572B603F0D9FCDFF85C04DFF8D0
S315000034705C444169216000F0E0F901466FF00B0001
S31500003480FFF7C2FF00F0D9F901466FF00A00FFF717
S31500003490BBFF00F0D2F901466FF00900FFF7B4FF59
S315000034A000F0C3F901466FF00800FFF7ADFF00F02A
S315000034B0BCF901466FF00700FFF7A6FF00F0B5F96B
S315000034C001466FF00600FFF79FFF00F0AEF90146D8
S315000034D06FF00500FFF798FF0022022100F0A7F920
S315000034E001466FF00400FFF78FFF00F0AAF90146CE
S315000034F06FF00300FFF788FF00F097F901466FF0C1
S315000035000200FFF781FF0022072100F090F9014633
S315000035106FF00100FFF778FF00F093F901464FF0D6
S31500003520FF30FFF771FF00F08CF901460020FFF72E
S315000035306BFF0022032100F07AF901460120FFF714
S3150000354063FF00F076F901460220FFF75DFF00F009
S3150000355070F901460320FFF757FF00F072F90146A4
S315000035600420FFF751FF00F06CF901460520FFF734
S315000035704BFF00F066F901460620FFF745FF00F015
S3150000358060F901460720FFF73FFF00F05AF90146B0
S315000035900820FFF739FF00F054F901460920FFF72C
S315000035A033FF00F04EF901460A20FFF72DFF00F029
S315000035B048F901460B20FFF727FF00F042F90146C4
S315000035C00C20FFF721FF00F03CF901460D20FFF724
S315000035D01BFF00F036F901460E20FFF715FF00F03D
S315000035E030F901460F20FFF70FFF00F02AF90146D8
S315000035F01020FFF709FF00F024F901461120FFF71C
S3150000360003FF00F01EF901461220FFF7FDFE00F051
S3150000361018F901461320FFF7F7FE00F012F90146EC
S315000036201420FFF7F1FE00F00CF901461520FFF714
S31500003630EBFE00F006F901461620FFF7E5FE00F066
S3150000364000F901461720FFF7DFFE00F0FAF8014601
S315000036501820FFF7D9FE00F0F4F801461920FFF70D
S31500003660D3FE00F0EEF801461A20FFF7CDFE00F07B
S31500003670E8F801461B20FFF7C7FE00F0E2F8014616
S315000036801C20FFF7C1FE00F0DCF801461D20FFF705
S31500003690BBFE00F0D6F801461E20FFF7B5FE00F08F
S315000036A0D0F801461F20FFF7AFFE00F0CAF801462A
S315000036B02020FFF7A9FE00F0C4F801462120FFF7FD
S315000036C0A3FE00F0BEF801462220FFF79DFE00F0A3
S315000036D0B0F801462320FFF797FE00F0B2F8014646
S315000036E02420FFF791FE00F0ACF801462520FFF7F5
S315000036F08BFE00F0A6F801462620FFF785FE00F0B7
S31500003700A0F801462720FFF77FFE00F09AF8014651
S315000037102820FFF779FE00F094F801462920FFF7EC
S3150000372073FE00F08EF801462A20FFF76DFE00F0CA
S3150000373088F801462B20FFF767FE00F082F8014665
S315000037402C20FFF761FE00F07CF801462D20FFF7E4
S315000037505BFE00F06AF801462E20FFF755FE616811
S315000037604FF6FF00014041F0BF6141F40131616055
S315000037704FF4E021E06840F40070E060E06840F05B
S315000037801000E060E16104F096FE04F02BFFEFF319
S315000037900880001F4E494FF0CD3201E040F8042961
S315000037A08842FBD24B494C4889B204F06DFF62B6A1
S315000037B04A4801214164026842F480720260684608
S315000037C004F066FF9DF80100012803DC9DF8000067
S315000037D0032809DB4248434A434B4FF41871016002
S315000037E0426043664149C16601244148414A016835
S315000037F041F4F84101600120106004F063FF05F018
S3150000380055F83D496846D1E90023CDE900238DF8F6
S31500003810034003F025FE04F049FDFFF77BFD04F0AD
S3150000382061FD364805F0B4F813BDFF22FF210420E0
S31500003830F9E5002201210420F5E5002200210420FB
S31500003840F1E5002204210420EDE505F0AFB805F00E
S31500003850AEB805F0C1B880B500210B2005F0B4F86C
S31500003860BDE8014005F0B9B8002818BFFEF761BCF5
S31500003870FEF760BC032004F0F6B9000010B504F0B2
S31500003880F1FE044604F0F2FEC0B208B9012C07D1DD
S31500003890072C11D8DFE804F004100608080A0C0EFD
S315000038A0002010BD092010BD022010BD032010BD50
S315000038B00B2010BD062010BD44F0800010BD000096
S315000038C000E400E018ED00E00000000008ED00E074
S315000038D0B8D80020FC2C0000A000002000000E40FC
S315000038E08C420E409A6F05001801000400843208CD
S315000038F0A4310E4010300E40101E0300BC240300FD
S3150000390010B5DFF85408DFF84C180068DFF84C28CB
S31500003910C860136848615B0800EB43040C6118B18A
S3150000392000F016F8652806DABDE81040AF210FF65C
S315000039305000FEF763BC10BD10B5DFF8184860698B
S31500003940E268904202D2BF2100F09CFA60690CE066
S3150000395010B5DFF8004820696269904202D2C5219D
S3150000396000F090FA2069626900E0E268801A4FF67A
S31500003970FE71084010BDDFF8DC17CA68904203D319
S315000039804969884200F05FBB0020704780B510B1DE
S31500003990FFF7F1FF00B1012002BD30B1DFF8B42717
S315000039A0D168401A4010401C80B27047010001D116
S315000039B000207047DFF89C17CA6802EB4000801EA3
S315000039C070474088C0F30C00C01C0004800C400007
S315000039D0001D80B2704710B50446FFF7F2FFDFF80E
S315000039E074174A6904EB40004FF6FF74904204D204
S315000039F00388A34208BF801CF8D010BD2DE9F84308
S31500003A00DFF850478046E08898B3B8F80200010412
S31500003A102FD4DFF84C770FF25C7138680FF26079BB
S31500003A2004F0E2FF20B94FF4C6714846FEF7E6FB04
S31500003A30002504E004F0D8FF88B16D1CADB2E08823
S31500003A40854204DB4FF4C7714846FEF7D7FBA069F1
S31500003A50396800EBC50630680028EBD13160B088C4
S31500003A60401CB0804046FFF7ACFFF18801EB4000F8
S31500003A70F080BDE8F18370B50446DFF8D80600781B
S31500003A8001281AD12088FFF791FF050027D00226CA
S31500003A902C462046FFF7B2FF608840F40040608065
S31500003AA034F81600FFF782FF040002D06088010494
S31500003AB0EFD5761C042E12DAEAE702280FD1FFF7BB
S31500003AC087FB05462088FFF771FF18B10088C0F311
S31500003AD00E0020802846BDE87040FFF77FBB70BD12
S31500003AE0DFF870160A78022A08BFFFF7C4BF7047CE
S31500003AF038B504460D46FFF764FF6188C1F30D0132
S31500003B0061804004020C21462846BDE83840FDF796
S31500003B105DBE10B50C46A04205D241880A0402D407
S31500003B20FFF759FFF7E710BD2DE9F14FDFF82456EF
S31500003B300020A88092B0FFF74BFB6A88ADF8002002
S31500003B400121297000216A6969800192FFF746FB0D
S31500003B50E988A869C90004F089FF6846FFF78BFF6A
S31500003B60129848B1002401E08047641C1298E1B223
S31500003B7050F821000028F7D1EF6800244FF0010823
S31500003B800DF1080937E024B1641EE4B259F824A007
S31500003B9003E000F0E9FABA460746BAF8020000F474
S31500003BA04041B1F5004F26D140F48040AAF802000A
S31500003BB04FF0020B26465FFA8BF03AF81000FFF73B
S31500003BC0F5FE040010D0608801040DD440F40040D6
S31500003BD060802046FFF712FF102EBDBF49F8264031
S31500003BE0761CF6B24FF000080BF1010B5FFA8BF072
S31500003BF00428E0DB3446019EB742C4D3002CC2D170
S31500003C00B8F1000FB8D0EF68BB46B84615E03846A5
S31500003C10FFF7D7FE0446788801040BD55846FFF710
S31500003C20BCFE398801F40041084338800BEB440B95
S31500003C3007EB440800F098FA0746B742E7D302209C
S31500003C4028706846FFF717FF129848B10026044609
S31500003C5001E08047761CF0B254F820000028F8D125
S31500003C60EC68274613E04FF0020937F81900FFF712
S31500003C709DFE20B10088C0F30E0027F8190009F157
S31500003C800109B9F1040FF0DB00F06EFA074647456B
S31500003C90E9D30AE00446FFF79EFE4146FFF739FFE7
S31500003CA0B842F7D3B7422ED1544644454AD22046AD
S31500003CB0FFF791FE002C8246F6D060880104F3D50A
S31500003CC000F05AF8A04204D16088C0F30D0060806D
S31500003CD0EAE704D201462046FFF70AFFE4E7264654
S31500003CE007E05046FFF777FE4146FFF712FF5446BE
S31500003CF08246C24507D2BAF80000C0F30E00FFF7AD
S31500003D0055FE8245EDD334B100F036F801001CBFF4
S31500003D102046FFF7EDFE27463046C1E72046FFF76F
S31500003D2050FE06465846FFF738FE07467200214603
S31500003D305846FDF74BFD00223946684604F0F4FE6E
S31500003D400BEB460BFFF744FA06460021A81C04F0CD
S31500003D5041FFFFF72BFE040006D1BDF80000688086
S31500003D600021C5F814B029703046FFF737FA002C49
S31500003D70D4D113B0BDE8F08F2088C0F30E0015E64D
S31500003D8080B5FFF713FEBDE80240FFE510B504005D
S31500003D9012D0FFF7F5FF18B940F2794100F072F83A
S31500003DA02046FFF703FE38B101880A0402D5D0F891
S31500003DB00A0010BD083010BD002010BD10B501006E
S31500003DC013D0FFF7F3FD0446FFF7E0FD18B940F204
S31500003DD0934100F057F844B12088010401D52089A9
S31500003DE010BD6088C0F30C0010BD002010BD2DE989
S31500003DF0F04100F044F804003FD0FFF7C7FD0FF292
S31500003E00803718B940F2A64100F078F82846FFF747
S31500003E10D5FF80462046FFF7DEFD464505462CD0F9
S31500003E2003DB40F2AE4100F069F82088010448BF88
S31500003E30268122D466802046FFF7C3FD04EB4004AA
S31500003E40FFF7C6F9DFF80C134A692E1BB6B2954286
S31500003E5004BF4C610026FFF7C1F9082E06DA314689
S31500003E602046BDE8F041FF2204F008BF08212046A5
S31500003E7004F00AFCA6F108006080BDE8F081054662
S31500003E800E4693E50FF2F820FEF7B8B938B50D46A1
S31500003E90FFF78CFD04000AD0FFF778FD18B940F251
S31500003EA0EB41FFF7EFFF04EB4500808832BD0020B1
S31500003EB032BDF8B50D461646FFF778FD04000FF241
S31500003EC0C02714D0FFF762FD18B940F2F64100F0A2
S31500003ED015F83046FFF76AFDFFF758FD18B940F2AE
S31500003EE0F74100F00BF804EB45008680F1BD38463B
S31500003EF0BDE8F44040F2FA41FEF780B93846FEF7D5
S31500003F007DB92DE9F84F8846C11C8910DFF8445267
S31500003F1049000027091D2E690FF2642AB0F5005FDB
S31500003F2004461FFA81F904DB40F226515046FEF79B
S31500003F3065F9FFF74DF983466969E86908B9711AA9
S31500003F4003E05FEA080202D0411A4E1009E0301A77
S31500003F504010064680B220B940F24C515046FEF75A
S31500003F604DF9B6B24E4514DB6F6907EB490068613F
S31500003F70E86928B1B8F1000F04BF00EB4900E86119
S31500003F8000207C80B880F88038800834298964183D
S31500003F902C815846FFF722F93846BDE8F24FFCE47B
S31500003FA070B504460D4611462846FFF7AAFF064699
S31500003FB03CB1300005D0FFF7E9FE2A462146FDF761
S31500003FC005FC304670BDF8B504460D46164616E0AB
S31500003FD02846FFF7F3FE0746B0B2B842B8BFB7B2FD
S31500003FE02846FFF7D3FE01463A462046FEF756FA24
S31500003FF001212846FFF74AFF3C440546F61BB0B2AE
S315000040000028E5D1F1BD38B50446FFF7E1F80546CD
S3150000401000222146534804F087FD2846BDE8324079
S31500004020FFF7DCB838B5FFF7D3F8044600214D4852
S3150000403004F0D0FD05462046FFF7D0F8284632BDED
S3150000404044484188481E8041C00F70472DE9FE4F05
S3150000405004468846208816469B46FFF7A7FC074677
S31500004060FFF794FC18B940F29A61FFF70BFF388806
S315000040700104354603D538892D183D8167E000F0E7
S3150000408077F8019000F070F88146FFF7A1F80096E6
S315000040908246304E706981451DD1FFF759FCA84212
S315000040A003D25046FFF79AF821E001982D18BBF18C
S315000040B0000F7D8008D02088FFF768FE019B009ADC
S315000040C041461844FEF7EAF900F04EF87061504692
S315000040D0FFF784F83BE05046FFF780F800F048F819
S315000040E02D180021A8B2FFF70CFF070001D11820F8
S315000040F02EE000F03DF805462088FFF747FE06460D
S315000041003846FFF743FE2A463146FEF7C7F9BBF1AC
S31500004110000F384609D0FFF739FE00F028F8009A5C
S3150000412041462844FEF7BAF907E0FFF72FFE00F0F4
S315000041301EF80099284404F0A7FA20880121FFF709
S31500004140A5FE024601213846FFF7B3FE2780002070
S31500004150BDE8FE8F54F5002078E300207CE30020C4
S31500004160ACE5002056F500203846FFF734BC05467E
S31500004170208823E6756E636C61696D6564000000D6
S315000041806275666665722D6D616E6167656D656ED9
S31500004190742E630038B504460D462088FFF70EFEE0
S315000041A029468842208803D3FFF721FE002032BD2E
S315000041B0FFF704FE2D1AEAB2204601B0BDE83040F2
S315000041C000230021FFF742BF2DE9F041054688464E
S315000041D017461E464046FFF7D9FDC419300018BFE2
S315000041E0002C1CD04046FFF7E9FDB919884202DAD7
S315000041F01D2100F039F80698010003D13246214608
S31500004200284604E0012832462946204603D1BDE867
S31500004210F041FDF7DBBABDE8F041FEF73FB9BDE876
S31500004220F08138B504460D46FFF7C8FD854202D336
S315000042302A2100F019F82046FFF7A8FD284432BDD0
S3150000424070B505460E46FFF7A1FD040009D02846C5
S31500004250FFF7B4FD864202D3322100F005F8A05DD7
S3150000426070BD002070BD000088A0FDF7C7BF70B507
S3150000427004460D461646FFF7A1FD854202D33C21B2
S31500004280FFF7F2FF2046FFF781FD00B1465570BDEE
S3150000429038B50446FFF792FD05462046FFF776FD42
S315000042A02946BDE838400022FFF77ABEF8B5054634
S315000042B0069C0E461F461046FFF768FD0744284633
S315000042C0FFF764FD224639463044BDE8F840FDF765
S315000042D07DBA70B500F02BF800F003F8301880B204
S315000042E070BD060229462046AAE7E0B58DF80420EF
S315000042F00123120A8DF8052000930A46014602237F
S3150000430001A8FFF761FF07BDF8B500F010F8FFF749
S31500004310E8FF8619E91CC9B2FFF7E5FF0702AD1CE5
S31500004320E9B2FFF7E0FFC01906EB0040F2BD0D460B
S31500004330691C0446C9B283E70EB430B504460021B1
S3150000434080B2FFF7DEFD0546FFF720FD290008BF16
S3150000435000200BD003A9002204E051F8043B00F82A
S31500004360013B521CD3B2A342F7D3284630BC5DF8BA
S3150000437010FBF8B505460E46174600212020FFF72C
S31500004380C0FDADF80000FFF701FD0446BDF80000D2
S3150000439060B13B4632462021601900F020F82D1806
S315000043A0E9B26846FFF7F6FEBDF80000F2BD1CB59F
S315000043B004AC009400F001F816BD10B514461A4678
S315000043C0029B2044091BBDE81040C9B207E00CB4AB
S315000043D080B502AAFFF7CDFF02BC5DF80CFB2DE904
S315000043E0F04781464F460024884615469A460CE01B
S315000043F0F6B23419444542DA32463846FDF7E6F954
S31500004400BF19641E641CE4B26D1C444537DA287873
S31500004410A8B3312818BF32280ED15AF8041B07F862
S31500004420011B3228EED1641CE4B2A045A4BF0912D8
S3150000443007F8011BE6DA22E034280ED1211D5AF8CE
S31500004440040B88451BDB3870020A010C000E7A70DB
S31500004450B970F8703F1DE41CD4E7A0F133035AF895
S31500004460041B072B38BFA0F13006C1D3A0F14103CE
S31500004470072B34BFA0F137065AF8046BB8E7A7EB51
S315000044800901C8B2BDE8F087000000006C656761ED
S3150000449063792D7061636B65742D627566666572EE
S315000044A02E63000000F10103810704D010F8011B00
S315000044B0820781B1FAD10268A2F10131914311F06C
S315000044C0803104BF50F8042FF6E709BAB1FA81F13A
S315000044D000EBD100401CC01A7047FEE7010008D46B
S315000044E0012200F01F01DFF894358A40400943F8A5
S315000044F02020704701000CD4012200F01F01DFF8D4
S3150000450080358A40400943F82020BFF34F8FBFF320
S315000045106F8F7047010008D4012200F01F01DFF8F9
S3150000452064358A40400943F82020704710B5DFF80B
S31500004530584530B1012807D0102802D0202803D0D2
S3150000454004E00020204410BD1C20FBE740F283114C
S31500004550DFF88005FDF752FE204610BD70B5044613
S315000045600E461546FEF734FEE288B2420CD221888A
S315000045708B1A991991FBF5FC05FB1C152580A38860
S31500004580F3189A1AA280E68000F0D9BA70B50546EB
S315000045900E46FFF7CBFF012D18BF202D044640D154
S315000045A0A069016890F83200E8B904228A6400F034
S315000045B05BF9A0690068C16C002E07D041F00401C8
S315000045C0C1640C20FFF78AFF052106E021F00401F3
S315000045D0C1640C20FFF78EFF0021A0690068BDE8CA
S315000045E0704004F0FCBB0420486300F03DF9A0696C
S315000045F00068816B002E07D041F0040181630C2016
S31500004600FFF76CFF052106E021F0040181630C2011
S31500004610FFF770FF0021A0690068BDE8704004F054
S31500004620BBBC70BDF8B50446DFF8AC0481421D463C
S315000046302AD00026F2B21C20DFF84C1442438F1811
S31500004640BB69A3421CD13A893868A9B2FFF786FF35
S3150000465038680021C18002E0384600F016F820468E
S3150000466005F04EFE02280BDC3889F9893A68A0EB82
S31500004670410091888842EFDA0121204605F076FE56
S31500004680761CF0B20228D5DBF1BD70B50446DFF822
S315000046904C34E089668A2568024670432E18A06964
S315000046A006F1080105F026FFA06905F029FE01289C
S315000046B003DDA069002105F059FE608AA18A401C2D
S315000046C090FBF1F201FB1200608270BDFEB504465C
S315000046D0207B68BB60680FF25D064188084400F1E4
S315000046E00807A0696B4601AA02A905F00EFE6168DB
S315000046F08A880098019D121A551B4A88088890429C
S315000047000ED26189A0698A1A3346394605F036FF0A
S3150000471070B96268618950886D1A451902F10807F7
S31500004720A0693346EAB2394605F028FF00B960733E
S31500004730F7BD00002DE9F041054698460027F9B27D
S315000047401C22DFF8440351434418A369AB4218D135
S3150000475060688188414534BF86884646FEF738FD45
S3150000476061684A8812FA86F1628991FBF2F302FBCC
S3150000477013116268518061688A88961B8E80FEF7E5
S315000047802DFD7F1CF8B20228D9DBBDE8F08138B5D3
S315000047901129054609D1A869002105F0F4FD00217B
S315000047A029732846BDE8324090E7132906D1A86947
S315000047B0012105F0E8FD0120287331BD28682A890A
S315000047C08488141BA4B25CB100F10802008811545D
S315000047D02868018800F03FF901808188491C8180A2
S315000047E0A86905F0EDFD20B9E989A142A8BF01211C
S315000047F005DA012808D1288A844205DB0021A86948
S31500004800BDE8344005F0B2BD31BD10B52020FFF73C
S315000048108DFE0446DFF8C802A16991F83120012A0D
S3150000482009D101690A060AD504F07EFB0146204635
S31500004830BDE81040ABE7C16C21F00401C16410BDB6
S3150000484010B5DFF89C4228B92046BDE8104000218B
S3150000485004F0C5BA00F008F80C20FFF73FFEE06C44
S3150000486040F00400E06410BD0C2053E680B530B97A
S31500004870BDE804400521DFF8680204F0B0BAFFF78E
S31500004880F3FFBDE802400C2034E6F8B50C461546A9
S31500004890FFF74CFE0646306881883289E8B2121A64
S315000048A0914201DB0120F2BD00270EE0FEF790FCED
S315000048B0316814F8012B01F1080309885A547F1C4A
S315000048C031680A88338900F0CDF8AF42EED3002074
S315000048D0F2BDF8B5012804460D4603D9103801D0BB
S315000048E0103852D1204600F031F910B9204600F0B8
S315000048F085F82046FFF71AFE06462046FFF716FE05
S3150000490021000FD0012C03D0102C0BD0202C3CD131
S31500004910DFF8D011DFF8D0210160802342600381E7
S31500004920438109E0DFF8C421DFF8C4110260416069
S315000049304023802103814181200018BF102C03D120
S31500004940BDE8F140FCF78EBF012C18BF202C53D1D7
S31500004950012C16BF202CDFF89C010020012C18BF6B
S31500004960202CB06111D1DFF89011DFF89001E961D8
S31500004970A861A98CF181EB8C33828B4207D21C2172
S31500004980304604F073F80220F2BD0120F2BDB26990
S3150000499092F8310001280CD0308990FBF1F701FB29
S315000049A01700002802BF93FBF1F001FB103100292C
S315000049B0E5D12946104605F0A5FAF0B9B069017FA0
S315000049C0007E01230222FEF7F6FA287C012808D190
S315000049D001212046FFF7DAFDB069002105F0C6FC8B
S315000049E00AE0002070823189F08991FBF0F0B082F4
S315000049F000F0A9F800F0A7F80020F2BD58B501288C
S31500004A00044603D9103801D0103813D1204600F0DF
S31500004A109DF8F0B9204600F073F82046FFF786FDB2
S31500004A20012C18BF202C06460FD1B06905F040FBBB
S31500004A3010B152BD012052BDB06990F83110012964
S31500004A4003D100212046FFF7A1FD1C21304604F0CA
S31500004A500DF8002052BD2A89491C91FBF2F302FB96
S31500004A6013117047521C92FBF3FC03FB1C220A80B5
S31500004A708A88521C8A80FEF7B1BB000000E100E084
S31500004A8080E100E080E200E0E8EC0020F8B50124D7
S31500004A90012807460E46154603D9103801D01038AE
S31500004AA015D1380018BF102F04D129463046FDF71E
S31500004AB06CF900243846FFF739FD012F18BF202F67
S31500004AC005D180692A46314605F07CFC044620461D
S31500004AD0F2BD00000C1D0300097000F02546000021
S31500004AE000000140D8EB002060EC002008EB00201D
S31500004AF050EB002020ED0020F4E2002074E20020BC
S31500004B0070B50546FFF712FD0646012D346818BF3D
S31500004B10202D0DD1B06990F83110012908D002215D
S31500004B2005F03CFB0020708200F00DF800F00BF859
S31500004B30FEF74EFB0021A18021806180E180BDE867
S31500004B407040FEF74BBB3046FFF79FBD80B501288E
S31500004B5004D9B0F1100101D0103906D1FFF7E6FCF7
S31500004B6000281CBF0068002801D1012002BD0020DA
S31500004B7002BD704720B500210FF24432CBB2D35CA0
S31500004B80834205D0491CCDB2082DF7D3002020BDA5
S31500004B90012020BD20B500210FF22C32CBB2D35C10
S31500004BA0834205D0491CCDB2082DF7D3002020BD85
S31500004BB0012020BD9A4A9B49137848204343C818D0
S31500004BC0B0F8E2007047964A964913784820434366
S31500004BD0C818E43070479448914A01681378382021
S31500004BE04343C818C078704710B58F498C4B0A6884
S31500004BF01C7838214C431119C87010BD2DE9F041BD
S31500004C00874D894E2A783168382462430A4407461C
S31500004C109770864805F05CFD8046022F84481ED1B9
S31500004C2031682B784A1C6343D75C042F18BF05F004
S31500004C3069FD30682A78411C6243885C03281EBFE0
S31500004C400428404605F05EFD2978306814FB01F41F
S31500004C5001194A68D00054BF9024BC2415E00021F5
S31500004C60017088F8001005F0BAFE31682A78481CF1
S31500004C7014FB02F4005D032818BF042802D106F0D5
S31500004C808BF801E006F06BFC9124204606F0D0FC80
S31500004C9050B92346132261A10320FBF7A6FB204649
S31500004CA0BDE8F04101F05ABCBDE8F0815E485C4ABF
S31500004CB00168137838204343C818807800F00F0045
S31500004CC070475948564A0168137838204343C81834
S31500004CD0817801F00F01022901D1012070470020DF
S31500004CE0704710B505F02AFE00B305F084FEE8B162
S31500004CF0504803F0FBFEC8B14F4803F0F7FEA8B1D9
S31500004D0007F05AFA90B106F0A3FC78B94FF0FF31DC
S31500004D104A4805F05EFD04464FF0FF31484805F06D
S31500004D2058FD844288BF0446204610BD002010BDB1
S31500004D3010B592B00446FFF7C4FF20B900F03FF863
S31500004D4018BF932019D101F06AFB00F0A0F8BDF856
S31500004D50020020819DF80100A07220469DF80010F7
S31500004D60E17208F0DFFD0020207304F1140104F164
S31500004D70100008F010FFE081002012B010BD38B519
S31500004D8092B004460D46FFF79CFF20B900F017F8D5
S31500004D9018BF932011D101F042FB01466A46204616
S31500004DA009F00BFA9DF801002870002169709DF842
S31500004DB0000000F01F00A870002013B030BD1A4894
S31500004DC0174A0168137838204343C81881780329A5
S31500004DD0704710B5002300E05B1CDCB28C4205D2A4
S31500004DE010F8014B9442F7D0002010BD012010BDF1
S31500004DF0082109F09DBD0C48094A0168137838203E
S31500004E004343C818807801281CBF3128332801D1B4
S31500004E100120704700207047000000004242000059
S31500004E2067FF002000FA0020A8E3002004F100201C
S31500004E30ECF6002018FF0020FCFE0020F8E500201C
S31500004E4094F0002070B5044692B02146002000F090
S31500004E50D3FA0546C0B268B901F0E1FA06466A46D9
S31500004E60314600F016F88DF801406A4631460020BA
S31500004E7009F0C9F8E8B212B070BD80B592B001F081
S31500004E80CEFA00F004F89DF9010013B000BD01460A
S31500004E906A46002009F091B980B592B001F0BFFAD8
S31500004EA0FFF7F5FF9DF8000013B000BD0120704725
S31500004EB080B5FFF7F1FF400918BF012002BD0000D1
S31500004EC00001020304051D200203040508090A0B5C
S31500004ED038B50D46AA88A9680446FDF7DFFAE968E1
S31500004EE041B1A8886A88121A2044BDE8384092B2B7
S31500004EF0FDF7D4BA31BD38B5044603F065FD054665
S31500004F00DFF8C80A83780178994212D0DFF8C00A20
S31500004F10806A641E07D0641E08D0A41E06D0A41E94
S31500004F20032C03D905E00022194600E0002209F00F
S31500004F3026FD284632BD2DE9DC4FDFF8484B03EA53
S31500004F40010BD4E9086727EA010926EA000802EA04
S31500004F50000A49EA0B0948EA0A08B94508BFB045FC
S31500004F600ED0CDE90023C4E908890246A06A0B46A3
S31500004F7009F0D2FF20B1BDE8DC4F4FF4B77107E26C
S31500004F80BDE8D38F78B589B002A80FF6F411DFF823
S31500004F90404A1C22FDF792FAA08BC10700F19080CF
S31500004FA00121012000F0CDFF0A204FF42871607323
S31500004FB0ADF80E10DFF8D00A0FF6B511DFF8CC5AAF
S31500004FC009F0C3FCA06218B94FF4D97100F0AAFC2D
S31500004FD0A06A052109F0DFFD18B14FF4DD7100F07C
S31500004FE0A1FCA06A03F0BFFBDFF8A40A0168A06A6F
S31500004FF00AF005F800F056FA0C2610FB06F0ADF89C
S315000050001A0000F04FFA10FB06F0ADF8160002A9E0
S31500005010A06A0AF01BF818B140F2CF1100F082FC2A
S31500005020A06ADFF8701A00220AF097F818B140F269
S31500005030D31100F077FC0320052120706170A17068
S31500005040002601F07DF8E07000F02CFA142110FB28
S3150000505001F0A08000F026FAC000E080A6604FF0C4
S31500005060FF30DFF8342A40F2A1130146FFF763FF51
S31500005070A06ADFF8281A0AF0D1F8A06A01A90AF096
S3150000508053F918B14FF4FF7100F04CFCA06A0422EA
S31500005090694609F082FC042803D040F2022100F0A0
S315000050A041FC694601200AF060F90AF02DFB012057
S315000050B000F0ECFF03F086FC01F0B9F800F079FE91
S315000050C00AB070BD38B5DFF80849A08B820703D552
S315000050D040F21D2100F0D5FA00212175FEF778F87F
S315000050E00546A08B410709D50AF036FB216B401A0D
S315000050F040F2C532904201D300F079FA01F01DF872
S31500005100607B042820D1FEF763F80546A08B410793
S315000051102BD401F012F8FEF75BF80546E06A401C56
S315000051200AF01CFB00F020000128ACBF0620052079
S315000051306073012100F060FA01F024F800F0FDFF31
S31500005140E06AC178617431BD062830D1DFF87C0889
S31500005150C179FF2937D10AF016FB207C20B3FEF770
S3150000516037F80546A08B410706D504F1140005F073
S31500005170C9FA284600F0F3BE00F0DFFF207C411E8E
S315000051802174FEF725F80446012100F035FA00F0F7
S31500005190F9FF2046FEF722F8BDE8384000224FF618
S315000051A0FF71042001F0DCB96073402007E001289C
S315000051B009D100206073A06A09F0E9FB3F20BDE831
S315000051C0324000F09EBE31BD70B5DFF80448607B0A
S315000051D00E46154618B140F2932100F052FA290006
S315000051E0E66203D0A17811B1012100E00021202060
S315000051F000F0A7FEDFF8A40A01782174002D14BF81
S31500005200E07B0020A0730420607304F1140005F015
S3150000521079FA00F031FABDE87040DFF8F00A00785C
S3150000522005F06FBB2DE9F041FDF7D2FFDFF8A0577F
S315000052308046A88BC10506D5687B10B900F0B9FD7C
S3150000524001E000F08AF800210020FFF754FEDFF8A5
S315000052507C67B079FF27FF2818D0B07928B9B771D5
S315000052600024687B052811D105E0B079B7710128C3
S315000052700CBF4C243324002068734046FDF7AEFF74
S31500005280204600F03EFEFDF7A3FF8046687B062819
S3150000529033D1F079FF2830D0F079022804D105F116
S315000052A0140005F02FFA28E0F07900281CBFF079E9
S315000052B0012826D100F057FE0446F079012818BFD0
S315000052C000200021002C297518BF0028F77109D08D
S315000052D001206873642105F1140005F01EFA00F040
S315000052E0ECFC0BE069734046FDF778FF002C14BF19
S315000052F03F20002000F005FE03E0F7714046FDF771
S315000053006DFFA88B0006C00F05D00021802000F09D
S3150000531018FEFCF769FFFEF785FE0024E883D0B18E
S31500005320687B012806D100210020297568730124B5
S3150000533009F0CAF8687B08B900F03BFDE98B00204C
S3150000534009F0DDF80020E8832CB1687B18B9BDE8C8
S31500005350F04109F0D2B8BDE8F08100214FF4807029
S3150000536000F0EFBD80B5FEF76BFE86E080B5FEF778
S3150000537059FE0028FBD101BD80B500F019F809F0EF
S31500005380DDFE20B1BDE8044040F29D3100E001BDE4
S31500005390DFF8F806FCF732BF80B500F009F809F02F
S315000053A0BEFE20B1BDE804404FF46971F0E701BDCF
S315000053B010460A46DFF8E8380146986A7047DFF873
S315000053C0E008417B481E8041C00F7047DFF8D008D7
S315000053D0417B012901D1012070470020704780B52B
S315000053E0DFF8EC15487B18B14FF4717100F049F9FC
S315000053F000F0DFFC002002BD80B5DFF8A438986A13
S315000054000A2211FB02F109F0C0FD00B1212002BD04
S3150000541080B5DFF88C18886A09F0DAFD0A2190FB5E
S31500005420F1F040B202BDDFF8A4050079704738B547
S31500005430DFF89C55687B002818BF01280C4603D06E
S3150000544040F2E53100F01DF92146002000F00FF88A
S3150000545008B9212032BDDFF874150C71687B10B9CC
S3150000546000F0A7FC01E000F028FC002032BD80B56A
S31500005470DFF85C05806A09F0F3FB401E8041C00F2F
S3150000548002BDDFF81C18C870704780B5DFF8102819
S31500005490906A012109F0FDFA411000EB9170800538
S315000054A0001602BD80B5DFF82815886A09F098FB5A
S315000054B000281FBFDFF81C1CB1FBF0F080B20028EB
S315000054C008BF012002BD80B5DFF80415886A09F01F
S315000054D08BFB00281FBFDFF8FC1BB1FBF0F080B28E
S315000054E0002808BF012002BD10B50C46012100F0BE
S315000054F020F8FFF7D7FF4443DFF8A4070FF2A543D0
S31500005500806A0122214609F069FA002010BD10B513
S31500005510DFF88C47A08BC20603D440F2524100F05C
S31500005520B0F800F005F8A06ABDE8104009F064BACA
S315000055300021102000F005BD0AF00EB910B5DFF805
S315000055406047A06A09F0DFFEC00704D5A06ABDE87F
S31500005550104009F0DDBE10BD80B5DFF84407806A53
