S01C00006275696C642F64656275672F6E63705F656D7074792E73333794
S21400000000080020510900004D0900004D090000BD
S214000010594300004D0900004D0900004D0900003D
S2140000204D0900004D0900004D0900004D09000073
S2140000304D09000038AB02004D0900004D090000D4
S2140000404D090000A57302004D0900004D0900008F
S214000050F56A020011740200B1730200C97302004F
S214000060A97302005D0E0000310F00004D0900006C
S214000070A90400004D0900004D0900004D090000CC
S2140000804D0900004D090000550F00004D09000005
S2140000904D0900004D0900004D0900004D09000003
S2140000A04D0900004D0900004D0900004D090000F3
S2140000B015740200AD730200FD4E00005574020078
S2140000C04D090000755C02004D0900004D09000056
S2140000D04D0900004D0900004D0900004D090000C3
S2140000E04D0900004D0900004D0900004D090000B3
S2140000F04D0900004D0900004D0900004D090000A3
S2140001004D0900004D0900004D09000010B5054CD2
S214000110237833B9044B13B10448AFF300800123AE
S214000120237010BD900B00200000000044D0020099
S21400013008B5034B1BB103490348AFF3008008BD65
S21400014000000000940B002044D00200154B002B4A
S21400015008BF134B9D46A3F5803A00218B460F46F9
S2140001601348144A121A0AF003FF0F4B002B00D054
S21400017098470E4B002B00D0984700200021040023
S2140001800D000D48002802D00C48AFF300800AF09E
S21400019097FE200029000AF0EBFC0AF07DFE00BF67
S2140001A0000008000008002000000000000000001A
S2140001B0900B0020B82D002000000000000000007A
S2140001C038B502F0B4FD084C05462046002130F84C
S2140001D0022B0AF0CDFE0023238084F80232284644
S2140001E0BDE8384002F0A7BDAE0B002038B502F0DF
S2140001F09EFD084C05464FF48062A01C00210AF0C4
S214000200B7FE0023238084F802342846BDE8384031
S21400021002F091BDDC0D002008B5002211464A20F0
S2140002201EF0EFFBBDE80840FFF7CABF08B5FFF7B2
S214000230C7FFFFF7DBFF00F0DFF800F007F9024B1F
S21400024000221A7008BD00BFAC0B0020204991F8B0
S214000250023210B51BB31F4C227802BBD1F8020045
S21400026081F8022220F47F431B4A23F007039342BF
S21400027028D1881D0AF05AFBFFF7A2FF012323703E
S2140002801EF08CFC04681EF089FC230203F4E06375
S214000290C4F3072423430146181D00F0C1F80F4994
S2140002A091F8023493B10B4B1A787AB981F802248C
S2140002B0012231F8020B1A7000F0B2F8BDE81040C7
S2140002C0FFF794BF06311EF0B4FCD5E710BD00BFA3
S2140002D0AE0B0020AC0B00202000FF00DC0D002041
S2140002E080B21EF0E7BB1EF0F0BB0000F8B5036856
S2140002F0104D1C0204F4E064C3F307231C430646B7
S21400030002F015FD074628880434C0F580639C4239
S2140003100BD802302246314628440AF005FE2B88C8
S2140003201C4401232C8085F802343846BDE8F8408A
S21400033002F001BDDC0D0020044B1B88C3F5806372
S214000340834234BF00200120704700BFDC0D002030
S214000350014B00221A707047AC0B00202DE9F341C8
S2140003609046044600B1FEE78DB202F0E0FC1F4F57
S21400037006463888C0F500739D422A461AD80230D1
S214000380414638440AF0D0FD3B882B449BB2032BF1
S2140003903B8019D9D7F802100A0202F4E062C1F3D2
S2140003A007210A4304329A424FF0010402D887F824
S2140003B002420224304602F0BEFC022C06D10C4853
S2140003C000F05CF970B1FEE70124F3E7012C09D1D7
S2140003D000230093074A06484FF4FA7100F068F9C4
S2140003E000B1FEE702B0BDE8F08100BFAE0B002012
S2140003F0B40D00201902000008B54FF40072002169
S21400040005480AF0B5FD4FF4806200210348BDE8B8
S21400041008400AF0ADBD00BFE0110020E013002048
S21400042010B50246044606480AF07EFD0548064B0F
S21400043003490068224601F013FF00B1FEE710BD35
S214000440E013002080090020D505000008B50F49FC
S2140004500C2002F0C1FC0E4B0E494FF48052C3F83C
S21400046080211A600C4B0D4A18680368DA660C4A3D
S2140004709A64DA6C42F42042DA640A4B4FF4007253
S21400048001F068F900B1FEE708BD00BFA90400004E
S21400049000E100E0E011002080090020FF002400B9
S2140004A0FFFF0100110600002DE9F843474C2368C2
S2140004B01B681B6C190440F1878002F038FC246826
S2140004C02368DA6E22F4E022DA66DA6E42F48022DC
S2140004D0DA664FF400429A64074602F028FC636A24
S2140004E09B889BB2804643B902F025FCFFF7AEFF1F
S2140004F03846BDE8F84302F01EBCA06800F044FC95
S2140005000023656A84F82C3002F011FCAB889BB29D
S214000510002BE9D06E884FF01409B6B209FB06F638
S21400052002F009FC06F110012944A068354400F0E9
S21400053073FC274BAB61656AAB889BB283B994F8B2
S2140005403130032B0AD094F83230002B2FD1236899
S2140005505A6F22F001025A670222DA604046C3E769
S21400056002F0E5FBAE88B6B21EB902F0E4FBF36813
S214000570FFDE6E886B88E9885A1C92FBF1F301FB5C
S21400058013239BB26B80AB88013BB6B29BB2AB80A9
S21400059009FB065502F0CFFB6E69002ECBD0EA6849
S2140005A02B690021D31A2046AA68B047C3E7012B5F
S2140005B0D4D123685A6C9207FCD45A6D22F00102FB
S2140005C05A6502225A60C9E7BDE8F8838009002010
S2140005D0097000F070B506460D4640F235543046B8
S2140005E000F099FF830603D4013CA4B2002CF6D198
S2140005F0281C18BF0120FFF7ABFE4FF480620021D5
S2140006000248BDE870400AF0B3BC00BFE01300200B
S21400061008B5081C18BF01201946FFF79FFE4FF4C7
S214000620007200210248BDE808400AF0A1BC00BFE5
S214000630E0110020094A136800214BB1834204D11F
S214000640036A49B10B620120704719461B6AF4E73A
S2140006500028F5D0184670471360F4E7E01700202E
S21400066091F8243033B9044A012381F82430136802
S21400067001331360704700BFE417002010B504462E
S21400068090B104F0D1F92046FFF7D4FF58B194F8A2
S214000690240040B102F04BFB044A1368013B136090
S2140006A002F049FB002010BD2220FCE7E4170020E2
S2140006B02DE9FF41044690461F469DF828500E46F9
S2140006C009B9002D33D12046FFF7D8FF60BB84F868
S2140006D0240003A93046A5B104F092FA20BBCDE968
S2140006E000002346134A0399204604F01EFAD8B9A0
S2140006F0114A84F825501368C4E9068773B9146054
S21400070010E004F07DFA78B9CDE900552346094A91
S2140007100399204604F0E6F9E9E713461A6A002A28
S214000720FBD11C620023236204B0BDE8F0812120C7
S214000730FAE700BF61060000E017002070B5104D14
S2140007402B681BB10F4B1C68002604B970BD94F8CB
S214000750243093B102F0EBFA2B6884F82460013B56
S2140007602B6002F0E8FA94F8253013B92046FFF71C
S21400077061FFD4E9063120469847246AE5E700BFC2
S214000780E4170020E017002008B50121044801F016
S21400079057FE0AF01AF9BDE8084000F009B800BF95
S2140007A000350A000121014801F04ABE00350A0062
S2140007B02DE9F0433B4D3C4FDFF80091DFF8008118
S2140007C00FCD87B06C460FC495E80300374D84E81C
S2140007D003000121364801F033FE3846012101248A
S2140007E001F02EFE334B0293694628468DF80E40E4
S2140007F003F05CFB2346042200210A2002F0DCFF03
S2140008002246002302210A2002F0D6FF23460422B5
S2140008100721052002F0D0FF0422214623460A20A5
S21400082002F0CAFF244BAB670B236B6702264FF41C
S214000830487004F099FBC9F80060142004F094FB9B
S214000840C8F80060232004F08FFBC9F80060B921C7
S214000850284603F06CFB00231A461946C8F80060C9
S2140008600A2002F0A9FF00231A4631460A2002F0A9
S214000870A3FF234600220721052002F09DFF234602
S214000880002221460A2002F097FF284603F0A4FA29
S2140008900021A9673846696701F0D2FD07B0BDE8B8
S2140008A0F08300BF38A50200006204000008014083
S2140008B000350A0000127A001E1D0012ECA100444A
S2140008C0ECA10046114B196801F1704303F5F813CB
S2140008D0B3F5006F0CD20E4B1B68A3F17E62A2F537
S2140008E08432B2F5104F03D209680A4A914203D007
S2140008F000230370836070471968074A9142F7D156
S214000900012202709A6842609B69F3E72800E10FB3
S2140009102808E10FAD1007B007B0CD5E00230360D6
S214000920704703680B60016070470000054A06497F
S2140009301368184488428CBF4FF0FF331060184687
S214000940704700BF0008002000000420FEE70000FB
S21400095008B500F069F8064B0649074A8B4201D3F2
S214000960FFF7F4FB52F8040F43F8040BF6E700BF5A
S21400097000080020900B002048D002000048704776
S21400098000F04902104AD2F8943003F00703023B05
S214000990032B13D8DFE803F00C14020E0B4B1B6876
S2140009A0D2F80001C0F304200130B3FBF0F070472A
S2140009B0074BF4E7074B1B685B08F1E7054BEEE7D0
S2140009C04FF40043ECE700BF00400E401008002044
S2140009D0080800200C08002008B5FFF7D3FF054BD9
S2140009E0D3F80831C3F308230133B0FBF3F0024B0E
S2140009F0186008BD00400E4004080020014B18682F
S214000A00704700BF08080020054B1860054BD3F858
S214000A10943003F00703022B01D1FFF7DDBF7047C8
S214000A200808002000400E40044B054A9A60D3F8A0
S214000A30882042F47002C3F88820704700ED00E07A
S214000A40000000004FF4004070474FF47A70704783
S214000A50014B1868704700BF100800202DE9F04FC2
S214000A609B46584B85B01B78109F9DF844A0DDF838
S214000A705080064689461546002B00F09280072ACD
S214000A8000F291800E9B002B00F08D800F9B002BB8
S214000A9000F08980129BB3F5006F00F38480012874
S214000AA001D1002F7FD0484B03EB05131B7B002B97
S214000AB07BD0464C1022002168460AF059FA04EB17
S214000AC045141022B9F1000F5CD1494620460AF0C1
S214000AD04FFAA37843F01003A370E37843F0300393
S214000AE0E370BAF1000F03D1DBB243F00303E37007
S214000AF03649129BCDF800B06A01013B885A01EBDB
S214000B00020C63F30E1088520E9BCCF808300F9B35
S214000B10CCF804309DF84C109CF80330012E61F39D
S214000B2083038CF8033042D11323CCF80C309CE8B6
S214000B300F000CF1100E8EE80F00DCF81C20CCF82D
S214000B4014706FF0030161F39F02B9F1010FCCF846
S214000B501C2004D10F9BCCF81830CCF804701A492E
S214000B602A018B1841F802800027159A5A602846F9
S214000B709F605E732246694602F094FE384605B0D2
S214000B80BDE8F08F002120460AF0F2F91023A3708A
S214000B900323E370BAF1000FAAD1DBB243F03003AF
S214000BA0A5E70B48EBE70B48E9E70B48E7E7B8F1A2
S214000BB0000FD4D19CF8023068F304138CF802308E
S214000BC0CDE700BF68190020E8170020681800204D
S214000BD0028000F0018000F0078000F038B5104B6E
S214000BE01B780546BBB1C0B102F0A1F80D49002341
S214000BF001EB0312147B3CB92B60012313731460C2
S214000C0002F099F8204638BD0133082BF0D102F0E7
S214000C1092F80548F7E70548F5E70548F3E700BF0B
S214000C2068190020E8170020048000F0028000F019
S214000C30018000F013B5164B1868019000238DF85C
S214000C40043002F074F8134B1C7824B102F073F8E9
S214000C50114802B010BD01221A7002F06CF80F4B5A
S214000C601C731C7783F82C4083F83C4083F84C4078
S214000C7083F85C4083F86C4083F87C4004230DEBDB
S214000C8003008DF8073002F0E3FD2046E1E700BFE1
S214000C9050A5020068190020038000F0E817002025
S214000CA010B588B00E9C07940D9C06949DF83040B5
S214000CB005940B9C04949DF8284003940024CDE9E9
S214000CC0013400920B46024621462046FFF7C6FE38
S214000CD008B010BD10B588B00E9C07940D9C069405
S214000CE09DF8304005940B9C04949DF8284003948E
S214000CF00024CDE9013400920B460246012120462D
S214000D00FFF7ACFE08B010BD08B50A4B1B785BB108
S214000D1007280BD8084B03EB00131B7B43B10021BD
S214000D2002F08CFD002008BD0448FCE70448FAE702
S214000D300448F8E768190020E8170020028000F051
S214000D40018000F0078000F008B50A4B1B785BB105
S214000D5007280BD8084B03EB00131B7B43B101217C
S214000D6002F06CFD002008BD0448FCE70448FAE7E2
S214000D700448F8E768190020E8170020028000F011
S214000D80018000F0078000F008B50A4B1B7853B1CD
S214000D9007280AD8084B03EB00131B7B3BB102F075
S214000DA0D3FD002008BD0548FCE70548FAE70548DE
S214000DB0F8E700BF68190020E8170020028000F05E
S214000DC0018000F0078000F00D4B1B7893B10728D8
S214000DD012D889B10B4B03EB00131B7B73B10A4B84
S214000DE01A6A012303FA00F010401ABF00200B70A5
S214000DF008707047054870470548704705487047B3
S214000E0068190020E817002000200E40028000F03D
S214000E10018000F0078000F00B4B1B7810B50C46E5
S214000E2063B107280CD859B1084B03EB00131B7BA2
S214000E3043B102F09FFD2060002010BD0448FCE78F
S214000E400448FAE70448F8E768190020E817002085
S214000E50028000F0018000F0078000F02DE9F843E2
S214000E60174E326EF36E12EA030800D5FEE7154CF5
S214000E70DFF854900127002518EA070F16D02368DC
S214000E80B7669BB1A16862680131A16028469847A1
S214000E90637B012B0AD148B909EB4513197B1A7FEE
S214000EA060F3410160F3410219731A770135082D8A
S214000EB04FEA470704F11004DED1BDE8F88300BF0F
S214000EC000200E40E81700206818002070B5094E74
S214000ED00446012504B970BD94FAA4F0B0FA80F077
S214000EE005FA00F324EA030456F82030002BF1D06C
S214000EF09847EFE76C190020054B4FF48022C3F8A3
S214000F0080211A604FF48062C3F880211A6070470F
S214000F1000E100E038B504460D4601F008FF034B3B
S214000F2043F82450BDE8384001F005BF6C19002096
S214000F30074BD3F82804D3F81C24104020F42A507A
S214000F4020F02A004004400CC3F82404FFF7BEBF7C
S214000F5000A00040074BD3F82804D3F81C24104008
S214000F6020F4AA4020F055000004000CC3F8240426
S214000F70FFF7ACBF00A0004038B141B1013AB2F56E
S214000F80006F044838BF0020704703487047014888
S214000F90704700BF037000F0027000F038B50446DA
S214000FA00D4601F0C4FEA28892B222B92A6001F072
S214000FB0C2FE064838BD6388142202FB034308338A
S214000FC02B6001F0B8FE0020F4E700BF0B7000F0C5
S214000FD038B504460D4601F0AAFEA3889BB223B995
S214000FE02B6001F0A8FE0C4838BD6388E188142207
S214000FF002FB034308332B6063885A1C92FBF1F311
S21400100001FB13239BB26380A388013B9BB2A380A2
S21400101001F091FE0020E7E70B7000F0034610B5E4
S21400102093F832300068012B0AD102F0D9FC04464E
S21400103003F0E0FD24235843B0FBF4F0013010BD6C
S21400104002F09EFEF3E70000427E30235343044A3C
S2140010501A44437F03EBC2039B001868C0B2704774
S2140010601CA0104213B51D4A002352F82340617F8E
S21400107081420ED00133042BF7D102B010BD0028F8
S214001080FBD19DF80730002BF7D06068FFF73CFED9
S214001090F3E794F83130022BEFD12046FFF7D4FF68
S2140010A0637D2075022BE8D194F82E3003F0FF0202
S2140010B0002BE2D102A9606801F8012DFFF784FE3B
S2140010C0237D1BB194F82F30002BD8D0002384F852
S2140010D02F306068FFF738FECFE700BFAC1900205E
S2140010E090F8323053B903680122DA601A69D007E3
S2140010F0FCD55A6F42F001025A677047012B0CD19B
S21400110003685A6C9107FCD401225A609A68D20789
S214001110FCD55A6D42F001025A65704790F832309D
S2140011203BB903685A6F22F001025A670222DA605E
S2140011307047012B09D103685A6C9207FCD45A6D8C
S21400114022F001025A6502225A6070470F49104B7E
S2140011500A782AB9C3E90022C3E9022201220A70EA
S214001160002253F82210814208D00132042AF8D116
S214001170002153F821201AB943F8210000207047B7
S21400118001310429F5D10348704700BFBC1900207F
S214001190AC190020027000F010B50446FFF74AFDB7
S2140011A00021201DFFF71AFD014608B1044810BDB6
S2140011B004F10800FFF712FD0028F8D0F6E700BF9C
S2140011C00E7000F02DE9F04104461746884601F0FF
S2140011D0AEFDA388E2889A42054606D800233B6007
S2140011E001F0A9FD1148BDE8F0812088142606FB11
S2140011F0004032464146083009F096FE2288238891
S214001200E18806FB024208323A605A1C92FBF1F370
S21400121001FB13239BB22380A38801339BB228468D
S214001220A38001F088FD0020DDE700BF0A7000F013
S21400123038B5044601F07BFD616B013905466163F4
S21400124019B9044A012003F00FF92846BDE83840D2
S21400125001F071BD80A5020037B591F832200B6809
S214001260012A0BBF9C681C69C4F3C004C4F3401475
S2140012700D46084634B1FFF7DBFF022385F8383009
S21400128003B030BDFFF7CAFECDE9004401462B4649
S214001290024A034803F026FCF2E700BF591200009A
S2140012A0A027002038B5044601F041FD636B0546D3
S2140012B023B90121054A084603F0D6F8636B0133CB
S2140012C063632846BDE8384001F035BD80A50200BE
S2140012D070B5012380F82C3090F8323086B0044682
S2140012E00E46ABB920462568FFF7DCFF0B4B039391
S2140012F000230293736801931C3501230093049422
S2140013002B4632682169A068FFF7E4FC06B070BD82
S214001310012BE7D0002380F82C30F7E7AD1700004C
S214001320F0B5012380F82D3090F8323089B00446AD
S2140013300F465BBB0568343501F0F9FC0DF11F0163
S2140013400646194803F0B2FB40B99DF81F302BB192
S214001350154803F069FB2046FFF76AFF3046012672
S21400136001F0E9FC204684F83860FFF79BFF0F4B3E
S21400137003930023049402937B68E1686068CDE9D8
S21400138000632A463B68FFF78BFC0BE0012B06D177
S21400139005682B6843F4005345F8283BCCE7002348
S2140013A080F82D3009B0F0BDA0270020B113000052
S2140013B0F0B585B003A9906A1446FFF7EFFD064620
S2140013C02046FFF72BFE002523460146CDE90055B3
S2140013D01A4A1B4803F086FB1A4B9E421FD0039BFB
S2140013E01D619D6001F0A3FC039AD768064627B1ED
S2140013F0D2E9002329462046B84703A9A06AFFF78A
S214001400E7FDA06A83889BB263B103A9FFF7C6FD18
S21400141003992046FFF784FF304601F08CFC01203C
S21400142005B0F0BD84F82D3094F83230012B01BFA2
S2140014302268136823F400531360EDE75912000086
S214001440A02700200B7000F073B504460D46C07D43
S214001450E67E002934D001230422314602F0ACF99E
S21400146001230222217F207E02F0A6F994F8313073
S214001470022B16D100230122617F607E02F09CF9C8
S21400148000230422A07EA17F02F096F90123627F4A
S214001490607E01930093114602F042F9002002B0EC
S2140014A070BD032BFAD100230122617F607E02F01B
S2140014B083F900230422A17FA07E02F07DF9EDE7E8
S2140014C00B460A46314602F077F92B462A46217F1C
S2140014D0207E02F071F994F83130022B10D12B46A1
S2140014E02A46617F607E02F067F92B462A46A07E78
S2140014F0A17F02F061F9627F607E01950123C9E752
S214001500032BCBD12B462A46617F607E02F054F92E
S2140015102B462A46CFE790F8323013B9036818698D
S2140015207047012B1CD103689B6803F00200DA07A2
S21400153048BF40F00100590748BF40F008001A07AE
S21400154048BF40F02000D90648BF40F040009A0649
S21400155048BF40F080005B0603D540F4005070475B
S214001560002070472DE9F04104460E461746FFF767
S21400157003FD804650BB092001F0EEFB0546A26A3B
S21400158093889BB213B194F82E3013B394F832209C
S21400159022BB23681D6915F0020533D0012384F8A9
S2140015A03030002A3FD13744BE42206836D1036926
S2140015B09E06FCD555B994F83230002B42D12368EC
S2140015C05A6F22F002025A670822DA604046BDE8E7
S2140015D0F081002DD4D0FFF741FCD0E7012A1BD1C3
S2140015E023689D6815F00205D8D1596C8807FCD48D
S2140015F00421596099688907FCD5596D41F00201AC
S2140016005965CBE70421D96019698907FCD5596F5C
S21400161041F002015967C1E70025BFE716F8011B34
S21400162002F08FFCC0E7012AD0D13744B7422068C9
S21400163003D183681907FCD5BCE716F8011B02F036
S214001640E3F9F3E7012BC1D123685A6C9207FCD467
S2140016505A6D22F002025A6508225A60B6E7000068
S21400166010B50446B0B190F82E3033B990F831304A
S214001670022B0AD06068FFF747FB94F82E30013340
S214001680DBB284F82E30002010BDFFF7DDFC00280A
S214001690F3D1EFE70048F7E7027000F010B5044614
S2140016A0D0B190F82E30CBB190F82E30012B06D169
S2140016B090F83130022B0AD06068FFF745FB94F8AB
S2140016C02E30013BDBB284F82E30002010BDFFF731
S2140016D0BBFC0028F3D1EFE70148F7E70148F5E740
S2140016E0027000F0057000F037B590F83150022D0A
S2140016F0044618D1A37F407D01229A40A37E302164
S2140017005943134B0B4410B903F1806303E00128DF
S21400171005D103F1C0631A60002003B030BD217DFF
S2140017200029F6D1F0E7012DF6D1037D73B9112318
S2140017308DF80730FFF794FF2A460DF10701204683
S214001740FFF710FF2046FFF7A9FFE5E71323EFE7B3
S2140017500CA00040F0B587B004461646FFF70CFC18
S2140017600546F0B9CDE9011604936A460E4B606A49
S214001770039601A90593FFF725FD054688B994F859
S2140017802C3073B92046FFF7ABFC00992046FFF7D4
S2140017909FFD94F83130032B03D025752046FFF7C4
S2140017A0A3FF284607B0F0BD017000F073B5506A7D
S2140017B001A91446FFF7F2FB05462046FFF738FD61
S2140017C0334B9D422FD094F83200019B002836D12F
S2140017D02268116C11F4007128D02E4919619860A6
S2140017E04FF40073936401F0A2FA0199CD6806469F
S2140017F035B14A688B682046D31A0A680969A84733
S21400180001A9606AFFF7E4FB606A8588ADB2002D27
S2140018102FD001A9FFF7C2FB01992046FFF758FD1C
S214001820304601F088FA012002B070BD106CC50584
S2140018301BD51948186199604FF48073D2E70128C8
S21400184013D12268D16A11F0800106D011491961BE
S2140018500021996080235363C5E7D06A400604D50B
S2140018600D48186199604023F5E700221A619A60D6
S214001870B9E7012323752046FFF736FF94F8313089
S21400188084F82C50032BCBD02046FFF747FCC7E745
S2140018900B7000F00D7000F00C7000F02DE9F041B8
S2140018A0094F04460D460FCF88B001AE0FC697E825
S2140018B0070086E80700002C00F0C88445B9034EF0
S2140018C0304608B0BDE8F08164A50200037000F061
S2140018D03C220021204609F04BFB00236363204690
S2140018E0FFF734FC06460028EAD12B7C84F831301A
S2140018F001222B6884F83820CC4A2360934284F86F
S214001900320040F07F81CA4B2362CA4BE3604FF43B
S21400191040232361D5E9062300266262168056809E
S214001920968084F82C60A3621E805E809E806B6822
S21400193003936B89ADF81430AB89ADF81230AB7BEE
S2140019408DF810300121EB7BBB4884F82D6084F8BD
S2140019502F6005278DF816308DF8117000F070FD99
S2140019600121B64800F06CFD0121206A00F068FDF8
S21400197001A928688DF8046002F060FAD5F800C066
S2140019806A7ADCF878002B7A20F4F85020F01F00F2
S214001990104340EA03200321CCF87800CCF87410FA
S2140019A02068DFF888C2604540F06181BB4240F2A3
S2140019B07981981F042840F27781A3F10B00B84282
S2140019C040F27481A3F11100062808D9A3F118018A
S2140019D0062940F26D811F2B14BFFF213946042AC9
S2140019E0E17540F26781511F042940F26581A2F13A
S2140019F00A01052940F26281A2F11001062940F28F
S214001A005F81A2F11701072940F25C811F2A14BFEB
S214001A10FF2100212176002B58D0012B56D0022B17
S214001A2054D0032B52D0042B50D0052B4ED0062B6F
S214001A3000F05281072B00F05181082B00F05081F6
S214001A40092B00F04F810A2B00F04E810B2B00F083
S214001A5059810C2B00F038810D2B00F037810E2BAE
S214001A6000F036810F2B00F03581102B00F034810A
S214001A70112B00F02D81122B00F02C81132B00F07F
S214001A802B81142B00F02A81152B00F02981162BB0
S214001A9000F02881172B00F02781182B00F02681F4
S214001AA0192B00F025811A2B00F024811B2B00F047
S214001AB023811C2B00F022811D2B00F021811E2B80
S214001AC000F020811F2B0CBF0723FF23E376002A9C
S214001AD000F0A883012A00F0A783022A00F0908372
S214001AE0032A00F08F83042A00F08E83052A00F074
S214001AF08D83062A00F08C83072A00F08B83082A41
S214001B0000F08A83092A00F089830A2A00F06E838F
S214001B100B2A00F06D830C2A00F06C830D2A00F06F
S214001B206B830E2A00F06A830F2A00F06F83102A58
S214001B3000F06283112A00F06183122A00F06683A7
S214001B40132A00F06583142A00F06483152A00F037
S214001B506383162A00F06283172A00F06183182A2E
S214001B6000F06083192A00F05F831A2A00F0488389
S214001B701B2A00F047831C2A00F046831D2A00F02B
S214001B8035831E2A00F034831F2A14BFFF23002348
S214001B9023776B7C6376AB7C6377EB7CA3762B7DBD
S214001BA0A37701212046FFF74FFC064600287FF466
S214001BB087AE01F0BCF82F7C032F804640F03683BA
S214001BC02B682A8CDA675A6E42F004025A665A6FFD
S214001BD042F030025A6728684FF0FF3383642B7C4C
S214001BE0032B0CBF0521042102F0EEF82B684FF4FE
S214001BF04062DA602046FFF7CFFA0646404601F01C
S214001C009AF85DE60E4A934206D10E4B23620E4BBF
S214001C10E3604FF450237CE60C4A93421CD10C4BF5
S214001C2023620C4BE3604FF4602372E60000014031
S214001C300042040001000C004041050000350A0087
S214001C40000401400052040001000D00000801409D
S214001C500062040001000E00C54A93427FF42FAED6
S214001C60C44B2362C44BE3604FF4702351E6DFF8A5
S214001C700CC3604548D1052B14D9981F042813D9E6
S214001C80A3F10B00052811D9A3F1110006287FF651
S214001C90A6AEA3F1180106290AD91F2B14BFFF21EF
S214001CA005219CE631469AE6012198E6022196E651
S214001CB0394694E60021ADE60121ABE60221A9E60D
S214001CC00321A7E60521A5E60723FFE60823FDE690
S214001CD00923FBE60A23F9E60B23F7E60C23F5E6D1
S214001CE00D23F3E60E23F1E60F23EFE60023EDE6E1
S214001CF00123EBE60223E9E60323E7E60423E5E611
S214001D000523E3E60623E1E6DFF874C2604540F00B
S214001D103981042B40F2F880591F032940F2F680DF
S214001D20A3F10901042940F2F380A3F10E010E2964
S214001D3040F2F080A3F11D01012940F2ED801F2B37
S214001D4014BFFF210A21032AE17540F2E780111F24
S214001D50032940F2E580A2F10801042940F2E2805E
S214001D60A2F10D010E2940F2DF80A2F11C0102292A
S214001D7040F2DC801F2A14BFFF2100212176002BB1
S214001D8000F0DC80012B00F0DB80022B00F0DA8014
S214001D90032B00F0D980042B00F0D880052B00F030
S214001DA0E380062B00F0E280072B00F0C180082BB2
S214001DB000F0C080092B00F0C3800A2B00F0C28020
S214001DC00B2B00F0C1800C2B00F0C0800D2B00F018
S214001DD0BF800E2B00F0C8800F2B00F0C780102BA2
S214001DE000F0A880112B00F0A780122B00F0A68030
S214001DF0132B00F0A580142B00F0A480152B00F008
S214001E00A380162B00F0A280172B00F0A180182BC1
S214001E1000F0A080192B00F09F801A2B00F09E8007
S214001E201B2B00F09D801C2B00F09C801D2B00F0CF
S214001E309B801E2B00F09A801F2B0CBF0223FF23D3
S214001E40E376002A00F0D281012A00F0D181022A2E
S214001E5000F0D081032A00F0CF81042A00F0E08150
S214001E60052A00F0DF81062A00F0DE81072A00F04E
S214001E70C781082A00F0BA81092A00F0B9810A2A27
S214001E8000F0B8810B2A00F0B7810C2A00F0B6816A
S214001E900D2A00F0C5810E2A00F0C4810F2A00F03A
S214001EA0AF81102A00F0AE81112A00F0AD81122A0F
S214001EB000F09C81132A00F09B81142A00F09A817E
S214001EC0152A00F09981162A00F09881172A00F04A
S214001ED09D81182A00F09C81192A00F09B811A2AFD
S214001EE000F09A811B2A00F099811C2A00F0988144
S214001EF01D2A00F097811E2A00F096811F2A08BF2F
S214001F00052318BFFF2343E631461CE708211AE7DE
S214001F10012118E7394616E70A2114E700212DE7C4
S214001F2008212BE7012129E7052127E70A2125E7D4
S214001F30022385E7032383E7042381E705237FE75E
S214001F4006237DE707237BE7082379E7092377E75E
S214001F500A2375E70B2373E70C2371E70D236FE75E
S214001F600E236DE70F236BE7002369E7012367E77E
S214001F70000C01400072040001000F000004014044
S214001F8000080140B34EB0427FF499AC072B21D92C
S214001F90A3F10801012940F2EF80A3F10A01052907
S214001FA040F2EC80A3F11001012940F2E980A3F190
S214001FB01201052940F2E680A3F11801042940F237
S214001FC0E380A3F11D01012940F2E0801F2B14BF1E
S214001FD0FF210A21062AE17540F2DA80D11F012985
S214001FE040F2D880A2F10901052940F2D580A2F17D
S214001FF00F01012940F2D280A2F11101052940F219
S214002000CF80A2F11701042940F2CC80A2F11C0176
S214002010022940F2C9801F2A14BFFF21032121761E
S214002020002B00F0C780012B00F0C680022B00F0CA
S214002030C580032B00F0CC80042B00F0CB80052B52
S21400204000F0CA80062B00F0C980072B00F0C8807D
S214002050082B00F0B580092B00F0B4800A2B00F0A6
S214002060A5800B2B00F0A4800C2B00F0A3800D2B7A
S21400207000F0A2800E2B00F0A1800F2B00F0A880AD
S214002080102B00F0AB80112B00F0AA80122B00F072
S214002090A980132B00F0A880142B00F09180152B3C
S2140020A000F09080162B00F08F80172B00F08E80AB
S2140020B0182B00F08D80192B00F08C801A2B00F066
S2140020C08B801B2B00F08A801C2B00F089801D2B38
S2140020D000F088801E2B00F087801F2B0CBF022389
S2140020E0FF23E376002A00F08780012A00F086802E
S2140020F0022A00F08B80032A00F08A80042A00F06F
S2140021008980052A00F08880062A00F08780072A42
S21400211000F08A80082A73D0092A67D00A2A67D076
S2140021200B2A67D00C2A67D00D2A67D00E2A6DD0EE
S2140021300F2A71D0102A71D0112A71D0122A71D0AC
S214002140132A71D0142A5BD0152A5BD0162A5BD0CE
S214002150172A5BD0182A5BD0192A5BD01A2A5BD0C4
S2140021601B2A5BD01C2A5BD01D2A5BD01E2A5BD0A4
S2140021701F2A08BF0823C4E608212BE7012129E708
S214002180092127E7022125E7052123E70A2121E780
S214002190032144E7082142E7012140E709213EE701
S2140021A002213CE705213AE70A2138E7062398E7AB
S2140021B0072396E7082394E7092392E70A2390E784
S2140021C002238EE703238CE704238AE7052388E7A8
S2140021D00B2386E70C2384E70D2382E70E2380E794
S2140021E00F237EE700237CE701237AE70623CFE46C
S2140021F00723CDE40823CBE40923C9E40A23C7E474
S2140022000323C5E40423C3E40523C1E40B23BFE48E
S2140022100C23BDE40D23BBE40E23B9E40F23B7E47F
S2140022200023B5E40123B3E40223B1E4022F7FF4D4
S214002230D2AC607F0849FEF76DFEFEF75DFEA67520
S214002240267567752046FFF74FFAC4E4034EFFF77E
S21400225037BB00BF000C014065100000027000F0A4
S214002260F0B587B004461646FEF786FE054600BB68
S214002270CDE9011604936A460F4BA06A039601A99E
S2140022800593FEF79FFF054698B994F82D3083B95D
S21400229000F04DFDA36A9B889BB2064633B10099B9
S2140022A02046FFF73DF8012384F83030304600F032
S2140022B042FD284607B0F0BD017000F00B4B1B78BE
S2140022C030B58BB101200A4C0023054654F8232074
S2140022D032B192F83810022904BF82F83850084606
S2140022E00133042BF2D130BD0120FCE7BC190020DD
S2140022F0AC1900200C4B984210D90C4B984210D9C0
S214002300022201230A490B600A49D1F8003123F062
S214002310807343EA0263C1F8003170470022134617
S214002320F0E70122FBE700BF0048E8010090D00379
S2140023304000C84300400E400E4B30B50E4C5B6864
S214002340C9B2002304EBC30215798D4203D154F8B9
S214002350335085420BD20133052BF3D103220549B6
S2140023604B6823F0407343EA02634B6030BD5279FA
S214002370F5E700BF00000E4098A5020038B5074CF0
S21400238041F67133256C2364FEF7F8FA0021FFF757
S214002390D3FF0DB10023236438BD00BF00000E40FC
S2140023A0044B1B685B0603D4034A1368002BFCD15E
S2140023B0704700BF3C300E40C800C64308B5FFF764
S2140023C0EFFF024B5868C0F3014008BD00300E40D6
S2140023D0044BD3F84421D20703D4D3F8402110424B
S2140023E0FBD1704700400E400C4AD2F89030516A3C
S2140023F00B4B21F0300141F0100110B55162146B07
S214002400C0F3C31103310F2903EA040328BF0F21C9
S214002410034343EA0173136310BD00BF00400E4040
S21400242000F8FF0F38B5054C41F67133256C236470
S214002430FFF782FF0DB10023236438BD00000E4075
S214002440C0F30322013A38B50546092A13D8DFE857
S21400245002F023131212051619121C20104C00202D
S214002460C5F3043508B1FFF7B3FF04F1047405EBB8
S214002470C404A400216038BD00200A4CF0E7012007
S214002480094CEDE71020094CEAE74FF48030084C81
S214002490E6E70020074CE3E70020074CE0E700BF34
S2140024A0B0400E40C0400E40E0400E40E8400E40B7
S2140024B0F0400E4050410E4000400E40C0F3031363
S2140024C0013B092B2AD8DFE803F0050B0F19292951
S2140024D01F23374B274BD3F80001C0F30420704767
S2140024E0244BD3F81401F8E7224BD3F80001C0F3CD
S2140024F00060431C01209840013870471D4BD3F8FC
S2140025000C01C0F3082070471A4BD3F80801F8E70F
S214002510194B984204D0194B984207D000207047B8
S214002520144BD3F8203103F00F03E3E7114BD3F835
S2140025302031C3F30113DDE7114B98420CD003F5AD
S214002540B01303F580539842E8D10A4BD3F828011C
S214002550C0F30120031DCDE7064BD3F82831E8E78A
S214002560084B9842DAD1034BD3F8300100F0030051
S214002570704700BF00400E408006160080162E00F2
S21400258090171A00A009140008B5FFF797FF01304E
S21400259008BD000000F00F000138072848D8DFE823
S2140025A000F0040F1947232D4735244BD3F89430F9
S2140025B003F00703023B052B3CD8214AD05C70474A
S2140025C01E4BD3F8803003F00703013B032B33D8B0
S2140025D01C4AF3E7194BD3F8843003F00703013B9A
S2140025E0032B29D8184AE9E7144BD3F8883003F0B0
S2140025F00703013B032B1FD8144ADFE70F4B1B6F63
S21400260013F0010F14BF0920072070470B4BD3F8B7
S2140026105C3103F03003202B06D0302B06D0102B75
S2140026200CBF072001207047042070470820704721
S21400263000207047052070470120704700400E407C
S21400264088A502008EA5020092A502008EA50200B3
S21400265008B50146FFF79EFF1B4B994211D01B4B56
S214002660994212D01A4B994204D11A4BD3F88000E3
S21400267000F007000138032824D8DFE800F00A0E2F
S2140026801612144BD3F88400F2E7124BD3F88800E6
S214002690EEE7BDE80840FEF7D5B9BDE80840FEF70E
S2140026A0D7B9BDE80840FEF7D0B9FEF76BF9094B7D
S2140026B0D3F80031C3F300635A1C01239340B0FBE8
S2140026C0F3F008BD0020FCE703002000050024000E
S2140026D002001E0000400E4000F47813B3F5B01F51
S2140026E010B504467DD029D8B3F5202F07D00AD8D8
S2140026F0B3F5003F62D0B3F5802F54D05BB9BDE888
S2140027001040FEF73FB9B3F5602F00F0838004D881
S214002710B3F5402F58D0002010BDB3F5801F00F051
S2140027209080B3F5A01FF6D14C48FFF791FF4C4BB5
S214002730D3F8303103F00303D840EDE7B3F5101FAC
S21400274066D011D8B3F5F01F46D0B3F5001F53D0AE
S214002750B3F5D01FDFD14348FFF77AFF404BD3F8DD
S2140027602821C2F3011244E0B3F5401F46D00BD82F
S214002770B3F5381FCFD13C48FFF76AFF384BD3F884
S2140027802031C3F30113D7E7B3F5481F4BD0B3F599
S214002790781FC0D1FEF7F6F801462046FFF7F4FE94
S2140027A0B1FBF0F0B8E7FEF7EDF82D4BD3F80C319F
S2140027B0C3F308230133B0FBF3F0ADE7FEF7E2F80E
S2140027C0274BD3F80831F3E7FEF7DCF8244BD3F8B1
S2140027D01431C3F30423EDE72348BDE81040FFF7A8
S2140027E037BF2148FFF734FF1D4BD3F8202102F0F6
S2140027F00F0201239340DEE71A48EEE71948FFF779
S21400280027FF174BD3F82831C3F301231A1DF0E72F
S2140028101248E2E71548FFF7BDFE072811D0092841
S2140028207FF479AF6BE71248FFF7B4FE072808D0AD
S214002830082809D004287FF46EAFBDE81040FEF7E4
S214002840DDB80C4B186867E7FEF79CF8044BD3F826
S2140028500031C3F3042303FB00005DE705002400FA
S21400286000400E400300200002001E0006000E007E
S214002870B80032001408002008B5FFF78BFE0228C7
S2140028800ABF024B4FF6FF70188808BD18080020D4
S214002890014B1880704700BF180800200E4B5A6A7C
S2140028A012F0300F04D0202913D0302900D011B9EF
S2140028B04FF4400200E0094AD3F8901032EA0101D2
S2140028C0FAD1520246BFD3F8A000C0F38020012000
S2140028D070474FF40002EFE700400E40FF33E10779
S2140028E002280AD129B1064B4FF48060C3F8A8002D
S2140028F0596612B10220FFF7D1BF0120704700BF12
S21400290000400E40F8B5042850D8DFE800F00A036F
S214002910116F74008026402406230725002951D015
S21400292048E04FF400764FF4807408230925F5E755
S214002930002944D0324C636A13F0300F37D1314B44
S214002940DB6B636ADB0705D5636A23F0300343F06D
S21400295010036362042402230325294E34662A4E9C
S21400296033449B001F68002FFCD0FAB13544AD00FD
S2140029702B68002BFCD0022818D1B9B1204E716A02
S21400298011F0010118D001222021FFF7A9FFD6F887
S2140029909C70012200210220FFF7B4FFC7F30A0053
S2140029A0FFF722FD34662B68002BFCD0F8BD04240C
S2140029B0022303250021D0E7FFF770FFE7E708268C
S2140029C0022303250E4901200E6600FA03F3D1F810
S2140029D090001842FBD1002AE8D00123084A03FAE7
S2140029E005F5D2F890302B42FBD1DFE70124022612
S2140029F00023254692E720261024042305258DE78C
S214002A0000400E4000300E408004F210112870B5D1
S214002A1006460C4626D1042912D1FDF7EFFF0546DF
S214002A20A8B10021284600F017FC06F00F06013E6C
S214002A30072E6FD8DFE806F023186A6E68886E9354
S214002A40052904D1614B1D68614B9D42E9D8023CC3
S214002A500A2C5FD8DFE804F01E4E40475E5E5E5EDE
S214002A605E52B5000025E0E75A4D013C092C51D8CE
S214002A70DFE804F068515850505F5050504E023C0A
S214002A800A2C47D8DFE804F0073729304646464682
S214002A90463B3E0000250020042401221146FFF795
S214002AA031FFFFF76BFC0DB1FFF77AFC4A4B5C6712
S214002AB0FDF792FF0446FDF765FFFFF71BFCFFF7E7
S214002AC07DFC01462046FFF7ADFC1DBB28460121D4
S214002AD0BDE8704000F0C0BB00254048FFF70AFC88
S214002AE002200446D9E700253C48FFF703FC0124F2
S214002AF00320D2E7002501200324CEE7002503208B
S214002B000524CAE70724CCE7354DAEE7354DACE7DC
S214002B1004232B6070BD012211460020FFF7F2FE51
S214002B200223F6E7012211461046FFF7EBFE0123CB
S214002B30EFE7FDF727FFFFF7DDFB2B4B01221A60BF
S214002B400323E6E70023E4E7072C04D0092CE1D1B1
S214002B50214B012201E0204B00221A67DAE7013CF4
S214002B60072CD7D801A353F824F000BFBF2B0000D2
S214002B70152B0000152B0000B12B0000152B0000B4
S214002B80152B0000A32B00008D2B000003221249FA
S214002B90D1F85C3123F0300343EA0213C1F85C310C
S214002BA0B8E7012211460420FFF7ACFE0122EEE74B
S214002BB0012211460220FFF7A5FE0222E7E70022C7
S214002BC0E5E7FFF7DBFB002507246FE70C0800208E
S214002BD0002D310180400E4000400E400148E801C3
S214002BE088400E4084400E400816C843F8B50E468E
S214002BF015460AB1184B1B68184B5A6A002E14BFAC
S214002C004FF08053002322F04052002D14BF4FF0A7
S214002C100054002413431C43FDF7F0FE0121074631
S214002C2000F01AFBA5B1FFF7C9FB01463846FFF7CF
S214002C30F9FB1120FFF7A8FCB7FBF0F0FFF75AFBF3
S214002C40012211460220FFF75DFE044B5C62F8BDD0
S214002C50002EF5D1F9E700BF00300E4000400E40D0
S214002C6010B504461120FFF795FC01220021022032
S214002C70FFF748FE174A217C536A23F00103022916
S214002C8008BF43F001035362134B21781960637A3F
S214002C90A18843EAC123D362136BA07A217A03F09A
S214002CA07F630343E08843EAC02343EAC11303314A
S214002CB00F2928BF0F2143EA01731363A37B617BAF
S214002CC01B0143EA0133E17B0B43217B43EA0143CB
S214002CD0536310BD00400E40A004C843014638B5FB
S214002CE01120FFF757FC0C4D0C4BAA6B0C781340C9
S214002CF01C434B7844EAC3248B7844EA0364CB78BD
S214002D0044EA0324AB6BA34205D000210122084607
S214002D10FFF7F8FDAC6338BD00400E4080E4FFF8D6
S214002D20EFF3108072B6704700B962B67047EFF3E3
S214002D30108072B67047FFF7F7BF00004109054ADA
S214002D4000F01F0352F82100D840C04300F00100F5
S214002D50704700BF00E100E010B50446EFF31083B3
S214002D60DB0733D4FFF7EAFF00282ED1002CA7BFDD
S214002D7004F1604404F5614404F00F04144BACBF46
S214002D8094F800231A5D5209EFF3118313B1B2EBE6
S214002D90531F1BD20F4C6368C3F30803ABB1103B41
S214002DA0DBB259B20029B5BF03F00F0301F160434F
S214002DB0043B03F56143B6BF1B1993F80003187E66
S214002DC04009824234BF0020012010BD0120FCE7EC
S214002DD014ED00E000ED00E0024B9B6803EB800082
S214002DE00164704700ED00E0F0B5059D9DF8187091
S214002DF000249C4202D10C4B9A60F0BD37B18C4245
S214002E000ED250F8246042F8246005E08C4252F856
S214002E10246003D2002EF4D00134EAE7002EFBD162
S214002E2042F82450F8E700BF00ED00E00E2910B588
S214002E3043680DD801228A4047F2E004224223F07C
S214002E401F0306D140F61F74224201D01943416089
S214002E5010BD41F01001F9E770B5066A056A046A0C
S214002E60036A102AC1E90065C1E9024307D1056A71
S214002E70046A026A036AC1E90454C1E9062370BD04
S214002E80034B186880F04000C0F38010704700BF06
S214002E903C300E4042EA032340F2011293422BD00C
S214002EA0B3F5817F08D2012B1DD030D3B3F5807FD8
S214002EB031D0002213461CE040F20122934222D079
S214002EC006D8B3F5007FF4D1174BD3F870310DE078
S214002ED0B3F5407F23D040F201329342E9D1124B42
S214002EE0D3F878310BE0104BD3F87431C3F30722D4
S214002EF0DBB203600A6070470B4BD3F874311A0ECE
S214002F00C3F30743F5E7084BD3F87831EEE7064BF3
S214002F10D3F86C31EAE7044BD3F86C31EFE7024B99
S214002F20D3F87031EBE700BFB081E00F08B5FFF7CC
S214002F30A7FF18B1024A1368002BFCD108BD00BFDA
S214002F40C800C64308B5FFF79BFF80B1FFF7EEFF4A
S214002F50074B19685A68C1F30121C2F30142914236
S214002F601A688CBF42F0100222F010021A6008BDE8
S214002F7000300E40064B1B68DB0608D5054B1B6968
S214002F80C3F30443082B02BF034B044A1A6070477E
S214002F9000300E4000400E400C080020C0EA210120
S214002FA0154B0228D3F8803113D0032814D00128FB
S214002FB014BFDBB2C3F307231B0323F47042B1B97B
S214002FC0BAB90E49CA6E22F470421343CB6601208A
S214002FD07047C3F30743EFE71B0EEDE70749D1F849
S214002FE0EC2022F470421343C1F8EC30EFE7002ADD
S214002FF0F4D00020704700BFB081E00F00300E40D4
S21400300070B5FFF73DFF38B1234B1B78C3F10202C2
S21400301010239340214A13612149224CD1F8805154
S21400302045F60E03C1F88031236823F0AA03DB05BA
S214003030DB0D0B66FFF77AFF184B1B68D80605F00A
S214003040010515D5D1F84031DA01FBD4164B1B68C3
S2140030500B61164B197805290ED1154B1E68FFF724
S21400306065FF0E4B59683046C1F30141FFF7DAF9A8
S2140030700E4B1978052902D01120FFF7C7FC2368EC
S214003080DB075EBF064B02221A661DB1044B002208
S214003090C3F8802170BD00BFD119002000300E405B
S2140030A000400E40C0190020CC190020CA1900208C
S2140030B00C08002010B50B4C0B4BD4F890201A606F
S2140030C01120FFF767FA094B1870FFF72FFF084B20
S2140030D0084A5B68C3F301431370074B22691A6002
S2140030E010BD00BF00400E40C0190020CA190020C5
S2140030F000300E40D1190020CC1900207047000087
S21400310010B5044608B1FFF7D5FFFFF71BFF134ABB
S214003110136943F004031361FFF7F0FF104B1B68BD
S214003120DB0614D5FFF7FCFD27F002FAFFF7FCFDDF
S21400313001F024FB6CB1FFF763FF0A4A136823F023
S2140031400043136044B9BDE81040FDF745BC30BFEE
S214003150EEE7FFF70FFFF0E710BD00BF00ED00E061
S21400316000300E404C310E4010B5044608B1FFF753
S214003170A1FFFFF7E7FE1B4BD3F8802145F60E01B3
S214003180D207C3F8801148BF00224FF42071196699
S21400319048BFC3F88021144A136943F0040313613F
S2140031A0FFF7ACFF114B1B68DB0614D5FFF7B8FD25
S2140031B027F0BEF9FFF7B8FD01F0E0FA6CB1FFF7B3
S2140031C01FFF0B4A136823F00043136044B9BDE8A1
S2140031D01040FDF701BC30BFEEE7FFF7CBFEF0E78F
S2140031E010BD00BF00400E4000ED00E000300E4075
S2140031F04C310E40FFF75EBFFFF702BF70B50446C6
S2140032000E46FFF73DFE10B3FFF790FE104B5B68CF
S214003210C3F301439C421AD00E4BD3F80031FDF79E
S214003220B1FB022C054602D12146FFF7FBF8C4F19C
S214003230020210239340064A13610EB1FFF776FE92
S2140032402CB921462846BDE87040FFF7EBB870BDA4
S21400325000300E4000400E4038B502460D46FFF7DF
S2140032600FFEB8B142B90C4BD3F80041FDF78AFB0C
S214003270C4F3042202FB0002084B1B7829463BB12C
S214003280074B9A4204D80220BDE83840FFF7B6BF85
S2140032900020F9E738BD00BF00400E40D0190020DE
S2140032A0002D3101034B02781A7001210020FFF730
S2140032B0D3BF00BFD0190020064942780B6823F41C
S2140032C0407343EA0223022A0B6004BF024B5B6A88
S2140032D0704700BF00300E4000400E400378134A8F
S2140032E0002B437870B514BF04260026002B837885
S2140032F0946914BF02250025002B037924F03F04AF
S21400330043EA0403C47814BF08210021012C08BF37
S21400331043F0010333432B430B4393611368417916
S21400332023F4403343EA0143136070BD00300E407F
S214003330224B4AF6E85210B5596B5A639A6FD40777
S214003340FCD41B6C13F003031EBF1D4A012414603B
S214003350834203D108B91A4B186010BD032B17D04F
S214003360B3B1164A1446936FDB07FCD4136C23F0F4
S214003370030303431364A36F13F00103FBD1003070
S2140033800F4A18BF01200129106008BF6363E4E7F5
S214003390431E012BE5D8094B4FF40022DA629A6FE0
S2140033A0D207FCD41A6C22F0030242F001021A641F
S2140033B0024A536A1C03FCD5D3E700BF00300E4018
S2140033C0B40AC6432DE9F04F002389B0CDE9023395
S2140033D0CDE90433CDE90633A0F5E163B3F5966F86
S2140033E005460191934603D9002009B0BDE8F08F49
S2140033F04D4BB0F5E16F8CBF4FF0010A4FF0000A5D
S214003400D3F8683100F083801A0EC3F3074307929F
S21400341004934FF496694FF4E164DFF81081D8F80E
S2140034204C70C7F301773B46524605A902A8FFF742
S21400343031FDD8F8EC60C6F301263346524606A99D
S21400344003A8FFF727FD0798049A2C1B811A6143EF
S214003450B1FBF9F3D1182CBF012300238842C3D354
S214003460002BC1D1069A0398131A6343B3FBF9F3F2
S21400347010EB030A2CBF012300235245B4D3002BC4
S214003480B2D1059B029A981A4443B4FBF9F912EBA1
S21400349009092CBF012000204B45A5D30028A3D145
S2140034A0BBF1000F0ED0D8F85C3023F4FE4323F0B7
S2140034B00203B5F5E16F43EA012318BF0220034378
S2140034C0C8F85C30019B63B300213846FFF768FDFF
S2140034D0002889D001213046FFF762FD002883D0FE
S2140034E0124A536ED14538BFD14623F4FF73B9F163
S2140034F0E70F23F0010328BF4FF0E709B5F5E16FAA
S21400350018BF43F0010343EA490353666DE7C3F36C
S2140035100722DBB2079204934FF416794FF49664B1
S2140035207BE7012061E700BFB081E00F00300E406E
S214003530304B1A6FD96CC90702F0070242D5012A30
S21400354040D9132851D9143813288CBF10230823C8
S2140035502849013BCA6C180322F47F4240EA032341
S2140035601343CB64244BCA6C1B88C2F30322283354
S214003570013202EB820003EB5303B3FBF0F3C86C9B
S214003580013B072B20F0EE6028BF072340F4801095
S21400359040EA0363CB64194BB3F90030002B10DB11
S2140035A02833500800EB420203EB5303B3FBF2F35D
S2140035B00A6D072B28BF072322F0700242EA031386
S2140035C00B657047DB6CD90706D4012A04D8092896
S2140035D00BD90A380928B8E7064BDB6C13F0010351
S2140035E0B6D0012A03D82728AFE70423B0E7002384
S2140035F0AEE700BF00300E40C6190020C8190020F4
S214003600054A064B1B68136F23F007031843044B49
S21400361010671888FFF78CBF00300E408009C6433D
S214003620C4190020364B022270B59A639B6B03F0D8
S2140036300F039342044602D00025284670BDC18879
S2140036408588B0F90C604A294ED9B1F5FA7F4DD37A
S21400365040F6C313994294BF4FF000514FF04051CB
S2140036602748C36C23F0405323F00103002EA8BF65
S21400367043F001030B43C364D0F8EC3043F44073CB
S214003680C0F8EC301F4B1D80C36E43F08073C366DA
S2140036901D4B186800B10420FFF7B2FF1B4B2189B1
S2140036A019801B4BB4F90C20A0881A80FFF740FF46
S2140036B0A37BF3B1012B20D0012211466088FFF7CF
S2140036C081FE05460028B7D00D4A6078D36B43F4D8
S2140036D08063D363FFF72CFEA37AA3F12002534244
S2140036E053410C4A1360A8E70021B9E74FF0805118
S2140036F0B6E7034B084A9A65DEE7014B074AFAE746
S21400370000300E40C41900208009C643C6190020A8
S214003710C81900209407C64377402057372110B7B2
S214003720072A70B501F003014FF00F0523D8960065
S2140037301A4CB540256004F10074B04020600320A8
S214003740B04001FA06F61649086001F100710E60F5
S2140037501449114489000B609DF81030C1F8803080
S214003760012303FA02F2104BC3F824249DF8143008
S214003770C1F8003370BDA2F10804A4000B4EA540AA
S21400378035600B4DA04028600320A04001FA04F4E9
S2140037900849086001F100710C60D9E700A40044F4
S2140037A008A400448020851000A0004004A4004423
S2140037B004A400460CA40044F0B54AB130261E4CC2
S2140037C0012546438D4034440BB304F1C0642560A4
S2140037D03024444304F18044072904F5204419D8D2
S2140037E065688E000F27B74025EA070502FA06F639
S2140037F03543656052B9012202FA01F13022504386
S2140038000D4A0244A3B102F1C0621160F0BD04F19A
S2140038108064DCE701F18045083DA668AD000F270F
S214003820AF4026EA070602FA05F53543A560E1E74C
S21400383002F18062E9E700BF0CA00040034B03449E
S2140038409B0081F001011960704700BFA001F110D4
S21400385010B5044601214FF4AA40FEF7F1FDB4F876
S214003860013022785BBA9BB243EA02630B4A1360CC
S21400387000231362D36253634FF00043D3664FF0C6
S214003880FF339366064A4FF40071C2F88011E3785E
S2140038905B01DBB282F80933116010BD00200E40D8
S2140038A000E100E02DE9F041254D91F80BE091F89C
S2140038B00AC00F7B0C464FF03008C3B2012608FB47
S2140038C000509E402368497BC0F880304FEA0E5374
S2140038D043EA0C4343EA475322F00302C0F8881039
S2140038E0C0F88430C0F89820AE66FFF720FAEB6E7A
S2140038F03343EB66237A13B16B6B33436B63637AA4
S21400390013B1EB6A3343EB6222792B6822B1D243C0
S214003910120262F47F42134062790AB143EA02233C
S214003920A2790AB123EA0203E27902B11343044AF8
S2140039301360044B1E60D663BDE8F041FFF7FBB989
S21400394000200E4028200E4410B5C0B2012484404A
S214003950FFF7EDF9054AD36E23EA0403D366044B5A
S2140039601C60BDE81040FFF7E6B900BF00200E401F
S21400397020200E44F8B5C3B201259D400446FFF74B
S214003980D6F90A4B30221E6E9F6A02FB0434D4F826
S2140039908C40FFF7D0F93D4206D1C4F30A1008B9AF
S2140039A0354200D10130F8BD0020FCE700200E4073
S2140039B0036CDB0702D4436C0B42FCD1704700005B
S2140039C0064B0B4003F58073B0FBF3F203FB1200CB
S2140039D00002B0FBF3F000EB02207047F8FF010096
S2140039E0074B984210B5044607D10648FEF774FE0A
S2140039F0E168BDE81040FFF7E3BF002010BD00BF40
S214003A0000A0044090171A0010B502460C469368B2
S214003A10DB06FCD540211046FFF7CAFF946210BDB6
S214003A20054B5A685B68054B41F671321A649A6812
S214003A3022F001029A60704700300E4000000E40EF
S214003A40034B9A6822F001029A6000221A647047BB
S214003A5000000E40094A0A4BD969C90705D512B9B4
S214003A606FF002007047013AF6E7002AF8D001220C
S214003A701861DA60D86940F3800070478096980035
S214003A8000000E4070B509B9002070BD0E4A002334
S214003A90082550F8234094610C4CD5600133D66954
S214003AA0F60705D514B96FF00200EEE7013CF6E71D
S214003AB0002CF8D0D469A40702D49942E9D1E3E7F0
S214003AC06FF00100E1E700BF00000E40809698000E
S214003AD02DE9F8431C4B884641F671311D6C19647C
S214003AE01A49074648684968996841F00101ADB22D
S214003AF0996096084FF00009B14501D3002005E013
S214003B0007EB89042046FFF7A5FF48B10E4B9A68DD
S214003B1022F001029A600DB100221A64BDE8F88313
S214003B20C4F30A04C4F50064A408A6EB09039C4287
S214003B3028BF1C4621464046FFF7A4FF0028E5D1D3
S214003B40A14408EB8408D7E700000E4000300E4082
S214003B50204B41F671311A6C10B519641E494C6839
S214003B604968996841F00101996001211861D9609E
S214003B70D9694C0792B209D5996821F0010199607C
S214003B800AB100221A644FF0FF301FE00221134CE6
S214003B90D9601946D869C00700D56CB9C8698B6862
S214003BA010F0020023F001038B6007D00AB1002357
S214003BB00B646FF0010009E0013CEBE724B902B1A9
S214003BC00C646FF0020001E00AB1086410BD1046F4
S214003BD0FCE700BF00000E4000300E4080969800C4
S214003BE0FFF776BF8B784A789B0143EA82030A7810
S214003BF01343CA7843EA02130A7943EAC2234A798E
S214003C0043EA02338A79043043EA42430001014A18
S214003C101350704700200440014B1860704700BFE7
S214003C2000008442427801790378002A827870B5D1
S214003C3014BF04260026002AC27814BF10250025CB
S214003C40002A42794FEA023242EA012242EA03029D
S214003C50837914BF20240024002BC37942EA03434F
S214003C6043EA0603027A43EA050314BF4FF4004111
S214003C7000212343002A14BF4FF4003200220B43D6
S214003C801343014A136070BD002004400B4A536979
S214003C9011699B0003F03C03C1F381110B43837051
S214003CA0136903F03F0343709369D26903F0F0038E
S214003CB0C2F3031213430370704700BFD0FF0FE038
S214003CC070B5054616461C4619B91448FEF704FD9D
S214003CD00146202C08D001D8ECB170BD402C18D07D
S214003CE0602CFAD1042200E0082206FB02F35A08F0
S214003CF002EB4112B2FBF3F2094B203A03EAC2028E
S214003D002B6823F060032B602B681C432C606A61D1
S214003D10E3E70622E9E71022E7E700BF4041050097
S214003D20F8FF7F00F8B5154F14460F401ABB202B3E
S214003D3007D0402B07D0002B0CBF102540250126AE
S214003D4003E01D46FBE78025032607F580777E43C4
S214003D5000233246194606F017FF544300FB05F7CA
S214003D6005FB0344A2FB050121443246002306F06E
S214003D700BFF3844F8BD80250024E0E7F8FF7F00FD
S214003D8070B5044605680648FEF7A6FC2368616918
S214003D9005F0010203F06003BDE87040FFF7C2BF04
S214003DA04041050038B50546144619B90548FEF7E2
S214003DB093FC014601396400B1FBF4F10902696124
S214003DC038BD00BF40410500CB435B0003F00A034B
S214003DD0C360C1607047000040F6AA63C36041F24A
S214003DE00502002303604260104A83604361C36497
S214003DF08264036643678367C3670D4B0D4A984228
S214003E0009D0904207D003F50063984203D003F52B
S214003E108063984201D100230365002390428365A6
S214003E2002D0054A904200D1C3657047F9FF0100F1
S214003E300000014000040140000C014038B5054672
S214003E400C46FFF7C9FF8B7C1BB1036843F0804329
S214003E500360E37C1BB1237D43F08003AB65228ABD
S214003E60637B1343E28913436B60D4E90112237B1F
S214003E702846FFF725FF637D1BB12B6843F480338C
S214003E802B60A37DE27D1B07120502F4E00203F01F
S214003E90E04313432B666B6F23F030036B676A6F48
S214003EA0237E13436B672378EB6038BD38B50C462A
S214003EB00546FFF791FF0A8A897B0368002942F0CE
S214003EC0010214BF4FF48061002113430B43227D8F
S214003ED003600368002A14BF4FF000520022134309
S214003EE00360A37C1BB1E37C43F080038365237BE4
S214003EF043F480536B60D4E901122846FFF752FF63
S214003F00637B0BB11023EB60637D1BB12B6843F41E
S214003F1080332B60A37DE27D1B07120503F0E04390
S214003F2002F4E00213432B662378EB6038BD036986
S214003F305A06FCD5416303699B06FCD5C069C0B22E
S214003F40704703695B06FCD54163704738B5044685
S214003F5020F0B7F80FCC044D0FC594E80F0085E8A5
S214003F600F00002038BD00BFD419002047F6FF73AD
S214003F709A42F0B560D0022960D8314BCE0098192D
S214003F8013F831108578012DB8BF0125012919468F
S214003F900DD1C3785B1B23B1416831F913109142F0
S214003FA002DC5819C0B2F0BD013B1BB2F3E7406813
S214003FB00028F8D0B0F90030934204DBB0F90230A4
S214003FC09342B8BF13468288FF2A03BFB0F9064063
S214003FD0B0F90870012200221CBFC8242827E41A62
S214003FE094FBF7F414448A1924B25678721EA2423F
S214003FF0A8BF22464FF47A7700EBC2010132CC8884
S214004000896812B213FB041121EAE171B24201F58C
S214004010FA71B1FBF7F104DA00EBC204A4888C4213
S214004020EAD200EBC20232F8040C884228BF0846E7
S214004030A84238BF2846B5E7FF20B4E70020B2E71D
S214004040D41900200229F0B54CD8284810F8313091
S214004050012B11D100EBC1018878CB780128B8BFBD
S2140040600120934294BFC0EB0300C0EB0200C0B235
S2140040704B6833F91000F0BD92B300EBC1014B68FA
S21400408083B3B3F902008242F5DDCD78B3F9004080
S214004090954229D91D1D4B78013BDBB2002197B212
S2140040A0CEB2B3424FEAC10606D905EB060C013183
S2140040B0BCF808C0BC45F3D2A9194FF47A73534331
S2140040C04A68B1F902509B1A022295FBF2F2134499
S2140040D093FBF5F39C4207DB9842CCDC18B2CAE7A8
S2140040E00348C8E70348C6E72046C4E7D4190020BB
S2140040F00CFEFFFF0080FFFF0148FFF727BF00BF51
S214004100C0A502007FB5094B6A4603F110061546A6
S21400411018685968144603C40833B3422246F7D1D8
S2140041202846FFF77FFA002004B070BD78A602008C
S21400413013B5022300246846ADF8044000948DF8B9
S2140041400530FFF7CBF8204602B010BD70B5154B12
S21400415086B001AA03F11006154618685968144679
S21400416003C40833B3422246F7D11B8823800E4B84
S2140041705A6812030DD49B68C3F308030B48ADF8C6
S2140041800A30FCF741FC2846FEF76AFD002006B020
S21400419070BD074B1B884FF6FF72934208BF4FF463
S2140041A0A673EBE788A60200B081E00F00F0490294
S2140041B00001E00F07B5084B18680190202301A8FE
S2140041C08DF80430FEF78AFD6420FEF761FB0020C0
S2140041D003B05DF804FB00BF9AA60200BFF34F8F42
S2140041E0BFF36F8F054A536A23F480335362D2F8C5
S2140041F0943023F00103C2F89430704700ED00E0DD
S214004200013A42EA520242EA920242EA121242EAB2
S214004210122230B542EA12420132B2F5807F38BF30
S2140042204FF480725442044015198D4205D31C6029
S214004230039B1D60049B1A6030BD5200F2E700002D
S2140042402DE9F043354E364CDFF8E080DFF8E0909D
S214004250002387B0CDE90333FFF7C0FF3568A560BC
S2140042604FF00053E3606F1C2E4B2361C845376048
S21400427041D005AB019304ABA8EB09024846009376
S214004280414603ABFFF7BCFFDDE90313059AA760C1
S2140042905FEAD20C4FF0010008BF4FF0200CA3EBF2
S2140042A00803B3FBFCF300FA03F3013BB2FA82F215
S2140042B05FFA83FEC2F11E0208F1FF335B1AA9EB18
S2140042C00109B3FBFCF352000344B9FBFCFC00FA03
S2140042D00CF00EFA03F3013802F03E02034342F0FC
S2140042E0407203F0FF0342F0011242EA0322023555
S2140042F0E16022613560BFF34F8FBFF36F8F0A4ACC
S21400430005236360536A43F480335362BFF34F8FD1
S214004310BFF36F8F07B0BDE8F08300BFF41900202D
S21400432090ED00E03900011300ED00E0880B00205E
S214004330740B0020BFF34F8F0549064BCA6802F482
S214004340E0621343CB60BFF34F8F00BFFDE700BFB3
S21400435000ED00E00400FA0508B5FFF7EBFF08BD26
S214004360034B1B78002B14BF01200220704700BFB0
S214004370201A00200329F8B598BF124B06460F46B0
S21400438094BF5C5C0024032805D8DFE800F0020830
S2140043900B0E44F002040C4B1D684DB9F8BD44F0FA
S2140043A00804F8E744F02004F5E744F08004F2E758
S2140043B06B681A68144203D05B68394630469847E3
S2140043C02D68EAE79EA602001C1A002038B50B4CA2
S2140043D0227852B10A4D2B781BB100F0EEF900237B
S2140043E02B7000F0EBF900232370064C0121207897
S2140043F0FFF7C0FF0123237038BD00BF1A1A002044
S214004400181A0020101A002070B5124EFEF788FC0D
S21400441033780546CBB900F0CFFA044620B12846DB
S214004420FEF782FC204670BD00F0E4FB0A4B1860E5
S21400443000F030F90948FCF771FA094B1C6000F0EF
S214004440FBF9084B1860012333702846FEF76CFC16
S2140044500024E7E7191A0020241A00201C1A00205E
S214004460281A0020141A0020F8B50D460446FEF758
S21400447057FC154A0646601E002D135C134C14BFED
S2140044800121FF210B4413542278012A17D9FFF784
S21400449067FF8242074612D90D4D2B781BB100F0FC
S2140044A08CF900232B700B4D2B781BB100F086F98E
S2140044B000232B7039462078FFF75CFF27703046C4
S2140044C0BDE8F840FEF730BC201A0020101A002085
S2140044D0181A00201A1A002030B5044685B0B0B16C
S2140044E0841E012C1CD803A9002000F043FB0546BF
S2140044F0B0B9154B039A1B689A4213D80121134A88
S2140045000846FFF7B1FF124B01221A7008E0104D63
S2140045102B782BB101460D4A0120FFF7A5FF2C7022
S21400452005B030BD0B4B1C6800F08AF90399204497
S2140045308842E3D20223CDE90053091A2B46064AE5
S214004540064800F099FAEBE7141A0020A2A602002B
S214004550231A0020281A0020CD430000F819002056
S21400456038B541600446FEF7DBFB214605460448A5
S214004570FCF7D7F92846BDE83840FEF7D5BB00BFA4
S2140045801C1A0020054B1B68584300F57420044B8A
S21400459000F23F20B0FBF3F0704700BF241A002063
S2140045A040420F002DE9F843FEF7BAFB054606F039
S2140045B098FA00285BD0304FDFF8D4903E4699F842
S2140045C0003033B12D4A1378013B1370002389F86D
S2140045D00030FFF7C5FEFFF77FFFFFF7C1FE01289B
S2140045E0044604D9264B1B780BB900F0C5F838787A
S2140045F0A04203D02146FFF7BDFE3C70012C0CD92B
S2140046001F4C23784BB91F4B1B7823B900F0D4F806
S2140046101D4B01221A7001232370307800F0F6F843
S214004620AFF300802846FEF77FFBFEF779FB0546D2
S214004630164800F0F9F906F05FFA80460028BED169
S2140046400F4C227852B1104F3B781BB100F0B5F8F2
S21400465087F8008000F0B2F8002323700020FFF7F0
S2140046603BFF00213078FFF785FE00233370284695
S214004670BDE8F843FEF758BB101A0020201A0020A9
S2140046801A1A0020221A0020181A0020F8190020F2
S214004690231A0020D3B502A8002300F8083D8DF8A1
S2140046A004308DF80530FEF7FDFD022301A88DF8D5
S2140046B00530FEF701FE294A294CD2F89030D2F890
S2140046C0902003F00403002B264B14BF0121002189
S2140046D0C2F300321970227005D04FF41670FFF73F
S2140046E051FF214B18602378204CF3B11120FDF7C1
S2140046F0F3FF1A4BD3F800215B6CC2F30422C3F31A
S2140047000B4302FB00020133194803EB8301561EDC
S2140047100027E0FB016700233046394606F034FAEE
S214004720FFF730FF2368184420601E20FFF72AFF9B
S214004730236818440F4B20601B680120C3F3032333
S2140047409840C0F1010000EB80006430FFF71AFFCC
S21400475023681844206002B0D0BD00BF00400E4061
S214004760341A0020361A0020301A0020381A00208A
S21400477040420F0000200440FEF73CBD08B50B4B3E
S2140047801B7893B1022000F0A9FB70B100F020FA6C
S21400479058B1002201210220FEF7B4F800F01EFAFC
S2140047A0034B1860034B01221A7008BD361A00200E
S2140047B02C1A0020351A00207047704738B50E4D69
S2140047C00E4C2A782AB923781BB100F007FA0C4B56
S2140047D01860FEF711FD23786BB10A4AD2F89030C4
S2140047E01B07FBD500F0FAF9054B1B68C01A064BF1
S2140047F0186000232B7038BD351A0020361A0020AA
S2140048002C1A002000400E40301A002002280AD041
S21400481003280BD001280CD1064A136923F00403A1
S214004820136130BF70470020FEF76ABC0020FEF719
S2140048309BBC704700ED00E04FF41670FFF7A2BE79
S214004840044B1B680BB103EBD303034A10681844F0
S214004850704700BF301A0020381A0020104A416105
S214004860136830B51546ABB91060836011E0091BBC
S2140048709C6841611A467CB123465C698C42F6D935
S214004880002CF4D052B19060836013B15A69511A6B
S214004890596130BD0022F0E72346F4E72860F3E7CD
S2140048A0541A002010B500F0C5FA094B094A1968D9
S2140048B031B11368C41A4B69A34203D31B1B4B6167
S2140048C0106003E0C01A002310604B6110BD00BFEB
S2140048D0541A0020401A002038B50F4D2B685C692A
S2140048E00E4B1B6802201C4400F0D2FA204600F053
S2140048F0A7FA0B492A6800230B70D088800702D5D8
S21400490001230B7038BD9268002AFBD0506903441F
S214004910012BF2D9F6E700BF541A0020401A0020F7
S214004920481A002070B59DF81450057100251646EB
S2140049308560049ABDF81850C58004460260C0E938
S21400494003360D4629B961610BB11146984796B1F9
S2140049503546FEF7ECF90646FFF7A4FF2946204643
S214004960FFF77CFF054B1B68A34201D1FFF7B4FF9E
S2140049703046FEF7E0F9002070BD00BF541A002054
S2140049800C4A136800217BB183420AD1836879B14F
S2140049908B6083681BB15A6941690A445A610020DA
S2140049A0704719469B68EEE70028EFD00220704754
S2140049B01360EEE7541A002070B5144DFEF7B7F9F1
S2140049C02C780646D4B9124B1C60124B1C60124B56
S2140049D01C8000F0EDF9012000F05AFA00F0A6FA6B
S2140049E00E4B0246186070B123460D4840F2E73180
S2140049F006F0CAF80B4B186001232B703046FEF702
S214004A009AF9002070BD2320FCE700BF3C1A002066
S214004A10541A0020401A00204A1A0020501A00207B
S214004A2018FCFFFF441A00202DE9F0410546F8B1B6
S214004A30FEF77DF90F4F0646FFF734FF2846D7F8F6
S214004A400080FFF79DFF044628B13046FEF773F955
S214004A502046BDE8F081A8453B6803D123B1FFF7A7
S214004A603BFFF2E7002BF0D1022000F01FFAECE744
S214004A702224EDE7541A0020F0B50D4685B0164600
S214004A801F46044680B1FFF7CFFFBDF82C300293D7
S214004A909DF828300022CDE900732946334620468B
S214004AA0FFF740FF05B0F0BD2220FBE738B50C4607
S214004AB0054698B191B100230B70FEF738F9084B04
S214004AC01B6801210BB122781AB1FEF734F90020D9
S214004AD038BD9D420CBF21709B68F3E72220F7E7A4
S214004AE0541A0020F0B587B01F4600230D46164620
S214004AF08DF817300446A0B10DF11701FFF7D6FF69
S214004B009DF817207AB9BDF8343002939DF83030FE
S214004B102946CDE9007320463346FFF703FF07B06A
S214004B20F0BD2220FBE70320F9E7F0B587B01F466B
S214004B3000230D4616468DF817300446A8B10DF131
S214004B401701FFF7B3FF9DF8173083B9BDF834306F
S214004B5002939DF830302A46CDE900732946334645
S214004B602046FFF7DFFE07B0F0BD2220FBE702205D
S214004B70F9E70000F8B507460E46FEF7D8F8124BE0
S214004B801B680546002423B92846FEF7D4F81B20E8
S214004B9015E05A691444DA88BA4213D10B4F00F074
S214004BA049F93B68C01AA0420AD200F043F93B68B4
S214004BB0C01A201A30602846FEF7BDF80020F8BD5F
S214004BC00020F7E79B68DEE7541A0020401A002012
S214004BD0014B1878704700BF481A002038B5FEF71A
S214004BE0A6F8054600F026F904462846FEF7A3F880
S214004BF0204638BD014B1868704700BF501A002089
S214004C000A4B1B68834210B50C460CD3084B196838
S214004C104FF47A720023A0FB010105F0B5FF0130C6
S214004C202060002010BD2120FCE700BF441A0020B1
S214004C30501A0020104B1A684FF47A7310B5A0FB78
S214004C400301A2B1531E134211D1B2FA82F2C2F18D
S214004C501F02C2F12004A2F1200301FA04F420FA94
S214004C6002F2224321FA03F342EA030010BD0023B6
S214004C7005F08AFFFAE700BF501A0020C2072DE9A8
S214004C80F84F04460BD53F4A138801339BB2138076
S214004C90FFF708FE3C4B1B680BB1FFF71DFEA30792
S214004CA06DD53A4F00F0C6F83D688046451BFEF7C6
S214004CB03EF8002683463246B246334B1C6814B193
S214004CC06369AB4214D9012E314B51D1D288022AE6
S214004CD04ED11E70002C4ED06369C7F800805D1B55
S214004CE06561FFF7F9FD5846BDE8F84FFEF723B8B3
S214004CF0C7F8008023462A465969914209D8187990
S214004D0094F804C0844588BF1C469B68521A002B42
S214004D10F2D15846FEF70FF8D4F814B0C4F814A031
S214004D20FEF705F881462046FFF72AFE4846FEF7BE
S214004D3002F823694BB1FDF7FAFF21698146204648
S214004D40FFF78CFD4846FDF7F6FFE36813B12168D0
S214004D502046984700F06EF8D844A5EB0805814633
S214004D600544FDF7E4FF013683462246C846A4E71D
S214004D7000221A70AEE7022000F098F8B3E7BDE80C
S214004D80F88F00BF4A1A0020541A0020401A00204C
S214004D904C1A002010B5FDF7CAFF044B1C78002201
S214004DA01A70FDF7C8FF204610BD00BF4C1A002041
S214004DB010B51C4B86B05968186803AA03C2197A46
S214004DC053F8090F117001909A8817489B79ADF82F
S214004DD0082001218DF80A300024FDF731FB03A8D6
S214004DE08DF80C408DF81040FEF71CFF01A901203D
S214004DF08DF80440FEF7F6FE0C4A536A23F4FF6370
S214004E0023F00703536240F2FF731362012094609D
S214004E10FEF702FF064B4FF08042C3F880211A606F
S214004E2006B010BDACA60200A00914000020044085
S214004E3000E100E0014B9868704700BF0020044086
S214004E40114A9368516D9269520704D4CA1A022A0D
S214004E5001D899420DD1C21A012A98BF981C0A4B54
S214004E60B0F1FF3F28BF013058655A6A42F004028D
S214004E705A62064A137833B103490B6D43F00203B6
S214004E800B65002313707047002004401A080020AA
S214004E908207054A00F00103516A48BF43F0040345
S214004EA00B435362704700BF00200440830700F0A6
S214004EB0010209D5074B0121197007490B6D23F034
S214004EC0030342F004020B6503494B6A23EA02031C
S214004ED04B6270471A08002000200440064B012849
S214004EE09B6904D0022805D1C3F38000704703F005
S214004EF001007047002070470020044010B5FDF701
S214004F0016FF094A93690446590703F0010003F0A7
S214004F10070348BF40F002001362FFF7AFFE2046CB
S214004F20BDE81040FDF707BF002004400148FDF72C
S214004F30D3BB00BFA009140008B505F067FD05F057
S214004F40B1FD05F0B1FD05F0B8FDBDE8084005F07F
S214004F50BBBD08B505F0BAFD05F0B9FD05F0B9FD15
S214004F60BDE8084005F0B7BD10B50446FBF734FDB4
S214004F704FF47A735C43B0FBF3F0064BB3FBF0F0F0
S214004F80B4FBF0F0800803D0BDE8104000F008B88D
S214004F9010BD00BF40420F000000000000000000EF
S214004FA0013800D0FCE77047242070474420704743
S214004FB04C2070479C20704738B50446FDF7B0FE7D
S214004FC00546204605F0A0FF04462846FDF7ACFE41
S214004FD0204638BD70B504460E46FDF7A1FE3146A4
S214004FE00546204605F050FF04462846FDF79CFE81
S214004FF0204670BD38B50546FDF792FE04462846A5
S21400500005F08AFF2046BDE83840FDF78DBE002338
S214005010F0B5161F1C46844203D102EB8402B3B9D6
S214005020F0BD56F804CFACEB0305356051F824709C
S214005030BD422CBF4FF0000E4FF0010EED1B9C45FD
S2140050402CBF73460EF1010335600134E3E71168A7
S214005050C81A994242F8040B2CBF00230123DEE74E
S2140050602DE9F04384460D4602F140044FF0000E51
S214005070BCF10F0F54F8408C05F1400504F14004D4
S21400508000F2BB804FEA101C6FF00F0404FB0C000C
S21400509007284FEA8C1C01EB0C0502EB0C0440F2CF
S2140050A0938051F80C60A3FB06671EEB060E2CBF20
S2140050B04FF001094FF0000918EB0E0142F80C10F2
S2140050C06E68B9442CBF01220022A3FB06674A443F
S2140050D0921966682CBF0121002192196260AE68A1
S2140050E001EB070C4FF0000128BF0121A3FB066768
S2140050F061448919A6682CBF012200228919A16083
S214005100EE6802EB070C4FF0000228BF0122A3FB5B
S214005110066762449219E6682CBF012100219219A5
S214005120E2602E6901EB070C4FF0000128BF012159
S214005130A3FB06676144891926692CBF0122002259
S214005140891921616E6902EB070C4FF0000228BF37
S2140051500122A3FB06676244921966692CBF0121EF
S214005160002192196261AE6901EB070C4FF0000155
S21400517028BF0121A3FB066761448919A6692CBFD5
S214005180012200228919A161EE6902EB070E4FF099
S214005190000228BF0122724405F1200CA3FB06671B
S2140051A0E56992192CBF4FF0010E4FF0000E521910
S2140051B00EEB07014FF0000E28BF4FF0010EE26124
S2140051C08E44083820346546800005EB000C2146E6
S2140051D0654551F8042B40F09F810444236813EB87
S2140051E00E034FF0000228BF012244F8043B4FF0A4
S2140051F0010E002AF2D1BDE8F08355F8406CA3FBFF
S21400520006671EEB060E2CBF4FF001094FF0000993
S2140052101EEB080644F8806C55F83C6CB9442CBF6D
S2140052204FF001084FF00008A3FB0667C84418EBD0
S214005230060854F87C6C2CBF4FF0010E4FF0000EA1
S21400524016EB080644F87C6C55F8386C0EEB07092C
S2140052504FF0000E28BF4FF0010EA3FB0667CE44AA
S2140052601EEB060E2CBF4FF001084FF0000808EBAF
S214005270070954F8787C17EB0E0744F8787C55F845
S214005280346C4FF0000828BF4FF00108A3FB0667F8
S214005290C84418EB060854F8746C2CBF4FF0010E87
S2140052A04FF0000E16EB080644F8746C55F8306C98
S2140052B00EEB07094FF0000E28BF4FF0010EA3FBC0
S2140052C00667CE441EEB060E2CBF4FF001084FF0CB
S2140052D0000808EB070954F8707C17EB0E0744F833
S2140052E0707C55F82C6C4FF0000828BF4FF0010872
S2140052F0A3FB0667C84418EB060854F86C6C2CBF72
S2140053004FF0010E4FF0000E16EB080644F86C6CDA
S21400531055F8286C0EEB07094FF0000E28BF4FF02B
S214005320010EA3FB0667CE441EEB060E2CBF4FF005
S21400533001084FF0000808EB070954F8687C17EBE3
S2140053400E0744F8687C55F8246C4FF0000828BF18
S2140053504FF00108A3FB0667C84418EB060854F88C
S214005360646C2CBF4FF0010E4FF0000E16EB0806D3
S21400537044F8646C55F8206C0EEB07094FF0000EED
S21400538028BF4FF0010EA3FB0667CE441EEB060EA9
S2140053902CBF4FF001084FF0000808EB070954F83F
S2140053A0607C17EB0E0744F8607C55F81C6C4FF0D9
S2140053B0000828BF4FF00108A3FB0667C84418EB97
S2140053C0060854F85C6C2CBF4FF0010E4FF0000E30
S2140053D016EB080644F85C6C55F8186C0EEB0709DB
S2140053E04FF0000E28BF4FF0010EA3FB0667CE4419
S2140053F01EEB060E2CBF4FF001084FF0000808EB1E
S214005400070954F8587C17EB0E0744F8587C55F8F3
S214005410146C4FF0000828BF4FF00108A3FB066786
S214005420C84418EB060854F8546C2CBF4FF0010E15
S2140054304FF0000E16EB080644F8546C55F8106C46
S2140054400EEB07094FF0000E28BF4FF0010EA3FB2E
S2140054500667CE441EEB060E2CBF4FF001084FF039
S214005460000808EB070954F8507C17EB0E0744F8C1
S214005470507C55F80C6C4FF0000828BF4FF0010820
S214005480A3FB0667C84418EB060854F84C6C2CBF00
S2140054904FF0010E4FF0000E16EB080644F84C6C69
S2140054A055F8086C0EEB07094FF0000E28BF4FF0BA
S2140054B0010EA3FB0667CE441EEB060E2CBF4FF074
S2140054C001084FF0000808EB070954F8487C17EB72
S2140054D00E0744F8487C55F8046C4FF0000828BFC7
S2140054E04FF00108A3FB0667C84418EB060854F8FB
S2140054F0446C2CBF4FF0010E4FF0000E16EB080662
S21400550077444FF0000E28BF4FF0010E44F8446C6D
S214005510ACF1100CBE44ABE555F8046BA3FB067863
S2140055201EEB070E2CBF012600261EEB0202464489
S2140055302CBF4FF0010E4FF0000E41F8042CB6447D
S21400554046E601F18041013900EB810188420346BD
S21400555000D970471B680A681BBA12BA40F8042BB9
S21400556041F80439F2E700230122C0E900238360F2
S214005570704710B5044668B1806830B1616889002C
S21400558003F0EAFBA068FFF735FD00230122C4E91B
S2140055900023A36010BD42F21073994270B5044612
S2140055A00D4602D96FF00F0070BD43688B4216D2CD
S2140055B004212846FFF70EFD06460028F2D0A16813
S2140055C059B16268920005F0AFFC6168A068890076
S2140055D003F0C2FBA068FFF70DFDC4E901560020EA
S2140055E0E2E742F21073994270B504460D4602D9BE
S2140055F06FF00F0070BD43688B4203D8BDE8704063
S214005600FFF7C9BF5A1E9B00DAB90132954238BF70
S214005610154604212846FFF7DDFC06460028E7D09D
S214005620A16851B1AA0005F07FFC6168A0688900F6
S21400563003F092FBA068FFF7DDFCC4E901560020EA
S214005640D8E7A1681944043B51F8041C0029DCD1B2
S214005650013AD9E7884270B505460E4603D04C6835
S2140056601CB9FFF786FF00200DE0631EA0005BB9A3
S2140056706A685C1CA24233682B600ED2214628461C
S214005680FFF789FF88B170BDB2680244043852F84B
S214005690042C002AECD1013BE9E7A868121B920013
S2140056A0002100EB840005F063FCA200B168A86846
S2140056B005F03AFCD7E7F8B50E46496805461446A5
S2140056C0FFF769FFB0B96242224331682B68D6F80B
S2140056D004E0C2F3C012C2F10104514303FB0413F9
S2140056E02B6003469E454FEA830104D16F680A4645
S2140056F09F420ED8F8BDD5F808C0B1685CF8237094
S21400570051F82310674301FB02714CF82310013354
S214005710E8E7AE68B1586143B15001330432E7E7B9
S21400572070B50E4601210446FFF735FF054688B9D9
S214005730626801469200A06805F01AFCA36886EA33
S214005740E672002EA2EBE6721A60B4BF4FF0FF338B
S21400575001232360284670BD4368B1EB431F3FBF5B
S21400576083684A0901F01F0153F822003ABFC84077
S21400577000F0010000207047F0B50021456804469F
S2140057800A46954201D10020F0BDA36853F8226076
S214005790002326FA03F7FF0701EB0300F4D40133D6
S2140057A0202B01EB0300F4D101320146E9E7436800
S2140057B0DBB181685A1E9B007AB951F8221000208E
S2140057C04FF00043194204D1013020284FEA53031A
S2140057D0F8D1C0EB421020307047C818043B50F890
S2140057E0040C0028E9D1013AE6E7184670472DE98F
S2140057F0F04112F0030418BF0124436804EB92043E
S214005800A34207468846154608D100213846FFF7CA
S21400581087FF064688B13046BDE8F081FFF7A9FE4F
S21400582000230122C7E90023BB6021463846FFF764
S214005830B2FE06460028E8D0EDE7B8F1000FEAD041
S214005840BB68C5EB84002A464146184405F06CFB4D
S214005850002CE0D02146B868FFF773FEDBE7F8B50A
S214005860054608466C68A40094421CD2121B8E188B
S214005870002105F07DFB30462246104400239A4264
S21400588013D10020F8BD23F0030CAF6803F003012A
S214005890CE0057F80C10F14011F0FF0F11D1013374
S2140058A0A342F0D1E9E71346FAE723F00306AF6810
S2140058B003F00301CC00B959E14000F8011D0133A3
