S02400007365637572652D73657269616C2D756172742D626F6F746C6F616465722E7333375B
S31508000000000400207500000881000008810000082F
S31508000010A70B0A0100000000010100690040000862
S31508000020040A0000850900083F0E0008FC040008C1
S3150800003000000000000000000000000000000000B2
S3150800004000000000000000000000000000000000A2
S31508000050FFFFFFFF05480068202100EA010020B1E4
S315080000600348016842688D46104770472C000040D7
S3150800007000400008FFF7EEFF00F00DF800F042F828
S3150800008005E00000854670474348008870474FF4EE
S31508000090017000F09BB838B500F0C6F84FF20F04AF
S315080000A03E4D28B140F2052028806C80012032BDE3
S315080000B03B480068C10615D56888A0421ED1288825
S315080000C040F2022188421CBF40F20622904215D017
S315080000D040F2011188421EBFB0F58A7F40F2111125
S315080000E088420BD02F4C208A40F6A721884205D19A
S315080000F02068FFF7C7FF6068804700BF002032BD51
S315080001000000000038B50400274872B6016849089F
S315080001104900016000F0CEF821480068000910F097
S3150800012001000CBF2149224902E0CD2201F8012B2A
S31508000130204B9942F9D3204A2049214B03E012F873
S31508000140015B01F8015B9942F9D31E491E4A002357
S3150800015001E001F8013B9142FBD3104A53884FF264
S315080001600F05AB4240F205210AD113888B4205D010
S3150800017030B1180A012818BF022801D1194601E032
S3150800018004B90021044801804CF23C31518000F04A
S315080001908BF9BDE832407AE7240C002000000020E5
S315080001A02C00004000400008FCED00E000000020A4
S315080001B098000020000400201816000800040020FB
S315080001C004040020040400202D0C002010B50E4A5B
S315080001D00E4C30211160216010230D4A0D4C116020
S315080001E02360010A00290C4908BF000208804FF263
S315080001F00F004880BFF35F8F084800210160416007
S3150800020007480849086010BD3020004030C8004043
S3150800021030C0004010E00040000000201C400040B4
S315080002200400FA050CED00E00020704780B500F0E8
S3150800023069F90121062000F071F9062000F097F906
S315080002400121072000F06AF9072000F085F9174810
S31508000250016821F01001016001BD0000052800D9E0
S31508000260704710B5DFE800F01721030F1C17104C74
S315080002702088411E2180C0B9072000F083F942F288
S315080002801071218010BD072000F071F9BDE81040FB
S31508000290062000F077B9BDE81040062000F05CB9EA
S315080002A0BDE81040062000F062B910BD00BC004051
S315080002B0260C0020604951200860704738B504466E
S315080002C05E48C1780329D4BF302560254FF4F07104
S315080002D0B1FBF5F0241A1E2CBCBF4FF40170FFF7D2
S315080002E075FF5748072101600022426082606C430F
S315080002F0544AE41C4FF00071A4081160641E44605F
S3150800030031BD4E4A01215170D8E72DE9F0414F4FD2
S315080003104D4D7888494E4FF6FF78404540F2DC54FB
S315080003201CD14B48018802237F22B81C00F048F9EB
S315080003307888404504BF02217980A869810703D4DB
S31508000340A86940F00200A8610120B07020467988AB
S315080003502960FFF7D6FF2046BDE8F081A869810726
S31508000360EED537480168CA0348BF00F051F8B0789F
S315080003700028F0D1A968A8687A8811F0010103D18C
S315080003800F2A08D2521C06E0830704D5387810B124
S31508000390022AC8BF521E90B20228B8BF022239707C
S315080003A07A80286879888842CED1A86900F0030047
S315080003B0032808D0A869204A40F00100A861012155
S315080003C0E961512010600020C6E710B521490446AE
S315080003D0087868B9C878072818BF092810D00328EC
S315080003E018BF11280CD013281CBF15280B2807D0B6
S315080003F01948016841F48071016001E000F008F9CC
S315080004002046FFF782FF0100F8D110BD0220DCE785
S315080004100B480C4B0021416000228260016821F0E4
S315080004200201016005494A704FF000721A60887827
S3150800043008B100228A70704700800040280C00200E
S3150800044010E000E004ED00E0044000400004002055
S3150800045014160008960708083840004000787047C8
S3150800046038B5DAB00446214636A800F0E3F800218C
S3150800047000914FF402630B4A36A901A800F082FAEC
S315080004800FF26C021DA001A900F0D9FC054600F088
S3150800049041F828001CBF214600F022F928465BB027
S315080004A030BD00000404002080B5FFF7AFFFFFF75A
S315080004B0EBFDB0F58A7F09D100F0ECFC00F054FDA5
S315080004C00028FBD040F21110FFF780FEFFF7AEFEC2
S315080004D000F0E0FC00F06CFD40F20120FFF776FE2C
S315080004E0002002BD012A08BF00F0E6BC70470000E4
S315080004F08D150008C91500085D040008A508000840
S31508000500DF0800081148012181604EF6BE224260CC
S31508000510016070470E49012008607047F0B5C208AF
S3150800052052020C4CA518830010F0040014BF6E6824
S31508000530A65803F00C030F279F40BE43994031434A
S3150800054008B16960F0BDA150F0BD00000060004030
S315080005500860004000B000401149C20801EB422380
S31508000560012100F0070001FA00F0586170470C49B4
S31508000570C20801EB4223012100F0070001FA00F04E
S3150800058018617047C108064A02EB41210122CB686F
S3150800059000F0070002FA00F05840C86070470000F3
S315080005A000B0004038B515467F2A08BF0025154C0F
S315080005B021431A4605FB0311BDE8384000F0FCBD8F
S315080005C070B51E00044615461BD04BF234629142A4
S315080005D011D1092E28BF082633467F2240F612017C
S315080005E0FFF7E0FF4FEA060207A1204600F005FEE6
S315080005F038B940F2A27133462A462046BDE8704013
S31508000600D0E770BD00000808FFFFFFFFFFFFFFFFF0
S3150800061007490A68032809D34B6D43F001034B6564
S315080006200B689B1AC3F313038342F9D37047000080
S31508000630382000400170012201290CBF8021402189
S315080006408180427000218270C18001810E22224879
S3150800065001608262036823F010030360416341620C
S315080006600121416170472DE9F0411B4F1B4E05469C
S31508000670386840080C46400038604FF0FF31904615
S315080006803160C7F82C8000207862396841F0010192
S315080006903960FFF73FFF012D1BD17CB900F064FCE0
S315080006A088B93068C107F4D55FEA0800F1D0386820
S315080006B04008400038601620BDE8F081204600F06A
S315080006C05AFC0028EDD13868400840003860002000
S315080006D0F2E70120F0E7000000F0004000A8004023
S315080006E038B504460D4600F009F800F007F82A4622
S315080006F02146BDE838401820FFF7F4BE2A462146B1
S315080007001820FFF7EFBE7CB50446002020814AF684
S31508000710B43220786946FFF7A6FF08B11C2076BDDB
S315080007209DF80000032818BF182801D1182076BDA7
S31508000730042801D1172076BD012801D0212076BDD5
S31508000740002500E06D1CA188E8B2091D88423EDA42
S3150800075004F10A010144207840F2DD22FFF783FF05
S315080007600028EFD0262076BD014604F10C00EAB237
S315080007706D1C805C00F052FDA288E9B29142F3D369
S31508000780A37AE17ACD18FF2D01D0222076BD04F197
S315080007900C05AE5CB6EB102F01D0232076BDA11850
S315080007A0C0B2497B814201D0242076BDA07883421D
S315080007B007D0401EC0B2834201D1272076BD25202E
S315080007C076BD0220921CE0802281002076BD00259D
S315080007D00020D1E738B505466878012804D025D326
S315080007E003283FD01AD321E0297801293CD13B249C
S315080007F0684600F0C0FB0028FAD0432000F05CFBF6
S31508000800287840F2DD220021FFF72DFF60B320464D
S31508000810441EC0B20028F0D11B2032BD00F0BCFB3C
S3150800082000F03BF8A878401CA8701FE0182032BDDD
S31508000830A00605D52A78A9781520FFF753FE07E004
S31508000840600622D4182C18BF1C2C1ED0172C05D0D5
S3150800085064B90320FFF702FD002032BD00F01DF841
S3150800086003206870172032BD022068702846FFF7FB
S315080008704AFF040018BF00F08FFB272CD8D1A878B0
S315080008802A78411EC9B20620D7E720462978FFF7FD
S3150800089027FF04206870204632BD2A78A9780620EA
S315080008A0FFF720BEF8B504460D461646002707E0B2
S315080008B0E088411C2044E180BBB2827AEA547F1C5E
S315080008C0B8B2B04209D2E08821898842F0D32046DE
S315080008D0FFF780FF0100EBD0F2BD0020F2BD10B596
S315080008E004462046FFF776FF0100FAD010BD000047
S315080008F0F8B504460D4616461F4607E03046A0479B
S31508000900294600F09DFC05467F1E761CB8B20028D5
S31508000910F4D12846F2BD38B50C461546014605E021
S3150800092014F8010B00F08CFC01466D1EA8B20028D5
S31508000930F6D1084632BDF8B507460E4614461D469A
S3150800094030683B682A4621469847070005D1F06873
S315080009502A462146FFF7DFFFF060D6F8A81096F87A
S31508000960A7006918C6F8A81050B1AC362A46214621
S31508000970304600F03BFD2A462146304600F0B6FCDC
S315080009803846F2BD10B5029C84720381426001604C
S3150800099000224FF0FF31C160027400F1A4018022E9
S315080009A000238A700B80CB704B602822BDE810406C
S315080009B00021AC3000F01ABC2DE9F84F8B460546ED
S315080009C09BF81B70D0689949802FA8BF802788425A
S315080009D054D11C0050D0D4F808804FF0FF394FF09E
S315080009E0000A0BEB4A0000F1480100910E7810E06E
S315080009F0B0B2FF2817D0FFF78DFD320452094FF425
S31508000A00006342F0006249464046FFF771FF81469F
S31508000A10761C00984178B2B29142E9D20AF1010AED
S31508000A20BAF1060FDDDBDBF844006FEA09018842FC
S31508000A3024D1A968636808BA7A0859469847C8B994
S31508000A40E868A96806BA0ABAA0683B464FF0FF31BB
S31508000A50FFF74EFFC04386420CD140F6A720ABF8FD
S31508000A6010000122A968636808BA0BF1100110305A
S31508000A70984708B1422002E0172000E04320BDE86D
S31508000A80F28F2DE9FE4F0F46D7F804803D89ADF861
S31508000A9004501446824604234246FFF74CFF0100E1
S31508000AA079D1B8F80000B8F8021040BA4DBA1FFA62
S31508000AB080F9ADB2E80705D54FF20861894518BF38
S31508000AC0462068D140F621008542A8BF4E2062DA4A
S31508000AD0002D5FD0B9F1000F07F13C06DFF850B1E1
S31508000AE009D04FF60442B9EB020153D0FF3956D06C
S31508000AF0FE3954D094E0387C08B151204BE08D2D56
S31508000B0028BF4F2047D22B4607F1180239465046D0
S31508000B10FFF711FF01003ED1F278802AA8BF802294
S31508000B2002F10C00854201BF388B40BA00F47F40C1
S31508000B30B0F5007F31D1788B40BA4EF250318842F9
S31508000B4002BFB88E40F6A721884226D1F88E00F457
S31508000B507F40B0F5807F01BFF86900BADBF81C104A
S31508000B6088421AD14FF6FF70B88607F124014FF074
S31508000B70FF30FFF7D0FE396A09BAC943884204BF75
S31508000B803078042809D170780A2818BF062804D1B5
S31508000B90012038740020BDE8FE8F4520FBE7387C2D
S31508000BA008B94120F7E7042300F044F80100F2D120
S31508000BB0D8F80000DBF81C1000BA00902D1F8842F8
S31508000BC0ADB238BF4820E6D3F16B2818884228BF53
S31508000BD04920E0D24FF60350814523D114B300993A
S31508000BE0226802209047E8B14A20D4E734B1636806
S31508000BF04FEA5B0241463046984778B9A5EB0B05A4
S31508000C00ADB25E44002DC5D04D45B4BFAB46CB460C
S31508000C105B4600F00FF80100E8D0BCE74B20BAE7C6
S31508000C204420B8E7BDF80490009EEBE7E320BBDE5E
S31508000C30000000084246394650467CE62DE9F8434E
S31508000C40174604463D891028884638BF4E2030D3BB
S31508000C5007F1AC0904234A4600F02DF8010028D113
S31508000C600C2307F1B00200F026F8010021D1D7F8CD
S31508000C70AC0000BAC7F8AC00103CA1B2484600F078
S31508000C80FDFA05E079683246484600F02FFBA41BBA
S31508000C90A0B250B1A6B2AE4288BF2E467A68334695
S31508000CA000F009F80100EDD003E0484600F041FBEA
S31508000CB00020BDE8F283394640463CE62DE9FF4769
S31508000CC081460D4605F1A404A0786F6883289046EE
S31508000CD04FF6071A05D1A688822250465146A270B9
S31508000CE00CE004233A4600F0A8F801006AD13888D7
S31508000CF0798840BA80B24EBAB6B20146F20706D52E
S31508000D004FF6062399421CBF514546205AD14FF249
S31508000D100972A178801A56D04FF4FF72801A37D01C
S31508000D20FF382CD0FF3802D0FF3868D07FE0802902
S31508000D3067D1062E20D3062301AA29464846FFF77F
S31508000D40FAFD010019D1BDF8040040BA00F47F404D
S31508000D50B0F5007F01BFBDF8080040BA4EF2503129
S31508000D60884209D1BDF8060041BA012903BF40BA35
S31508000D7020800020522000E04520812155E081296D
S31508000D803FD12A4649463046FFF758FF82214CE0B4
S31508000D90822936D1042E2DD301200021E07061600E
S31508000DA0424629464846FFF76CFE010022D100213B
S31508000DB0E17061688E421DD3B14239D28322A27096
S31508000DC0761A666034E082291BD105F1AC084046E4
S31508000DD000F0AFFA2889B042B8BF4F2028DB334667
S31508000DE000F029F8010023D1F2B23946404600F056
S31508000DF0C6FA08B954201BE00020842115E084298E
S31508000E0001D0512014E0042E18BF4C2010D1042321
S31508000E1000F011F801000BD143462A4605F12401DA
S31508000E2005F11400FFF7C8FD8521A17000E04420F4
S31508000E3004B0BDE8F0873A46294648467BE570B5D2
S31508000E400D46044628898028164601DA4F2070BDCB
S31508000E5000F008FA60B9532070BD8F2185F8A610F6
S31508000E6070BD286861688847172812D1002070BDB0
S31508000E70324629462046FFF721FF002818BF1728C3
S31508000E80EBD195F8A6008528EBD0A87A0028EFD0F4
S31508000E90502070BD80B53D486821416102228260BC
S31508000EA00121016009200921FFF738FBBDE804404C
S31508000EB004210A20FFF732BB3649CA685307FCD516
S31508000EC00860704710B503E000F040F81160401C58
S31508000ED001780029F8D110BD3EB500BF32A2052120
S31508000EE0D2E90034CDE9003404220FE080B20A23A7
S31508000EF090FBF3F30A2404FB1300044604F13005BF
S31508000F000DF801501846E4B204B10A46491E49B222
S31508000F100029EBD5D2B20DEB0200FFF7D3FF37BDA0
S31508000F2010B501090A29B4BF3031373100F00EF87F
S31508000F3000F00F00C9B20A281160B4BF303037304C
S31508000F40D1684B07FCD5C0B2106010BD114AD368F2
S31508000F505C07FBD5704710B50446000AFFF7E0FFAB
S31508000F60E0B2BDE81040DBE70948016811F002006D
S31508000F7018BF012070470749CA68920703D5096850
S31508000F8001700020704701207047000054C80040D7
S31508000F9048C800403CC8004080B56846FFF7EBFFEC
S31508000FA00028FAD001BD0000303030303000000093
S31508000FB02DE9F84FFFF7AEFAFFF7EEFF0020FFF72F
S31508000FC04DF90FF280180FF26C1A464F0FF23819C6
S31508000FD00FF21C1B41A542A61DE05846FFF772FFFB
S31508000FE00C244148408BE04000F00F00FFF774FFE7
S31508000FF0002CC4BF2E20FFF75FFF241FF1D5304613
S31508001000FFF760FF3948408EFFF766FF4846FFF74F
S3150800101059FFFFF7C1FFFFF77DFA0220FFF71EF918
S315080010206846FFF7A8FF0028F5D19DF80000FFF7EE
S3150800103043FF9DF800000A2818BF0D28CDD0312897
S3150800104004D032282DD0332830D0E2E74046FFF7C7
S3150800105039FF0120FFF704FA044600BF3EA0FFF758
S3150800106031FF2CB90520FFF7F9F800BF3FA0CEE7FE
S315080010700420FFF7F3F800BF3FA0FFF723FFA00601
S3150800108048BF0FF2001005D460064CBF0FF20C10D3
S315080010900FF21810FFF716FF2046FFF75CFF2846E9
S315080010A0B5E70120FFF7DAF8BDE8F18F2846FFF724
S315080010B009FF388A002440F6A721884218BF5046FF
S315080010C0A5D1E0B23844641C90F824000100E6D0AB
S315080010D0FFF7F2FEE0B21028F3D3E0E70D0A0000AE
S315080010E02062000000400008000000081A000008FE
S315080010F00D0A454D333538312053657269616C20C8
S3150800110042746C20760000000D0A312E2075706C32
S315080011106F61642065626C0D0A322E2072756E0D41
S315080011200A332E2065626C20696E666F0D0A424C82
S31508001130203E20002A2A206E6F20617070202A2AFD
S315080011400D0A00000D0A626567696E2075706C6F7E
S3150800115061640D0A000000000D0A53657269616C2E
S315080011602075706C6F61642000000000636F6D70FD
S315080011706C6574650D0A000061626F727465640DB2
S315080011800A0000000D0A584D6F64656D20626C6F89
S31508001190636B206572726F72203078000D0A66697B
S315080011A06C65206572726F72203078000D0A657260
S315080011B0726F72203078000010B5814212D2104446
S315080011C01144401E491E93B2002B1EBF11F8013967
S315080011D000F80139521EF6D110BD11F8014B00F87E
S315080011E0014B521E93B2002BF7D110BD130003D04A
S315080011F00A46194600F026B9704710B5034600E0BE
S31508001200521E90B218B100F003F8F9D0001B10BDB9
S3150800121013F8010B11F8014BA04270470A0A42EA7B
S3150800122001225040C0F30311484080EA00304101D2
S315080012300206C9B2D20E41EA0221484080B270477E
S315080012400A0A484000F0FF0008214308C00718466C
S3150800125044BF034B5840491EF7D150407047000021
S315080012602083B8ED002060490A5CFF2A04D1401C9F
S315080012701028F9DB002070470120704713B5044693
S3150800128082B0206800BA01903A21039800B17A2109
S3150800129021740C22211D04F11100FFF78DFF032292
S315080012A00DF1050104F11D00FFF786FF00F03CF87B
S315080012B00398D0B1B0F57F4F05D200BA0390022249
S315080012C00DF10E010EE000BF5DA000880399ADF890
S315080012D00000022208BA03906946204600F006F884
S315080012E0042203A9204600F001F81FBDF8B50446FC
S315080012F00D461646002714E094F82500EA5D2044BA
S31508001300017C5140017494F82500401C84F825009E
S31508001310C0B2102804D300F007F8002184F825107D
S315080013207F1CB742E8D3F1BD2F4904F1100000F045
S31508001330F3B81FB504466846102100F0F7F894F88C
S315080013402520C2F11002D01002EB10710911A2EB90
S31508001350011269462046FFF7C9FF1FBD1FB50C4697
S31508001360011D6A46002000F027F80020215C1DF8C0
S31508001370003059402154401C1028F7DB1FBD38B5F2
S31508001380102A04460D4607D1216A94F824202068BD
S3150800139002EB0112904201D0002032BD29462046B8
S315080013A0FFF7DCFF102204F110012846FFF725FF9E
S315080013B0401E8041C00F32BD11B581B0144600BA37
S315080013C00190022323700C22601CFFF7F5FE03220E
S315080013D00DF1050104F10D00FFF7EEFE0249204666
S315080013E000F09AF813BD0000F80808082DE9FF4137
S315080013F005460E4690460020002705F120041AE00F
S31508001400010006D120686A46291D401CFFF7D4FF53
S3150800141001202379F15D1DF803205140F15521790A
S31508001420491CCAB2102A04DB2068401C206000212F
S31508001430002021717F1C4745E2D3BDE8FF810000EB
S31508001440FFFE000062F30F2262F31F42401810F0FD
S31508001450030308D0C91A1FD3DB0748BF00F8012DBC
S3150800146028BF20F8022D130030B41446154610394B
S3150800147028BF20E93C00FAD8490728BF20E90C0014
S3150800148048BF40F8042D890028BF20F8022D48BF20
S3150800149000F8012D30BC7047C91818BF00F8012D97
S315080014A0CB0728BF00F8012D7047000002681749CE
S315080014B012BACA60426812BA8A60826812BA4A6068
S315080014C0C06800BA0860704730B5114980220A60C2
S315080014D00623104A136007240C601568AB07FCD571
S315080014E0002350F823405B1C24BA042B8C62F8D3E3
S315080014F013685C07FCD500220B6B1BBA40F8223038
S31508001500521C042AF8D330BD0000000038300040D1
S315080015100030004010A0004010B504460846FFF70A
S31508001520C5FF2046BDE81040CEE70000002200F0C7
S3150800153001B8000000B500BF13009646944610395E
S3150800154028BFA0E80C50FAD85FEA417C28BF0CC037
S3150800155048BF40F8042BC90728BF20F8022B48BF0C
S3150800156000F8012B00BD00002748018A40F6A77243
S31508001570914204BF408A10F47F4F03D1022801DB51
S31508001580012070470020704700000000F8B50446A7
S315080015901C4E012030700D46FFF7E6FF18B94FF4D0
S315080015A00170FEF713FE1848876A294644F48070CE
S315080015B0B8470021317000BF14A618B9294644F46B
S315080015C00070B847305CF2BD2DE9F0410446884604
S315080015D05600FFF7C9FF18B94FF40170FEF7F6FD7C
S315080015E0DFF8240009A5476A00233246414620460B
S315080015F0B84720B93346002241462046B847285CFA
S31508001600BDE8F0812C0C0020000008080002020248
S311080016104B4B4647EE0800000100FFFFA8
S705080000757D
