S01900006275696C642F64656275672F6F742D7263702E73333711
S21400000000100020410200003D0200003D020000FA
S214000010752700003D0200003D0200003D02000082
S2140000203D0200003D0200003D0200003D020000CF
S2140000303D0200003D0200003D0200003D020000BF
S2140000403D0200003D0200003D0200003D020000AF
S2140000503D0200003D0200003D0200003D0200009F
S2140000603D0200003D020000612D00003D02000040
S2140000703D0200003D0200003D0200003D0200007F
S2140000803D0200003D0200003D0200003D0200006F
S2140000903D020000510700003D0200003D02000046
S2140000A03D02000051080000290800003D02000043
S2140000B03D0200003D0200003D02000039FA00004B
S2140000C0C5F90000C1F90000C9F0000035FA0000CB
S2140000D0C9F90000E9F90000CDF90000CDDB000009
S2140000E07DFA00003D0200003D0200003D020000D7
S2140000F03D0200003D0200003D0200003D020000FF
S2140001003D0200003D0200003D0200003D020000EE
S2140001103D0200003D0200003D0200003D020000DE
S2140001203D0200003D0200003D0200003D020000CE
S2140001303D02000010B5054C237833B9044B13B1CB
S214000140044800E000BF0123237010BDBC1300204C
S214000150000000000027010008B5034B1BB103494F
S214000160034800E000BF08BD00000000C0130020E8
S21400017000270100154B002B08BF134B9D46A3F527
S214000180803A00218B460F461348144A121A07F08D
S2140001905EFA0F4B002B00D098470E4B002B00D07A
S2140001A098470020002104000D000D48002802D0CA
S2140001B00C4800E000BF07F0F3F92000290006F025
S2140001C0F9FF07F0C7F900BF000008000010002084
S2140001D00000000000000000BC130020C02E00201D
S2140001E00000000000000000042208B511460123AC
S2140001F0032001F041FE002008BD042208B5114688
S2140002000023032001F038FE002008BD08B506F0E4
S21400021031FFBDE80840FFF7E7BF7047054A0649CB
S2140002201368184488428CBF4FF0FF33106018469E
S214000230704700BF0010002000800120FEE700008D
S21400024008B500F013F8064A064B07498B4201D35F
S214000250FFF790FF52F8040F43F8040BF6E700BFD1
S2140002600427010000100020BC130020044B054AA0
S2140002709A60D3F8882042F47002C3F8882070474A
S21400028000ED00E000000000084B1B6F03F00703C2
S214000290022B04D0032B05D0012B05D0FEE7044B20
S2140002A018687047034BFBE7034870470080004020
S2140002B0081000200C100020002D310108B5FFF7B3
S2140002C0E3FF054B1B6FC3F301330133B0FBF3F0C1
S2140002D0024B186008BD00BF0080004004100020DC
S2140002E00048704700B4C404014B1868704700BF4C
S2140002F00C100020054B1860054B1B6F03F007031E
S214000300032B01D1FFF7DABF704700BF0C100020A7
S21400031000800040014B1868704700BF081000209E
S214000320014B1860704700BF08100020002070477F
S21400033000487047002D3101174B9868C0F3044001
S2140003400C2826D8DFE800F0092525252525071BDB
S2140003501D251F212300114870479B6803F040733A
S214000360B3F1807F07D0B3F1007F06D00C4A002B94
S21400037008BF104670470B4870470B4870470B483D
S21400038070470B4870470B4870470B4870470B4840
S21400039070470020704700BF0040014A405DC6001D
S2140003A000093D0080841E0040420F000024F40037
S2140003B0C0EA210180BA8C010048E801005A6202B6
S2140003C04FF4004070474FF47A707047014B18683E
S2140003D0704700BF101000202DE9F04F9B46584B89
S2140003E085B01B78064689461546109F9DF844A0A2
S2140003F0DDF85080002B00F09280072A00F29180F2
S2140004000E9B002B00F08D800F9B002B00F0898048
S214000410129BB3F5006F00F38480012801D1002FF2
S2140004207FD0484B03EB05131B7B002B7BD0464C41
S21400043010220021684607F00AF904EB4514102242
S214000440B9F1000F5CD14946204607F000F9A378C1
S21400045043F01003A370E37843F03003E370BAF17F
S214000460000F03D1DBB243F00303E37036496A01A1
S214000470129B885A013B63F30E100E9B01EB020C95
S2140004808852CCF808300F9B9DF84C10CCF80430FE
S2140004909CF80330012E61F38303CDF800B08CF88E
S2140004A0033042D113230CF1100ECCF80C309CE82C
S2140004B00F008EE80F006FF00301DCF81C20B9F186
S2140004C0010F61F39F02CCF81C20CCF8147004D105
S2140004D00F9BCCF80470CCF81830002719492A0175
S2140004E08B1841F80280159A28465A609F605E7302
S2140004F02246694601F03CFD384605B0BDE8F08F5F
S2140005000021204607F0A3F81023A3700323E3700E
S214000510BAF1000FAAD1DBB243F03003A5E70B48CF
S214000520EBE70B48E9E70B48E7E7B8F1000FD4D153
S2140005309CF8023068F304138CF80230CDE700BF55
S21400054058150020D813002058140020028000F010
S214000550018000F0078000F038B5104B05461B7888
S214000560BBB1C0B101F0E3FB00230D4901EB031260
S214000570147B3CB92B6001231460137301F0DBFB82
S214000580204638BD0133082BF0D101F0D4FB0548D6
S214000590F7E70548F5E70548F3E700BF58150020DC
S2140005A0D8130020048000F0028000F0018000F0E4
S2140005B0154B13B51868002301908DF8043001F030
S2140005C0B6FB124B1C7824B101F0B5FB104802B004
S2140005D010BD01221A7001F0AEFB0E4B01A81C7371
S2140005E01C7783F82C4083F83C4083F84C4083F813
S2140005F05C4083F86C4083F87C4008238DF8073015
S21400060001F08CFC2046E2E738FC0000581500207C
S214000610038000F0D813002010B588B00E9C00921E
S21400062007940D9C024606949DF8304005940B9C5A
S21400063004949DF8284003940024CDE90134204614
S2140006400B462146FFF7C8FE08B010BD10B588B0AF
S2140006500E9C009207940D9C024606949DF830402E
S21400066005940B9C04949DF8284003940024CDE93F
S214000670013420460B460121FFF7AEFE08B010BD40
S21400068008B50A4B1B785BB107280BD8084B03EB61
S21400069000131B7B43B1002101F030FC002008BD95
S2140006A00448FCE70448FAE70448F8E75815002031
S2140006B0D8130020028000F0018000F0078000F0D0
S2140006C008B50A4B1B785BB107280BD8084B03EB21
S2140006D000131B7B43B1012101F010FC002008BD74
S2140006E00448FCE70448FAE70448F8E758150020F1
S2140006F0D8130020028000F0018000F0078000F090
S2140007000D4B1B7893B1072812D889B10B4B03EB1E
S21400071000131B7B73B10A4BDA6A012303FA00F05D
S21400072010401ABF00200B700870704705487047CD
S214000730054870470548704758150020D813002014
S21400074000000440028000F0018000F0078000F006
S2140007502DE9F843174B1F6D5B6D1F4000D5FEE774
S21400076001260025144CDFF85480DFF854903742F9
S21400077017D02368C8F800609BB1A1686268013191
S214000780A16028469847637B012B0AD148B909EB3C
S2140007904513197B1A7F60F3410160F34102197318
S2140007A01A770135082D4FEA460604F11004DED10B
S2140007B0BDE8F88300000440D81300205020044011
S2140007C05814002070B504460125084E04B970BDC3
S2140007D094FAA4F0B0FA80F005FA00F324EA0304D1
S2140007E056F82030002BF1D09847EFE75C15002034
S2140007F04FF00072044BC3F880211A604FF08062FD
S214000800C3F880211A60704700E100E038B504465E
S2140008100D4601F08CFA034B43F82450BDE83840EF
S21400082001F089BA5C150020084BD3F82404D3F8ED
S2140008302024104042F2204220F42A5020F02A00C1
S2140008404004400C9850FFF7BDBF00BF00C00340F7
S214000850084BD3F82404D3F82024104042F2204258
S21400086020F4AA4020F055000004000C9850FFF732
S214000870A9BF00BF00C00340024B1968024B1868AE
S21400088008F0EABC1810002014100020704700235F
S21400089010B59A4201D1002010BD50F8234041F80F
S2140008A023400133F5E7000070B594002246054664
S2140008B00E460FF0B1F9431C02D018B1064800E00E
S2140008C0064870BD22463146284606F08DFE0028B2
S2140008D0034808BF0020F4E724E000F021E000F021
S2140008E010E000F013B5044601A801F05DFC9DF889
S2140008F00630012223804FF4807300206380054B6E
S2140009009B680A3303F01F0302FA03F3636002B026
S21400091010BD00BF0080E00F01F086BB08B501F0F7
S21400092077FB002008BD000010B504460FF07CF9E8
S214000930431C02D018B10C4800E00C4810BD0C4B0C
S21400094020469B680A3303F01F020123934023F0DE
S21400095003032344984201D10020EFE750F8042B0C
S2140009600132F7D00348E9E724E000F021E000F088
S2140009700080E00F0EE000F008B501F0D1F9014B61
S214000980186008BD002E0020014B186801F0CCB995
S214000990002E00200A460139014401F09BBE0122C8
S2140009A003685A619A69D207FCD541F2AC52042119
S2140009B003795B0103F1804303F570339950704768
S2140009C038B141B1013AB2F5006F044838BF002093
S2140009D07047034870470148704700BF037000F037
S2140009E0027000F038B504460D4601F0A0F9A28862
S2140009F092B222B92A6001F09EF9064838BD142248
S214000A00638802FB034308332B6001F094F900204F
S214000A10F4E700BF0B7000F038B504460D4601F051
S214000A2086F9A3889BB223B92B6001F084F90C48A1
S214000A3038BD14226388E18802FB034308332B6029
S214000A4063885A1C92FBF1F301FB13239BB263806D
S214000A50A388013B9BB2A38001F06DF90020E7E775
S214000A600B7000F090F83130022B0BD13022437F10
S214000A7090F821005A43044B9B5823FA00F000F0EC
S214000A80010070470020704714C00340002313B5D0
S214000A901C4A52F8234094F8211081420ED00133AC
S214000AA0042BF6D102B010BD0028FBD19DF807300C
S214000AB0002BF7D0A068FFF7E3FDF3E794F831309A
S214000AC0022BEFD12046FFF7CDFF637E2076022B68
S214000AD0E8D194F82E3003F0FF02002BE2D102A9F1
S214000AE001F8012DA068FFF70BFE237E1BB194F8DA
S214000AF02F30002BD8D00023A06884F82F30FFF7C3
S214000B00DFFDCFE7DC1B002030B5012490F8325023
S214000B1087B080F82C4095B9426B03682244426344
S214000B20094A0490CDE902524A682433CDE90042CE
S214000B300A684169C068FFF789FD07B030BD002329
S214000B4080F82C30F9E700BF1111000030B5012401
S214000B5090F8325087B080F82D4095B9436B026804
S214000B6023444363094B0490CDE902534B683C325F
S214000B70CDE900430B6801698068FFF74DFD07B0BB
S214000B8030BD002380F82D30F9E700BF910B000040
S214000B90F7B5144601A9906AFFF724FF636B013B83
S214000BA06363154B984220D00025019B1D619D6014
S214000BB001F0BDF8019A0746D66826B1D2E90023AF
S214000BC029462046B04701A9A06AFFF725FFA06A7C
S214000BD083889BB263B101A9FFF704FF0199204601
S214000BE0FFF7B4FF384601F0A6F8012003B0F0BDC9
S214000BF084F82D30F6E700BF0B7000F02DE9F041C9
S214000C0004461746884601F092F8A388E28805460F
S214000C109A4206D800233B6001F08DF81148BDE8E3
S214000C20F08114262088324606FB004041460830F4
S214000C3006F0E9FC2288238806FB0242E188083297
S214000C403A605A1C92FBF1F301FB13239BB22380FC
S214000C50A388284601339BB2A38001F06CF80020DD
S214000C60DDE700BF0A7000F02DE9F04104460F46AC
S214000C709046FFF7A5FE0546002839D1152001F05D
S214000C806BF80646A26A93889BB213B194F82E308E
S214000C908BB323689E6916F002060ED104225A61B1
S214000CA09A699207FCD541F2AC52102123795B0178
S214000CB003F1804303F570339950012384F83030F4
S214000CC094F8323033B9B8444745206818D1836960
S214000CD09B06FCD566B942F2AC52102123795B0123
S214000CE003F1804303F570339950082223685A6154
S214000CF02846BDE8F081002EC5D0FFF729FDC1E7E4
S214000D0017F8011B01F06EFBDEE7000010B5044685
S214000D1080B190F82E302BB9FFF7A4FE10B9A0686A
S214000D20FFF7AEFC002094F82E300133DBB284F8D7
S214000D302E3010BD0048FCE7027000F010B50446E7
S214000D40A0B190F82E309BB190F82E30012B05D133
S214000D50FFF788FE10B9A068FFF7B2FC002094F8F1
S214000D602E30013BDBB284F82E3010BD0148FCE784
S214000D700148FAE7027000F0057000F037B590F809
S214000D8031500446022D1ED1012190F82220457EC6
S214000D90837F01FA02F23020154925B900FB0313C0
S214000DA042F2100105E0012D07D100FB031341F2CA
S214000DB010015A50002003B030BD247E00FB031300
S214000DC0002CF4D1ECE7012DF4D1037E73B9112386
S214000DD08DF80730FFF79AFF2A460DF107012046E7
S214000DE0FFF742FF2046FFF7A9FFE3E71323EFE7ED
S214000DF000C00340F0B504468BB0A14F03AE0D46CD
S214000E000FCF0FC697E8070086E807001CB99D4C71
S214000E1020460BB0F0BD0DB99B4CF9E738220021F7
S214000E20204606F014FC0023984963630A78984B22
S214000E302AB9C3E90022C3E9022201220A7000226D
S214000E4053F822108C420AD00132042AF8D100222C
S214000E5053F82210002940F0CD8043F822402B7D25
S214000E60286884F831300023206084F832302B7BE9
S214000E702371884B984240F0C280202384F82330A8
S214000E80854B23614FF4802300266361D5E9072351
S214000E90626216805680968084F82C60A3621E805C
S214000EA05E809E806B6803A90593EB8984F82D60AD
S214000EB0ADF81C302B8A84F82F60ADF81A30AB7C66
S214000EC08DF80C608DF81830EB7C8DF81E300523FD
S214000ED08DF8193001F00EFA14212A7B6F4B287A10
S214000EE003EB4217C7F8AC15A97A2E3240EA014C3C
S214000EF003EB4213C3F804C06A7AEB7A42EA034C67
S214000F00C7F8BCC5E17784F820306B7DE0762277A1
S214000F106377AB7D042284F82130EB7DA3772B7EAC
S214000F2084F82230012300F0A7FF0123022294F860
S214000F302010207F00F0A0FF94F83130022B75D1EE
S214000F403346012294F82110607F00F095FF334667
S214000F50042294F82210A07F00F08EFF012394F85C
S214000F602120607F1146CDE9003300F03FFF00F0FE
S214000F70DEFE2E7D0746032E69D141F2AC520221D9
S214000F802B7B04205B0103F1804303F570339950FB
S214000F9041F25C0229688850297EEA7D42EA0142D5
S214000FA041F2B8515A50A97D6A7D42EA014241F2A7
S214000FB0B4515A504FF0FF3242F248032868C250EC
S214000FC02B7D032B0CBF0521042101F04DF94FF4B6
S214000FD040622B685A61FFF7EBFA002104F1080023
S214000FE0FFF7BAFA0146002842D02D4C384600F0EA
S214000FF0A2FE0DE70132042A7FF42AAF07E7294B49
S214001000984207D1212384F82330274B23614FF4DD
S214001010A02339E7254B98427FF4FEAE222384F8BE
S2140010202330234B23614FF4C0232DE7032B9ED19F
S214001030334694F82110607F012200F01DFF3346EE
S214001040042294F82210A07F00F016FF8FE7022EED
S214001050B0D194F821001749FFF7D8FBFFF7C8FB7B
S21400106000236676A37623762046FFF787FEA1E761
S21400107004F10C00FFF770FA04460028B6D0B4E777
S21400108060FC0000027000F0037000F0EC1B002013
S214001090DC1B0020008005400200040000C0034066
S2140010A00E7000F000C0054002000500000006407B
S2140010B0020006008D0A0000F0B587B0044616460A
S2140010C0FFF77EFC0546E8B90493104BCDE9011600
S2140010D06A4601A9606A03960593FFF78FFD0546E9
S2140010E080B994F82C306BB92046FFF758FC00996D
S2140010F0FFF70AFD94F83130032B03D025762046FF
S214001100FFF73CFE284607B0F0BD00BF017000F0B8
S21400111073B5144601A9506AFFF764FC636B013B84
S21400112063632F4B984230D094F83200019B00281E
S21400113039D12268916C11F4007129D02949986040
S214001140196142F248034FF40071D15000F0EFFDF0
S21400115001990646CD6835B14A688B682046D31A91
S2140011600A680969A84701A9606AFFF755FC606A22
S2140011708588ADB2DDB101A9FFF734FC01992046A0
S214001180FFF7C2FC304600F0D6FD012002B070BD6D
S214001190906CC00507D51448996018614FF48071AB
S2140011A042F24803D1E700221A619A60CEE7012393
S2140011B020462376FFF7E2FD94F8313084F82C5071
S2140011C0032BDFD042F2AC52042123795B0103F1FA
S2140011D0804303F570339950022223685A61D1E7A1
S2140011E00B7000F00D7000F00C7000F0F0B587B0DA
S2140011F004461646FFF7E4FB054600BB0493114B76
S214001200CDE901166A4601A9A06A03960593FFF781
S214001210F5FC054698B994F82D3083B900F087FDA3
S214001220A36A06469B889BB233B100992046FFF717
S2140012308DFC012384F83030304600F07CFD2846D3
S21400124007B0F0BD017000F02F4B984245D017D87C
S2140012502E4B984238D007D82D4B984234D02D4B81
S214001260984231D0002070472B4B98422FD02B4B02
S21400127098422FD02A4B9842F4D12A4B586E70478A
S214001280294B984234D00FD8284B984228D0284B68
S214001290984229D0A3F53703A3F5D8539842E1D155
S2140012A0204BD3F880007047224B984224D003F599
S2140012B0740303F51053984222D01F4B9842D1D1A5
S2140012C0184BD3F890007047164B986D7047154B27
S2140012D0186F7047134B586F7047124B986F7047D4
S2140012E0104BD3F8840070470E4BD3F88800704735
S2140012F00C4BD3F88C0070470A4BD3F89400704719
S214001300084BD3F898007047C0EA210100093D0059
S21400131040420F0080841E00405DC6000024F4009A
S214001320C0CF6A000080E00F006CDC020048E801D5
S21400133080D543020090D003007E560338B5124B8A
S2140013400546D3F820310C4603F00703013B032B78
S21400135017D8DFE803F0020A0E12FEF7DBFF0423BD
S21400136005B1286004B1237038BDFEF7BDFF032326
S214001370F6E7FEF7E1FF0523F2E7FEF7D9FF0223C3
S214001380EEE700231846EBE70080004037B50C4632
S2140013900021114B0191D3F88031054603F0030379
S2140013A0022B0ED0032B11D0012B03D101A8FFF77F
S2140013B0C5FF0D210DB1019B2B6004B1217003B058
S2140013C030BDFEF7B9FF05210190F3E7FEF7B0FF49
S2140013D002210190EEE700BF0080004038B5104BB8
S2140013E00546D3F840310C4603F00303022B0BD01E
S2140013F0032B0DD0012B0FD1FEF7E2FF082305B11A
S214001400286004B1237038BDFEF7E0FF0723F6E737
S214001410FEF7D9FF0923F2E700231846EFE700BFDF
S2140014200080004038B5104B0546D3F860310C46B6
S21400143003F00303022B0BD0032B0DD0012B0FD18F
S214001440FEF7BEFF082305B1286004B1237038BD3F
S214001450FEF7BCFF0723F6E7FEF7B5FF0923F2E722
S21400146000231846EFE700BF0080004038B5134B56
S2140014700546D3F800320C4603F00703013B032B66
S21400148018D8DFE803F0020A0E12FEF799FF0823C9
S21400149005B1286004B1237038BDFEF797FF072317
S2140014A0F6E7FEF790FF0923F2E7FEF707FF0C23A7
S2140014B0800AEDE700231846EAE700BF00800040F8
S2140014C038B5134B0546D3F808320C4603F007032D
S2140014D0013B032B18D8DFE803F0020A0E12FEF7D2
S2140014E06FFF082305B1286004B1237038BDFEF7EE
S2140014F06DFF0723F6E7FEF766FF0923F2E7FEF720
S214001500DDFE0C23800AEDE700231846EAE700BF5D
S2140015100080004038B5104B0546D3F840320C46E4
S21400152003F00303022B0BD0032B0DD0012B0FD19E
S214001530FEF746FF082305B1286004B1237038BDC6
S214001540FEF744FF0723F6E7FEF73DFF0923F2E721
S21400155000231846EFE700BF0080004038B5104B68
S2140015600546D3F800310C4603F00303022B0BD0DC
S214001570032B0DD0012B0FD1FEF7B6FE032305B1CA
S214001580286004B1237038BDFEF720FF0723F6E776
S214001590FEF7CCFE0623F2E701230020EFE700BFAC
S2140015A00080004041F671320F4B10B5D969DA63FE
S2140015B09A680E4C22F44012A04288BF42F4801271
S2140015C09A600B4A0B4CD2F81832A04223F0020362
S2140015D088BF43F0020301F48031C2F8183211B11B
S2140015E00022014BDA6310BD00000340C01753020F
S2140015F000C0074080F0FA0208B5FEF771FEBDE8AD
S2140016000840FFF7CFBF000002280CD007D80128FB
S21400161014D10B4B186FC0F301300130704703280C
S21400162007D00E28F4E7064BD3F89000C0F304600A
S214001630F3E7034B186FC0F38020EEE70020ECE7DB
S21400164000800040002307B50193242817D8DFE860
S21400165000F0131A1D262B353A3F44494E53586660
S2140016601A3F1616441A262B26351A3F26663A3A8D
S2140016703A3A262626494E00FEF706FE01900198C5
S21400168003B05DF804FBFEF719FEF7E7FEF7FCFD76
S21400169002460220FFF7B8FFB2FBF0F0EEE7FEF7D7
S2140016A00DFE02460320F5E7FEF708FE024603207D
S2140016B0FFF7AAFFB2FBF0F04008DFE7002101A821
S2140016C0FFF764FEDBE7002101A8FFF737FED6E749
S2140016D0002101A8FFF782FED1E7002101A8FFF74D
S2140016E0A1FECCE7002101A8FFF7C0FEC7E7002156
S2140016F001A8FFF7E5FEC2E7002101A8FFF72EFFCD
S214001700BDE7094BD3F8803003F00303022BBAD0B1
S214001710032B01D00020B1E7FEF70EFEAEE7002156
S21400172001A8FFF7F7FEAAE70080004002280AD0CB
S21400173002D8012804D0704703280FD00E2815D1F0
S214001740084600F02BB80A4A0139D2F8903023F048
S214001750F85343EA0161C2F890107047044A013911
S214001760136F23F4806343EA81211167704700BF3B
S2140017700080004002210320FFF7D8BF08B50120F3
S214001780FFF760FFBDE80840034988428CBF02218E
S21400179001210320FFF7CABF80F0FA0210B5044605
S2140017A0FFF72AFFFFF7E6FF074A013C106F20F419
S2140017B0405040EA04301067FEF780FDFFF7F2FE67
S2140017C0BDE81040FFF7DABF00800040002307B5F1
S2140017D08DF80730242822D8DFE800F013212121D5
S2140017E0212C32383E444A505669213821213E2168
S2140017F02121212C21382169323232322121214403
S2140018004A002E4B1B6F03F00703013B032B06D841
S214001810DFE803F00E020A0C04238DF807309DF86B
S214001820070003B05DF804FB0323F6E70623F4E79E
S2140018300223F2E70DF107010020FFF7A7FDEEE710
S2140018400DF107010020FFF779FDE8E70DF107012C
S2140018500020FFF7C3FDE2E70DF107010020FFF7C8
S214001860E1FDDCE70DF107010020FFF7FFFDD6E7FD
S2140018700DF107010020FFF723FED0E70DF1070169
S2140018800020FFF76BFECAE70C4BD3F8803003F05E
S2140018900303022B03D0032B05D00023BDE7FEF77E
S2140018A00DFD0B23B9E7FEF747FD0523B5E70DF160
S2140018B007010020FFF72EFEB1E700BF00800040C2
S2140018C070B50C46242848D8DFE810F025004700FD
S2140018D04700470047005B006C007D008E009F00BD
S2140018E0B000C100D200E30047007D00470047007B
S2140018F08E0047004700470047005B0047007D001A
S2140019004700E3006C006C006C006C00470047006A
S21400191047009F00B0008B1E042B2FD8DFE803F093
S2140019202B1E032E280000250226FFF765FEFFF774
S21400193021FF604A136F23F0070333431367FEF754
S214001940BDFCFFF72FFEFFF719FF35B9032C04D1B6
S21400195042F228030121584AD15070BD41F22802B4
S2140019600121554B03269D6A9950C5F34005DCE7D7
S21400197000250426D9E700250126D6E700252E46B1
S214001980D3E78C1EE4B20B2C8CBF00214B4B494A8C
S21400199098BF195DD2F8803123F003030B43C2F8D9
S2140019A08031DAE78C1EE4B2032C8CBF0021444B56
S2140019B0404A98BF195DD2F8203123F007030B4345
S2140019C0C2F82031C9E7CC1FE4B2022C8CBF00213C
S2140019D03C4B384A98BF195DD2F8403123F00303D8
S2140019E00B43C2F84031B8E7CC1FE4B2022C8CBFE0
S2140019F00021354B2F4A98BF195DD2F8603123F08D
S214001A0003030B43C2F86031A7E7CC1FE4B2052CF2
S214001A108CBF00212D4B274A98BF195DD2F80032A3
S214001A2023F007030B43C2F8003296E7CC1FE4B25C
S214001A30052C8CBF0021264B1E4A98BF195DD2F894
S214001A40083223F007030B43C2F8083285E7CC1EA2
S214001A50E4B2042C8CBF00211E4B164A98BF195DB9
S214001A60D2F8003123F003030B43C2F8003174E7C9
S214001A7005290CD00B290CBF022100210D4AD2F8F3
S214001A80803023F003030B43C2F8803065E7032160
S214001A90F4E7CC1FE4B2022C8CBF00210E4B054AA3
S214001AA098BF195DD2F8403223F003030B43C2F807
S214001AB0403252E70080004000C000407CFC00003E
S214001AC088FC00008CFC00008CFC00008FFC0000F2
S214001AD08FFC000095FC00008CFC000038B5054625
S214001AE0FFF7B2FB42F20402204B04469958012944
S214001AF003D199509A699207FCD10020FFF766FE41
S214001B00042803D1FFF778FDFFF734FE184B24F0C6
S214001B1040709D4220D0174B9D4220D0164BDA686D
S214001B2012F0060FFBD1996898609A6800F4F810D6
S214001B3002F4F812904215D12846FEF7F1FB002079
S214001B40FFF744FE04280FD1FEF7B8FBFFF72AFD87
S214001B50BDE83840FFF712BE40F00070DEE740F008
S214001B608070DBE79960EAE738BD00BF00C001403F
S214001B7040420F0080841E0000000140F8B5044675
S214001B800020FFF723FE03287BD045F60E03424ACB
S214001B900221C2F8803041F22803D15042F22803D5
S214001BA00121D150916D11F48031FBD163782078FA
S214001BB01B0543EA0063A079374E0343E078657C53
S214001BC043EA0043207943EA0033607943EA80130E
S214001BD01361237AE0791B0643EA8063E07A0343C5
S214001BE0607A43EA0043A07A43EA00239361637B6A
S214001BF0126A002B18BF0821207B22F00D0243EA50
S214001C00020343EA800341EA0301A37B31624FEA01
S214001C104317E37B207C4FEA0311334632D1B26A86
S214001C2022F0330242F001023A430A43B2621B4AF0
S214001C30996D32EA0101FBD141F228020221995046
S214001C40154A936D5B00FCD41169A37821F47001EA
S214001C5041EA0351116141F218034FF00041D1509F
S214001C6018B942F228030221D15025B942F22803BE
S214001C700121094AD150A37C1BB1074B084AC3F87F
S214001C808020F8BDB36A23F033032B433B430B435A
S214001C9043EA4003B362EEE700C0004003000140A1
S214001CA0F1A7FFFFF0B54FF4D156194B4178847871
S214001CB0C278057802275E6241F204064F299F51DA
S214001CC042F204064FF0010728BF4F219F511E69BC
S214001CD0F603FCD441EA052159611201417942EA32
S214001CE004220A43017942EA41029A60C279817964
S214001CF0120142EA4112417A0A43017A42EA41025B
S214001D005A60827A12B16FF4D1525A62F0BD00BFA7
S214001D1000000240014B1880704700BF38100020BA
S214001D20EFF3108072B6704700B962B67047EFF3F3
S214001D30108072B67047FFF7F7BF0000054A4109EA
S214001D4000F01F0352F82100D840C04300F0010005
S214001D50704700BF00E100E010B50446EFF31083C3
S214001D60DB0733D4FFF7EAFF00282ED1002CABBFE9
S214001D7004F16044164B04F5614404F00F04ACBF54
S214001D8094F800231A5D1209EFF3118313B1B2EB36
S214001D90131F1BD20F4C6368C3F30803ABB1103B91
S214001DA0DBB259B20029B5BF03F00F0301F160435F
S214001DB0043B03F56143B6BF1B1993F80003187E76
S214001DC00009824234BF0020012010BD0120FCE73C
S214001DD014ED00E000ED00E04FF04022D36E0179F4
S214001DE023F030030B43D36670470000072A70B514
S214001DF010D803249500184EAC403460A840A6F5D1
S214001E0080563060154801F003010460A940A0F533
S214001E108050016012491348002B14BF0B4603463E
S214001E20012101FA02F21A609DF810000E490F4BCC
S214001E30002808BF0B461A6042F220430C499DF862
S214001E401400CA500B4B01F510512431002808BF6E
S214001E500B461A6070BD00BF00E4034008E4034070
S214001E6010D4034010E4034014E4034014D40340A9
S214001E7000C0034024D40340F0B54AB10125302405
S214001E801D4E8D4004FB00640BB341F21006A551B5
S214001E9030244443072904F1804404F5703419D8EB
S214001EA00F2765688E00B74025EA070502FA06F692
S214001EB03543656052B9012202FA01F130220E4C18
S214001EC002FB0040A3B141F21003C150F0BD42F244
S214001ED01006DCE70F2701F18045083DE668AD00F7
S214001EE0AF4026EA070602FA05F53543E560E1E766
S214001EF042F21003E9E700BF00C00340054B064A64
S214001F0000290CBF19461146012303FA00F00860A9
S214001F10704700BF401004404020044030B50478AD
S214001F2045788178C27801200F4B41EA05412406A6
S214001F3058609C609961FF21996200219963196439
S214001F404FF000414FF0FF30596542F250015850B3
S214001F504FF4001005491301DBB2C1F8800181F887
S214001F601533086030BD00BF0000044000E100E00B
S214001F702DE9F0410C4601264FF0300EC3B29E40CC
S214001F80204D23688F7A91F80B8094F80DC0097B5A
S214001F9045F82030A5F580450EFB00504FEA085363
S214001FA043EA074343EA4153C0F860C0C36542F2C0
S214001FB0500322F003020267EE50FFF7B8FE6B6D87
S214001FC033436B65237A13B12B6C33432B64637AEC
S214001FD013B1AB6B3343AB6342F218012379A2799A
S214001FE042EA0342084B5A506179E27942EA0142DA
S214001FF041F218015A50054A16609E64BDE8F04149
S214002000FFF799BE0040044000000440342004401E
S21400201041F67132034B0121DA6342F20C02995009
S214002020704700BF0000034041F67132044B0121A7
S214002030DA6342F20C0299500022DA63704700BF5E
S214002040000003404FF40032014B1A60704700BF97
S214002050705000404FF04023D3F8940070474FF084
S21400206090435A6812B19A6A002AFAD17047000063
S214002070CB784A7810B55B010C7843EA82030A797C
S214002080234343EA02130C22424302F190421363B5
S214002090012C02BF8A78024B43F8202010BD00BFF7
S2140020A0D080034008B54FF090435A6802B960B13B
S2140020B05B680BB1FFF7D3FF4FF0904130B10120C2
S2140020C0074B1860FFF7CBFFC86008BDFFF7C7FFD8
S2140020D00223CB60FFF7C3FF0122024B1A60F4E72E
S2140020E004100048042000484FF090435B6870B529
S2140020F00BB1FFF7B4FF0121104B06791960837806
S2140021004578002BC37814BF02240024002B14BF8C
S214002110042200224379DB0043EA06132B432343C1
S21400212013434FF090429360054B19600378002BE1
S21400213014BF0B460223D36070BD00BF04200048C6
S21400214004100048836813B9816070475B685A685A
S214002150012AFBD159607047C369032B9FBF00EB70
S21400216083020133D160C3617047C369042B15D85D
S2140021704FF09842116CC902FCD504339B001365DE
S2140021800168103B116041680C30116050F8041C67
S214002190034411604FF09842984200D1704750F8BF
S2140021A0041B1160F8E70000054B5B69C3F385125A
S2140021B0827003F03F021B0B42700370704700BF33
S2140021C000C007400D4B984208D1A3F50033C3F872
S2140021D08411C36D43F08003C3657047084B984273
S2140021E004D1A3F51033C3F89411F2E7054B9842D7
S2140021F004BFA3F52033C3F8A411EAE70080054026
S21400220000C005400000064070B5054616461C4650
S21400221019B90320FFF716FA0146202C08D001D87A
S214002220ECB170BD402C18D0602CFAD1042200E02E
S214002230082206FB02F35A0802EB4112B2FBF3F245
S214002240084B203A03EAC202AB6823F06003AB6097
S214002250AB681C43AC60EA61E3E70622E9E71022BC
S214002260E7E700BFF8FF7F00012241F20403C250F7
S214002270CB43934003F00A034361416111B942F234
S2140022800403C2507047000041F204030122C2500A
S21400229040F6AA6341F20502436100238360C365EA
S2140022A0C26042F2480210490361C361C3648150B0
S2140022B00E4A8365904206D00D49884203D001F548
S2140022C0804188420BD19042036506D0084B984265
S2140022D003D003F58043984201D10023436542F2C0
S2140022E004030122C2507047FFFF01000080054032
S2140022F000C0054038B50D460446FFF7C5FF41F25D
S21400230004030122C250AB7C1BB1836843F08043B8
S2140023108360EB7C1BB1297D2046FFF753FF2A8A9A
S2140023206B7B20461343EA891343E360D5E9011229
S2140023302B7BFFF769FF6B7D1BB1A36843F48033EB
S214002340A360AB7DEA7D1B07120502F4E00203F0F2
S214002350E043297E1343A3658B1E012B1E4A1F4BA9
S21400236021D894421BD002F58042944219D002F53F
S214002370804294420CBF02224FF0FF3203EB42131E
S214002380022041F2AC52032998500CBF41F25C0384
S21400239042F25C030422E2502B78636138BD0022CF
S2140023A0ECE70122EAE7944211D00D4A944210D09D
S2140023B002F5804294420CBF02224FF0FF3203EB3C
S2140023C04213022042F2AC5201299850DDE7002267
S2140023D0F5E70122F3E700BF0080054000C0034098
S2140023E000C0054083695B06FCD5C16370470000EA
S2140023F038B50446054D07F043FD0FCC0FC594E8ED
S2140024000F0085E80F00002038BD00BFF01B00203D
S21400241047F6FF739A42F0B55ED003295ED8304B7C
S214002420CE0013F8311098190129857819460DD178
S214002430C3785B1B23B1416831F91310914202DC6B
S214002440E818C0B2F0BD013B1BB2F3E740680028B5
S214002450F8D0B0F90030934204DBB0F90230934272
S214002460B8BF13468288FF2A19BFC8242827B0F9A8
S2140024700640B0F90870A4EB03040CBF012200224A
S21400248094FBF7F414448A19567824B2721EA242BA
S214002490A8BF22464FF47A7700EBC201CC88896841
S2140024A0013213FB041112B221EAE17101F5FA714F
S2140024B0B242B1FBF7F104DA00EBC204A4888C4206
S2140024C0EAD200EBC20232F8040C884228BF084663
S2140024D0A84238BF2846B4E7FF20B3E70020B1E79C
S2140024E0F01B00200148FFF783BF00BF9CFC0000E4
S2140024F07FB51422002101A805F0A9F802230B4A93
S2140025008DF80430029204228DF80D308DF81330C9
S21400251005230DEB02014FF0FF308DF80E208DF8ED
S214002520143007F091FD07B05DF804FB006A180050
S214002530002307B5CDE90033012369464FF0FF308D
S2140025408DF8023007F074FC03B05DF804FB4FF022
S214002550402213B50024536F684643F001035367C7
S21400256000948DF80440FFF737FC204602B010BDFB
S21400257008B50248FFF7B2FA002008BD00B4C4044C
S21400258070B586B001AA1546114B03F11006144625
S21400259018685968083303C4B3422246F7D14FF689
S2140025A0FF7219889B782180A3700A4B0A481B8803
S2140025B0934208BF8123DBB28DF80D308DF80E30C4
S2140025C0FDF798FE2846FFF7D9FA002006B070BD42
S2140025D088FD00000001E00F00F049021FB50B4A1D
S2140025E001AB1068516803C31189927A19809A70FA
S2140025F04F2301A88DF80530FFF754FB6420FFF742
S21400260089FB002005B05DF804FB00BF9BFD0000C1
S214002610BFF34F8FBFF36F8F054A536A23F480339F
S2140026205362D2F8943023F00103C2F89430704716
S21400263000ED00E070B5FFF7EBFF1E4C1E481F4B89
S214002640844208BF4FF08042196B1CBF20F01F0267
S214002650203A21F0FF0141F0A001B2F1005F1963BA
S21400266009D3174D174E296842F0010299600131CF
S214002670DE601A61296084420CD01148124A016853
S21400268022F01F0242F003029960DA600F4A01311D
S2140026901A610160BFF34F8FBFF36F8F05225A6038
S2140026A00B4A536A43F480335362BFF34F8FBFF332
S2140026B06F8F70BDB41300202412002090ED00E050
S2140026C0101C002003000020D3130020E1FFFF3F72
S2140026D000ED00E010B51446FFF79AFF1F2C194BCB
S2140026E01ED91A6BC40622F47F4242F4807218BFC9
S2140026F020F01F00144C1A6318BF2030CA0618BFFB
S21400270021F01F01226820F01F0021F01F019A60AF
S21400271040F0030041F003010132D86019612260E5
S214002720BFF34F8FBFF36F8F05225A60074A536A75
S21400273043F480335362BFF34F8FBFF36F8F002095
S21400274010BD00BF90ED00E0101C002000ED00E082
S214002750BFF34F8F0549064BCA6802F4E062134385
S214002760CB60BFF34F8F00BFFDE700BF00ED00E07A
S2140027700400FA0508B5FFF7EBFF08BD104A30B5B0
S214002780136841611546ABB91060836011E0091B00
S2140027909C6841611A467CB123465C698C42F6D936
S2140027A0002CF4D052B19060836013B15A69511A6C
S2140027B0596130BD0022F0E72346F4E72860F3E7CE
S2140027C02C1C002010B500F063FA094B094A196862
S2140027D031B11368C41A4B69A34203D31B1B4B6168
S2140027E0106003E0C01A002310604B6110BD00BFEC
S2140027F02C1C0020181C002038B50F4D02202B681A
S2140028005C690E4B1B681C4400F076FA204600F00C
S21400281047FA00230A492A680B70D088800702D539
S21400282001230B7038BD9268002AFBD05069034420
S214002830012BF2D9F6E700BF2C1C0020181C002044
S214002840201C002070B59DF8145016460571002512
S214002850049A8560BDF818500446C5800260C0E939
S21400286003360D4629B961610BB11146984796B1FA
S2140028703546FFF75CFA0646FFF7A4FF29462046D2
S214002880FFF77CFF054B1B68A34201D1FFF7B4FF9F
S2140028903046FFF750FA002070BD00BF2C1C002009
S2140028A000210C4A13687BB183420AD1836879B150
S2140028B08B6083681BB15A6941690A445A610020DB
S2140028C0704719469B68EEE70028EFD00220704755
S2140028D01360EEE72C1C002070B5FFF728FA134DA6
S2140028E006462C78D4B9124B1C60124B1C60124B57
S2140028F01C8000F093F9012000F0FEF900F04AFA7F
S2140029000E4B0246186070B123460D4840F2E73180
S21400291004F078FC0B4B186001232B703046FFF751
S2140029200AFA002070BD2320FCE700BF141C00201C
S2140029302C1C0020181C0020221C0020281C002014
S21400294018FCFFFF1C1C00202DE9F0410546F8B1DD
S214002950FFF7EDF90F4F0646FFF734FF2846D7F886
S2140029600080FFF79DFF044628B13046FFF7E3F9E5
S2140029702046BDE8F081A8453B6803D123B1FFF7A8
S2140029803BFFF2E7002BF0D1022000F0C1F9ECE7A4
S2140029902224EDE72C1C002038B50C46054698B1DD
S2140029A091B100230B70FFF7C2F90121074B1B689A
S2140029B00BB122781AB1FFF7BEF9002038BD9D4250
S2140029C00CBF21709B68F3E72220F7E72C1C002041
S2140029D0F0B51F46002387B00D4616468DF8173013
S2140029E00446A0B10DF11701FFF7D6FF9DF817209A
S2140029F07AB9BDF83430294602939DF83030204627
S214002A00CDE900733346FFF71DFF07B0F0BD222067
S214002A10FBE70320F9E7000070B5FFF788F90646E4
S214002A2000F036F9094B05461C880120A4B200F0D8
S214002A3087F918B100F02CF9054601343046FFF747
S214002A407AF90022214642EA050070BD221C0020C9
S214002A500A4B10B51B680C4683420CD3084B4FF448
S214002A607A7219680023A0FB010104F0CBFB013049
S214002A702060002010BD2120FCE700BF1C1C0020A9
S214002A80281C002000000000F8B516461BA3D3E95A
S214002A9000238B4208BF82422AD3174B1A684FF492
S214002AA07A73A0FB034503FB0155C2B1531E13EA1C
S214002AB0020014D1B2FA82F2C2F11F02C2F120075C
S214002AC0A2F1200124FA02F305FA07F73B4325FAA0
S214002AD001F10B4325FA02F2C6E90032F8BD0023E5
S214002AE02046294604F08EFBC6E900010020F5E7E3
S214002AF02120F3E7AFF30080281C0020EFA7C64B89
S214002B0037894100C2072DE9F84F04460BD53F4AE6
S214002B10138801339BB21380FFF754FE3C4B1B68AF
S214002B200BB1FFF769FEA3076DD500F0B1F8394F7A
S214002B3000263D688046451BFFF7F9F8B2468346F7
S214002B403246334B1C6814B16369AB4214D9012E6C
S214002B50314B51D1D288022A4ED11E70002C4ED055
S214002B606369C7F800805D1B6561FFF745FE584640
S214002B70BDE8F84FFFF7DFB823462A46C7F80080BF
S214002B805969914209D8187994F804C0521A8445B4
S214002B9088BF1C469B68002BF2D15846FFF7CBF83F
S214002BA0D4F814B0C4F814A0FFF7C1F88146204644
S214002BB0FFF776FE4846FFF7BEF823694BB1FFF7EE
S214002BC0B6F8814621692046FFF7D8FD4846FFF74C
S214002BD0B2F8E36813B121682046984700F058F829
S214002BE0D844A5EB080581460544FFF7A0F8013652
S214002BF083462246C846A4E700221A70AEE70220A3
S214002C0000F086F8B3E7BDE8F88F00BF221C00206E
S214002C102C1C0020181C0020241C00201FB500249B
S214002C20184B18689A88029053F8060FADF80C20D7
S214002C301B79009002A88DF804308DF808408DF8B6
S214002C400C40FFF751FA694601208DF80040FFF767
S214002C500FFA4FF090431F219A6922F01F029A61E3
S214002C60094A11609A6A12F00802FBD11A62012022
S214002C70FFF718FA4FF48062044BC3F880211A60FD
S214002C8004B010BDA6FD00001420004800E100E0DE
S214002C904FF090439A6A1207FCD4186A70470000F7
S214002CA04FF09042936A1907FCD4136A116C52696C
S214002CB0120704D4CA1A022A01D899420ED1C21A9F
S214002CC0012A98BF981CB0F1FF3F28BF01304FF093
S214002CD0904318649A6942F008029A61054A13788C
S214002CE03BB14FF09041CB6B43F00203CB63002324
S214002CF0137070473A10002082074FF0904200F0A1
S214002D000103916948BF43F008030B439361704782
S214002D10830700F001020AD50121084B42F00802A1
S214002D2019704FF09041CB6B23F00303CB634FF049
S214002D3090418B6923EA02038B6170473A100020AA
S214002D404FF0904301285B6904D0022805D1C3F3F5
S214002D50C000704703F00100704700207047000075
S214002D6010B5FEF7E4FF4FF0904304465B691A0780
S214002D70074A03F0010003F00D0348BF40F00200CD
S214002D801360FFF7BFFE2046BDE81040FEF7D3BF36
S214002D90142000481B20FEF755BC08B504F088F93F
S214002DA004F0E6F904F0E6F904F0EDF9BDE80840B1
S214002DB004F0F2B900F090BF18220021014804F098
S214002DC046BC00BF381C002007B5FFF725FE6A4644
S214002DD0FFF75AFE28B1054B054A4E21054804F078
S214002DE09BFB009803B05DF804FB00BFE0FD00000D
S214002DF0B1FD0000F7FD000030B50C46154685B065
S214002E001448FFF7A1FD144B2C441C60FFF7DCFFB1
S214002E10201A0124114B00281C7003DC00F05CFF14
S214002E2005B030BD03A9FFF713FE034628B16B219A
S214002E300B4B0C4A0C4804F06FFBCDE900040B4A20
S214002E4003990448FFF7C4FD0028E9D0044B054A5F
S214002E506F21EFE7381C0020301C0020341C0020B7
S214002E60E0FD0000C8FD0000F7FD0000B52D0000E5
S214002E7008B50348FFF768FD0022024B1A7008BD2C
S214002E80381C0020341C002070B5094D06462B78EF
S214002E906BB1084B1C68FFF797FF201A002806DC6A
S214002EA0002330462B70BDE8704001F02DBB70BD8E
S214002EB0341C0020301C002073B5A0B10026013958
S214002EC0451E4418A54202D1002002B070BD01ABD9
S214002ED0042269460020CDE9006600F0BDFF009B95
S214002EE005F8013FEEE70720EFE7000008B5FFF71B
S214002EF0B1F8034B1860BDE80840FFF7A3B800BF61
S214002F00501C0020BFF34F8F0549064BCA6802F4D9
S214002F10E0621343CB60BFF34F8F00BFFDE700BFF7
S214002F2000ED00E00400FA050E4B1B68D9070FD42D
S214002F305A060FD413F0180F0ED199070ED49A061E
S214002F400ED440F2847213420CBF0720052070474F
S214002F500020704702207047082070470120704705
S214002F6003207047501C002070470000054B1A795C
S214002F70824205D85A7982422CBF184600207047F4
S214002F8000207047EC1D002038B50C468A888968FA
S214002F90054604F038FBE16841B1A0886288121A41
S214002FA092B22844BDE8384004F02DBB38BD00007E
S214002FB037B50546134B144C186829689B88009053
S214002FC0ADF80430206859B1002206F0E9FE2B79EE
S214002FD083420CD0DF210D4B0D4A0E4804F09CFABC
S214002FE007F0A2F818B10C4B094AE621F5E7694646
S214002FF0206806F02FFF18B1074B054AEA21ECE7D8
S21400300003B030BD40FE00005C2E002074010100BD
S2140030109DFE00009D010100E40101001E4B1F49BA
S21400302030B51A68096885B0521A102A1D4606D1AE
S21400303040F2C7211A4B1B4A1B4804F06DFA69463A
S2140030401C6806F0D9FFBDF8023004F00F04032B0D
S21400305004D8164B134A40F2CD21EDE7182B0AD9B7
S2140030601823BDF80420ADF80230172A82BFADF849
S21400307004300023039319236343BDF802200C4851
S2140030806946C25401331844FFF77EFF2B680133AC
S2140030902B6005B030BD00BFE81D0020E41D0020F9
S2140030A00302010050FF00009D0101001D02010007
S2140030B0541C00202DE9FF479A460023914602F44F
S2140030C00012134304461CD0694B1B78002B64D0B7
S2140030D001A907F05AF830B140F26F31654B664AE5
S2140030E0664804F019FA9DF80C30032B47D09DF87B
S2140030F00C30022B05D1BDF8040000F02DFF00288F
S21400310042DA09F02A520AF01103134311D00023C1
S21400311009F4000213434CD0594B1B681D7815F078
S214003120200506D1204606F0CFFB564B1D70564BA9
S2140031301D70002309F00202134308D0204606F053
S214003140C3FB0E224F4B1A7000224F4B1A700023FF
S21400315009F00802134302D0204606F058FF00226A
S2140031600AF48073134339D000222046114606F035
S214003170E0FE98B33F4B454A40F2CF31B0E701A896
S21400318000F044FF0028B2DB204606F0FCFF60B1EA
S214003190384B394A40F27731A2E706F0F4FF20B107
S2140031A0344B354A40F27E319AE72046FFF736FF29
S2140031B0A7E700220AF0010313432046DFF8C48085
S2140031C0314D07D006F080FB0F2388F8003000232F
S2140031D02B70AEE706F078FB0B23F6E7002309F02A
S2140031E00102134315D0204606F031FF054620465F
S2140031F006F06AFB0222264B15F5007F1A701ABFEE
S214003200042295FBF2F57F22224B16BF6DB21A7090
S2140032101D7000260AF0800756EA070318D02046DD
S21400322006F030FB0B2804D11B4B184A40F2EF3156
S21400323056E7031FDBB2022B04D903280DD1124B2D
S2140032401B782BB10B220F4B1A7000220E4B1A70F4
S21400325000F042FD04B0BDE8F0870228EFD00A284F
S214003260F6D102220A4B1A700A4B7F22EFE700BF04
S2140032701F200020E401010087FF00009D010100DF
S214003280C8200020C1200020C0200020A4FF00008D
S2140032901E2000201D20002060FE00002DE9FF41BA
S2140032A0184B16461A780D4602F0FF0132BB012273
S2140032B0154C1A70154B1870206806F001FBE8B222
S2140032C0FFF754FE8046D8B1114F3B68834203D0C7
S2140032D0FFF76EFEC7F80080FF238DF804300D4B15
S2140032E03246CDE90236294601AB206806F024FBBB
S2140032F0003018BF012004B0BDE8F0810520FAE7D1
S2140033000720F8E71E2000205C2E00201C2000204E
S2140033101820002020A10700F7B5474B474C002196
S214003320236041F60B23464F20463960BB80C4E934
S214003330011106F08DFA054628B9B521414B424ADF
S214003340424804F0E9F84FF0011106F024FE18B1E7
S2140033503F4B3D4ABD21F3E73E49284606F0B0FE06
S21400336018B13B4B384AC021EAE731A3D3E9002322
S2140033702846CDE900234FF0FF324FF0FF3306F02A
S2140033804DFD024618B1324B2F4ACF21D8E7802395
S21400339004F5D271284606F00BFE802803D02E4B8B
S2140033A0294AD221CCE72D4E38463560FFF700FE7D
S2140033B00121306806F06AFA044620B1244B284AF8
S2140033C040F22F11BCE7274B274A98801A60274BFC
S2140033D0274A98800B201A60FFF7C8FD254B186017
S2140033E020B9254B1E4A40F23711A9E721464FF473
S2140033F0C872224804F02BF9214B1C60214B1C603C
S214003400214B93F90040FFF76DF804EB840461004C
S214003410306806F03BFD18B10D4B1C4AF3218FE7D0
S2140034201B4B18701B4B18701B4B187003B0F0BD6D
S2140034300B00A02A91010000B5300000F41D00200A
S214003440EC1D0020CFFF00008FFE00009D01010054
S214003450E401010050020100DEFF00005C2E0020A7
S214003460C6FE00002820002040200020C8200020A3
S214003470E02000201820002010000100541C00202E
S214003480E81D0020E41D00205F210020B1FE0000A2
S2140034901E200020C1200020C02000200B4B2DE95C
S2140034A01748986CDC6C4FF0000B23464BEA000282
S2140034B0CDE900234B1E02AA073112F8010D03F8CE
S2140034C0010F8B42F9D103B0BDE810880080E00FF1
S2140034D010B50C46084600F039FD074B0022214681
S2140034E0186806F025FE30B1044B054A40F28D11EF
S2140034F0044804F011F810BD5C2E0020E401010021
S214003500D5FE00009D01010008B5074B0022186893
S21400351006F01EFE30B1054B054A4FF4CD71054846
S21400352003F0FAFF08BD00BF5C2E0020E401010096
S214003530E9FE00009D01010008B5074B002218684F
S21400354006F0FEFD30B1054B054A4FF4D371054831
S21400355003F0E2FF08BD00BF5C2E0020E40101007E
S21400356007FF00009D010100034B1A780AB90122EB
S2140035701A700020704700BFBF200020034B1A7847
S2140035800AB100221A700020704700BFBF2000203A
S21400359038B50A4C2378032B0DD063B1084D0122B1
S2140035A00021286806F08CF9286806F08DF90123BA
S2140035B00020237038BD0D20FCE700BFBF20002090
S2140035C05C2E00202DE9FF41184F88463A783AB322
S2140035D00846FFF7CBFC044620B3154E154D33685E
S2140035E0834208D001222868114606F069F9204671
S2140035F0FFF7DEFC34600023CDE901330393FF239D
S21400360001AA414628688DF8043006F085F958B9B5
S21400361002233B70084B83F8068004B0BDE8F081B7
S2140036200D20FAE70720F8E70120F6E7BF20002084
S214003630182000205C2E0020282000202DE9F04FC6
S2140036403E4B3F4E8BB080460D4693E807003378DE
S2140036500DF1100989E8070003F0FF0433B1394B78
S214003660394A40F20921394803F056FF38490B78A9
S214003670002B5ED0032B5CD0A879FFF777FC824640
S214003680002858D003230122DFF8D8B00B70DBF8EF
S2140036900030304F83423C7032702F4C08D01146B9
S2140036A0206806F00DF95046FFF782FCCBF800A024
S2140036B0AB880AA901F8193D012320681A4606F0CE
S2140036C073FC9DF80F200023023A92B22968206806
S2140036D006F06AFC214A07AB07CA83E807002A6897
S2140036E0A97C127811F0020FC2F34012A97915D006
S2140036F0287C8DF812001A48007800938DF8130085
S2140037004B46206806F0F8F8044658B92946404665
S21400371001F01DFA20460BB0BDE8F08F206806F0D9
S214003720DBF8F1E70F2300243B70347000F0D4FA86
S214003730F0E70D20EFE70720EDE700BF48FE0000AA
S214003740C02000203902010022FF00009D01010078
S214003750BF200020C12000205C2E002054FE000068
S2140037603B1000201820002000487047C82000208A
S21400377070B5114B102299790020FFF78FFDC8B95C
S21400378006F069FC0D4D06462C462B78012B05D11C
S21400379006F061FC801BB0F5967FF6D32378022BEB
S2140037A00ABF074B7F2018784FF0000308BF40B2CF
S2140037B0237070BD7F20FCE7282000201E200020FC
S2140037C01D2000200B207047014B1878704700BF63
S2140037D02020002008B5074B1970074B186806F024
S2140037E0BFFC30B1054B064A4FF42971054803F07B
S2140037F093FE08BD202000205C2E0020E40101007E
S21400380036FF00009D010100014B1970704700BF94
S2140038101F2000204FF47A7301205A43FFF73EBD65
S2140038202DE9F04F8F4C8DB0804603AA0121206809
S21400383006F0DEFB27460546002872D09DF80C30C1
S214003840072B6ED1014607AA206806F0D8FB8146F2
S214003850002862D1BDF80E3005995E1C91F800B0C4
S214003860B6B2B34506D04FF442717F4B7F4A8048CC
S21400387003F052FE1A1F7A2A04D97E4B7B4A40F286
S2140038800B31F4E7BDF8102022B97B4B774A4FF492
S2140038904471ECE7DFF808A20131013B013A0591DB
S2140038A0DAF8000003A9ADF80E30ADF81020FFF7E7
S2140038B06BFB2946206806F0ACFB9DF829300028F3
S2140038C0544608BF0025AAF804B0002B4CD0BBF124
S2140038D0050F06D1DAF800301B7803F00703022B39
S2140038E004D0664B614A40F22331C0E7386805F0E1
S2140038F0EBFF634BDAF8002083F80090614B927878
S2140039001B689B789A4218BF0E225F4B0CBF83F849
S21400391000901A7000F0E0F91DB12946386806F0EC
S21400392078FB5A4A1378032B40F08A80544B1B7856
S214003930002B40F08580544B1978022111705149B4
S2140039400A68127812F0200F1A4602D0187800285B
S21400395073D0137800224B49404601F0FFF800F080
S214003960BBF90DB0BDE8F08F494B1B780BB9052E9F
S214003970D2D00022474B1A709DF82A20009322745A
S2140039809DF82B2062749DF8242022B9424B374ABA
S21400399040F23D316BE7013607A93868089606F015
S2140039A032FB20B13D4B314A40F241315FE7079B85
S2140039B0D4F800A0C4E902309AF8003003F00703F8
S2140039C0032B10D00026A37C354966F30003A374AE
S2140039D0009B40461A7801F0B3F8002E9AD138685A
S2140039E005F072FF96E7DFF8D090A388CB462D4A05
S2140039F0D9F8001012688A42E4D0192001F00F01AD
S214003A004143294E72185078DAB2904213D1725C54
S214003A10881C3044013A5146019303F0E5FDB0FAA4
S214003A2080F6019B7609DBF800200132CBF80020F7
S214003A30002EDCD0C7E70026F5E71B78184A8BE790
S214003A401A4B1B78012B8CD1194B1A78022A88D175
S214003A5000221A70174B4046197849B201F08AF8CE
S214003A607DE700BF5C2E00202B00010073FF0000E6
S214003A709D0101005400010097000100B8000100FC
S214003A80C0200020C8200020C1200020BF20002029
S214003A90202000202120002030010100E401010048
S214003AA028200020E81D0020541C00201C20002098
S214003AB01E2000201D200020E41D002021B1034B05
S214003AC000201B780B707047072070475F2100208E
S214003AD0094B10B50C4601EB81014900186806F049
S214003AE0D5F930B1054B064A4FF48B61054803F013
S214003AF013FD054B1C7010BD5C2E0020E401010078
S214003B00B3FF00009D0101005F21002021B1034B9F
S214003B1000201B780B707047072070473B10002072
S214003B20014B0020197070473B1000206FF06300B7
S214003B307047000008B572B60023584920220B765D
S214003B404B768B76F023CB760B774B778B77CA77D3
S214003B50402281F8202081F821307023302081F81F
S214003B6022304F4B81F8232083F8002383F801236B
S214003B7083F8022383F8032383F8042383F80523BA
S214003B8083F8062383F8072383F8082383F809239A
S214003B9083F80A2383F80B2383F80C2383F80D237A
S214003BA083F80E2383F80F2383F8102383F811235A
S214003BB083F8122383F8132383F8142383F815233A
S214003BC083F8162383F8172383F8182383F819231A
S214003BD083F81A2383F81B2383F81C2383F81D23FA
S214003BE083F81E2383F81F2383F8202383F82103FA
S214003BF0102083F8222383F8232383F8242383F8D2
S214003C00252383F8262383F8272383F8282383F89D
S214003C10292383F82A2383F82B0383F82C0383F8BD
S214003C202D2383F82E2383F82F2383F8302383F85D
S214003C30312383F8322383F8332383F8342383F83D
S214003C40352383F8362383F8372383F8382383F81D
S214003C50392383F83A2383F83B2383F83C23CA6846
S214003C60104B22F4E0621204120C1343CB60FFF7F1
S214003C7094F805F0E7FDFEF72FFE28B10A4B0B4A35
S214003C8066210B4803F048FC62B6FFF745FBFFF7DA
S214003C9093F8BDE80840FFF729B900BF00ED00E043
S214003CA000E100E00003FA05E0FD00006C02010000
S214003CB0760201000020704710B50446054B1860D8
S214003CC000F082F82046FFF7ABFD2046BDE8104026
S214003CD0FFF7DAB8602E002070470000F8B51D46E2
S214003CE0114C1646B4F88020B4F8823007462B44B0
S214003CF003F07F0393420DD0B4F882002A46314683
S214003D00204403F080FCB4F882302B4403F07F0399
S214003D10A4F88230054B2A4631463846FDF7CCF9E2
S214003D20BDE8F840FFF7D8BF60220020DD3C000069
S214003D300022024B1A80FFF7CFBF00BFE822002008
S214003D400022F8B50E4B8124A3F88020A3F8822029
S214003D5003F024FA0B4F0C4D0C4E013C01D12046CB
S214003D60F8BD3346391B01222868FDF7A5F9084936
S214003D7033460122091B2868FDF79EF9EDE700BFD0
S214003D8060220020E021002060100020DD3C0000C2
S214003D9060220020084B10B51C685CB91860074B01
S214003DA01980014606481A880068064BFDF71EFA79
S214003DB0204610BD0520FCE7E4220020E822002073
S214003DC060100020313D000038B5184CB4F8825021
S214003DD0B4F88030ADB29D420CD2B4F88000B4F88E
S214003DE080102044C1F1800189B203F0D7F8002387
S214003DF0A4F88030B4F880309D420AD0B4F8800031
S214003E00B4F880102044691A89B203F0C7F8A4F801
S214003E108050074A136843B1064B1B889BB223B9F0
S214003E201360BDE8384003F0B0B838BD602200200B
S214003E30E4220020E822002000207047044B5B6844
S214003E40C3F30803002B14BF6FF01D00002070475B
S214003E5000ED00E0002070472DE9F0438946002180
S214003E608DB032F0030517469846009102F003061F
S214003E7029D01C2205A803F0EAFB4FF0E063049368
S214003E800123CDF8049001A9029304A845F000533D
S214003E900393FEF757F9294604A8FEF75DF9FFF7E6
S214003EA0CDFF002846D104A8FEF75FF94FF09843EF
S214003EB05A6CD102FCD55C6DFFF7CCFF14F4702F62
S214003EC03BD1C8F80050002E33D01C22002105A894
S214003ED003F0BDFB4FF0E06304930123CDF804D05C
S214003EE00293184B01A904A80393FEF72BF90421AB
S214003EF004A8FEF731F9FFF7A1FFD8B904A8FEF72A
S214003F0034F94FF098435A6CD202FCD55C6D04F439
S214003F107024FFF79FFF94B9234600994D44DA00BA
S214003F20013321FA02F29E4205F8012BF7D8C8F8B1
S214003F30007000200DB0BDE8F083002EC5D16FF0F4
S214003F403B00F7E704000020FFF776BF014B188020
S214003F50704700BFEA2200200B4B30B51B880B4C85
S214003F601844002382B234F8235018B295424FEA20
S214003F70830102D12144897821B901330A2BF2D179
S214003F804FF0FF3030BD00BFEA220020142300208F
S214003F9030B50E4C0022204604EB8205AD7813B2F5
S214003FA025B101320A2AF7D14FF0FF339BB2092B15
S214003FB00AD8074A12881144012220F8231000EB81
S214003FC0830300209A7030BD0320FCE714230020F2
S214003FD0EA22002008B50846FFF7BEFF83B2092B89
S214003FE09BBF0020044A0A2002EB83019CBF887016
S214003FF022F8230008BD00BF142300202822002139
S214004000014803F024BB00BF1423002030B50F4B3B
S214004010028841881B880A44134482880C4C12FA92
S21400402083F3C28812FA83F300229BB234F822503C
S21400403010B29D424FEA820102D12144897821B90B
S21400404001320A2AF2D14FF0FF3030BDEA220020BA
S214004050EC22002030B5134C0023204604EB8305E9
S214004060AD781AB225B101330A2BF7D14FF0FF32E3
S21400407092B2092A13D80C4B0C884D881B882C4406
S21400408023448C88C98814FA83F311FA83F320F842
S2140040902230012300EB82020020937030BD032003
S2140040A0FCE700BFEC220020EA22002008B5084604
S2140040B0FFF7ACFF83B2092B9BBF0020044A0A20FF
S2140040C002EB83019CBF887022F8230008BD00BF66
S2140040D0EC22002028220021014803F0B8BA00BFD5
S2140040E0EC22002000F0BAB80120704700F0CCB8EF
S2140040F000F0C8B800487047BE0201000C3000F05F
S21400410022BA007B70470C3000F049BA037B13B12B
S2140041100248FFF73DBA0D20704700BF402300203D
S2140041200C3000F046BA006B70470C3000F05EBAF8
S2140041301C3000F0D7BA0C3000F072BA08B5037B1A
S21400414023B10348FFF760FB002008BD0D20FCE705
S21400415040230020037B13B10248FFF719BF0D2050
S214004160704700BF4023002007B5037B53B1684665
S214004170012200F071FA69460348FFF76BFF03B0AF
S2140041805DF804FB0D20FAE740230020037B13B103
S2140041900248FFF71FBF0D20704700BF40230020D6
S2140041A007B5037B53B16846012200F055FA69460D
S2140041B00348FFF77BFF03B05DF804FB0D20FAE72A
S2140041C04023002008B5037B23B10348FFF716FF02
S2140041D0002008BD0D20FCE74023002008B5037B27
S2140041E023B10348FFF776FF002008BD0D20FCE74B
S2140041F040230020407B70470C3000F0BFB9C089D8
S21400420070470C3000F0ADB9223070470C3000F02B
S214004210BCB9008C7047FFF741B90120704710B554
S2140042200446FFF761FF20B12046BDE8104000F0CD
S214004230AFB810BD38B50446002500F089F86560B3
S21400424004F1080000F046F8214604F10C0000F0E6
S21400425069F984F84C50204638BD000010B5064C6D
S21400426094F84C302BB92046FFF7E4FF012384F87E
S2140042704C30014810BD00BF402300200048704766
S21400428040230020FEF73EBE10B590F84C300446A2
S2140042905BB100231C3080F8303000F05DFA04F18A
S2140042A00800BDE8104000F001B810BD034A1388AE
S2140042B003B9FEE7013B1380704700BF9023002040
S2140042C031B16FF00043994208BF01210160704789
S2140042D00121FBE737B54FF6FF720C4C05462388E5
S2140042E0934200D1FEE753B904210DEB0100FEF71F
S2140042F0E3FD00B1FEE701990548FFF7E1FF284618
S21400430023880133238003B030BD00BF90230020F4
S2140043109423002048F24E330268A2FB032313EBDB
S214004320520244BF22F0004201320260104670473B
S214004330034B1B8803B9FEE70248FFF7EBBF00BF3D
S21400434090230020942300200260002242607047E1
S2140043500022026070470000036823B901604960CC
S214004360034802F025BF5A684A60596001607047EA
S2140043704023002010B54468014624B90348FFF7DF
S214004380EBFF204610BD1820FCE700BF40230020AE
S21400439038B50025046805604CB16068844216BFD5
S2140043A0436800246360456003689847F4E738BDB7
S2140043B043684968981AC00F8A1AB0EBD27F04BFC8
S2140043C0581AC00F7047000070B505680C4625B92E
S2140043D0BDE870404B68084818478B6898476A687D
S2140043E00146831A002BB8BF121A2368A8BF002202
S2140043F0BDE87040004818474023002070B58D681F
S2140044000C46A94207D00368994205D105601146BB
S214004410FFF7DAFFA46070BD002BFBD09A68002A75
S214004420F8D0944201D19D60F4E71346F6E7000009
S2140044300146024A0248FFF7E1BF00BF040301003D
S214004440442300202DE9F047936807460C46904623
S21400445098474246824621463846FFF7CFFFD7F8B0
S214004460009000264D4645B1524629462046FFF7A5
S2140044709FFF10B92E46AD68F5E746B9C4F8089018
S21400448041463C603846BDE8F047FFF79DBFB3683D
S214004490A360B460BDE8F0874160024A0146024866
S2140044A0FFF7D0BF0403010044230020002A00DAEF
S2140044B0FEE71144FFF7F0BF38B50D460446FEF799
S2140044C083FC2A4601462046BDE83840FFF7EEBF8B
S2140044D070B5046805460E467CB18B6898476368DD
S2140044E0C01A002809DB284632462146FFF786FF19
S2140044F023682046BDE87040184731462846BDE888
S2140045007040FFF761BF000010B50446FFF7ECFDF2
S21400451028B1201D0249BDE81040FFF7D9BF10BDE5
S214004520040301000B2210B5002342704FF6FF7201
S214004530044603704280C0E90133C360103000F0C7
S214004540A3F8204610BD38B504460D46103019B104
S21400455000F0ECF810B138BD00F0FEF82570002031
S214004560F9E738B5037804460D462BB1103000F055
S214004570BDF80020658038BD0D20FCE7037813B138
S2140045804170002070470D20704708B5037823B1AE
S214004590103000F0B7F8002008BD0D20FCE708B585
S2140045A0037823B1103000F0A7F8002008BD0D20D6
S2140045B0FCE738B5037804460D4633B14178103031
S2140045C000F0DEF800B9656038BD0D20FCE700009D
S2140045D010B4436823B11AB903485DF8044B184772
S2140045E05DF8044B704700BF4023002038B50378C1
S2140045F004460D462BB1103000F082F900B9A560D4
S21400460038BD0D20FCE7000038B5856804461DB1AE
S2140046100248A8470023A36038BD00BF40230020FF
S21400462038B51D46037804462BB1103000F012FA58
S21400463000B9E56038BD0D20FCE7000010B5037832
S21400464004462BB1C3681BB1024898470023E360B9
S21400465010BD00BF4023002010B40C4622B1012A32
S21400466007D05DF8044B704708225DF8044B02F053
S214004670CABF01F10802013812F8013DA24200F853
S214004680013FF9D1EDE70000F8B5144E0446304678
S2140046900F46FFF797F84FF6FE73A3800123002519
S2140046A0A3737F232070E3736570658025613046B1
S2140046B0FFF75AF83946606104F1180000F006FA70
S2140046C02346074AC4E9075543F8242FE362082225
S2140046D02946A01D02F0BBFF2046F8BD402300205F
S2140046E0394A0000007840F00E0070470148FEF797
S2140046F0EFBE00BF402300208180014800F002BAD0
S2140047004923002007B50B680122C0F806304B6825
S214004710C0F80A306846FFF79FFF6946024800F077
S214004720EBF903B05DF804FB4923002010B543788D
S214004730044663B90748FEF717FF50B90548FEF769
S21400474027FF30B96378012B01D001236370002066
S21400475010BDFEE74023002010B504462430FFF7C6
S21400476067FE0648FEF714FF30B90448FEF706FF5A
S21400477010B9637803B1607010BD00BF40230020FD
S21400478010B504460448FEF71DFF20B96378022BD7
S2140047901CBF0223637010BD4023002070B5C369A0
S2140047A004460D4616462BB121B11AB9026A3146A7
S2140047B0284698473246294604F11800BDE870405E
S2140047C000F086B910B543780446032B1FD1426922
S2140047D0937C43F0020393740378DB0606D44369A4
S2140047E00B489979FEF7EEFE00B1FEE76378606944
S2140047F0042B1CBF04236370E36913B1226A0121F2
S214004800984761690248FEF719FF00B1FEE710BD40
S21400481040230020704743781830022B1CBF022329
S21400482000F8173C00F062B910B5037804469B0701
S21400483000D5FEE71048FEF79BFF7F2806D094F9C8
S2140048400F307F2B01D0834200DAE073FEF7BCFA0C
S2140048502369C01A002807DAA16A04F1240001229D
S214004860BDE81040FFF722BE94F90F102046BDE8C1
S2140048701040FFF7D0BF00BF40230020037813F09E
S2140048800C0F0CBF012000207047000070B5437865
S2140048900446032B1CBF03234370C5788178FFF7BB
S2140048A0EDFF20B92046BDE87040FFF78BBF03350B
S2140048B00D44052DA8BF0525FFF73AFDA37B064648
S2140048C0BBB163690D489979FEF77CFE4FF0FF3166
S2140048D001FA05F526EA05064FF4A0754FF47A713D
S2140048E0754304F12400B5FBF1F1BDE87040FFF715
S2140048F0E3BD0248FEF74CFEE8E700BF4023002079
S21400490010B54278052A04D80123934013F0390FD6
S21400491005D100244480FFF7B9FF204610BD0D20C6
S214004920FCE7007880F00400C0F3800070472DE9B3
S214004930F7431E46044624300D469046FFF778FDA2
S2140049400B2E1AD001D82EB1FEE70E2E02D00F2E57
S2140049502BD0F9E70127AB7C9B0705D5AA7939460A
S21400496004F1180000F0BAF83FB92046FFF786FFBA
S21400497018B1A3782A7C9A4219D80023A370E3784A
S214004980EEB9374604F11809CDE9003742463346FA
S2140049902946484600F0A3F8EFB1E3780133E37008
S2140049A0AB7C43F00103AB7403E00027D3E701338D
S2140049B0A370204603B0BDE8F043FFF767BF20466C
S2140049C0FFF7AFFF07460028DCD06F7C9F4294BFFE
S2140049D000270127D6E763784246022B18BF02233A
S2140049E0294618BF63704846334603B0BDE8F04317
S2140049F000F076B810B543780446042B07D0052B94
S214004A0012D0032B14D1BDE81040FFF7DBBE43697C
S214004A1008489979FEF7D6FD61692046BDE8104042
S214004A200E230022FFF783BFBDE81040FFF7FCBE51
S214004A3010BD00BF4023002008B5FFF71FFCBDE8EF
S214004A4008401C30FFF7D6BF007880F00200C0F3A5
S214004A504000704770B5164642780446052A04D8CA
S214004A600123934013F0390F29D123789B070AD5E9
S214004A7032461548FEF7CEFE6378052B01D0052397
S214004A806370002519E02046FFF7DEFFC8B10E4828
S214004A90FEF798FD054600B1FEE76378052B1CBFC0
S214004AA0052363707F23E373FEF78EF9304420619D
S214004AB0002104F12400FFF7FFFC284670BD0D25F9
S214004AC0FBE70C25F9E700BF4023002070470000F5
S214004AD00148FFF77DBD00BF4C230020704770479C
S214004AE00148FFF791BD00BF4C2300200148FFF7A7
S214004AF0A5BD00BF4C2300200148FEF705BD00BF42
S214004B00402300200148FEF717BD00BF40230020C9
S214004B100148FFF743BE00BF5C2300200148FFF7B3
S214004B2079BE00BF5C2300200148FFF700BF00BF2E
S214004B305C2300200148FFF76EBE00BF5C23002008
S214004B4090F84C3013B10A30FFF7E2BF704790F888
S214004B504C3013B10A30FFF7E1BF704710B490F83D
S214004B604C4024B10A305DF8044BFFF7DDBF5DF81A
S214004B70044B704790F84C3013B10A30FFF7DABF99
S214004B80704700000048704700F8FF0708B5FFF7B9
S214004B90F9FF08BD838843B103685A1C0260197088
S214004BA08388013B838000207047032070470022E3
S214004BB001608280704708B54FF6FF737E218380C0
S214004BC00068FFF7E7FF08BD7E2938B505460C46A6
S214004BD000680AD87D2903D2112901D0132906D1ED
S214004BE08388012B08D8032005E0F829F7E721463B
S214004BF0FFF7D0FF40B138BD7D21FFF7CBFF84F033
S214004C0020012868FFF7C6FFAA88054B5440E4B287
S214004C1033F81430002083EA1223AB80EBE700BFA2
S214004C20100301002DE9F04186880368F543ADB214
S214004C30E9B204461F68B3F80480FFF7C5FF48B919
S214004C40290A2046FFF7C0FF20B97E212068FFF71B
S214004C50A1FF20B123681F60A3F80480A680BDE8EA
S214004C60F08130B50025C0E901120570C0E90335B2
S214004C7030BD00002DE9F84304460D464FF002080B
S214004C80354E8F18AF4265D0237815F8011B012BDF
S214004C9024D01BD3022BF5D16068B0F80490B9F18C
S214004CA0000F50D0B4F810C081F0200181EA0C0249
S214004CB0D2B236F8123083EA1C232382FFF76AFF4B
S214004CC0638A0133638201232370DBE77E29D9D10F
S214004CD0012323704FF6FF732361D3E77D2917D096
S214004CE07E2918D06068B0F80490B9F1000F2AD079
S214004CF0B4F810C081EA0C02D2B236F8123083EA59
S214004D001C232382FFF746FF638A01336382B9E7D9
S214004D1084F80080B6E7638A002BDBD0012B10D91D
S214004D204FF2B803228A9A420BD1002163681A68B0
S214004D30023A1A609A8802329A80D4E9023098477A
S214004D40C8E70621F9E7A3680321E068984784F8D6
S214004D50009097E7BDE8F88310030100F0B5002443
S214004D6023468B42C3EBC3070DD0052B0BD0C65C86
S214004D70013306F07F05BD402C433506F1D402B161
S214004D8014601846F0BD4FF0FF33FAE77F280BD9C2
S214004D90B0F5804F0AD3B0F5001F09D3B0F1805F9D
S214004DA034BF04200520704701207047022070475A
S214004DB00320704770B504461046FFF7E7FF8142B0
S214004DC00DDA70BD63F07F0301F8013BD2090E1BBC
S214004DD0B542D3B2F6D103F07F036355F1E721461F
S214004DE0451EF4E7036810B55A1E114603628B424F
S214004DF002D904892144FAE74162022101770021A1
S214004E00016380F8341080F835104FF6FF71C0E962
S214004E100A33C1868363934202D901890A44FAE7BA
S214004E20C0E90F23C0E9113310BD002310B501609F
S214004E30114441600281C0E90333C0E90533FFF73E
S214004E40D1FF10BDC0E903127047C0E905127047D4
S214004E50012B0AD002D3022B0ED1FEE71144426882
S214004E608A4209D80389C91AFAE7891A02688A4267
S214004E7002D903891944FAE708467047012B0ED079
S214004E8002D3022B15D1FEE78A4237BF4368511A78
S214004E905B1A01683CBF511AC91888B270478A422B
S214004EA081BF436800689A1A091A94BF891A89183C
S214004EB0F3E70021F1E710B5144612120A7001223A
S214004EC0FFF7C6FF047010BD10B5134601220C781C
S214004ED0FFF7BEFF00782402204480B210BD2DE903
S214004EE0F041876A90F81C800E464346C26A3946EF
S214004EF00446FFF7C3FF0128054614D94246394643
S214004F002046FFF7E1FF023DC5F30D05354340EAB5
S214004F100502434692B239462046FFF7CCFFE36AC5
S214004F20A362BDE8F081E762FBE72DE9F047067F64
S214004F308046022E0F4691461C4622D04D68836A54
S214004F409D4221D13346C26A2946FFF797FF3F6844
S214004F50824633463A4629464046FFF78FFF2044AE
S214004F60504511DC94B119F8013B39463B7098F86E
S214004F701C3001224046FFF76BFF013CA4B20746F7
S214004F80F0E70D20BDE8F0870720FBE72046F9E7AD
S214004F902DE9F047057F0446022D0F461CD04E68CB
S214004FA0836A9E4218D1D0F82C802B464246314662
S214004FB0FFF764FF3F6881462B463A463146204657
S214004FC0FFF75CFF814507D92B4642463946204607
S214004FD0BDE8F047FFF752BF0020BDE8F0872DE997
S214004FE0F041067F0446022E0F4616D04D68836AAF
S214004FF09D4214D13346C26A2946FFF73FFF3F68F9
S214005000804633463A4629462046FFF737FF804516
S21400501005D90020E762BDE8F0810D20FBE70720F8
S214005020F9E738B5037F0446022B12D00021FFF7BC
S21400503056FF227FA06A04EB8203196A2163186276
S214005040E56815B123462069A84702230020237788
S21400505038BD0D20FCE7006B7047C26B436A9A426E
S21400506005D1836B006A1B1A5842584170470020CE
S214005070704790F8353033B9C36B426A9B1A18BF35
S214005080012380F8343070472DE9F843044690F841
S214005090346000EB8607D7F82080656C45452564AC
S2140050A022D0324629462046FFF70EFF030402D5DB
S2140050B0BB6B9D4218D1C0F30D023346023229461F
S2140050C02046FFF7C5FE3346814660640222294625
S2140050D02046FFF7BDFE8145A064DED001230020F8
S2140050E084F83530BDE8F8830323172084F835307C
S2140050F0F8E708B50146FFF7B0FF68B90846FFF7BE
S214005100B8FF91F834300E3351F82330C1E910332C
S214005110BDE80840FFF7B8BF172008BD90F8350077
S21400512003281ABFB0FA80F040090120704790F8B3
S214005130352038B5012A04460ED1816C90F83430FB
S2140051400D78FFF785FE636CA064984202D1204676
S214005150FFF79AFF284638BD0025FBE7416AD0E9ED
S2140051600E2399420CD1017F012909D00168531EF4
S214005170994202D902891344FAE74362C36370472F
S214005180016A91420AD1027F42B1416801339942D5
S21400519002D802899B1AFAE7036283637047037F8B
S2140051A0022B06D0083350F82330C0E90A33022316
S2140051B00377FFF7D3BFF8B5047F0546022C0F46EA
S2140051C000D1FEE72346B4FA84F4C66A01223146CB
S2140051D0FFF73EFE6409083455F82430834203D0B6
S2140051E03770E8620020F8BD2846FFF7D8FF032096
S2140051F0F9E7D0E90A32934270B504461BD1027F24
S2140052000021083250F82260B3420CBF4FF400462B
S2140052100026FFF7D0FF054658B901462046FFF79F
S214005220CAFF054628B9237F3246A16A2046FFF703
S21400523042FE284670BD0025FBE738B5037F0446CE
S214005240022B0D4607D0FFF7D4FF18B9E36A2B6090
S214005250A36A6B6038BD0D20FCE738B5037F0446B3
S214005260022B0D4608D0FFF7C4FF30B9294620466A
S214005270BDE83840FFF79FBF0D2038BDF8B5037F67
S2140052800746022B0D46164610D0FFF7B2FF04461F
S21400529050B92E44B54207D015F8011B3846FFF723
S2140052A08AFF0028F6D004462046F8BD0D24FBE70A
S2140052B038B50D460446FFF772FF0DB1012D00D13B
S2140052C02577237F083354F82330C4E90A3338BDE2
S2140052D02DE9F0470446FFF7C0FE00283BD12046E4
S2140052E0FFF7C7FE94F834900B2604EB8908D8F82D
S2140052F03870D8F820A03D46AA4516D04A4629461A
S2140053002046FFF7E1FD030401D5BD420DD1C0F3F1
S2140053100D0229464B4602322046FFF799FD013E14
S21400532016F0FF060546E7D1FEE7C8F838502046D7
S214005330FFF714FF00264FF6FF73656984F83560A3
S214005340E38655B1A069234694F834203946A84729
S2140053503046BDE8F0871720FBE72846F9E700222D
S214005360C0E90022C0E90222704700228388C2807A
S2140053700381827283817047002908BF002210B51E
S21400538001608280FFF7F1FF8388838110BDC388A8
S214005390028910B55C1C944297BF02680620D35C55
S2140053A00B709FBFC3880133C380002010BD13B5A8
S2140053B00C460DF10701FFF7EAFF18B99DF8073014
S2140053C013B9207002B010BD012B0CBF237006204D
S2140053D0F8E713B50C460DF10701FFF7D8FF10B933
S2140053E09DF80730237002B010BDC288038930B51F
S2140053F0941C9C420BD80468A3185D78A35C43EA0F
S21400540005230B80C3880233C380002030BD0620EE
S214005410FCE7B0F806C003890CF108029A422DE9B1
S214005420F04F42D8D0F800E00EEB0C035E7893F80D
S21400543002804FEA166B4FEA18474BEA07054FEA19
S214005440062A00274FEA08464AEA06044FF0000AF2
S2140054501EF80C6047EA050946EA0408DE7893F869
S21400546004B03406350A48EA040646EA0A085E79B5
S21400547049EA050747EA0B09350249EA050748EAFB
S2140054800A06B046B9469E7948EA0A083504DE7927
S21400549049EA050933064AEA080443EA0905C1E968
S2140054A00045C2805046BDE8F08F0620FBE737B5C2
S2140054B0C38804460D4601890068C91A184401AA23
S2140054C0FFF74CFC0028C9BFE3880620C018E08020
S2140054D0C2BF0020019B2B6003B030BD10B5C4884E
S2140054E0038922449A42D7BF036806201B190B6023
S2140054F0DCBFC280002010BD10B40389C4881B1B0B
S2140055009BB213805DF8044B1A46FFF7E7BF73B5EE
S2140055100E460DF1060105461446FFF766FF48B92C
S214005520BDF8062031462846FFF7D8FF10B9BDF86B
S2140055300630238002B070BDC38883810389C3818F
S214005540837AC3727047838982889A4281BFC380F8
S214005550C3890381C37A86BF837200200D207047FB
S21400556038B504460D460068C9B2FFF776FE28B97E
S214005570290A2068BDE83840FFF76FBE38BD38B549
S21400558004460D460068C9B2FFF767FE88B9C5F342
S21400559007212068FFF761FE58B9C5F30741206868
S2140055A0FFF75BFE28B9290E2068BDE83840FFF7F4
S2140055B054BE38BD70B5D1B20446006816461D46C6
S2140055C0FFF74BFE38BBC6F307212068FFF745FE02
S2140055D008BBC6F307412068FFF73FFED8B9310E77
S2140055E02068FFF73AFEB0B9E9B22068FFF735FE4B
S2140055F088B9C5F307212068FFF72FFE58B9C5F311
S21400560007412068FFF729FE28B9290E2068BDE863
S2140056107040FFF722BE70BD13B50A460446062149
S2140056206846FFF7C7FB694682B22068FFF726FE8A
S21400563002B010BD70B50D4611F00F01044618BF3C
S2140056400023006816BF012184F8241084F8243053
S2140056501646FFF72DFE29462068FFF7FEFD28B9FF
S21400566031462046BDE87040FFF7D6BF70BD70B526
S2140056700E46114605461446FFF772FF30B922461D
S21400568031462868BDE87040FFF7F8BD70BD38B5F4
S214005690044608460D4602F097FB4FF6FF7282421C
S2140056A028BF0246294692B22068FFF7E7FD01466A
S2140056B020B92068BDE83840FFF7CFBD38BD10B52B
S2140056C090F824100446032916D800EBC1010431D3
S2140056D00068FFF7B2FD70B901462068FFF7BDFD10
S2140056E048B901462068FFF7B8FD20B994F8243081
S2140056F0013384F8243010BD0D20FCE773B590F814
S2140057002410044611B90D2002B070BD08250426E9
S2140057100139C9B280F8241015FB01610144006804
S214005720FFF736FC0128EED994F82410023815FB52
S214005730016180B28DF80400E8408DF80500022370
S2140057400DEB060221442068FFF7EFFBDCE710B5FF
S214005750044694F824302BB12046FFF7CFFF0028EC
S214005760F7D010BD2068BDE81040FFF75ABC10B552
S21400577000F1280104460068FFF75FFD18B994F8A9
S214005780243084F8253010BD38B504461D46FFF792
S21400579051FF48B92046FFF7EAFF28B929462046B8
S2140057A0BDE83840FFF738BF38BD10B500F1280116
S2140057B004460068FFF713FC18B994F8253084F8FF
S2140057C0243010BD38B504460D46FFF7EEFF50B93D
S2140057D001462046FFF720FF28B929462046BDE8A7
S2140057E03840FFF719BF38BD1F2070472DE9F04835
S2140057F000230C261D4D06FB03F467598F4230D15B
S2140058002C44646894422CD10025D0E90272C3F17E
S214005810200602FA06F6A3F1200127FA03FB22FA75
S21400582001F14BEA060B4BEA010B0BF0010454EABC
S2140058300502C3F12001A3F1200610D1012202FACD
S21400584006FC22FA01F102FA03FB4CEA010CD0E94D
S21400585000234BEA02044CEA0305C0E90045BDE814
S214005860F08801331F2BC6D1F9E700BF14050100ED
S21400587000232DE9F74F94468E461C460122254FFD
S2140058800C2101FB03F57919097A00293AD0EE5963
S214005890764537D1D0E90289A3F12005C3F120046B
S2140058A002FA05FB22FA04F44BEA040B02FA03FAA6
S2140058B06FEA0A046FEA0B05CDE90045BCF1000F5C
S2140058C016D048EA0A0449EA0B05C0E90245DDE9B4
