S00F00006E6F6465746573742E7333377F
S31500004000F061012091D9010045BF0000CDD7010024
S31500004010A70A0A010042000004180FAC106810013C
S31500004020000000000000000000000000000000008A
S3150000403000000000D0F401000000000000000000B5
S315000040400000000000000000FFFFFFFFFFFFFFFF72
S31500004050FFFFFFFF00400F0000000000000000000F
S31500004060FFFFFFFFFFFFFFFF8000000000000000D2
S31500004070000000000000000000000000000000003A
S315000040800000000000000000B47F0120B47F012082
S31500004090F0610120AB210200AAD90100905801204D
S311000040A0B810002000E00F000000000037
S31500004200F061012091D9010045BF0000CDD7010022
S3150000421049F00000D1D70100D5D701000000000009
S31500004220000000000000000000000000535B0000DA
S31500004230D9D7010063560000679E000067B30000EF
S31500004240BDD80100BDD80100BDD80100BDD8010010
S31500004250BDD8010089F1000015140100BDD8010088
S31500004260BDD80100BDD8010035650100BDD80100EB
S31500004270BDD801001DB70000BDD80100BDD80100A2
S31500004280BDD80100BDD80100BDD801009FBE000009
S31500004290BDD80100DB5C0100BDD80100BDD801001E
S315000042A0BDD801006D5F01005D5F0100BDD8010052
S315000042B0BDD80100BDD80100BDD8010003820100B0
S315000042C0BF810100BD8101006D7C010001820100FA
S315000042D0C1810100C5810100C3810100C9D8010067
S315000042E039820100BDD80100BDD80100555B000030
S315000042F0BDD80100BDD80100BDD80100A7BE000091
S31500004300BDD80100BDD80100BDD80100BDD801004F
S31500004310BDD80100BDD80100BDD80100BDD801003F
S31500004320BDD80100BDD80100BDD80100BDD801002F
S31500004330BDD80100102510B5494A494C4A4B1B68A7
S31500004340234207D103408B420DD0521EF6D16FF0A7
S31500004350020010BD4548034202D06FF0010C201642
S315000043604FF0FF3010BD002010BD70B5404D6860A5
S31500004370E8680E46410702D518200870BD56F804B5
S315000043800B141F02E008101D241FA86044B1082169
S315000043900820FFF7CFFF0100F4D00421296070BD8B
S315000043A0042028600021211612C4162304D10C1003
S315000043B005BDE87040BCE77054301341F671312AF0
S315000043C04C01222A4BE568E1621A606060022626EB
S315000043D030300B2D0CFFF7ABFF05F0010501000394
S315000043E036201CFFF7A3FF0121204A11600DB10002
S315000043F021E16270BD2DE9F843184F3D68894614E6
S31500004400464A200A80462D0C39620122164B0020AE
S315000044103A100B1A6009E0324649464046FFF79FBC
S315000044207E501F0DD1B044B144A41B4CB108F50019
S3150000443056760B7603A6EB0806B442ECD22646EA7D
S31500004440E70121095C10133962BDE8F283000080A0
S31500004450969800060001001C00034002081210088E
S31500004460130C1004000120034000000070470000F8
S315000044702DE9F0470646DFF82C48207822A10027D0
S3150000448000F04EFEADA50FF250590FF25C5ADFF860
S31500004490188812E0294600F043FE0CE09368126883
S315000044A0494600F03DFE306800F0A6FAF2D00FF261
S315000044B0305100F035FE7F1CBFB2306800EB0712AA
S315000044C02078516849B14145E8D15169002918BFA2
S315000044D04145F0D012685146EBE700BF29A100F034
S315000044E01FFE207831A100F01BFE20783BA100F0D2
S315000044F017FE207844A100F013FE29462078BDE877
S31500004500F04700F00DBE0000434F4D4D414E442094
S315000045105B504152414D45544552535D205B2D2021
S315000045204445534352495054494F4E5D0D0A20208D
S3150000453077686572653A20623D6275666665722CBB
S315000045402073313D696E74385F742C2073323D6977
S315000045506E7431365F742C2075313D75696E743812
S315000045605F742C2075323D75696E7431365F742C1C
S315000045702075343D75696E7433325F740D0A0D0A09
S315000045800000000020202120202D20526563616C50
S315000045906C73207468652070726576696F75732018
S315000045A0636F6D6D616E640D0A00000020205B7400
S315000045B061625D202D20417474656D707473207482
S315000045C06F2074616220636F6D706C657465206323
S315000045D06F6D6D616E640D0A0000000020202020C2
S315000045E02A2A204E4F54453A20616C6C20696E7021
S315000045F075742076616C7565732061726520696ECD
S3150000460020686578210D0A00202020202A2A2043D0
S315000046106F6D6D616E647320617265204E4F54201C
S31500004620636173652073656E7369746976650D0AD7
S3150000463000000000A0F141011A293CBF2030C0B2A1
S31500004640704700002DE9F84F8046D8F8081000247E
S3150000465000250868DFF84C66C7B2384600F010FE41
S315000046605FFA80F9B9F1200F07DD30785FF020029C
S3150000467033A1BDE8F84F00F053BD384600F0E8FD21
S315000046808246A34607E01AF80B00FFF7D3FF0AF8A5
S315000046900B000BF1010BCB45F5DB4A4639A1504621
S315000046A000F090FF38B9012505E030784FEA07029F
S315000046B036A100F035FDD8F800202101101D405824
S315000046C0002839D0641CDFF8E0B5A4B25845F2D111
S315000046D05758002DE9D1384600F0A8FF4845EAD1E1
S315000046E04A465146384600F06DFF0028E3D1404661
S315000046F025460FF2D8280FF2E8290FF2980A044649
S3150000470021682F01081DC059B0B1584514D0C819E9
S31500004710836802683078514600F002FD2068C019AF
S31500004720C268307812B900F07FFB02E0494600F01B
S31500004730F7FC6D1CADB2E3E7BDE8F18F0D0A000092
S315000047404572726F723A206C697374206172677574
S315000047506D656E7420746F6F206C6F6E672C20779A
S3150000476065206F6E6C7920737570706F727420752A
S315000047707020746F2025752062797465732E0D0A7A
S31500004780000000006D6F64756C65730025700D0A7E
S3150000479000000000257020257000000070B588B06C
S315000047A00446A068016801B10121DFF800552970AF
S315000047B0406800B10120DFF8F864307015A001F000
S315000047C053F9A068C16801B10121DFF8E82411702E
S315000047D0006900B10120DFF8E0140870127808784B
S315000047E016A30592CDF8103016A1327817A30790BC
S315000047F006910093012076A12B78039002910192F5
S315000048000FF2500204F1110114A001F02DF908B0C5
S3150000481070BD00005475726E696E67206F66662003
S3150000482074616773206E6F74207965742073757078
S31500004830706F727465640D0A0000000064656C692F
S315000048406D0000007465787400000000636F6D6D84
S31500004850616E640068656164657200007B264E20A7
S31500004860566572626F73697479206F7074696F6EC2
S31500004870732073657420746F3A0D0A2674750D0AD9
S315000048802674750D0A2674750D0A2674750D0A268A
S3150000489074757D0D0A000000007CDFF80834DFF82F
S315000048A01C1451F82020187801A100F039BC000032
S315000048B04349204572726F723A2025700D0A000036
S315000048C038B5DFF8E043207840A5294600F028FCFB
S315000048D094F800000CA100F023FC2078294600F093
S315000048E01FFC207811A100F01BFC207839A100F0F4
S315000048F017FC207810A100F013FC207811A1BDE868
S31500004900344000F00DBC0000456D626572204E6FAC
S3150000491064652054657374204170706C69636174BA
S31500004920696F6E2076312E300000000053657020CE
S31500004930313020323032300031313A31343A34318C
S31500004940000000000D0A0D0A000000002DE9F24FDC
S31500004950054692462E6B002712E01CA100F0E0FBF4
S315000049600BE08B681CA1CF4C00F0DAFB286800F046
S3150000497043F8F2D01AA100F0D3FB7F1CBFB2103669
S31500004980706808B3D6F80080DDF8009000240BE0CC
S3150000499019F8010BFFF74EFE834618F8010BFFF7D7
S315000049A049FE8345E9D1641CA0B25045F0D328687E
S315000049B0BC4B00EB07111878BB4B4C680A689C424D
S315000049C0CFD100BF08A1D6E7BDE8F18F0D0A0000E0
S315000049D0746167002C2000002020257020257000BF
S315000049E0202D2025700D0A002D2D2D2D202570201F
S315000049F02D2D2D2D0D0A000000EB0710C268207822
S31500004A00002A70472DE9F847ADF5017D0DF1040048
S31500004A10ABA14FF4807201F059F84FF000098DF800
S31500004A200190A52001F0C0F801F00EF900F098FB06
S31500004A3000F0EBF9002001F043FA804628B100F0BF
S31500004A40DFF9002001F03CFA804600F0DEF9012093
S31500004A5001F036FA070005D000F0D2F9012001F086
S31500004A602FFA074600F0D1F9022001F029FA0600D4
S31500004A7005D000F0C5F9022001F022FA064601F041
S31500004A80B5FA884DB8F1000F0AD0002F6ED0002E6F
S31500004A9000F0718040F20721C9A001F0ADFA03E0F1
S31500004AA0002F18BF002E62D085F80090281D01F057
S31500004AB0D8FB281DFFF704FF95F80000C4A600F0F8
S31500004AC0AFF928780FF2843173A700F029FB287814
S31500004AD039460FF2043800F023FB281D01F048FF89
S31500004AE02878314641AC00F01BFB28780FF268317C
S31500004AF000F016FB00F09BF9281D03F099FD00F06D
S31500004B008EF928780FF25C3100F00AFB00F08FF97D
S31500004B10281D03F0ABFD00F082F928780FF2503122
S31500004B2000F0FEFA00F083F9281D03F0C1FD00F045
S31500004B3076F928780FF2443100F0F2FA00F077F9AE
S31500004B40281D03F0CAFD2878314654A600F0E8FA7D
S31500004B5095F80000A2A100F0E3FA2878394650A79C
S31500004B6000F0DEFA281D04F03FFD91E0002E64D02F
S31500004B70012028709AE70221297097E728780DF11D
S31500004B800103FF2241A901F0EEF9002846D001F009
S31500004B9008F801F059F904F069F99DF8010010B31D
S31500004BA041A9084410F8011C09291CD100F03FF95D
S31500004BB09DF80100411E8DF801109DF8012041A9C4
S31500004BC0281DFFF7C3FE9DF801100020605400F079
S31500004BD02AF9002004E000F01DF99DF80000401CB1
S31500004BE000F006F9F7D39DF804012128C6D100F09C
S31500004BF01EF94A4601A941A800F068FFA9F1010083
S31500004C008DF8010000F00FF9002000F0F1F8B5D2A0
S31500004C1000F000F99DF80000401CF6E700218DF831
S31500004C2000109DF80020A05C511C0A2818BF0D2812
S31500004C3018BF0028F3D116E02E702878FF289CD1E3
S31500004C4000266946F0B201F089F938B99DF80000EE
S31500004C500D2818BF0A2818BF2A28EDD0761CF1B2F5
S31500004C600329EEDBE9E70D20A0548DF800109DF82E
S31500004C70002041A9281D01F0FFFA9DF800A041A9D6
S31500004C8001A8524600F022FF0020D1468DF801000F
S31500004C9000F0C9F872E700005D0D0A002563000008
S31500004CA00D0A0000346301206D440000F267012004
S31500004CB0F3670120F4670120F567012020650120D4
S31500004CC00D000000000000000000000000000000D1
S31500004CD000000000000000000000000000000000CE
S31500004CE000000000000000000000000000000000BE
S31500004CF000000000000000000000000000000000AE
S31500004D00000000000000000000000000000000009D
S31500004D10000000000000000000000000000000008D
S31500004D20000000000000000000000000000000007D
S31500004D30000000000000000000000000000000006D
S31500004D40000000000000000000000000000000005D
S31500004D50000000000000000000000000000000004D
S31500004D60000000000000000000000000000000003D
S31500004D70000000000000000000000000000000002D
S31500004D80000000000000000000000000000000001D
S31500004D90000000000000000000000000000000000D
S31500004DA000000000000000000000000000000000FD
S31500004DB000000000000000000000000000000000ED
S31500004DC0706C6174666F726D746573742E63000027
S31500004DD05B494E49542000000D0A3E2000000000A9
S31500004DE073657450657254657374547800000000DE
S31500004DF08DF800009DF800009DF80110884270476C
S31500004E00012300224FF416417047012300224FF47C
S31500004E10E1317047225C2878314600F081B9287864
S31500004E20314600F07DB92878414600F079B92878F6
S31500004E30394600F075B980B504F050FD0020BDE894
S31500004E400240DFE50020704705F0DEB8696E697440
S31500004E50546F6B656E7300006372617368696E668A
S31500004E606F0000007265736574737472696E670013
S31500004E70696E6974526164696F00000073656564E8
S31500004E80506E72670000000070B513461044DCB225
S31500004E9064B101F00F060909451E0A2E2846ACBF6B
S31500004EA037243024A4192C705B1EF0E7104470BD23
S31500004EB0F0B5002341B1002806D52D231370012338
S31500004EC0B0F1004F18BF4042002100249BA50026E8
S31500004ED001E0C01B761C55F82470B842F9D2F7B22F
S31500004EE00FB90F0004D03036D9B256545B1C0121DD
S31500004EF0641C092CEBDB3030D9B250545B1CD8B2A1
S31500004F00F0BD2DE9F84F824696B04FF0000914A87F
S31500004F10884617461D4604ACCB46019014E04FF078
S31500004F20010B074600E00446019884420BD39DF826
S31500004F30002004A94046A41AE2B2D047002862D154
S31500004F4059FA84F904AC7F1C04A88DF800009DF87A
S31500004F5000003978201A00290FD0252905D05FEAEC
S31500004F600B0208BF04F8011BDED05FEA0B0114BF79
S31500004F704FF0000B7F1C39780A0000F0A980B1F1D0
S31500004F80250216D00B3A092A40F28280283A77D0B9
S31500004F900A3A12D0521E3CD0521E59D0083A57D067
S31500004FA0121F39D0D21E37D0921E51D0D21E67D0D2
S31500004FB0BAE7252004F8010BB6E729686A68204697
S31500004FC00835039102920024029A9442ABD20399C7
S31500004FD00222095DFFF758FF0199884206D300F0C7
S31500004FE085F800280FD159FA86F904A80299491EB6
S31500004FF08C423CBF202200F8012B0199884206D33F
S3150000500000F074F800286DD159FA86F904A8641CDA
S31500005010DAE755F8040BCDE7044655F8046BE2B21F
S3150000502004A94046D04700285CD159FA84F9314694
S3150000503004AC064600E0761CF0B2085C0028FAD103
S31500005040F2B24046D04700284CD159FA86F96BE7B0
S315000050506C290AD17A7855F8040B752A0EBF0021FF
S315000050600121642A07D17F1C05E0752955F8040B38
S315000050700CBF002101212246FFF71AFF241853E72F
S3150000508055F8041B02222046C9B2FFF7FDFE4AE787
S3150000509078784FF0010B782818BF5828EFD17F1C7D
S315000050A0781E4FF0000B322905D155F8040B042267
S315000050B081B22046E9E734297FF431AF55F8046B15
S315000050C004222046310CFFF7DFFE0422B1B2DCE7F2
S315000050D00546EAB204A94046D04718B9A9445FFA82
S315000050E089F000E0002017B0BDE8F08F9DF80020A1
S315000050F004A9861AF2B24046504708A110E00CB443
S3150000510038B5044604AA00F013F8054603A1204664
S3150000511000F006F8284632BC5DF80CFB0D0A0000CC
S315000051200CB480B502AA00F003F802BC5DF80CFBD3
S3150000513080B506F059FDC0B202BD000000CA9A3B18
S3150000514000E1F5058096980040420F00A086010018
S3150000515010270000E8030000640000000A000000B9
S3150000516010B5DFF838040068DFF82C14DFF83024B7
S31500005170C860136848615B0800EB43040C6118B112
S3150000518000F00AF8652806DAAF210FF22440BDE8E0
S31500005190104000F031BF10BD10B5DFF8FC432069A8
S315000051A06269904202D2C52100F0CEF82069626998
S315000051B000E0E2684FF6FE71801A084010BDDFF885
S315000051C0D813CA68904203D34969884200F05DB992
S315000051D00020704780B510B1FFF7F1FF00B1012044
S315000051E002BD30B1DFF8B023D168401A4010401C30
S315000051F080B27047010001D100207047DFF8981394
S31500005200CA6802EB4000801E70474088C0F30C005D
S31500005210C01C0004800C4000001D80B2704710B511
S315000052200446FFF7F2FF04EB4000DFF86C134A690F
S315000052304FF6FF74904204D20388A34208BF801C35
S31500005240F8D010BD80B5FFF7D5FFBDE80240C1E735
S3150000525010B5040012D0FFF7F5FF18B940F27941F6
S3150000526000F072F82046FFF7C5FF38B101880A043E
S3150000527002D5D0F80A0010BD083010BD002010BDC0
S3150000528010B5010013D0FFF7B5FF0446FFF7A2FFE4
S3150000529018B940F2934100F057F844B12088010450
S315000052A001D5208910BD6088C0F30C0010BD002018
S315000052B010BD2DE9F04100F044F804003FD00FF294
S315000052C0F027FFF787FF18B940F2A64100F078F8FB
S315000052D02846FFF7D5FF80462046FFF7A0FF054684
S315000052E046452CD003DB40F2AE4100F069F8208839
S315000052F0010448BF268122D466802046FFF785FF39
S3150000530004EB400406F08FFDDFF88C124A692E1B71
S31500005310B6B2954204BF4C61002606F08AFD082EFF
S3150000532006DA31462046FF22BDE8F04106F084BD8C
S315000053300821204606F0B4FDA6F108006080BDE80D
S31500005340F08105460E4655E70FF2642000F054BE84
S3150000535038B50D46FFF74EFF04000AD0FFF73AFFB7
S3150000536018B940F2EB41FFF7EFFF04EB45008088E8
S3150000537032BD002032BDF8B50D461646FFF73AFF9E
S3150000538004000FF22C2714D0FFF724FF18B940F2BF
S31500005390F64100F015F83046FFF72CFFFFF71AFF2D
S315000053A018B940F2F74100F00BF804EB450086808F
S315000053B0F1BD384640F2FA41BDE8F44000F01CBEAB
S315000053C0384600F019BE2DE9F84F8846C11C8910F1
S315000053D04900091D0027DFF8C05104461FFA81F96C
S315000053E02E690FF2CC1AB0F5005F04DB40F22651AD
S315000053F0504600F001FE06F016FD8346E86969692D
S3150000540008B9711A03E05FEA080202D0411A4E1089
S3150000541009E0301A4010064680B220B940F24C51DD
S31500005420504600F0E9FDB6B24E4514DB6F6907EB56
S3150000543049006861E86928B1B8F1000F04BF00EBC4
S315000054404900E86100207C80B880F880388029898E
S31500005450083464182C81584606F0EBFC3846BDE843
S31500005460F24FBEE670B504460D4611462846FFF7D4
S31500005470AAFF06463CB1300005D0FFF7E9FE2A46F2
S31500005480214606F011FD304670BD8041C00F7047C1
S315000054902DE9FE4F04462088884616469B46FFF7B0
S315000054A0A9FE0746FFF796FE18B940F29A61FFF784
S315000054B04BFF38883546010403D538892D183D81C0
S315000054C067E000F073F8019000F06CF8814606F092
S315000054D0AAFC00968246304E706981451DD1FFF7C1
S315000054E05BFEA84203D2504606F0A3FC21E00198D9
S315000054F02D187D80BBF1000F08D02088FFF7A8FE8D
S31500005500019B009A4146184400F0D0FA00F04AF890
S315000055107061504606F08DFC3BE0504606F089FC73
S3150000552000F044F82D180021A8B2FFF74CFF070041
S3150000553001D118202EE000F039F805462088FFF743
S3150000554087FE06463846FFF783FE2A46314600F0B8
S31500005550ADFABBF1000F384609D0FFF779FE00F02F
S3150000556024F8009A4146284400F0A0FA07E0FFF725
S315000055706FFE00F01AF80099284406F091FC208886
S315000055800121FFF7E5FE024601213846FFF7F3FE4B
S3150000559027800020BDE8FE8FA0770120EC63012064
S315000055A0F06301203846FFF73ABE0546208867E6D5
S315000055B06275666665722D6D616E6167656D656E95
S315000055C0742E63000300002013F0030F09D0521E4F
S315000055D022BF13F8010B11F801CBB0EB0C00F3D08E
S315000055E0704711F0030F14D1121F22BF53F8040B9A
S315000055F051F804CB6045F7D0121D0AD200BA9CFAC6
S315000056008CFCB0EB0C0038BF6FF0000088BF0120A7
S315000056107047521E22BF13F8010B11F801CBB0EBF5
S315000056200C00F6D0521C08BF1046704700F101036B
S31500005630810704D010F8011B820781B1FAD10268F4
S31500005640A2F10131914311F0803104BF50F8042FCB
S31500005650F6E709BAB1FA81F100EBD100401CC01A95
S315000056607047704738B50446206A651D2368451B98
S315000056702079EAB2611D984708B1002032BD94F83E
S315000056802900611D21622D1884F82950012032BDA0
S3150000569038B50446002500E06D1CE8B2085C002819
S315000056A0FAD120792368EAB2984710B994F829000C
S315000056B0E9E7002032BD2DE9FF4B07460C46781D71
S315000056C0386207F1150179620020904687F82900B3
S315000056D0DFF8C85314E02AB1791D396201E01100E0
S315000056E0F9D104461EB1396A7D2000F0A6F9386A60
S315000056F0796A884203D300F095F9002867D0641CC4
S315000057002178002900F06A812529687818BF2629A2
S315000057100ED07B291CBF7D29232907D10028E6D07E
S315000057203A6A521C3A6202F8011DE0E7A878F5E7EA
S3150000573014F8013F252B18BF262B05D1396A491CC1
S31500005740396201F8013DD2E726290AD148B101267E
S315000057506E2B18BF4E2B10D0396A7B2000F06DF9E6
S3150000576000E00026217800224E2906D0542923D0B5
S315000057706E2902D074291FD031E0287858F804BB6E
S315000057800028B4D036B1386A7B210170821C3A6297
S315000057902823437000F046F9002818D000F035F9A8
S315000057A0002814D0002EA2D0386A29210170821C4C
S315000057B03A627D2343709AE700F032F9002806D05A
S315000057C000F023F9002802D000F02CF9002800F0A0
S315000057D08180396A3A20012200F02FF9641C207872
S315000057E094F801E0A0F13003DBB2981E052835D20B
S315000057F0BEF1640F18BFBEF1750F2FD158F8040B18
S3150000580001214FF0000C80B28146BEF1640F06D133
S315000058105FEA004E03D5C043401C8C4680B248B1B7
S315000058204FF00A0E90FBFEF00CF1010C80B200283E
S31500005830F6D10BE00CF1010C08E0D7F820E02020AF
S315000058400EF1010EC7F820E00EF8010D604600F1DA
S31500005850010CC0B29842F0DB641C00E0002194F811
S3150000586000C0601EBCF1000F3FF439AFBCF1320F2F
S3150000587018BFBCF1340F00F08D80BCF1480F0AD080
S31500005880BCF1580F16D0BCF1630F15D0BCF1640FF4
S3150000589024D0BCF1680F72D0BCF16C0F50D0BCF1B3
S315000058A0700F18BFBCF1730F0DD0BCF1750F15D07A
S315000058B0BCF1780F65D00EE7386A411C396258F89A
S315000058C0041B01700EE700F0ABF818B100F09DF86C
S315000058D00028F7D1002004B0BDE8F08B002912BFE4
S315000058E01FFA89F058F8040B80B220B9396A3020C3
S315000058F000F0A3F8F6E60023BCF1640F0ED1010414
S315000059000CD53A6A2D21521C3A6202F8011DB0F5F7
S31500005910004F03D0404280B2002867D04FF00A0CF7
S3150000592090FBFCFC0A2101FB1C00D9B25B1C0DF8A4
S3150000593001001FFA8CF0EFE7D8B200F075F855E0D9
S3150000594058F8040B0028D1D0002200280BD5396A5C
S315000059502D23491C396201F8013DB0F1004F02D0F8
S315000059604042002848D00A23B0FBF3F30A2101FB8A
S315000059701300D1B2521C0DF801001846F1E700F0F1
S3150000598047F858F8041B0222386AC9B2FFF77CFAB6
S315000059903862A7E614F8010F682818BF48280BD10B
S315000059A000F036F814F8011C386A32290AD158F882
S315000059B0041B042289B2E9E7782818BF5828F1D0D9
S315000059C0641E8FE658F804BB04224FEA1B41FFF71A
S315000059D05BFA386204221FFA8BF1D7E700F022F84F
S315000059E000283FF477AF97F8290074E71846431E5E
S315000059F0C0B20028A0D175E61046421EC0B20028EB
S31500005A00F9D0D0B200F010F8F6E7594638463FE62E
S31500005A10386A30210170821C3A62782343707047DD
S31500005A2058F804BB38461DE6396A1DF80000491CC3
S31500005A303962303001F8010D7047491C396201F8AE
S31500005A40010D70470EB40146154A10B510788BB09B
S31500005A50002440B1134A137800F018F8FFF72BFE24
S31500005A6000B9012420460DE00EB40E4A10B50146D9
S31500005A7013788BB000F00AF80024FFF71CFE00B97B
S31500005A80012420460BB010BC5DF810FB06480090C0
S31500005A908DF804300DAA684670470000F3670120B0
S31500005AA0F26701203463012019BC000062B38B0742
S31500005AB008D0521E11F8013B00F8013B00F024808B
S31500005AC08B07F6D1830740F0208000BF103A07D33A
S31500005AD030B4B1E83810103AA0E83810F9D230BC2A
S31500005AE0530724BFB1E80810A0E8081044BF51F8D6
S31500005AF0043B40F8043BD20724BF31F8022B20F8C0
S31500005B00022B44BF0B7803707047121F17D35B003C
S31500005B1009D151F8043B20F8023B1B0C121F20F858
S31500005B20023BF6D20BE051F8043B00F8013B1B0A9E
S31500005B3020F8023B1B0C121F00F8013BF3D238BFC2
S31500005B40121D521E24BF11F8013B00F8013BF8D884
S31500005B507047FEE706F0F6B97FB500BF37A191E8BA
S31500005B601C006846032180E81C0001250D268DF8DF
S31500005B7007108DF800508DF806600821232006F0E6
S31500005B801BFB6946254806F0C3FD4FF40060244917
S31500005B9008600222234B1A60234C206023490A60C6
S31500005BA07FBD1E4806F0A3BDA52803D100211B48D2
S31500005BB006F08CBD70471E4800682BE01D4908683A
S31500005BC00028FCD1704738B504460D4600F017F89A
S31500005BD004F00F01034624052A46200E01B0BDE855
S31500005BE0304006F03EBE000001460B051B0E30207D
S31500005BF04343114A01F00F01D018406909E00146FC
S31500005C000B051B0E302043430B4A01F00F01D01841
S31500005C100069C84000F00100704700000080014A9A
S31500005C2084E200E018A0014A04E100E01C90014A69
S31500005C300480014A2480014A00C00340010000009C
S31500005C4000000F000000000010B50121864A116017
S31500005C50002006F0D7FD012304220321002006F0D0
S31500005C6000FE012006F046FE00F011F806F045FEA3
S31500005C707E4C0120207006F06FFF01234022211D7B
S31500005C808BA006F034FF7A490860C00F10BD70B5CE
S31500005C9078480168784C794D41F001010160C2688D
S31500005CA00021774E42F08072C260764820602960FB
S31500005CB03160022374490B600C2006F047F97349E2
S31500005CC00818734AB0FBF2F0724B0021401E1860B0
S31500005CD0296471482065714931604FF480727048BB
S31500005CE002602B6843F480732B6070BD38B506F0F4
S31500005CF09AF85E4D29780024022912BF0124032157
S31500005D00297006F096F8DCB95D480168CA070ED519
S31500005D1064490B6823F440630B6001684908490035
S31500005D20016002681102FCD4642006F032FF0020F4
S31500005D30554908605A4B18604E49086001222A707E
S31500005D4031BD4C48006800B10120C0B27047D12275
S31500005D5002704170090A817053490A78C270521C58
S31500005D600A70042070472DE9F14F82B04D1D06F0F0
S31500005D709FFF002400904FF6FF7ADFF83081DFF8AE
S31500005D80FC903C4E1DE002985146001910F8027C2A
S31500005D90384606F0BBFF82465C4639480168CA07AA
S31500005DA00FD5F06840F08070F060D9F8001041F42B
S31500005DB08071C9F80010D8F800000028F1D088F8E2
S31500005DC00070316851B3E0B2E9B2884226D206F0DB
S31500005DD06FFF009940F2F512401A80B2904223DA22
S31500005DE0E0B210B95B270124D7E7012802D16F1F63
S31500005DF00224D2E704F1010BE8B2E4B2C11E8C42E0
S31500005E0008BF5746C8D0821E944208BF4FEA1A27D9
S31500005E10C2D0401E8442B6D15D27BDE7E4B2EDB2E2
S31500005E20AC4208BF002000D00120BDE8FE8F10B5AF
S31500005E300C4621780022052902DBFFF794FF024673
S31500005E4004202070104610BD094B80B5186890B02C
S31500005E504022694606F031FE20B1C2B269461220E0
S31500005E6007F036F811B000BD44D403403C7701205A
S31500005E70E8630120F0ED00E0B00F00E0000E00E066
S31500005E80800E00E055CEACC5F00004E0FCAC060088
S31500005E90F8590D00100004E0FF0300400D0001005A
S31500005EA0040304E0001000E0AD7F0120200000E0C4
S31500005EB073696C6162737675617274646F776E0074
S31500005EC02DE9F84104469046012593B00F461E463B
S31500005ED0220006D0022C1DD0102C02D0212C19D065
S31500005EE029E0002105F075FC0546012C18BF202C81
S31500005EF008D0022C18BF212C04D0032C1CBF222C46
S31500005F00232C25D10197ADF81080012E15D14FF421
S31500005F10805016E00DF128002BA12422FFF7D6FDB4
S31500005F2068460AA92422FFF7D1FD1021ADF82410F6
S31500005F30ADF82610D9E701200BE0022E03D14FF46D
S31500005F404050ADF80E006946204605F042FC054675
S31500005F50E8B214B0BDE8F08105F0FEBC80B505F0EE
S31500005F6006FDC0B202BD80B505F04AFDC0B202BD55
S31500005F707CB5044600200D4616468DF8000001E06B
S31500005F80FFF70FFE6B46324629462046FFF7EBFF2A
S31500005F900028F5D176BD80B505F0BCFDC0B202BDC6
S31500005FA080B505F0D7FEC0B202BD0CB40A4680B576
S31500005FB0014602AB0348FEF7A4FF002002BC5DF8D1
S31500005FC00CFB0000E5BC000000C0054000C201005B
S31500005FD0000005060100001000000000000000009F
S31500005FE0000000000000000000000000002080F318
S31500005FF01188704742DE704738B504460D46FFF7F4
S31500006000D0FD06F0C5FF2946204606F091FE2B4638
S315000060104FEA040276A10120FFF7C7FF2946204672
S31500006020BDE83440E6E769482DE9F8430168684E63
S315000060304FF42068B165026A6649F2650B683366FB
S3150000604049687166426AB266816AF166C26A3267F7
S31500006050016B7167806B96F83810B06748074CBFC4
S31500006060346CF46B06F0B4FFDFF86CE10022844276
S3150000607001463265A14624BFAEF12007A7427165ED
S3150000608006F19002554BDFF858C118D3A069706429
S31500006090E469B464B56DC5F30805062D13D16045F2
S315000060A011D398420FD200884DF64264A0420AD11D
S315000060B07068B46840F201785060946003E0002490
S315000060C07464B46481464748814238BF0146084635
S315000060D070456AD20C68B4F1CD3F08BF091DF6D0F1
S315000060E063E0062C09D1C4B2002C06F17C040CBF77
S315000060F00520401EC5B244F82510F14520D25EF8B1
S31500006100041D6145F9D39942F7D2CC07F5D5002491
S3150000611006F17C0555F824708F42E2D0641C062CEB
S31500006120F8D3DEE7F16F002306F17C0506EB830466
S31500006130D4F8804045F823405B1C042BF6D9116047
S315000061400146481EC9B20029ECD1B06DC0F3080063
S31500006150032810D0042811D0052812D0062813D001
S315000061600C2817D03B2818D11F480268910719D56B
S3150000617040F2025816E040F6012813E040F60228E5
S3150000618010E040F603280DE0B8F5206F0AD140F67E
S31500006190042807E040F6052804E018B14D2838BF6A
S315000061A040F607284046BDE8F2831049081AF06415
S315000061B00020002106F17C04C5B2401CC7B244F899
S315000061C02510062FF8D3002097E7000004ED00E025
S315000061D00000002000E300E0F0610120AAD90100E0
S315000061E06C4400009C0000201880014AF0610120E8
S315000061F00D0A5B4153534552543A25703A25645D66
S315000062000D0A00002DE9F14181B0FFF739F8C4B25B
S3150000621000250026E10748BF002020D400270FF202
S31500006220A448F8B2A04215DABDF80400F9B206F0A7
S3150000623020FF18F80020F80702F00F0258BF1601D9
S3150000624006D5BDF804003243E9B206F02AFF6D1CFC
S315000062507F1CE6E7E9B201A806F0C4FE0120BDE80E
S31500006260F68100F1240100224A80C273C2830A70BB
S3150000627082730068C86070472DE9F74F054682B003
S3150000628000208DF8010005F1240608E0687B012254
S315000062907072EA739DF80000294600F0AEF9039883
S315000062A00027002460BB9DF810006946FFF756FEE4
S315000062B0002839D0262826D00121284600F08FF95B
S315000062C078208DF80000A046102700218DF80110D7
S315000062D0E97B0829E3D8DFE811F00A004B008E00BD
S315000062E0EB00EB0042014E01AD009E00D7E7102FF8
S315000062F0CCD09DF80000232836D10821E973CEE7DB
S315000063009DF8100020B99DF8010005B0BDE8F08F9A
S315000063100398401C039010F8011D9DF810008DF89D
S315000063200010411E8DF810109DF80000A046672849
S315000063300FD29DF800100FF28C30405C00F0300751
S3150000634000F00F08400607D5717A884504DA012463
S3150000635002E07B2838BF10279DF800000A2818BFE6
S315000063600D28B2D10121B1E7202F98D003202AE1D0
S31500006370102F1CBF9DF800005F2800D01CB130789C
S315000063800C28F3DA86E7202F18BF302F3FD132785A
S31500006390002005F111018854F0684FF000090190C2
S315000063A00DE01AF8010B00F021F91BF8011B8142E0
S315000063B00CD0019809F1010900F110010191019930
S315000063C0486820B3D1F800A005F1110B9BF8000036
S315000063D00028E6D19AF800100029EAD1A5F81E9007
S315000063E0F068E98B00EB011200219068A973022284
S315000063F028623170EA73687B002C70722FD02B20D4
S315000064003072C6F80480687B0421707276E7032137
S31500006410284600F0E4F89DF80100002809D0287C01
S3150000642020B1696828468847002028742846FFF767
S3150000643018FF34E79DF8010018B1284600F0E9F886
S31500006440F4E79DF80000232805D1284600F0E1F87E
S315000064500820E87323E7202FFCD00420B3E09DF842
S3150000646000002D2818BF2B2805D10021307271603D
S31500006470687B0321C9E722280AD100210020FEF704
S31500006480A2FF708000280BD000F0A4F80520E0E7FA
S315000064907B28CFD100210020FEF795FF70800028D1
S315000064A000F0908000F096F810207072062125E723
S315000064B044B17068717A0422EA7301FB0088C6F859
S315000064C00480ECE69DF80000782818BF582804D10F
S315000064D0706810B910217172E1E69DF80000742809
S315000064E018BF542803D1706808B90A21F3E70329B5
S315000064F056D0202F18BF302F52D1296A337A087808
S315000065004A7871682D2B08BF4942752808D1342A6C
S315000065101AD00020312A14BF4FF6FF72FF220FE077
S31500006520732808D1312A07BF6FF07F007F222848E1
S3150000653047F6FF7204E00421284600F050F86AE7A7
S315000065408142A8BF8A4208DB0222284600F080F872
S315000065500028F4D00220E8734DE70621ECE79DF809
S31500006560000022281ED10021284600F089F80028C4
S31500006570B2D002206DE79DF800007D280DD170880D
S31500006580FFF740FE04460121284600F079F808B1DD
S315000065900220E873002C9FD102E0202F9CD00CB97A
S315000065A0072010E07088FEF76BFEFF2808BF082062
S315000065B009D001230122694605F12600FEF768FF8E
S315000065C0002889D002208DF800009DF800101FE7F2
S315000065D00080FFFF002105F1260006F003BD027CC6
S315000065E01AB90823C37301745FE07047A0F1410133
S315000065F01A293CBF2030C0B2704738B50C4694F813
S315000066002450FFF7F3FF611948746D1C84F8245079
S3150000661031BD10B50446216A087830B162280CBF36
S3150000662001200220085C2A2807D1216BE28B204634
S3150000663001EB02135968884706E00420616820745C
S3150000664020468847002020742046BDE810402CE0F4
S3150000665010B5837B047BA34204D10521FFF7BFFF5E
S31500006660002010BD846844F82310817B491C817387
S31500006670016A8B5C2A2B1CBF89180162012010BDA0
S3150000668080B5026A1378622B04D00421FFF7A7FFB6
S31500006690002002BDC38C0022C28403F0FF0303EB7B
S315000066A001210122BDE80840D2E70021837B00E0FA
S315000066B0491CCAB29A42FBD3C18C0022827301B133
S315000066C0C284704700000000000000000020202067
S315000066D02020000000000000000000000000000074
S315000066E000000000200030300000000000000030F4
S315000066F000300000404142434445464748490000B7
S3150000670000000000005A5B5C5D5E5F101010101008
S315000067101010101010101010101010101010103053
S3150000672000000000005A5B5C5D5E5F004EF22311C4
S31500006730401A56D0401E69D0401E6AD0401E6BD00B
S31500006740401E6CD0401E6DD0401E6ED0393854D0DD
S31500006750AE386DD0401E6ED0401E6FD0401E70D039
S31500006760401E71D0401E72D00B3873D0401E74D0BC
S31500006770373800F08A80401E00F08A80401E00F004
S315000067808D80401E00F08780401E00F08A80C01F6A
S315000067902DD0113864D04FF4F171401A66D01F38ED
S315000067A022D08B3865D0401E69D0401E6AD0401E6C
S315000067B062D04D3878D0401E79D012381AD040F2C7
S315000067C01661401A1CD040F2EB21401A1BD041F250
S315000067D09D01401A02D00C3845D06BE0DFF8C009A5
S315000067E07047DFF8C0097047DFF8BC097047DFF86B
S315000067F0BC097047DFF8B8097047DFF8B809704779
S31500006800DFF8B4097047DFF8B4097047DFF8B0095C
S315000068107047DFF8B0097047DFF8AC097047DFF85A
S31500006820AC097047DFF8A8097047DFF8A809704778
S315000068304FF480307047DFF8A0097047DFF89C09F5
S315000068407047DFF89C0970474FF481307047DFF8D6
S3150000685094097047DFF890097047DFF89009704790
S31500006860DFF88C097047DFF88C0970474FF48330E6
S315000068707047DFF884097047DFF880097047DFF852
S3150000688080097047DFF87C097047DFF87C0970479C
S31500006890DFF878097047DFF8780970474FF48230DF
S315000068A07047DFF8700970474FF484307047DFF89F
S315000068B0680970474FF6FF707047000010B5DFF8A3
S315000068C05C49207804A1FEF72BFC207806A1BDE8E0
S315000068D01040FEF725BC0000286C6974746C6520B6
S315000068E0656E6469616E00002C20616C6C206461C9
S315000068F0746120726570726573656E74656420617B
S31500006900732062797465206172726179290D0A00BB
S3150000691001460878A0F130030A2B38BF30380AD375
S31500006920A0F14103062B38BF373804D3A0F161022A
S31500006930062A02D25738000100E000204978A1F16A
S3150000694030030A2B02D2401830380EE0A1F1410381
S31500006950062B02D24018373807E0A1F16102062A59
S3150000696039BF401857380006000FC0B27047000004
S3150000697010B506F0C7FB02001AD0042ADFF89C48BF
S31500006980207808BF0FF22C0107D0062A08BF0FF2A5
S31500006990700102D0072A03D12AA1FEF7C1FB03E04A
S315000069A00FF2E801FEF7BCFB20780FF214118EE718
S315000069B010BD000068616C537461636B496E697445
S315000069C0546F6B656E73204641494C454420776988
S315000069D0746820454D4245525F454550524F4D5FC4
S315000069E04D46475F535441434B5F56455253494FBB
S315000069F04E5F4D49534D415443480D0A0000000077
S31500006A0068616C537461636B496E6974546F6B652E
S31500006A106E73204641494C45442077697468204589
S31500006A204D4245525F454550524F4D5F4D46475F7B
S31500006A3056455253494F4E5F4D49534D4154434875
S31500006A400D0A000068616C537461636B496E69746A
S31500006A50546F6B656E73204641494C4544207769F7
S31500006A60746820454D4245525F454550524F4D5F33
S31500006A70535441434B5F56455253494F4E5F4D4920
S31500006A80534D415443480D0A0000000068616C53A1
S31500006A907461636B496E6974546F6B656E732046DF
S31500006AA041494C4544207769746820456D6265729A
S31500006AB05374617475733A2025580D0A000000005E
S31500006AC0546F6B656E7320617265207374696C6CAC
S31500006AD020616374697665207768656E20757369D1
S31500006AE06E672074686973206170706C6963617485
S31500006AF0696F6E2E0D0A00002DE9F84FC0B0806850
S31500006B004FF6FF76DFF814770568FFF7D7FEA8B2D1
S31500006B1006F040FC8246A8B206F02CFD8046A8B2DC
S31500006B2006F0A9FD8346ACB2B24528D100F0BEFB03
S31500006B30034638784FEA04022BA1FEF7F1FA00F07B
S31500006B40B5FB06F000FE8246387852460FF2CC01BD
S31500006B50FEF7E6FA00F0AAFB06F094FE80463878C7
S31500006B604FEA080231A1FEF7DBFA00F09FFB06F0C0
S31500006B7002FF834638785A4630A1FEF7D1FAB8F1BB
S31500006B80000F387814BFB2450FF294612AD04346FD
S31500006B9022460FF27421FEF7C3FA00240FF264298D
S31500006BA0CBA509E01DF800203878494601F0A1FA86
S31500006BB0F0B24045F6DB641CE0B2584510DABBF192
S31500006BC0010F434603D17F2201F02CFA06E0E2B220
S31500006BD001F028FA38782946FEF7A2FA0026E7E7F8
S31500006BE0294638789AE000004D617920626520696F
S31500006BF06E204E564D332043524541544F52203D50
S31500006C00203078253478204E564D334B4559203D5B
S31500006C102030782534780D0A000000004164647243
S31500006C20657373203D202564200D0A0053697A653B
S31500006C30203D202564200D0A00000000417272618B
S31500006C40792073697A65203D202564200D0A0000AD
S31500006C502DE9F84FC0B00546A9684FF6FF760F68D4
S31500006C6000F03AF900F06EF88046B8B206F003FD7F
S31500006C708346B0450DD100F033F906F064FD00F00F
S31500006C802EF906F0FFFD044600F02AF906F073FE21
S31500006C908346DFF888758FA034B905F11101FEF738
S31500006CA0E3FE0FF22C3138E0B04505F1110104D1B5
S31500006CB0FEF7DAFE0FF23C312FE0FEF7D5FE38780C
S31500006CC04FEA040218A1FEF72BFA00250FF2341939
S31500006CD00FF2FC1A09E01DF800203878494601F049
S31500006CE008FAF0B2A042F6DB6D1CE8B2584512DA9B
S31500006CF0BBF1010F234604D17F22414601F093F9EF
S31500006D0007E0EAB2414601F08EF938785146FEF7BF
S31500006D1007FA0026E5E700BF08A13878FEF700FA73
S31500006D2041B0BDE8F08F00007B73697A653A25644F
S31500006D307D7B76616C75653A000000007D7D0D0AED
S31500006D40000000000446B8B206F024BB2DE9F04767
S31500006D50C0B0806807684FF6FF794468FFF7AEFD5C
S31500006D6000F0BAF88046FFF7EEFF00F0BEF80546E1
S31500006D70CA450CD100F0B4F806F0E5FC00F0B2F814
S31500006D8006F080FD00F0ABF806F0F5FD0546B8F11B
S31500006D90000FDFF88864307814BFCA450FF28041CF
S31500006DA02AD0A5F1010915B1E1B2894508DA0FF239
S31500006DB07C41FEF7B5F930784B4600F05FFA1DE0EE
S31500006DC04346BAB210A1FEF7ABF9012D4346514630
S31500006DD008BF7F24E2B201F026F930783CA52946A7
S31500006DE0FEF79EF9002407A701E000F015F8E1B2CE
S31500006DF030784145F9DB2946FEF792F940B0BDE807
S31500006E00F0870000202558005B2532785D28256430
S31500006E1029203D00E1B228781DF801203946641C7E
S31500006E20FEF77EB92DE9F847C1B080684FF6FF75C9
S31500006E300768FFF743FD00F04FF8FFF783FF00F008
S31500006E4054F88146AA450DD100F04AF806F07BFCBD
S31500006E5000F048F806F016FD044600F041F806F08A
S31500006E608AFD8146002CDFF8B47318BFAA4505D108
S31500006E7038780FF2AC31FEF753F928E000250FF20F
S31500006E80E43820E019FB04F304FB056238785B1E46
S31500006E904146FEF745F9387803226946FFF768F858
S31500006EA06846FFF735FD01A98855761CA642E9DB41
S31500006EB0B9F1010F234601AA14BFE9B27F2150465A
S31500006EC006F02EFA6D1C4D45B8BF0026EEDB62E1DA
S31500006ED00D0A00007B264E00B8B206F04BBB80467A
S31500006EE0B8B223E48246B8B220E48246B8B206F0CD
S31500006EF0C2BB00002DE9F84FC2B00646B0684FF697
S31500006F00FF7B41680768C9B2ADF804100846FEF772
S31500006F10B7F90446FFF7E0FF0546FFF714FFFFF752
S31500006F20E4FF8146DA450DD1FFF7DAFF06F00BFCE8
S31500006F30FFF7D8FF06F0A6FC0546FFF7D1FF06F0DF
S31500006F401AFD8146B54F0FF25428280004D100F0EF
S31500006F50B9F800BF1EA134E0DA4503D100F0B2F85B
S31500006F6024A12EE0EA2D05DD00F0ACF85FF0EA0280
S31500006F702AA106E0AC4208D000F0A4F84FEA0502C8
S31500006F8039A13878FEF7CCF81EE00020BDF80410D1
S31500006F9000902B46002202A806F03EF80024E0B23C
S31500006FA048450BDAB9F1010F2B4602AA14BFE1B22C
S31500006FB07F21504606F0B4F9641CF0E700F082F831
S31500006FC03CA13878FEF7ACF843B0BDE8F08F00007E
S31500006FD07B72657475726E3A317D7B746F6B656E0C
S31500006FE02073697A65206973207A65726F7D7D0DDD
S31500006FF00A0000007B72657475726E3A317D7B699A
S315000070006E76616C696420746F6B656E2061646472
S31500007010726573737D7D0D0A000000007B726574D6
S3150000702075726E3A317D7B6F6E6C7920746F6B650D
S315000070306E73206F662073697A6520757020746F91
S31500007040202564422061726520737570706F7274BA
S315000070506564206279207468697320636F6D6D6161
S315000070606E647D7D0D0A00007B72657475726E3AE2
S31500007070317D7B74686520656E7465726564206217
S31500007080756666657220646F6573206E6F74206D19
S3150000709061746368207468697320746F6B656E270A
S315000070A0732073697A652028256442297D7D0D0A3F
S315000070B0000000007B72657475726E3A307D7D0D3E
S315000070C00A00000006F111014046FEF7CDBC0000A3
S315000070D02DE9F847C1B0806805684FF6FF77466826
S315000070E0FFF7ECFBA8B206F045FA0446A8B206F094
S315000070F051F98246A8B206F0BEFA8146BA450ED1CB
S3150000710000F0D4F806F01FFB824600F0CFF806F038
S31500007110B9FB044600F0CAF806F02DFC8146002CA7
S315000071203E4D287818BFBA4504D100BF3CA1FDF7F3
S31500007130F7FF30E0A9F10107B9F1000F02D0F1B273
S315000071408F4207DA39A1FDF7EBFF28783B4600F0BE
S3150000715095F820E000270FF20C1810E02878631E3F
S315000071603A464146FDF7DCFF287803226946FEF7DA
S31500007170FFFE6846FFF7CCFB01A9C8557F1CA74256
S31500007180ECDBB9F1010F234601AA08BF7F26F1B255
S31500007190504606F0C5F842B0BDE8F0877B264E00A3
S315000071A001FF010023E1010075E4010063E2010033
S315000071B063E5010062E1010079EB010064EE010084
S315000071C024E1010025E1010026E1010027E101009B
S315000071D028E1010029E10100800001000001010011
S315000071E0800101008002010020E20100000301008D
S315000071F0000501008005010080060100000701006E
S3150000720001E5010002E5010058E2010080030100EA
S31500007210800401008007010080080100346301201A
S315000072206E6F7420666F756E640D0A004552524F7C
S31500007230523A204465736972656420696E646578A4
S31500007240206973206F7574206F662072616E6765A2
S3150000725020666F72207468697320746F6B656E0D9B
S315000072600A0000006461746120627974655B2564BC
S31500007270206F662025645D3A000000005FF0000282
S3150000728001A1FDF74DBF0000202020202020205620
S31500007290616C69642072616E676520697320255888
S315000072A020746872752025580D0A0000A8B2FFF7F1
S315000072B03DBA00002DE9F043DFF8305CA5B0FFF7DA
S315000072C0FDFA2878DFF8289C4EF2455200F0B4FE0D
S315000072D02878DFF8201C0024FEF75DFEDFF8180C86
S315000072E00188082300F0A4FEDEA7FFF793FDE0B2B5
S315000072F00828FAD328780FF2703800F0ACFE287808
S315000073004EF2453200F098FE2878DFF8F01B002494
S31500007310FEF741FEDFF8E80B0188082300F088FE3F
S31500007320FFF778FDE0B20828FAD300F08EFE287841
S315000073304CF2563200F080FE2878DFF8C81BFEF7C4
S315000073402AFEDFF8C40B00F071FE00F078FE9DF80F
S31500007350012000F076FE641EF3D100F07BFE287853
S315000073604EF6735200F068FE28780FF6AC31FEF741
S3150000737012FEDFF8980B0188102300F059FEFFF784
S3150000738049FDE0B21028FAD300F068FE28784CF2E6
S315000073904E2200F051FE28780FF68831FEF7FBFDED
S315000073A0DFF86C0B0188102300F042FEFFF732FD78
S315000073B0E0B21028FAD300F048FE28784CF64412C2
S315000073C000F03AFE28780FF66C31FEF7E4FDDFF8A0
S315000073D0440B00F02BFE00F032FE9DF8012000F079
S315000073E030FE641EF3D100F030FE28784DF24302E1
S315000073F000F022FE28780FF64C31FEF7CCFDDFF8C0
S31500007400680C00F013FE00F01AFE9DF8012000F053
S3150000741018FE641EF3D100F01DFE28784CF24312CC
S3150000742000F00AFE28780FF62C31FEF7B4FDDFF8DF
S315000074303C0C01880223E2B200F0F5FD9DF8002025
S315000074402878FFF7EBFC9DF8012000F0FAFD60B20A
S315000074501428ECDB00F0F9FD28784DF2463200F0F6
S31500007460EBFD28780FF6FC21FEF795FDDFF8000C02
S3150000747000F0DCFD00F0E3FD9DF8012000F0E1FDE9
S31500007480641EF3D100F0E1FD28784CF2433200F09F
S31500007490D3FD28780FF6E421FEF77DFDDFF8D40B47
S315000074A000F0C4FD00F0CBFD9DF8012000F0C9FD01
S315000074B0641EF3D100F0CEFD28784CF6535200F04E
S315000074C0BBFD28780FF6C821FEF765FDDFF8A80B8F
S315000074D00188082300F0ACFDFFF79CFCE0B2082809
S315000074E0FAD300F0B2FD28784DF6540200F0A4FD60
S315000074F028780FF6B021FEF74EFDDFF8800B00F07E
S3150000750095FD00F09CFD9DF8012000F09AFD641E9B
S31500007510F3D100F09FFD28784DF6432200F08CFD54
S3150000752028780FF68C21FEF736FDDFF8540B01881C
S31500007530012300F07DFD00F082FD00F08BFD287830
S315000075404DF6482200F078FD28780FF67C21FEF7EC
S3150000755022FDDFF8300B0188012300F069FD00F001
S315000075606EFD00F077FD28784DF6522200F064FD9E
S3150000757028780FF66C21FEF70EFDDFF80C0B01885C
S31500007580102300F055FDFFF745FCE0B21028FAD3B2
S3150000759000F064FD28784DF24E3200F04DFD28785B
S315000075A00FF65C21FEF7F7FCDFF8E00A01881023EE
S315000075B000F03EFDFFF72EFCE0B21028FAD300F0F3
S315000075C044FD28784CF6544200F036FD28780FF634
S315000075D04421FEF7E0FCDFF8B80A0188012300F039
S315000075E027FD00F02CFD00F035FD28784CF25432D2
S315000075F000F022FD28780FF60031FEF7CCFCDFF80C
S31500007600940A00F013FD00F01AFD9DF8012000F029
S3150000761018FD641EF3D100F01DFD28784DF25702C7
S3150000762000F00AFD28780FF6DC21FEF7B4FCDFF83F
S31500007630680A0188102300F0FBFCFFF7EBFBE0B2C1
S315000076401028FAD300F00AFD28784CF2573200F0E1
S31500007650F3FC28780FF6C021FEF79DFCDFF83C0A04
S3150000766004E000BF202558000D0A0000018804230D
S3150000767000F0DEFCFFF7CEFBE0B20428FAD300F000
S31500007680EDFC28784CF6575200F0D6FC28780FF619
S315000076909C21FEF780FCDFF8080A0188042300F02D
S315000076A0C7FCFFF7B7FBE0B20428FAD300F0D6FC1C
S315000076B028784DF2575200F0BFFC28780FF680214B
S315000076C0FEF769FCDFF8DC090188042300F0B0FC52
S315000076D0FFF7A0FBE0B20428FAD300F0BFFC28783D
S315000076E04CF2574200F0A8FC28780FF66821FEF706
S315000076F052FCDFF8B4090188042300F099FCFFF777
S3150000770089FBE0B20428FAD300F0A8FC28784CF2F2
S31500007710423200F091FC28780FF64C21FEF73BFC34
S31500007720DFF8880901885C2300F082FCFFF772FB12
S31500007730E0B25C28FAD300F088FC28784DF2433298
S3150000774000F07AFC28780FF63021FEF724FCDFF8EB
S31500007750600900F06BFC00F072FC9DF8012000F05F
S3150000776070FC641EF3D100F075FC28784CF64312C9
S3150000777000F062FC28780FF61421FEF70CFCDFF807
S3150000778034090188142300F053FCFFF743FBE0B2F1
S315000077901428FAD300F062FC28784DF2423200F049
S315000077A04BFC28780FF6FC11FEF7F5FBDFF808090D
S315000077B00188102300F03CFCFFF72CFBE0B21028F8
S315000077C0FAD300F04BFC28784CF2453200F034FC3A
S315000077D028780FF6EC11FEF7DEFBDFF8E0080188EB
S315000077E0942300F025FCFFF715FBE0B29428FAD3AA
S315000077F000F034FC28784CF24B2200F01DFC28786F
S315000078000FF6D011FEF7C7FBDFF8B4080188102386
S3150000781000F00EFCFFF7FEFAE0B21028FAD300F0F3
S315000078201DFC28784DF2583200F006FC28780FF639
S31500007830BC11FEF7B0FBDFF88C080188202300F0AE
S31500007840F7FBFFF7E7FAE0B22028FAD300F006FCD0
S3150000785028784DF2593200F0EFFB28780FF6A81180
S31500007860FEF799FBDFF860080188202300F0E0FBB3
S31500007870FFF7D0FAE0B22028FAD300F0EFFB287821
S315000078804CF64B2200F0D8FB28780FF69811FEF73D
S3150000789082FBDFF838080188222300F0C9FBFFF7D6
S315000078A0B9FAE0B22228FAD300F0D8FB28784CF6D1
S315000078B04B6200F0C1FB28780FF67C11FEF76BFBDC
S315000078C0DFF80C080188102300F0B2FBFFF7A2FADC
S315000078D0E0B21028FAD300F0C1FB28784DF650220A
S315000078E000F0AAFB28780FF66411FEF754FBDFF8C8
S315000078F0E4070188202300F09BFBFFF78BFAE0B238
S315000079002028FAD300F0AAFB28784DF6552200F07D
S3150000791093FB28780FF64011FEF73DFBDFF8B8071A
S315000079200188202300F084FBFFF774FAE0B22028D8
S31500007930FAD300F093FB28784DF6512200F07CFB39
S3150000794028780FF62011FEF726FBDFF8900701884E
S315000079505A2300F06DFBFFF75DFAE0B25A28FAD31E
S3150000796000F07CFB28784DF6492200F065FB28786C
S315000079700FF60011FEF70FFBDFF8640701880123FD
S3150000798000F056FB00F05BFB00F064FB28784BF23E
S31500007990346200F051FB28780FF6EC01FEF7FBFA93
S315000079A0DFF840070188082300F042FBFFF732FAB0
S315000079B0E0B20828FAD300F048FB28784FF60172A7
S315000079C000F03AFB28780FF6CC01FEF7E4FA022322
S315000079D07F22002100F027FB00F031FB9DF80120FB
S315000079E000F02FFB641EF2D100F034FB28784EF233
S315000079F0231200F021FB28780FF6B001FEF7CBFA30
S31500007A0004237F22012100F00EFBFFF703FAE0B208
S31500007A100428FAD300F022FB28784EF2754200F0D3
S31500007A200BFB28780FF69C01FEF7B5FA11237F228F
S31500007A30022100F0F8FAFFF7EDF9E0B21028FAD9C2
S31500007A4000F00CFB28784EF2632200F0F5FA287855
S31500007A500FF68401FEF79FFA04237F22032100F02C
S31500007A60E2FAFFF7D7F9E0B20428FAD300F0F6FA03
S31500007A7028784EF2635200F0DFFA28780FF66C0190
S31500007A80FEF789FA04237F22042100F0CCFAFFF7DF
S31500007A90C1F9E0B20428FAD300F0D7FA28784EF2FA
S31500007AA0621200F0C9FA28780FF65401FEF773FA4D
S31500007AB002237F22052100F0B6FA00F0C0FA9DF8F5
S31500007AC0012000F0BEFA641EF2D100F0C3FA287855
S31500007AD04EF6793200F0B0FA28780FF63C01FEF740
S31500007AE05AFA11237F22062100F09DFAFFF792F938
S31500007AF0E0B21028FAD900F0B1FA28784EF664629E
S31500007B0000F09AFA28780FF61C01FEF744FA1023C3
S31500007B107F22072100F087FAFFF77CF9E0B21028F0
S31500007B20FAD300F09BFA28784EF2241200F084FA79
S31500007B3028780FF60001FEF72EFA1A237F22082175
S31500007B4000F071FAFFF766F9E0B21A28FAD300F0EE
S31500007B5085FA28784EF2251200F06EFA28780FF290
S31500007B60E871FEF718FA08237F22092100F05BFA74
S31500007B70FFF750F9E0B20828FAD300F06FFA287838
S31500007B804EF2261200F058FA28780FF2D871FEF756
S31500007B9002FA0A237F220A2100F045FAFFF73AF992
S31500007BA0E0B20A28FAD300F050FA28784EF22712EB
S31500007BB000F042FA28780FF2C071FEF7ECF90223C2
S31500007BC07F220B2100F02FFA00F039FA9DF80120F0
S31500007BD000F037FA641EF2D100F03CFA28784EF233
S31500007BE0281200F029FA28780FF2AC71FEF7D3F9C3
S31500007BF018237F220C2100F016FAFFF70BF9E0B2EA
S31500007C001828FAD300F02AFA28784EF2291200F042
S31500007C1013FA28780FF29C71FEF7BDF901237F2233
S31500007C200D2100F000FA00F00AFA00F013FA2878A5
S31500007C304EF2102200F000FA28780FF29071FEF74B
S31500007C40AAF900F007FA28784EF2112200F0F4F9AA
S31500007C5028780FF29471FEF79EF900F0FBF9287868
S31500007C604EF2122200F0E8F928780FF29C71FEF726
S31500007C7092F900F0EFF928784EF2132200F0DCF9C1
S31500007C8028780FF2A871FEF786F900F0E3F9287854
S31500007C904EF2142200F0D0F928780FF2B471FEF7F4
S31500007CA07AF900F0D7F928784EF2152200F0C4F9D7
S31500007CB028780FF2C471FEF76EF900F0CBF9287838
S31500007CC04EF2202200F0B8F928780FF2CC71FEF7B8
S31500007CD062F904237F22142100F0A5F9FFF79AF830
S31500007CE0E0B20428FAD300F0B9F928784EF221223E
S31500007CF000F0A2F928780FF2C471FEF74CF900F0F3
S31500007D00A9F928784EF2742200F096F928780FF235
S31500007D10D871FEF740F900F09DF928784FF60D72FC
S31500007D2000F08AF928780FF2D471FEF734F90B23A4
S31500007D30E2B2172100F077F9002600F0D5F9F0B28B
S31500007D400A28FAD9641C61B20529F0DD00F086F92B
S31500007D5028784EF2564200F06FF928780FF2B0718B
S31500007D60FEF719F900F076F928784FF4654200F02D
S31500007D7063F928780FF2A871FEF70DF900F06AF999
S31500007D8028784EF2035200F057F928780FF2A871BE
S31500007D90FEF701F90123E2B21A2100F044F99DF839
S31500007DA000202878FFF73AF860B20528F2DD00F0E7
S31500007DB055F928784EF2015200F03EF928780FF274
S31500007DC09471FEF7E8F810237F221B2100F02BF9AF
S31500007DD0FFF720F8E0B21028FAD300F03FF9287830
S31500007DE04EF2025200F028F928780FF27871FEF769
S31500007DF0D2F828237F221C2100F015F9FFF70AF894
S31500007E00E0B22828FAD300F029F928784EF2582251
S31500007E1000F012F928780FF26071FEF7BCF8122311
S31500007E207F221D2100F0FFF8FEF7F4FFE0B21128D3
S31500007E30FAD900F013F928784EF2592200F0FCF82E
S31500007E4028780FF24471FEF7A6F83423E2B21E2119
S31500007E5000F0E9F8002600F047F9F0B23428FAD32A
S31500007E60641C61B20529F0DB00F0F4F828784EF2C4
S31500007E705B2200F0E1F828780FF22471FEF78BF808
S31500007E8000F0E8F828784EF25A2200F0D5F8287863
S31500007E900FF22471FEF77FF800F0DCF828784EF236
S31500007EA05C2200F0C9F828780FF22071FEF773F80B
S31500007EB000F0D0F828784EF2505200F0BDF828783D
S31500007EC00FF22871FEF767F800F0C4F828784EF232
S31500007ED0515200F0B1F828780FF22C71FEF75BF8DA
S31500007EE000F0B8F825B0BDE8F08300003463012047
S31500007EF054F401005CF40100FC1F020070F4010060
S31500007F00FE1F020084F4010000200200022002008D
S31500007F1004200200062002004D46475F5354524992
S31500007F204E4700004D46475F424F4152445F4E4127
S31500007F304D4500004D46475F4D414E55465F49440D
S31500007F40000000004D46475F5048595F434F4E467C
S31500007F50494700004D46475F4153485F434F4E46F1
S31500007F60494700004D46475F53594E54485F4652B5
S31500007F7045515F4F46465345540000004D46475F06
S31500007F804343415F5448524553484F4C4400000018
S31500007F904D46475F455A53505F53544F52414745EC
S31500007FA0000000004D46475F584F5F54554E450050
S31500007FB04D46475F5A574156455F434F554E5452BB
S31500007FC0595F4652455100004D46475F5A57415644
S31500007FD0455F48575F56455253494F4E00000000D3
S31500007FE04D46475F5A574156455F50534555444F96
S31500007FF05F52414E444F4D5F4E554D424552000033
S315000080004D46475F53455249414C5F4E554D42459B
S31500008010520000004D46475F4C46584F5F54554E40
S31500008020450000005146684605F049B9018802231B
S315000080307F22684605F043B94946FDF771B89DF8B9
S31500008040002028783946FDF76BB828784146012488
S31500008050FDF766B828784146FDF762B828784146AC
S315000080600024FDF75DB80000082002000A20020087
S315000080700C2002000E200200102002001220020036
S315000080801420020016200200182002001A20020006
S315000080901C2002001E2002002020020022200200D6
S315000080A02420020026200200282002002A200200A6
S315000080B02C2002002E200200302002003220020076
S315000080C03420020036200200382002003A20020046
S315000080D03C2002003E200200402002004220020016
S315000080E04420020046200200F1B228781DF8012043
S315000080F03946761CFDF714B84D46475F4354554E36
S31500008100450000004D46475F4C4F434B4249545390
S315000081105F504C57000000004D46475F4C4F434BA5
S31500008120424954535F434C57300000004D46475F69
S315000081304C4F434B424954535F4D4C57000000008F
S315000081404D46475F4C4F434B424954535F554C573E
S31500008150000000004D46475F4C4F434B4249545385
S315000081605F444C57000000004D46475F43424B4575
S315000081705F444154410000004D46475F5345435517
S31500008180524954595F434F4E464947004D46475F53
S31500008190494E5354414C4C4154494F4E5F434F4412
S315000081A0450000004D46475F5345435552455F42E3
S315000081B04F4F544C4F414445525F4B4559000000C8
S315000081C04D46475F43424B455F3238334B315F4440
S315000081D0415441004D46475F424F4F544C4F414436
S315000081E05F4145535F4B4559000000004D46475FD0
S315000081F05349474E45445F424F4F544C4F414445C7
S31500008200525F4B45595F58004D46475F5349474EAD
S3150000821045445F424F4F544C4F414445525F4B4596
S31500008220595F59004D46475F5448524541445F4A9D
S315000082304F494E5F4B4559004D46475F4E564D33AD
S315000082405F43525950544F5F4B4559004D46475F67
S315000082505A575F50524B00004D46475F5A575F5082
S31500008260554B00004D46475F5A575F51525F434F8B
S31500008270444500004D46475F5A575F494E495449A9
S31500008280414C495A454400004D46475F4555495FB4
S3150000829036340000535441434B5F4E5644415441DB
S315000082A05F56455253494F4E000000005354414318
S315000082B04B5F4150535F4652414D455F434F554ECC
S315000082C054455200535441434B5F414C5445524E22
S315000082D04154455F4B455900535441434B5F424F10
S315000082E04F545F434F554E5445520000535441433B
S315000082F04B5F4E4F4E43455F434F554E54455200DC
S31500008300535441434B5F414E414C595349535F527D
S3150000831045424F4F54000000535441434B5F4B4579
S3150000832059530000535441434B5F4E4F44455F44FD
S3150000833041544100535441434B5F54525553545F8B
S3150000834043454E5445520000535441434B5F4E45FE
S3150000835054574F524B5F4D414E4147454D454E5444
S3150000836000000000535441434B5F504152454E5468
S315000083705F494E464F000000535441434B5F504106
S3150000838052454E545F4144444954494F4E414C5F17
S31500008390494E464F00000000535441434B5F4D5534
S315000083A04C54495F5048595F4E574B5F494E464FB4
S315000083B000000000535441434B5F4D494E5F524508
S315000083C04345495645445F52535349004D554C5415
S315000083D0495F4E4554574F524B5F535441434B5F91
S315000083E04B455953000000004D554C54495F4E45CE
S315000083F054574F524B5F535441434B5F4E4F444586
S315000084005F444154410000004D554C54495F4E4570
S3150000841054574F524B5F535441434B5F414C544565
S31500008420524E4154455F4B45590000004D554C5442
S31500008430495F4E4554574F524B5F535441434B5F30
S3150000844054525553545F43454E5445520000000064
S315000084504D554C54495F4E4554574F524B5F5354FC
S3150000846041434B5F4E4554574F524B5F4D414E4132
S3150000847047454D454E5400004D554C54495F4E45B9
S3150000848054574F524B5F535441434B5F50415245F3
S315000084904E545F494E464F004D554C54495F4E452C
S315000084A054574F524B5F535441434B5F4E4F4E43CD
S315000084B0455F434F554E5445520000004D554C54B0
S315000084C0495F4E4554574F524B5F535441434B5FA0
S315000084D0504152454E545F4144444954494F4E41E0
S315000084E04C5F494E464F0000535441434B5F42494F
S315000084F04E44494E475F5441424C45005354414314
S315000085004B5F4348494C445F5441424C4500000090
S31500008510535441434B5F4B45595F5441424C4500D0
S31500008520535441434B5F4345525449464943415492
S31500008530455F5441424C4500535441434B5F4144CF
S31500008540444954494F4E414C5F4348494C445F446B
S3150000855041544100535441434B5F5A4C4C5F444194
S3150000856054410000535441434B5F5A4C4C5F5345B2
S315000085704355524954590000535441434B5F4750A9
S315000085805F44415441000000535441434B5F475000
S315000085905F50524F58595F5441424C45000000000D
S315000085A0535441434B5F47505F494E434F4D494EED
S315000085B0475F464300000000535441434B5F47501A
S315000085C05F53494E4B5F5441424C4500535441431F
S315000085D04B5F47505F494E434F4D494E475F4643B9
S315000085E05F494E5F53494E4B000000004D554C54B9
S315000085F0495F50414E5F535441434B5F4348494C9A
S31500008600445F5441424C45004D554C54495F5041DE
S315000086104E5F535441434B5F4144444954494F4E86
S31500008620414C5F4348494C445F444154410000007B
S3150000863010B540F2A17405F07DFAC440E0070BD5F1
S31500008640064C207805F094FA207805F039FB20785E
S31500008650BDE8104005F004BC10BD00BF3463012026
S315000086605FF02A010AA0FDF7C7BC000010B501F0B3
S31500008670B7FB044601F0AAFB0246044800782346ED
S3150000868007A1BDE81040FCF74BBD00003463012094
S3150000869072657365742D746573742E630000000033
S315000086A052455345543A25702D25700D0A00000099
S315000086B010B50446002002F0F8F9002002F00DFA89
S315000086C005F0FAFE012002F061F9204606F094F961
S315000086D02046BDE8104000F091BF80B5022100F0B1
S315000086E02FF9009806F0DAFA01BD8068DFF8C014A9
S315000086F002680A7008780228A8BF0FF2FC4305DA60
S31500008700002814BF0FF2FC430FF20053DFF8A41445
S31500008710D1F810130FF2D0420FF2C040FDF7A4B902
S31500008720F8B502F092F8DFF8904404EB8000C368D5
S31500008730DFF88004D0F850130FF264520FF2445061
S31500008740FDF792F9DFF87404006806F0ECFA0546C6
S31500008750052814D8DFE800F003100E090C060FF206
S31500008760F8420EE00FF2E4420BE00FF2D44208E0CA
S3150000877079A206E079A204E00FF2BC4201E00FF212
S31500008780E4420FF2F8410FF2EC40FDF76DF90026D6
S315000087900FF2D847F0B254F8201005F0010238461F
S315000087A0FDF762F9761C6D08F0B20228F2D96CA0CA
S315000087B0BDE8F240FDF758B938B50446A068DFF8C1
S315000087C0F423D2F8601305680FF2E040FDF74CF988
S315000087D0EDB215B1012D07D00CE00FF2D840FDF730
S315000087E043F901F061FF05E00FF2DC40FDF73CF9CB
S315000087F002F029F80FF2E040FDF736F92046BDE811
S3150000880032408DE7F8B507460D4684B0284601F09C
S31500008810EDFB0446284601F09AFD06460FF2345257
S315000088203CB92B4607F111010FF21050FDF71CF968
S3150000883010E00FF25450029005F01F000FF2405165
S315000088400190009103942B4607F111010FF20C5091
S31500008850FDF70AF90FF2B444AE4205D032460FF2E4
S3150000886030512046FDF700F9284601F057FD0FF27A
S3150000887070430FF2744110F1010F02D10FF27042F2
S3150000888002E018B90FF2704218460BE0DFF8302309
S31500008890B0FBF2F2DFF8281301FB120129B90FF23F
S315000088A074412046FDF7E0F813E0DFF8182313784B
S315000088B04FF47A74B0FBF4F2214601FB1201002951
S315000088C00EBF0FF2584102460FF260411846FCF700
S315000088D027FC05B022A0BDE8F040FDF7C5B810B5ED
S315000088E0044601F0DDFC01462046BDE8104089E75C
S315000088F038B5054601F0A9FF0400DFF8B802D0F844
S31500008900301318BF01240FF29040FDF7ADF801F0C7
S315000089109AFFA8680068C0B201F0CAFB02460FF2CF
S3150000892010310FF2A840FDF79FF80CB101F0BCFE24
S3150000893001F0B6FC01462846BDE8344062E7012155
S31500008940684601F0B0BA10B5044602F06CF900F0C2
S3150000895001F993A238E10000547800005278000033
S315000089607D0D0A002DE9F84F84B007460C461546E2
S315000089701E4601F06AFF010018BF01218DF80310A1
S3150000898001F087FF8DF80200002D16D10125022087
S3150000899001F082FF642004F0FCF801F081FC8DF800
S315000089A000000397029664B99DF80060012000213B
S315000089B006F01F0400FA04F409E0E8D56D42002031
S315000089C0E6E7E00E4601F6B224F078440121019173
S315000089D015E0039833464A4600F111010FF2244090
S315000089E0FDF742F804E0FDF73FF86EA0FDF73CF80E
S315000089F09DF8010001218140641A761CF6B2002C14
S31500008A0069D006F01F008DF8010024FA00F2D007A5
S31500008A10F3D501F045FC0FF26839864204D03046A2
S31500008A2001F046FB0028D4D14FF07F0A6FF07F0893
S31500008A300027AB460DE0802004F0ABF802F026F8E4
S31500008A40C7198045ABF1010BB8BF80465045B8BF8A
S31500008A508246BBF1000FEEDC9DF8400097FBF5F770
S31500008A6058B1504601F096FC824678B201F092FC6D
S31500008A700746404601F08EFC8046039800F111013E
S31500008A8049A0FCF7F1FF019828B1324649460FF29A
S31500008A90DC10FCF7E9FF02980FF2443920B10146D9
S31500008AA052464846FCF7E0FF0E9820B101463AB21E
S31500008AB04846FCF7D9FF0F9820B101464246484682
S31500008AC0FCF7D2FF9DF84000002814BF0FF21830C3
S31500008AD00FF2283087E79DF80000864218BF01F0A4
S31500008AE0E7FA9DF8020001F0D7FE9DF8030020B1D9
S31500008AF005B0BDE8F04F01F0D7BD05B0BDE8F08F79
S31500008B00E0B500210291019100910FF21833012284
S31500008B1008E0E0B50121002202910192009223A310
S31500008B2001220021FFF71EFF07BD3EB5847B002111
S31500008B308368022C1A680FF204340FF2F825A8BFD6
S31500008B40596800230293019400950FF2E023FFF782
S31500008B5009FF37BD034604F11101704780B502F0E5
S31500008B60D9F803461348D0F8B0130FF2E8220FF2F3
S31500008B70D420BDE80050FCF777BF0E4A10B5D2F8F6
S31500008B80C01304460FF2DC20FCF76EFFA0680168F4
S31500008B9048B202F08FF82046BDE81040DEE700003C
S31500008BA0434341007D0D0A007B264E0045440000EC
S31500008BB0F667012088ED01006C6301202069012021
S31500008BC040420F003463012082A0BDE81040FCF74C
S31500008BD04BBF81680968C9B214E600007B264E20A7
S31500008BE02674737D0D0A0000504552205465737437
S31500008BF0204D6F6465000000656E61626C65642DD2
S31500008C006E657700656E61626C65640064697361A8
S31500008C10626C65640000000061736C65657000003D
S31500008C206177616B65000000656E657267790000AB
S31500008C30737461747573000049646C65000000000C
S31500008C405278416374697665000000005478416388
S31500008C507469766500000000496E61637469766523
S31500008C6000000000556E6B6E6F776E0020267468EC
S31500008C700000000020267473000000005266537442
S31500008C80617465007B264E20526164696F20706FA7
S31500008C907765722073746174652026747300000012
S31500008CA0706F776572207374617465007B264E2041
S31500008CB000000000536C656570696E672072616420
S31500008CC0696F2E2E2E00000057616B696E67207249
S31500008CD06164696F2E2E2E00646F6E657D0D0A002D
S31500008CE020267470000000006672657100000000A6
S31500008CF0696C6C6567616C0050657252616D52619A
S31500008D0064696F436F6E666967000000202674759C
S31500008D1000000000667265714D487A00207B66721D
S31500008D2065714B487A3A256C7D000000207B66729F
S31500008D306571487A3A256C7D000000007B264E203E
S31500008D40526164696F206368616E6E656C2026747B
S31500008D50680000006368616E6E656C007B264E20BD
S31500008D60526164696F206368616E6E656C2026745B
S31500008D7068202826746420696E2026746429000001
S31500008D806368616E000000007061676500000000A6
S31500008D905074694368616E007B264E205365747477
S31500008DA0696E67206368616E6E656C20616E642013
S31500008DB063616C6962726174696E672028617320F1
S31500008DC06E6565646564292E2E2E00002674687D06
S31500008DD00D0A00007B264E202674647D0D0A0000D5
S31500008DE02026746400000000205B3830322E3135B6
S31500008DF02E3420756E6974735D000000205B64423A
S31500008E006D5D00007B264E20267468205B696E76B9
S31500008E10616C6964206368616E6E656C5D7D0D0AC8
S31500008E200000000052535349000000006D696E5265
S31500008E305353490061766752535349006D61785226
S31500008E40535349007B264E202674642064426D7D70
S31500008E500D0A0000434341205468726573686F6CC5
S31500008E60640000007B264E7D0D0A000080B50020C0
S31500008E7002F0F7F8BDE8014005F034BE10B5DFF8A2
S31500008E801441607DDFF8103101221871E0694FF45A
S31500008E907A7105F0FEFF01001CBF0121217510BD8E
S31500008EA0DFF8F010C861887DDFF8EC104871E5E75F
S31500008EB070B58EB00C460CA805F0E2FF054606F02C
S31500008EC017F8064605F0D8FFBDF836100FF24C022B
S31500008ED00A920B91BDF834100FF2480208920991DC
S31500008EE0BDF83210BDF830300FF2400207910692FD
S31500008EF005930FF2400103950FF24002049102928E
S31500008F000FF24005034601960095DFF890202146B2
S31500008F100FF23800FCF7A8FD0EB070BD73757370C4
S31500008F200000000063726974000000006C696D69DE
S31500008F300000000074616C6B0000000075736564CE
S31500008F4000000000616363656C0000007B264E2014
S31500008F502674752026743268202674642F313030CA
S31500008F6025250D0A20202674642F31303025252032
S31500008F702674642F3130302525202674642F313035
S31500008F80302525202674642F31303025257D0D0AA5
S31500008F900000000088630120046E0120A08F0000FD
S31500008FA06D6F6465000000002DE9F04706468846AF
S31500008FB0924605F08EFFDFF8CC74F8700409387815
S31500008FC018BF641E28B1386B07EB8000416A491C44
S31500008FD04162BE700FF24419DFF8B8558C2E43D0AB
S31500008FE001F044FC66B1402E22D0882E18BF892E8F
S31500008FF04DD08C2E38D08D2E34D08F2E0CD03BE019
S315000090003869396A401C386164183C62287D00283A
S315000090103DD040F23A5137E0B869396A401CB86130
S3150000902064183C62287D002831D040F23F512BE085
S31500009030F869396A401CF861387864183C6260B196
S3150000904005F06CFF032806D1786B401C7863386BFB
S3150000905080F00100386305F063FF287DB8B140F267
S315000090604B5111E005F032FF7869401C7861287D8C
S3150000907068B140F2525107E04FEA06022DA10120E5
S31500009080FCF793FF40F263514846FCF7B5FF87F8BB
S3150000909001A0C7F83C80402E19D13879012811DD8E
S315000090A0411E38893971C9B2401C38812A2005F021
S315000090B047FFE86900224FF47A7105F0EAFE06469A
S315000090C028B929E000212A2005F03AFF03E0002E06
S315000090D018BF8F2E1ED0787901281BDD7989401E96
S315000090E07871491C7981DFF85805017801290ADD74
S315000090F0E969DFF85005814205D10278082A02DDC8
S31500009100C178491CC170688B03F043FDBDE8F04788
S31500009110FFF7B4BE01202875BDE8F0877068792D89
S31500009120636F6D6D6F6E2D74782D746573742E6319
S3150000913000000000656D626572526164696F547269
S31500009140616E736D6974436F6D706C657465497398
S315000091507243616C6C6261636B20737461747573C6
S315000091603A2030782578000080B501F09DF8034656
S31500009170DFF8D804D0F8A01408E0000080B501F0AC
S31500009180A6F80346DFF8C404D0F8C0140FF20C02A8
S3150000919005A0BDE80050FCF767BC0000616374756C
S315000091A0616C506F776572007B264E20267464646E
S315000091B0426D7D003EB50446A1680D6868B201F0B7
S315000091C082F800F028F8D0F8B0146BB200F01DF861
S315000091D01FA0FCF749FC2046BDE83E40C4E700005E
S315000091E03EB50446A1680D6828B201F075F800F096
S315000091F012F8D0F8D0142BB200F007F814A0FCF740
S3150000920033FC2046BDE83E40B8E70FF288420FF235
S315000092107440FCF729BC01900FF260410091DFF821
S315000092202C047047E0B5DFF814140B8B0FF2A04244
S31500009230009200F1110101930FF27C420FF264409B
S3150000924038E18168DFF8F4330A681A83EAE7000038
S315000092500D0A00002DE9F14F84B081684FF0010A34
S315000092600A88511E8941C90F0192029101F0EDFA57
S3150000927000B101208DF80100824D68694FF0000BA6
S31500009280D846ADF802000198DFF80863774F012849
S3150000929011D000F006F90299387821B10FF2504149
S315000092A0FBF73EFF03E0019A77A1FBF739FF00F0D9
S315000092B0F2F800F0EBF8DFF88C43DFF894938022A5
S315000092C049462046FCF702FCDFF8740301780129C1
S315000092D0C4BF2078082819DD99F80110D04601F09E
S315000092E0200141F0C10161701821A1702118029876
S315000092F018B101F805BC002004E0019801F8050C3E
S31500009300019800122178611801F8040CD94661E031
S3150000931000208DF8000000F0B0F800F0C7F85FD02C
S315000093209DF800103878642906D100F0A1F8049859
S3150000933000F11101002007E0442907D100F098F858
S31500009340049800F111010120FFF7B2FD09F10100B7
S315000093501FFA80F9DFF8FC12087820B100F0B2FDA0
S3150000936008B105F0F3FD308B03F013FCDFF8D012E3
S315000093700878A0B1B8F1000F18BF84F803A02078D0
S3150000938003280CDD201800F803AC21784FEA2A20C8
S31500009390611801F8020C0AF101001FFA80FA002098
S315000093A030750121A9702046FFF77AFD8346B8B9CA
S315000093B003F07EFC8346307D50B9FFF757FD03F07E
S315000093C077FCA0EB0B0080B240F2D1718842F2D359
S315000093D095F802B0029800289AD10198814597DB4A
S315000093E0387800F045F8707B40B1AA8ABDF80200D3
S315000093F00FF23C31121A3878FBF792FE38785A464B
S315000094000FF25031FBF78CFEDFF84C0202883878F9
S315000094100FF25C31FBF784FE38780FF27431FBF7FC
S315000094207FFE69783878002914BF0FF280310FF279
S315000094308431FBF775FE01F029FC28B1AA6B387858
S315000094400FF27831FBF76CFEEA6B38780FF2983141
S31500009450FBF766FE642003F09CFB9DF8010008B153
S3150000946001F022F905B0BDE8F08F00003463012059
S315000094704A460FF2A021FBF753BE38786946FCF73F
S315000094806DBD0000046E01202575000038780FF2CE
S31500009490E011FBF745BE328B38780FF26021FBF7FF
S315000094A03FBE38780FF24021FBF73ABE9DF8000028
S315000094B065287047FCF7D8FA07BD38B500F036F8CE
S315000094C00400DFF89851287818BF01240FF2A01184
S315000094D0FBF726FE01F0B7F901F06AFB02E02878F7
S315000094E0FFF7CCFFFFF7E2FFF9D101F070FB19E0BF
S315000094F038B500F01BF80400DFF86051287818BF73
S3150000950001240FF26C11FBF70BFE01F09CF901F040
S315000095106DFB02E02878FFF7B1FFFFF7C7FFF9D12F
S3150000952001F080FB0CB101F0BFF831BD00208DF8D1
S31500009530000001F08AB92DE9F041DFF820412078DA
S315000095400FF2D4210026FBF7EBFD0FF2DC250FF21C
S31500009550D028DFF8FC7015E0BA5D20784146FBF7AD
S31500009560DFFD711006EB91729210B6EB820007D107
S3150000957039788E4204DA207832462946FBF7D0FD48
S31500009580761CF6B23878401C8642E5DBBDE8F081F1
S3150000959000000000886301208068DFF8B4200168BD
S315000095A0117070472DE9F8430446A0680027DFF8DC
S315000095B0AC5006680FF27C28DFF89490761CF6B261
S315000095C0802E06DAA06800EB8701486809F80600D5
S315000095D005E028787B1C721E4146FBF7A1FD7F1C27
S315000095E0042FEBDBBDE8F18319481421017001213A
S315000095F04A1E4254491C8029FAD3704710B51248B6
S315000096000021016141618161C1610162144B1960F0
S31500009610144C216001814181134A116010BD80689C
S31500009620064A0078010018BF0121022851730F492C
S315000096300CBF0120002008707047000088630120DD
S31500009640F6670120846D0120046E012088ED01007B
S31500009650046D0120F76701200E7B01203463012091
