S01E00006170702D626F6F746C6F616465722D737069666C6173682E733337B6
S31508000000000400207500000881000008810000082F
S31508000010A70B0A0100000000010200690040000861
S31508000020040D00001B130008B51600087C0600081E
S31508000030B10A00084F0B0008890B0008430C00089A
S315080000408D090008810C0008470D00080000000013
S31508000050FFFFFFFF05480068202100EA010020B1E4
S315080000600348016842688D46104770472C000040D7
S3150800007000400008FFF7EEFF00F00DF800F042F828
S3150800008005E00000854670474348008870474FF4EE
S31508000090017000F09BB838B500F0C6F84FF20F04AF
S315080000A03E4D28B140F2052028806C80012032BDE3
S315080000B03B480068C10615D56888A0421ED1288825
S315080000C040F2022188421CBF40F20622904215D017
S315080000D040F2011188421EBFB0F58A7F40F2111125
S315080000E088420BD02F4C208A40F6A721884205D19A
S315080000F02068FFF7C7FF6068804700BF002032BD51
S315080001000000000038B50400274872B6016849089F
S315080001104900016000F0CEF821480068000910F097
S3150800012001000CBF2149224902E0CD2201F8012B2A
S31508000130204B9942F9D3204A2049214B03E012F873
S31508000140015B01F8015B9942F9D31E491E4A002357
S3150800015001E001F8013B9142FBD3104A53884FF264
S315080001600F05AB4240F205210AD113888B4205D010
S3150800017030B1180A012818BF022801D1194601E032
S3150800018004B90021044801804CF23C31518000F04A
S3150800019039FABDE832407AE7B40C002000000020A6
S315080001A02C00004000400008FCED00E000000020A4
S315080001B098000020000400205C1A000800040020B3
S315080001C00404002004040020BD0C002010B50E4ACB
S315080001D00E4C30211160216010230D4A0D4C116020
S315080001E02360010A00290C4908BF000208804FF263
S315080001F00F004880BFF35F8F084800210160416007
S3150800020007480849086010BD3020004030C8004043
S3150800021030C0004010E00040000000201C400040B4
S315080002200400FA050CED00E00020704780B500F0E8
S3150800023029FA0121062000F031FA062000F06BFAAF
S315080002400121072000F02AFA072000F059FA17487A
S31508000250016821F01001016001BD0000052800D9E0
S31508000260704710B5DFE800F01721030F1C17104C74
S315080002702088411E2180C0B9072000F057FA42F2B3
S315080002801071218010BD072000F045FABDE8104026
S31508000290062000F04BBABDE81040062000F030BA40
S315080002A0BDE81040062000F036BA10BD00BC00407C
S315080002B0B60C0020604951200860704738B50446DE
S315080002C05E48C1780329D4BF302560254FF4F07104
S315080002D0B1FBF5F0241A1E2CBCBF4FF40170FFF7D2
S315080002E075FF5748072101600022426082606C430F
S315080002F0544AE41C4FF00071A4081160641E44605F
S3150800030031BD4E4A01215170D8E72DE9F0414F4FD2
S315080003104D4D7888494E4FF6FF78404540F2DC54FB
S315080003201CD14B48018802237F22B81C00F01CFA16
S315080003307888404504BF02217980A869810703D4DB
S31508000340A86940F00200A8610120B07020467988AB
S315080003502960FFF7D6FF2046BDE8F081A869810726
S31508000360EED537480168CA0348BF00F051F8B0789F
S315080003700028F0D1A968A8687A8811F0010103D18C
S315080003800F2A08D2521C06E0830704D5387810B124
S31508000390022AC8BF521E90B20228B8BF022239707C
S315080003A07A80286879888842CED1A86900F0030047
S315080003B0032808D0A869204A40F00100A861012155
S315080003C0E961512010600020C6E710B521490446AE
S315080003D0087868B9C878072818BF092810D00328EC
S315080003E018BF11280CD013281CBF15280B2807D0B6
S315080003F01948016841F48071016001E000F0DCF9F8
S315080004002046FFF782FF0100F8D110BD0220DCE785
S315080004100B480C4B0021416000228260016821F0E4
S315080004200201016005494A704FF000721A60887827
S3150800043008B100228A70704700800040B80C00207E
S3150800044010E000E004ED00E0044000400004002055
S31508000450581A000896070808384000400078704780
S31508000460002101608180C18001817047F8B504468A
S315080004700D461646002712E02068803020600021CD
S31508000480E1808020A1882081491CA18004F10A020C
S31508000490E088411CE180BBB2105CE8547F1CB8B20E
S315080004A0B0420CD2E08823899842EFD32068802294
S315080004B004F10A0100F04BFB0100DDD0F2BD00207B
S315080004C0F2BD1720704710B5044600F0E3F8204641
S315080004D0BDE8104000F067BD2DE9F047A4B000F074
S315080004E04BFD00F0D7F800F0A1FD0121684600F0A9
S315080004F0A5FDDFF8088108F1800500206860A8607E
S3150800050000F044FA00280FBFE8608168E960408877
S315080005102880684600F062FE002807463FD1BDF8ED
S3150800052006102878BDF80460694401F10A098107B4
S31508000530F4B20ED5E96861B1686822184F1E22EA3E
S31508000540070710B1A868B84203D2384600F098FBEE
S31508000550AF605FFA86FA68685246494600F014FBAF
S31508000560074618BB68685246414600F0F0FA002074
S3150800057000E0401CF1B2884218DA18F8001019F8A1
S3150800058000209142F5D083270420FFF767FE01215A
S31508000590384600F0A9FD384624B0BDE8F08717288C
S315080005A002D01B2FB5D0EFE70020F5E768682418BE
S315080005B0002F6C60ADD0F4E778B5D9B0044636A8FC
S315080005C0FFF74EFF012100914FF402630C4A36A94A
S315080005D001A800F0A2FE00BF0FF2A00524A600F0B5
S315080005E059F8200014BF3246002201A9284601F016
S315080005F061F85028F3D05AB070BD0000240C0020D2
S315080006000404002038B5FFF73FFD044601F076F8EC
S31508000610B4F58A7F40F2111508D100F0ADFC00F060
S31508000620EDFC0028FBD02846FFF7D0FDFFF7FEFDBE
S3150800063000F03EFA18B14FF40170FFF7C7FD00F05D
S3150800064029F840F20110844218BFAC4209D0B4F52B
S315080006508A7F1FBF40F20520844240F203218C4264
S3150800066001D1012000E0002001F04AF8002032BD47
S31508000670D9180008151900085D0400086D0400085B
S31508000680C30400081B48012181604EF6BE22426061
S31508000690016070471849012008607047F0B5C20824
S315080006A05202164CA518830010F0040014BF6E6899
S315080006B0A65803F00C030F279F40BE4399403143C9
S315080006C008B16960F0BDA150F0BD0C4B012200F0E5
S315080006D00701C00803EB40208A4042617047074B78
S315080006E0012200F00701C00803EB40208A4002619E
S315080006F070470000006000400860004000B00040FD
S315080007001149C20801EB4223012100F0070001FA52
S3150800071000F0586170470C49C20801EB42230121D9
S3150800072000F0070001FA00F018617047C108064A90
S3150800073002EB41210122CB6800F0070002FA00F023
S315080007405840C8607047000000B0004038B51546EC
S315080007507F2A08BF0025154C21431A4605FB0311BD
S31508000760BDE8384001F010B870B51E0004461546BD
S315080007701BD04BF23462914211D1092E28BF0826AC
S3150800078033467F2240F61201FFF7E0FF4FEA0602E2
S3150800079007A1204601F012F838B940F2A271334693
S315080007A02A462046BDE87040D0E770BD000008081C
S315080007B0FFFFFFFFFFFFFFFF07490A68032809D36A
S315080007C04B6D43F001034B650B689B1AC3F3130388
S315080007D08342F9D3704700003820004010B504461C
S315080007E002E0FF2000F0FCFF2046441EC0B20028AD
S315080007F0F7D110BD10B5044601E000F0F7FF20461A
S31508000800441EC0B20028F8D110BD10B50446000237
S31508000810000E00F0E5FF2004000E00F0E1FFE0B254
S31508000820BDE8104000F0DCBF80B501E080B5FF20D0
S3150800083000F0D6FFBDE8014000F0D8BF80B500F053
S3150800084082FA0028FBD101BD70B500F0D6FF9F20C3
S31508000850FFF7EAFFFFF7EAFF05460220FFF7BEFFAC
S3150800086000F0C4FF064600F0C1FF40EA062400F087
S31508000870C6FF012D0AD01F2D3ED0202D4FD09D2D0D
S3150800088060D0C22D15D0EF2D06D072E044F21400C8
S3150800089084426ED1012070BD43F21200844204D016
S315080008A044F21400844202D063E0022070BD0320A3
S315080008B070BD42F21200241A10D0641E10D0641EB5
S315080008C010D0641E12D04FF4A460241A10D040F23F
S315080008D0DF20241A08D0E41E0CD04AE0042070BD9C
S315080008E0052070BD062070BD072070BD082070BDAC
S315080008F0092070BD0A2070BD44F20140844208D028
S3150800090044F20150844208D048F20140844202D0A1
S315080009102FE00B2070BD0C2070BD0D2070BD42F27B
S315080009201200241A06D0641E06D0641E06D0641E61
S3150800093006D01EE00E2070BD0F2070BD102070BDC1
S31508000940112070BD44F20900241A08D0E41F08D00B
S31508000950641E08D0641E08D0641E08D009E0122060
S3150800096070BD132070BD142070BD152070BD1620F3
S3150800097070BD002070BD80B500F03FFF0620FFF770
S3150800098053FFBDE8014000F03ABF000080B5FFF70D
S3150800099055FFFFF759FF401E15284ED8DFE800F02F
S315080009A00B0E1114171A1D202326292C2F32353821
S315080009B03B3E4144474A0FF2B03002BD0FF2C03009
S315080009C002BD0FF2D43002BD0FF2E43002BD0FF2C1
S315080009D0F83002BD0FF2084002BD0FF21C4002BDFE
S315080009E00FF22C4002BD0FF2404002BD0FF25040FC
S315080009F002BD0FF2644002BD0FF2744002BD0FF251
S31508000A00884002BD0FF2984002BD0FF2AC4002BD0D
S31508000A100FF2BC4002BD0FF2D04002BD0FF2E0401B
S31508000A2002BD0FF2F44002BD0FF2045002BD0FF2F0
S31508000A30185002BD0FF2285002BD002002BD00006A
S31508000A4010B50446FFF7FAFE14B9FFF7FDFE05E0F8
S31508000A502078010002D1FFF7F7FE2070401E152806
S31508000A6024D8DFE800F01A141A14171A1A1D1D20C4
S31508000A7017171A14171A1D0B0E1114174FF40040E6
S31508000A8010BD4FF4803010BD4FF4003010BD4FF448
S31508000A90802010BD4FF4002010BD4FF4801010BD0B
S31508000AA04FF4001010BD4FF4000010BD002010BD1B
S31508000AB010B500F0BBFE00F0A6FE00F0CCFE00F07C
S31508000AC0CEFE42F21074204600F0C2FE00F095FEFB
S31508000AD0AB20FFF7A9FE00F092FE204600F0B8FE14
S31508000AE0FFF7B2FE08B9862010BD0B3803280BD2D3
S31508000AF0FFF741FF00F081FE0120FFF795FE002079
S31508000B00FFF792FE00F07BFE002010BD38B50446C4
S31508000B10B4F5004F0D46104603D2C4F50041A9426C
S31508000B2006D2FFF78DFF844204D2041BAC4201D3E0
S31508000B30012032BD002032BD10B50C46FFF774FE09
S31508000B402046FFF762FEBDE81040032052E670B566
S31508000B500D4600F071F808B9852070BDFFF76EFEE6
S31508000B6000F04BFE21460320FFF7E6FF03E0FFF700
S31508000B705DFE05F8010B3046461E80B20028F6D108
S31508000B8000F03DFE002070BD2DE9F84F894600F0C3
S31508000B9053F808B985203DE0FFF750FE00F02DFE1A
S31508000BA021460320FFF7C8FF37463846471E80B25E
S31508000BB090B3FFF73BFEFF28F7D087202AE02D1BCE
S31508000BC004E0BE4201DA354600E04546B0B208B355
S31508000BD0FFF734FEFFF7CFFE00F00FFE2146022096
S31508000BE0FFF7AAFFAA46CB4603E01BF8010BFFF75F
S31508000BF01BFE5046A0F1010A80B20028F5D100F08C
S31508000C00FEFDA8B20419761BB0B2ADB2B842A9442B
S31508000C10DBDAD8E7BDE8F28F00F0F1FD200640F2F6
S31508000C2001174FF48078CCD0250A2D0205F580757A
S31508000C303119A942C3D2C6E71646044600223146F0
S31508000C4064E780B5FFF7FAFD00F0D7FDB920FFF796
S31508000C50EBFD00F0D4FDBDE8014000F003BE38B559
S31508000C6004460D46FFF7EAFDFFF785FE00F0C5FDD1
S31508000C7029462046FFF760FFBDE8314000F0BFBDBA
S31508000C802DE9F8430C46002105468DF80010684604
S31508000C90FFF7D6FE9DF800108046A1F10E0240F639
S31508000CA0FF764FF6FF70042A4FF48037814638BF27
S31508000CB0064606D3123902293CBF4FF4004747F6C9
S31508000CC0FF79344218BF82203BD1354218BF8120B4
S31508000CD037D16A46A1B22846FFF718FF08B985201A
S31508000CE02FE0ADB9444513D1FFF7A8FDFFF743FE42
S31508000CF000F083FDC720FFF797FD00F080FD1FE099
S31508000D0029462020FFF7ABFF05F58055A4F580544A
S31508000D10002C18BF15EA090FF2D1BC420ED329469A
S31508000D20D820FFF79CFF7D19E41BF6E7294620200B
S31508000D30FFF795FF05F58055A4F58054002CF5D1ED
S31508000D400020BDE8F28310B500F057FD0520FFF737
S31508000D506BFDFFF76BFD044600F051FD14F0010032
S31508000D6018BF012010BD0000020203009A01003CD2
S31508000D7000100000000010006019000801000000C3
S31508000D80020203009A010008001000000000040097
S31508000D906C19000801000000020203009A010018FD
S31508000DA0001000000000100078190008010000007B
S31508000DB0020203009A01340F00100000000004002C
S31508000DC08419000801000000020203009A01001EAF
S31508000DD0001000000000080090190008010000003B
S31508000DE0020203009A01003C0010000000001000F7
S31508000DF09C19000801000000020203009A0100780D
S31508000E000010000000001000A819000801000000EA
S31508000E10020203009A01007800100000000020007A
S31508000E20B419000801000000020203009A010050EC
S31508000E300010000000002000C01900080100000092
S31508000E40020213009A01F000001000000000800062
S31508000E50CC19000801000000020203009A01001CD8
S31508000E600010000000000800D81900080100000062
S31508000E70020203009A01003000100000000008007A
S31508000E80E419000801000000020203009A0100703C
S31508000E900010000000001000F01900080100000012
S31508000EA002020300000C0018000001000000040004
S31508000EB0FC1900080100000002020300000C0028CB
S31508000EC00000010000000800041A000801000000E4
S31508000ED002020300000C0050000001000000100090
S31508000EE00C1A00080100000002020300000C00A012
S31508000EF00000010000002000141A0008010000008C
S31508000F00020203009A01000200100000008000009F
S31508000F101C1A000801000000020203009A010004DE
S31508000F200010000000000100281A00080100000057
S31508000F30020203009A0100060010000000000200E9
S31508000F40341A000801000000020203009A01000892
S31508000F500010000000000400401A0008010000000C
S31508000F60020203009A01000C0010000000000800AD
S31508000F704C1A00080100000080B529486821416123
S31508000F80022282600121016009200921FFF786FB00
S31508000F90BDE8044004210A20FFF780BB2148016808
S31508000FA04A06FCD570472049CA685307FCD508602D
S31508000FB0704710B503E000F01CF81160401C01787A
S31508000FC00029F8D110BD10B501090A29B4BF30317E
S31508000FD0373100F00EF800F00F00C9B20A28116088
S31508000FE0B4BF30303730D1684B07FCD5C0B210607B
S31508000FF010BD0D4AD3685C07FBD5704709480168E0
S3150800100011F0020018BF012070470749CA68920705
S3150800101003D5096801700020704701207047000059
S3150800102054C8004048C800403CC8004080B56846DF
S31508001030FFF7EBFF0028FAD001BD0000017001227E
S3150800104001290CBF802140218180427000218270D5
S31508001050C18001810E22224801608262036823F062
S3150800106010030360416341620121416170472DE924
S31508001070F0411B4F1B4E0546386840080C46400099
S3150800108038604FF0FF3190463160C7F82C80002059
S315080010907862396841F001013960FFF7FBFA012DE2
S315080010A01BD17CB9FFF7AAFF88B93068C107F4D508
S315080010B05FEA0800F1D0386840084000386016201A
S315080010C0BDE8F0812046FFF7A0FF0028EDD138687B
S315080010D04008400038600020F2E70120F0E70000F1
S315080010E000F0004000A8004038B504460D4600F060
S315080010F009F800F007F82A462146BDE838401820C6
S31508001100FFF7E1B92A4621461820FFF7DCB97CB576
S315080011100446002020814AF6B43220786946FFF753
S31508001120A6FF08B11C2076BD9DF80000032818BF4D
S31508001130182801D1182076BD042801D1172076BDBC
S31508001140012801D0212076BD002500E06D1CA1886C
S31508001150E8B2091D88423EDA04F10A010144207802
S3150800116040F2DD22FFF783FF0028EFD0262076BD68
S31508001170014604F10C00EAB26D1C805C00F076FBB7
S31508001180A288E9B29142F3D3A37AE17ACD18FF2D6A
S3150800119001D0222076BD04F10C05AE5CB6EB102F0B
S315080011A001D0232076BDA118C0B2497B814201D067
S315080011B0242076BDA078834207D0401EC0B2834261
S315080011C001D1272076BD252076BD0220921CE0801D
S315080011D02281002076BD00250020D1E738B50546D6
S315080011E06878012804D025D303283FD01AD321E0F4
S315080011F0297801293CD13B246846FFF706FF0028D9
S31508001200FAD04320FFF7CFFE287840F2DD220021EE
S31508001210FFF72DFF60B32046441EC0B20028F0D168
S315080012201B2032BDFFF702FF00F03BF8A878401CF0
S31508001230A8701FE0182032BDA00605D52A78A9781F
S315080012401520FFF740F907E0600622D4182C18BFCE
S315080012501C2C1ED0172C05D064B90320FEF7FEFF00
S31508001260002032BD00F01DF803206870172032BD3B
S31508001270022068702846FFF74AFF040018BFFFF7E8
S31508001280D5FE272CD8D1A8782A78411EC9B20620BF
S31508001290D7E720462978FFF727FF042068702046FD
S315080012A032BD2A78A9780620FFF70DB9F8B50446A5
S315080012B00D4616461F4607E03046A047294600F069
S315080012C0E7FA05467F1E761CB8B20028F4D12846F0
S315080012D0F2BD38B50C461546014605E014F8010B73
S315080012E000F0D6FA01466D1EA8B20028F6D10846C7
S315080012F032BDF8B504460D4616461F4628682368CB
S315080013003A4631469847040005D1E8683A463146D8
S31508001310FFF7DFFFE8602046F2BD78B589B00446DE
S315080013200E98A072238162600D46022228686946DB
S31508001330FFF70DFCBDF8000050B32868202201A96C
S31508001340FFF705FC00200FF2A83101AA135C0E5C1A
S31508001350B3421DD1401C0828F8DBBDF80C0040BA82
S31508001360B0B9079801BA202912D306BAFFF70EFBBF
S31508001370C06886420CD2202201A94FF0FF30FFF741
S31508001380A8FFDFF81813884202D1079800BA286028
S3150800139025604FF0FF310020E16020740AB070BD6F
S315080013A02DE9F84F8B4605469BF81B70D068BB495C
S315080013B0802FA8BF8027884254D11C0050D0D4F86B
S315080013C008804FF0FF394FF0000A0BEB4A0000F196
S315080013D0480100910E7810E0B0B2FF2817D0FFF749
S315080013E059F9320452094FF4006342F00062494643
S315080013F04046FFF75BFF8146761C00984178B2B2FB
S315080014009142E9D20AF1010ABAF1060FDDDBDBF8EF
S3150800141044006FEA0901884224D1A968636808BABA
S315080014207A0859469847C8B9E868A96806BA0ABA48
S31508001430A0683B464FF0FF31FFF738FFC0438642AE
S315080014400CD140F6A720ABF810000122A968636802
S3150800145008BA0BF110011030984708B1422002E093
S31508001460172000E04320BDE8F28F2DE9FE4F0E4617
S31508001470D6F804803589ADF8005014468246042310
S315080014804246FFF736FF010031D1B8F80000B8F838
S31508001490021040BA4DBA1FFA80F9ADB2E80705D571
S315080014A04FF20861894518BF462020D140F6210031
S315080014B08542A8BF4E2079DA002D76D0B9F1000F03
S315080014C006F13C07DFF8D8B10ED04FF20862B9EB47
S315080014D002016FD040F2FC52891A00F0C180FF3930
S315080014E07CD0FE397AD0D3E0307C08B151205DE05B
S315080014F08D2D28BF4F2059D22B4606F1180200F031
S31508001500D6F8010052D1FA78802AA8BF802202F1C3
S315080015100C00854201BF308B40BA00F47F40B0F51D
S31508001520007F45D1708B40BA4EF25031884202BFD7
S31508001530B08E40F6A72188423AD1F08E00F47F415A
S31508001540B1F5807F01BFF16909BADBF81C30994211
S315080015502ED1BBF8181040F2032399420DD1B0F5ED
S31508001560847F25DB786C410522D14E4B4E4C181AE8
S31508001570A0421DD2B0F5005F1AD34FF6FF70B086B1
S3150800158006F124014FF0FF30FFF7A3FE316A09BACE
S31508001590C943884204BF3878042809D178780D28C9
S315080015A018BF062804D1012030740020BDE8FE8F3C
S315080015B04520FBE7307C002854D0BDF800702C4647
S315080015C0BC42B4BF25463D462B4600F06FF80100E5
S315080015D0ECD1641BA4B2002CF2D1E6E7307C0028DB
S315080015E040D0042300F062F80100DFD1D8F80000EB
S315080015F0DBF81C1000BA01902D1F8842ADB238BF27
S315080016004820D3D3F96B2818884228BF4920CDD261
S315080016104FF6035081453DD1002C3BD001992268F5
S3150800162002209047002835D04A20BFE734B16368C6
S315080016304FEA5B0241463846984778B9A5EB0B0551
S31508001640ADB25F44002DB0D04D45B4BFAB46CB46D6
S315080016505B4600F02BF80100E8D0A7E74B20A5E78A
S31508001660307C08B94120A1E7042D18BF4C209DD134
S315080016707268042300F01BF8010097D1234632460E
S3150800168006F1240106F1140003B0BDE8F04F87E621
S3150800169044208BE7BDF80090019FD3E7E320BBDE2B
S315080016A0000000080000080801A00700424631466D
S315080016B050461EE670B50D4604462889802816460B
S315080016C003DA4F2070BDA87A78B9324629462046F3
S315080016D0FFF7CBFE0028F6D0172807D128686168DF
S315080016E08847172802D1002070BD502070BD000021
S315080016F0534C41424942522000000000FEF786BE84
S3150800170010B504460020FEF7A9FD24BB0020FEF70D
S3150800171053FF50B90120FEF74FFF30B90520FEF7F9
S315080017209DFD40F20120FEF751FD0420FEF796FDCF
S315080017300120FEF793FDBDE8104040F20320FEF7B6
S3150800174045BD00BF0CA0FFF734FCFFF727FC40F2AD
S315080017500220FEF73BFDFEF7BFFE0400F1D000BFF6
S3150800176007A0FFF726FC2046FFF72DFC01A0FFF790
S3150800177020FCF0E70D0A00000D0A4F6B0D0A000069
S315080017800D0A45525220000010B5814212D210446B
S315080017901144401E491E93B2002B1EBF11F8013991
S315080017A000F80139521EF6D110BD11F8014B00F8A8
S315080017B0014B521E93B2002BF7D110BD10B503464C
S315080017C000E0521E90B218B100F003F8F9D0001BE1
S315080017D010BD13F8010B11F8014BA0427047000029
S315080017E017494A685307FCD508607047144841688A
S315080017F08A07FCD50068C0B27047124900E0124952
S3150800180010200860704780B509210920FEF746FFB9
S3150800181004210A20FEF742FF09210B20FEF73EFFAE
S31508001820BDE8044001210C20FEF738BF0748002117
S31508001830C160016141601022426002210160704767
S315080018403CC8004014B2004010B2004054C80040E2
S3150800185080B2FEF7B1BF01210F20FEF71FBF0F2090
S31508001860FEF73DBF0F20FEF730BF00000A0A42EA26
S3150800187001225040C0F30311484080EA003041017C
S315080018800206C9B2D20E41EA0221484080B2704728
S315080018900A0A484000F0FF0008214308C007184616
S315080018A044BF034B5840491EF7D1504070470000CB
S315080018B02083B8ED2748018A40F6A772914204BFF3
S315080018C0408A10F47F4F03D1022801DB01207047BC
S315080018D00020704700000000F8B504461C4E0120A1
S315080018E030700D46FFF7E6FF18B94FF40170FEF7A2
S315080018F06DFC1848876A294644F48070B847002169
S31508001900317000BF14A618B9294644F40070B847C8
S31508001910305CF2BD2DE9F041044688465600FFF7D3
S31508001920C9FF18B94FF40170FEF750FCDFF8240020
S3150800193009A5476A0023324641462046B84720B9DA
S315080019403346002241462046B847285CBDE8F08168
S31508001950BC0C002000000808000202024B4B464758
S31508001960533235464C3230384B0000005732355822
S315080019703230425600000000573235513830425650
S31508001980000000004D5832354C32303036450000E4
S315080019904D5832354C343030364500004D583235C6
S315080019A04C383030364500004D58323552383033D1
S315080019B0354600004D5832354C3136303645000034
S315080019C04D58323555313633354500004D58323588
S315080019D052363433354600004154323544463034A5
S315080019E0314100004154323553463034310000004D
S315080019F04154323544463038314100004D32355075
S31508001A00323000004D323550343000004D323550FA
S31508001A10383000004D3235503136000049533235E2
S31508001A204C51303235420000495332354C5135312C
S31508001A3032420000495332354C51303130420000B1
S31508001A40495332354C513032304200004953323511
S31508001A504C51303430420000EE0800000100FFFF10
S705080000757D
